{
  "contractName": "auctionExecutor",
  "abi": [
    {
      "constant": true,
      "inputs": [],
      "name": "COMPLETED",
      "outputs": [
        {
          "name": "",
          "type": "uint8"
        }
      ],
      "payable": false,
      "stateMutability": "view",
      "type": "function",
      "signature": "0x4ce6c24a"
    },
    {
      "constant": true,
      "inputs": [
        {
          "name": "",
          "type": "uint256"
        }
      ],
      "name": "auctions",
      "outputs": [
        {
          "name": "",
          "type": "address"
        }
      ],
      "payable": false,
      "stateMutability": "view",
      "type": "function",
      "signature": "0x571a26a0"
    },
    {
      "constant": true,
      "inputs": [],
      "name": "ONGOING",
      "outputs": [
        {
          "name": "",
          "type": "uint8"
        }
      ],
      "payable": false,
      "stateMutability": "view",
      "type": "function",
      "signature": "0xf1a22c61"
    },
    {
      "inputs": [
        {
          "name": "_rating",
          "type": "address"
        }
      ],
      "payable": false,
      "stateMutability": "nonpayable",
      "type": "constructor",
      "signature": "constructor"
    },
    {
      "payable": true,
      "stateMutability": "payable",
      "type": "fallback"
    },
    {
      "constant": false,
      "inputs": [
        {
          "name": "_providersNumber",
          "type": "uint8"
        },
        {
          "name": "tempFileSize",
          "type": "uint8"
        },
        {
          "name": "tempCollateralAmount",
          "type": "uint256"
        },
        {
          "name": "tempRootHash",
          "type": "bytes32"
        }
      ],
      "name": "initAuction",
      "outputs": [
        {
          "name": "initMessage",
          "type": "bytes32"
        }
      ],
      "payable": true,
      "stateMutability": "payable",
      "type": "function",
      "signature": "0x7ed5cf79"
    },
    {
      "constant": true,
      "inputs": [
        {
          "name": "_id",
          "type": "uint256"
        }
      ],
      "name": "getAuctionInfo",
      "outputs": [
        {
          "name": "tempProvider",
          "type": "address[]"
        },
        {
          "name": "tempClient",
          "type": "address"
        },
        {
          "name": "tempPrice",
          "type": "uint256[]"
        },
        {
          "name": "tempProvidersNumber",
          "type": "uint8"
        },
        {
          "name": "tempStartTime",
          "type": "uint256"
        },
        {
          "name": "tempEndTime",
          "type": "uint256"
        },
        {
          "name": "tempStatus",
          "type": "bytes32"
        },
        {
          "name": "tempFileSize",
          "type": "uint8"
        },
        {
          "name": "tempCollateralAmount",
          "type": "uint256"
        },
        {
          "name": "tempRootHash",
          "type": "bytes32"
        },
        {
          "name": "infoMessage",
          "type": "bytes32"
        }
      ],
      "payable": false,
      "stateMutability": "view",
      "type": "function",
      "signature": "0xfc3fc4ed"
    },
    {
      "constant": false,
      "inputs": [
        {
          "name": "_id",
          "type": "uint256"
        }
      ],
      "name": "bid",
      "outputs": [
        {
          "name": "bidMessage",
          "type": "bytes32"
        }
      ],
      "payable": true,
      "stateMutability": "payable",
      "type": "function",
      "signature": "0x454a2ab3"
    },
    {
      "constant": false,
      "inputs": [
        {
          "name": "_id",
          "type": "uint256"
        }
      ],
      "name": "completeAuction",
      "outputs": [
        {
          "name": "",
          "type": "bytes32"
        }
      ],
      "payable": false,
      "stateMutability": "nonpayable",
      "type": "function",
      "signature": "0x21b62886"
    },
    {
      "constant": true,
      "inputs": [
        {
          "name": "_id",
          "type": "uint8"
        }
      ],
      "name": "returnStringStatus",
      "outputs": [
        {
          "name": "",
          "type": "bytes32"
        }
      ],
      "payable": false,
      "stateMutability": "pure",
      "type": "function",
      "signature": "0xd2d52389"
    }
  ],
  "bytecode": "0x60806040526000805534801561001457600080fd5b50604051602080613d188339810180604052602081101561003457600080fd5b810190808051906020019092919050505080600260006101000a81548173ffffffffffffffffffffffffffffffffffffffff021916908373ffffffffffffffffffffffffffffffffffffffff16021790555050613c82806100966000396000f3fe60806040526004361062000097576000357c0100000000000000000000000000000000000000000000000000000000900463ffffffff16806321b628861462000099578063454a2ab314620000ec5780634ce6c24a1462000131578063571a26a014620001655780637ed5cf7914620001e4578063d2d52389146200024d578063f1a22c6114620002a3578063fc3fc4ed14620002d7575b005b348015620000a657600080fd5b50620000d660048036036020811015620000bf57600080fd5b81019080803590602001909291905050506200042e565b6040518082815260200191505060405180910390f35b6200011b600480360360208110156200010457600080fd5b810190808035906020019092919050505062000775565b6040518082815260200191505060405180910390f35b3480156200013e57600080fd5b506200014962002036565b604051808260ff1660ff16815260200191505060405180910390f35b3480156200017257600080fd5b50620001a2600480360360208110156200018b57600080fd5b81019080803590602001909291905050506200203b565b604051808273ffffffffffffffffffffffffffffffffffffffff1673ffffffffffffffffffffffffffffffffffffffff16815260200191505060405180910390f35b6200023760048036036080811015620001fc57600080fd5b81019080803560ff169060200190929190803560ff16906020019092919080359060200190929190803590602001909291905050506200206e565b6040518082815260200191505060405180910390f35b3480156200025a57600080fd5b506200028d600480360360208110156200027357600080fd5b81019080803560ff16906020019092919050505062002189565b6040518082815260200191505060405180910390f35b348015620002b057600080fd5b50620002bb62002220565b604051808260ff1660ff16815260200191505060405180910390f35b348015620002e457600080fd5b506200031460048036036020811015620002fd57600080fd5b810190808035906020019092919050505062002225565b60405180806020018c73ffffffffffffffffffffffffffffffffffffffff1673ffffffffffffffffffffffffffffffffffffffff168152602001806020018b60ff1660ff1681526020018a81526020018981526020018881526020018760ff1660ff16815260200186815260200185815260200184815260200183810383528e818151815260200191508051906020019060200280838360005b83811015620003cb578082015181840152602081019050620003ae565b5050505090500183810382528c818151815260200191508051906020019060200280838360005b838110156200040f578082015181840152602081019050620003f2565b505050509050019d505050505050505050505050505060405180910390f35b6000816001600082815260200190815260200160002060009054906101000a900473ffffffffffffffffffffffffffffffffffffffff1673ffffffffffffffffffffffffffffffffffffffff166359dc735c6040518163ffffffff167c010000000000000000000000000000000000000000000000000000000002815260040160206040518083038186803b158015620004c757600080fd5b505afa158015620004dc573d6000803e3d6000fd5b505050506040513d6020811015620004f357600080fd5b810190808051906020019092919050505073ffffffffffffffffffffffffffffffffffffffff163373ffffffffffffffffffffffffffffffffffffffff16141515620005cd576040517f08c379a00000000000000000000000000000000000000000000000000000000081526004018080602001828103825260298152602001807f4f6e6c792074686520636c69656e742063616e20636f6d706c6574652074686581526020017f2061756374696f6e2e000000000000000000000000000000000000000000000081525060400191505060405180910390fd5b6001600084815260200190815260200160002060009054906101000a900473ffffffffffffffffffffffffffffffffffffffff1673ffffffffffffffffffffffffffffffffffffffff16632e49d78b60026040518263ffffffff167c0100000000000000000000000000000000000000000000000000000000028152600401808260ff1660ff168152602001915050600060405180830381600087803b1580156200067757600080fd5b505af11580156200068c573d6000803e3d6000fd5b505050506001600084815260200190815260200160002060009054906101000a900473ffffffffffffffffffffffffffffffffffffffff1673ffffffffffffffffffffffffffffffffffffffff1663ccb98ffc426040518263ffffffff167c010000000000000000000000000000000000000000000000000000000002815260040180828152602001915050600060405180830381600087803b1580156200073357600080fd5b505af115801562000748573d6000803e3d6000fd5b505050507f41756374696f6e20636f6d706c65746564000000000000000000000000000000915050919050565b600081600260ff166001600083815260200190815260200160002060009054906101000a900473ffffffffffffffffffffffffffffffffffffffff1673ffffffffffffffffffffffffffffffffffffffff16634e69d5606040518163ffffffff167c010000000000000000000000000000000000000000000000000000000002815260040160206040518083038186803b1580156200081357600080fd5b505afa15801562000828573d6000803e3d6000fd5b505050506040513d60208110156200083f57600080fd5b810190808051906020019092919050505060ff161415620008c8576040517f08c379a00000000000000000000000000000000000000000000000000000000081526004018080602001828103825260148152602001807f41756374696f6e20697320636f6d706c6574656400000000000000000000000081525060200191505060405180910390fd5b826001600082815260200190815260200160002060009054906101000a900473ffffffffffffffffffffffffffffffffffffffff1673ffffffffffffffffffffffffffffffffffffffff166359dc735c6040518163ffffffff167c010000000000000000000000000000000000000000000000000000000002815260040160206040518083038186803b1580156200095f57600080fd5b505afa15801562000974573d6000803e3d6000fd5b505050506040513d60208110156200098b57600080fd5b810190808051906020019092919050505073ffffffffffffffffffffffffffffffffffffffff163373ffffffffffffffffffffffffffffffffffffffff16141562000a3e576040517f08c379a00000000000000000000000000000000000000000000000000000000081526004018080602001828103825260128152602001807f436c69656e742063616e6e6f74206269642e000000000000000000000000000081525060200191505060405180910390fd5b60003411151562000ab7576040517f08c379a000000000000000000000000000000000000000000000000000000000815260040180806020018281038252601e8152602001807f5061796d656e74732073686f756c64206265206f7665722030204554482e000081525060200191505060405180910390fd5b600260009054906101000a900473ffffffffffffffffffffffffffffffffffffffff1673ffffffffffffffffffffffffffffffffffffffff16635a120d2f336040518263ffffffff167c0100000000000000000000000000000000000000000000000000000000028152600401808273ffffffffffffffffffffffffffffffffffffffff1673ffffffffffffffffffffffffffffffffffffffff16815260200191505060206040518083038186803b15801562000b7357600080fd5b505afa15801562000b88573d6000803e3d6000fd5b505050506040513d602081101562000b9f57600080fd5b81019080805190602001909291905050501562000c24576040517f08c379a00000000000000000000000000000000000000000000000000000000081526004018080602001828103825260168152602001807f42696464657220697320626c61636b6c69737465642e0000000000000000000081525060200191505060405180910390fd5b8360606001600083815260200190815260200160002060009054906101000a900473ffffffffffffffffffffffffffffffffffffffff1673ffffffffffffffffffffffffffffffffffffffff166370c3063d6040518163ffffffff167c010000000000000000000000000000000000000000000000000000000002815260040160006040518083038186803b15801562000cbd57600080fd5b505afa15801562000cd2573d6000803e3d6000fd5b505050506040513d6000823e3d601f19601f82011682018060405250602081101562000cfd57600080fd5b81019080805164010000000081111562000d1657600080fd5b8281019050602081018481111562000d2d57600080fd5b815185602082028301116401000000008211171562000d4b57600080fd5b5050929190505050905060008090505b81518160ff16101562000e5a573373ffffffffffffffffffffffffffffffffffffffff16828260ff1681518110151562000d9157fe5b9060200190602002015173ffffffffffffffffffffffffffffffffffffffff16141562000e4c576040517f08c379a00000000000000000000000000000000000000000000000000000000081526004018080602001828103825260298152602001807f42696464657220697320616c726561647920696e207468652070726f7669646581526020017f727327206c6973742e000000000000000000000000000000000000000000000081525060400191505060405180910390fd5b808060010191505062000d5b565b50600260009054906101000a900473ffffffffffffffffffffffffffffffffffffffff1673ffffffffffffffffffffffffffffffffffffffff1663dfc03505336040518263ffffffff167c0100000000000000000000000000000000000000000000000000000000028152600401808273ffffffffffffffffffffffffffffffffffffffff1673ffffffffffffffffffffffffffffffffffffffff16815260200191505060206040518083038186803b15801562000f1757600080fd5b505afa15801562000f2c573d6000803e3d6000fd5b505050506040513d602081101562000f4357600080fd5b810190808051906020019092919050505015156200105857600260009054906101000a900473ffffffffffffffffffffffffffffffffffffffff1673ffffffffffffffffffffffffffffffffffffffff166346e2577a336040518263ffffffff167c0100000000000000000000000000000000000000000000000000000000028152600401808273ffffffffffffffffffffffffffffffffffffffff1673ffffffffffffffffffffffffffffffffffffffff168152602001915050602060405180830381600087803b1580156200101957600080fd5b505af11580156200102e573d6000803e3d6000fd5b505050506040513d60208110156200104557600080fd5b8101908080519060200190929190505050505b60606001600088815260200190815260200160002060009054906101000a900473ffffffffffffffffffffffffffffffffffffffff1673ffffffffffffffffffffffffffffffffffffffff166370c3063d6040518163ffffffff167c010000000000000000000000000000000000000000000000000000000002815260040160006040518083038186803b158015620010f057600080fd5b505afa15801562001105573d6000803e3d6000fd5b505050506040513d6000823e3d601f19601f8201168201806040525060208110156200113057600080fd5b8101908080516401000000008111156200114957600080fd5b828101905060208101848111156200116057600080fd5b81518560208202830111640100000000821117156200117e57600080fd5b5050929190505050905060606001600089815260200190815260200160002060009054906101000a900473ffffffffffffffffffffffffffffffffffffffff1673ffffffffffffffffffffffffffffffffffffffff1663372522cc6040518163ffffffff167c010000000000000000000000000000000000000000000000000000000002815260040160006040518083038186803b1580156200122057600080fd5b505afa15801562001235573d6000803e3d6000fd5b505050506040513d6000823e3d601f19601f8201168201806040525060208110156200126057600080fd5b8101908080516401000000008111156200127957600080fd5b828101905060208101848111156200129057600080fd5b8151856020820283011164010000000082111715620012ae57600080fd5b505092919050505090506000600160008a815260200190815260200160002060009054906101000a900473ffffffffffffffffffffffffffffffffffffffff1673ffffffffffffffffffffffffffffffffffffffff1663ff38fe7a6040518163ffffffff167c010000000000000000000000000000000000000000000000000000000002815260040160206040518083038186803b1580156200135057600080fd5b505afa15801562001365573d6000803e3d6000fd5b505050506040513d60208110156200137c57600080fd5b810190808051906020019092919050505090508060ff16825110156200156c57600160008a815260200190815260200160002060009054906101000a900473ffffffffffffffffffffffffffffffffffffffff1673ffffffffffffffffffffffffffffffffffffffff166346e2577a336040518263ffffffff167c0100000000000000000000000000000000000000000000000000000000028152600401808273ffffffffffffffffffffffffffffffffffffffff1673ffffffffffffffffffffffffffffffffffffffff168152602001915050600060405180830381600087803b1580156200146b57600080fd5b505af115801562001480573d6000803e3d6000fd5b50505050600160008a815260200190815260200160002060009054906101000a900473ffffffffffffffffffffffffffffffffffffffff1673ffffffffffffffffffffffffffffffffffffffff166316e8875b346040518263ffffffff167c010000000000000000000000000000000000000000000000000000000002815260040180828152602001915050600060405180830381600087803b1580156200152757600080fd5b505af11580156200153c573d6000803e3d6000fd5b505050507f537563636573730000000000000000000000000000000000000000000000000097505050506200202d565b6000809050600080905060008090505b84518160ff161015620015de5782858260ff168151811015156200159c57fe5b90602001906020020151101515620015d057848160ff16815181101515620015c057fe5b9060200190602002015192508091505b80806001019150506200157c565b5081341015620019bc57848160ff16815181101515620015fa57fe5b9060200190602002015173ffffffffffffffffffffffffffffffffffffffff166108fc858360ff168151811015156200162f57fe5b906020019060200201519081150290604051600060405180830381858888f1935050505015801562001665573d6000803e3d6000fd5b50600160008c815260200190815260200160002060009054906101000a900473ffffffffffffffffffffffffffffffffffffffff1673ffffffffffffffffffffffffffffffffffffffff1663ea48ee7b826040518263ffffffff167c0100000000000000000000000000000000000000000000000000000000028152600401808260ff1660ff168152602001915050600060405180830381600087803b1580156200170f57600080fd5b505af115801562001724573d6000803e3d6000fd5b50505050600160008c815260200190815260200160002060009054906101000a900473ffffffffffffffffffffffffffffffffffffffff1673ffffffffffffffffffffffffffffffffffffffff1663f136fd08826040518263ffffffff167c0100000000000000000000000000000000000000000000000000000000028152600401808260ff1660ff168152602001915050600060405180830381600087803b158015620017d157600080fd5b505af1158015620017e6573d6000803e3d6000fd5b50505050600160008c815260200190815260200160002060009054906101000a900473ffffffffffffffffffffffffffffffffffffffff1673ffffffffffffffffffffffffffffffffffffffff166346e2577a336040518263ffffffff167c0100000000000000000000000000000000000000000000000000000000028152600401808273ffffffffffffffffffffffffffffffffffffffff1673ffffffffffffffffffffffffffffffffffffffff168152602001915050600060405180830381600087803b158015620018b957600080fd5b505af1158015620018ce573d6000803e3d6000fd5b50505050600160008c815260200190815260200160002060009054906101000a900473ffffffffffffffffffffffffffffffffffffffff1673ffffffffffffffffffffffffffffffffffffffff166316e8875b346040518263ffffffff167c010000000000000000000000000000000000000000000000000000000002815260040180828152602001915050600060405180830381600087803b1580156200197557600080fd5b505af11580156200198a573d6000803e3d6000fd5b505050507f50726f7669646572206c69737420616c74657265642e00000000000000000000995050505050506200202d565b8134141562001fb957600260009054906101000a900473ffffffffffffffffffffffffffffffffffffffff1673ffffffffffffffffffffffffffffffffffffffff166380fc9c0e336040518263ffffffff167c0100000000000000000000000000000000000000000000000000000000028152600401808273ffffffffffffffffffffffffffffffffffffffff1673ffffffffffffffffffffffffffffffffffffffff16815260200191505060206040518083038186803b15801562001a8157600080fd5b505afa15801562001a96573d6000803e3d6000fd5b505050506040513d602081101562001aad57600080fd5b810190808051906020019092919050505060ff16600260009054906101000a900473ffffffffffffffffffffffffffffffffffffffff1673ffffffffffffffffffffffffffffffffffffffff166380fc9c0e878460ff1681518110151562001b1157fe5b906020019060200201516040518263ffffffff167c0100000000000000000000000000000000000000000000000000000000028152600401808273ffffffffffffffffffffffffffffffffffffffff1673ffffffffffffffffffffffffffffffffffffffff16815260200191505060206040518083038186803b15801562001b9857600080fd5b505afa15801562001bad573d6000803e3d6000fd5b505050506040513d602081101562001bc457600080fd5b810190808051906020019092919050505060ff16101562001fb357848160ff1681518110151562001bf157fe5b9060200190602002015173ffffffffffffffffffffffffffffffffffffffff166108fc858360ff1681518110151562001c2657fe5b906020019060200201519081150290604051600060405180830381858888f1935050505015801562001c5c573d6000803e3d6000fd5b50600160008c815260200190815260200160002060009054906101000a900473ffffffffffffffffffffffffffffffffffffffff1673ffffffffffffffffffffffffffffffffffffffff1663ea48ee7b826040518263ffffffff167c0100000000000000000000000000000000000000000000000000000000028152600401808260ff1660ff168152602001915050600060405180830381600087803b15801562001d0657600080fd5b505af115801562001d1b573d6000803e3d6000fd5b50505050600160008c815260200190815260200160002060009054906101000a900473ffffffffffffffffffffffffffffffffffffffff1673ffffffffffffffffffffffffffffffffffffffff1663f136fd08826040518263ffffffff167c0100000000000000000000000000000000000000000000000000000000028152600401808260ff1660ff168152602001915050600060405180830381600087803b15801562001dc857600080fd5b505af115801562001ddd573d6000803e3d6000fd5b50505050600160008c815260200190815260200160002060009054906101000a900473ffffffffffffffffffffffffffffffffffffffff1673ffffffffffffffffffffffffffffffffffffffff166346e2577a336040518263ffffffff167c0100000000000000000000000000000000000000000000000000000000028152600401808273ffffffffffffffffffffffffffffffffffffffff1673ffffffffffffffffffffffffffffffffffffffff168152602001915050600060405180830381600087803b15801562001eb057600080fd5b505af115801562001ec5573d6000803e3d6000fd5b50505050600160008c815260200190815260200160002060009054906101000a900473ffffffffffffffffffffffffffffffffffffffff1673ffffffffffffffffffffffffffffffffffffffff166316e8875b346040518263ffffffff167c010000000000000000000000000000000000000000000000000000000002815260040180828152602001915050600060405180830381600087803b15801562001f6c57600080fd5b505af115801562001f81573d6000803e3d6000fd5b505050507f50726f7669646572206c69737420616c74657265642e00000000000000000000995050505050506200202d565b62002027565b6040517f08c379a00000000000000000000000000000000000000000000000000000000081526004018080602001828103825260138152602001807f426964206e6f74206869676820656e6f7567680000000000000000000000000081525060200191505060405180910390fd5b50505050505b50505050919050565b600281565b60016020528060005260406000206000915054906101000a900473ffffffffffffffffffffffffffffffffffffffff1681565b600033858584866200207f62002b77565b808673ffffffffffffffffffffffffffffffffffffffff1673ffffffffffffffffffffffffffffffffffffffff1681526020018560ff1660ff1681526020018460ff1660ff16815260200183815260200182815260200195505050505050604051809103906000f080158015620020fa573d6000803e3d6000fd5b50600160008054815260200190815260200160002060006101000a81548173ffffffffffffffffffffffffffffffffffffffff021916908373ffffffffffffffffffffffffffffffffffffffff16021790555060008081548092919060010191905055507f496e697469616c697a6174696f6e207375636365737366756c6c2e00000000009050949350505050565b600060018260ff161415620021c1577f4f6e676f696e670000000000000000000000000000000000000000000000000090506200221b565b60028260ff161415620021f7577f436f6d706c65746564000000000000000000000000000000000000000000000090506200221b565b7f537461747573206964206973206e6f742076616c69640000000000000000000090505b919050565b600181565b606060006060600080600080600080600080600160008d815260200190815260200160002060009054906101000a900473ffffffffffffffffffffffffffffffffffffffff1673ffffffffffffffffffffffffffffffffffffffff166370c3063d6040518163ffffffff167c010000000000000000000000000000000000000000000000000000000002815260040160006040518083038186803b158015620022cd57600080fd5b505afa158015620022e2573d6000803e3d6000fd5b505050506040513d6000823e3d601f19601f8201168201806040525060208110156200230d57600080fd5b8101908080516401000000008111156200232657600080fd5b828101905060208101848111156200233d57600080fd5b81518560208202830111640100000000821117156200235b57600080fd5b50509291905050509a50600160008d815260200190815260200160002060009054906101000a900473ffffffffffffffffffffffffffffffffffffffff1673ffffffffffffffffffffffffffffffffffffffff166359dc735c6040518163ffffffff167c010000000000000000000000000000000000000000000000000000000002815260040160206040518083038186803b158015620023fb57600080fd5b505afa15801562002410573d6000803e3d6000fd5b505050506040513d60208110156200242757600080fd5b81019080805190602001909291905050509950600160008d815260200190815260200160002060009054906101000a900473ffffffffffffffffffffffffffffffffffffffff1673ffffffffffffffffffffffffffffffffffffffff1663c828371e6040518163ffffffff167c010000000000000000000000000000000000000000000000000000000002815260040160206040518083038186803b158015620024d057600080fd5b505afa158015620024e5573d6000803e3d6000fd5b505050506040513d6020811015620024fc57600080fd5b81019080805190602001909291905050509650600160008d815260200190815260200160002060009054906101000a900473ffffffffffffffffffffffffffffffffffffffff1673ffffffffffffffffffffffffffffffffffffffff1663372522cc6040518163ffffffff167c010000000000000000000000000000000000000000000000000000000002815260040160006040518083038186803b158015620025a557600080fd5b505afa158015620025ba573d6000803e3d6000fd5b505050506040513d6000823e3d601f19601f820116820180604052506020811015620025e557600080fd5b810190808051640100000000811115620025fe57600080fd5b828101905060208101848111156200261557600080fd5b81518560208202830111640100000000821117156200263357600080fd5b50509291905050509850600160008d815260200190815260200160002060009054906101000a900473ffffffffffffffffffffffffffffffffffffffff1673ffffffffffffffffffffffffffffffffffffffff1663439f5ac26040518163ffffffff167c010000000000000000000000000000000000000000000000000000000002815260040160206040518083038186803b158015620026d357600080fd5b505afa158015620026e8573d6000803e3d6000fd5b505050506040513d6020811015620026ff57600080fd5b81019080805190602001909291905050509550600160008d815260200190815260200160002060009054906101000a900473ffffffffffffffffffffffffffffffffffffffff1673ffffffffffffffffffffffffffffffffffffffff1663ff38fe7a6040518163ffffffff167c010000000000000000000000000000000000000000000000000000000002815260040160206040518083038186803b158015620027a857600080fd5b505afa158015620027bd573d6000803e3d6000fd5b505050506040513d6020811015620027d457600080fd5b81019080805190602001909291905050509750600160008d815260200190815260200160002060009054906101000a900473ffffffffffffffffffffffffffffffffffffffff1673ffffffffffffffffffffffffffffffffffffffff16631322f7fa6040518163ffffffff167c010000000000000000000000000000000000000000000000000000000002815260040160206040518083038186803b1580156200287d57600080fd5b505afa15801562002892573d6000803e3d6000fd5b505050506040513d6020811015620028a957600080fd5b81019080805190602001909291905050509350600160008d815260200190815260200160002060009054906101000a900473ffffffffffffffffffffffffffffffffffffffff1673ffffffffffffffffffffffffffffffffffffffff1663315deeaa6040518163ffffffff167c010000000000000000000000000000000000000000000000000000000002815260040160206040518083038186803b1580156200295257600080fd5b505afa15801562002967573d6000803e3d6000fd5b505050506040513d60208110156200297e57600080fd5b81019080805190602001909291905050509250600160008d815260200190815260200160002060009054906101000a900473ffffffffffffffffffffffffffffffffffffffff1673ffffffffffffffffffffffffffffffffffffffff166380759f1f6040518163ffffffff167c010000000000000000000000000000000000000000000000000000000002815260040160206040518083038186803b15801562002a2757600080fd5b505afa15801562002a3c573d6000803e3d6000fd5b505050506040513d602081101562002a5357600080fd5b8101908080519060200190929190505050915062002b43600160008e815260200190815260200160002060009054906101000a900473ffffffffffffffffffffffffffffffffffffffff1673ffffffffffffffffffffffffffffffffffffffff16634e69d5606040518163ffffffff167c010000000000000000000000000000000000000000000000000000000002815260040160206040518083038186803b15801562002b0057600080fd5b505afa15801562002b15573d6000803e3d6000fd5b505050506040513d602081101562002b2c57600080fd5b810190808051906020019092919050505062002189565b94507f4f4b000000000000000000000000000000000000000000000000000000000000905091939597999b90929496989a50565b6040516110ce8062002b898339019056fe60806040523480156200001157600080fd5b5060405160a080620010ce833981018060405260a08110156200003357600080fd5b810190808051906020019092919080519060200190929190805190602001909291908051906020019092919080519060200190929190505050600260149054906101000a900460ff1660ff16604051908082528060200260200182016040528015620000ae5781602001602082028038833980820191505090505b5060009080519060200190620000c6929190620001d5565b50600260149054906101000a900460ff1660ff16604051908082528060200260200182016040528015620001095781602001602082028038833980820191505090505b50600190805190602001906200012192919062000264565b5084600260006101000a81548173ffffffffffffffffffffffffffffffffffffffff021916908373ffffffffffffffffffffffffffffffffffffffff16021790555082600260156101000a81548160ff021916908360ff160217905550816003819055508060048190555083600260146101000a81548160ff021916908360ff160217905550426005819055506001600760006101000a81548160ff021916908360ff160217905550505050505062000324565b82805482825590600052602060002090810192821562000251579160200282015b82811115620002505782518260006101000a81548173ffffffffffffffffffffffffffffffffffffffff021916908373ffffffffffffffffffffffffffffffffffffffff16021790555091602001919060010190620001f6565b5b509050620002609190620002b6565b5090565b828054828255906000526020600020908101928215620002a3579160200282015b82811115620002a257825182559160200191906001019062000285565b5b509050620002b29190620002fc565b5090565b620002f991905b80821115620002f557600081816101000a81549073ffffffffffffffffffffffffffffffffffffffff021916905550600101620002bd565b5090565b90565b6200032191905b808211156200031d57600081600090555060010162000303565b5090565b90565b610d9a80620003346000396000f3fe608060405260043610610153576000357c0100000000000000000000000000000000000000000000000000000000900463ffffffff1680623c99b7146101585780631322f7fa1461021d57806316e8875b1461024e5780632d7eae66146102895780632e49d78b146102c4578063315deeaa14610302578063372522cc1461032d5780633d4f04ad146103995780633e0a322d146103d4578063439f5ac21461040f57806346e2577a1461043a5780634ce6c24a1461048b5780634e69d560146104bc57806356abe851146104ed57806359dc735c146105b257806370c3063d1461060957806380759f1f146106755780638526690a146106a0578063a7b410e0146106f1578063c8002ee51461072f578063c828371e1461076d578063ccb98ffc14610798578063ea48ee7b146107d3578063f136fd0814610811578063f1a22c611461084f578063ff38fe7a14610880575b600080fd5b34801561016457600080fd5b5061021b6004803603602081101561017b57600080fd5b810190808035906020019064010000000081111561019857600080fd5b8201836020820111156101aa57600080fd5b803590602001918460208302840111640100000000831117156101cc57600080fd5b919080806020026020016040519081016040528093929190818152602001838360200280828437600081840152601f19601f8201169050808301925050505050505091929192905050506108b1565b005b34801561022957600080fd5b506102326108cb565b604051808260ff1660ff16815260200191505060405180910390f35b34801561025a57600080fd5b506102876004803603602081101561027157600080fd5b81019080803590602001909291905050506108e2565b005b34801561029557600080fd5b506102c2600480360360208110156102ac57600080fd5b8101908080359060200190929190505050610911565b005b3480156102d057600080fd5b50610300600480360360208110156102e757600080fd5b81019080803560ff16906020019092919050505061091b565b005b34801561030e57600080fd5b50610317610939565b6040518082815260200191505060405180910390f35b34801561033957600080fd5b50610342610943565b6040518080602001828103825283818151815260200191508051906020019060200280838360005b8381101561038557808201518184015260208101905061036a565b505050509050019250505060405180910390f35b3480156103a557600080fd5b506103d2600480360360208110156103bc57600080fd5b810190808035906020019092919050505061099b565b005b3480156103e057600080fd5b5061040d600480360360208110156103f757600080fd5b81019080803590602001909291905050506109a5565b005b34801561041b57600080fd5b506104246109af565b6040518082815260200191505060405180910390f35b34801561044657600080fd5b506104896004803603602081101561045d57600080fd5b81019080803573ffffffffffffffffffffffffffffffffffffffff1690602001909291905050506109b9565b005b34801561049757600080fd5b506104a0610a22565b604051808260ff1660ff16815260200191505060405180910390f35b3480156104c857600080fd5b506104d1610a27565b604051808260ff1660ff16815260200191505060405180910390f35b3480156104f957600080fd5b506105b06004803603602081101561051057600080fd5b810190808035906020019064010000000081111561052d57600080fd5b82018360208201111561053f57600080fd5b8035906020019184602083028401116401000000008311171561056157600080fd5b919080806020026020016040519081016040528093929190818152602001838360200280828437600081840152601f19601f820116905080830192505050505050509192919290505050610a3e565b005b3480156105be57600080fd5b506105c7610a58565b604051808273ffffffffffffffffffffffffffffffffffffffff1673ffffffffffffffffffffffffffffffffffffffff16815260200191505060405180910390f35b34801561061557600080fd5b5061061e610a82565b6040518080602001828103825283818151815260200191508051906020019060200280838360005b83811015610661578082015181840152602081019050610646565b505050509050019250505060405180910390f35b34801561068157600080fd5b5061068a610b10565b6040518082815260200191505060405180910390f35b3480156106ac57600080fd5b506106ef600480360360208110156106c357600080fd5b81019080803573ffffffffffffffffffffffffffffffffffffffff169060200190929190505050610b1a565b005b3480156106fd57600080fd5b5061072d6004803603602081101561071457600080fd5b81019080803560ff169060200190929190505050610b5e565b005b34801561073b57600080fd5b5061076b6004803603602081101561075257600080fd5b81019080803560ff169060200190929190505050610b7c565b005b34801561077957600080fd5b50610782610b9a565b6040518082815260200191505060405180910390f35b3480156107a457600080fd5b506107d1600480360360208110156107bb57600080fd5b8101908080359060200190929190505050610ba4565b005b3480156107df57600080fd5b5061080f600480360360208110156107f657600080fd5b81019080803560ff169060200190929190505050610bae565b005b34801561081d57600080fd5b5061084d6004803603602081101561083457600080fd5b81019080803560ff169060200190929190505050610bf0565b005b34801561085b57600080fd5b50610864610c13565b604051808260ff1660ff16815260200191505060405180910390f35b34801561088c57600080fd5b50610895610c18565b604051808260ff1660ff16815260200191505060405180910390f35b80600190805190602001906108c7929190610c2f565b5050565b6000600260159054906101000a900460ff16905090565b600181908060018154018082558091505090600182039060005260206000200160009091929091909150555050565b8060038190555050565b80600760006101000a81548160ff021916908360ff16021790555050565b6000600454905090565b6060600180548060200260200160405190810160405280929190818152602001828054801561099157602002820191906000526020600020905b81548152602001906001019080831161097d575b5050505050905090565b8060048190555050565b8060058190555050565b6000600654905090565b60008190806001815401808255809150509060018203906000526020600020016000909192909190916101000a81548173ffffffffffffffffffffffffffffffffffffffff021916908373ffffffffffffffffffffffffffffffffffffffff1602179055505050565b600281565b6000600760009054906101000a900460ff16905090565b8060009080519060200190610a54929190610c7c565b5050565b6000600260009054906101000a900473ffffffffffffffffffffffffffffffffffffffff16905090565b60606000805480602002602001604051908101604052809291908181526020018280548015610b0657602002820191906000526020600020905b8160009054906101000a900473ffffffffffffffffffffffffffffffffffffffff1673ffffffffffffffffffffffffffffffffffffffff1681526020019060010190808311610abc575b5050505050905090565b6000600354905090565b80600260006101000a81548173ffffffffffffffffffffffffffffffffffffffff021916908373ffffffffffffffffffffffffffffffffffffffff16021790555050565b80600260156101000a81548160ff021916908360ff16021790555050565b80600260146101000a81548160ff021916908360ff16021790555050565b6000600554905090565b8060068190555050565b60008160ff16815481101515610bc057fe5b9060005260206000200160006101000a81549073ffffffffffffffffffffffffffffffffffffffff021916905550565b60018160ff16815481101515610c0257fe5b906000526020600020016000905550565b600181565b6000600260149054906101000a900460ff16905090565b828054828255906000526020600020908101928215610c6b579160200282015b82811115610c6a578251825591602001919060010190610c4f565b5b509050610c789190610d06565b5090565b828054828255906000526020600020908101928215610cf5579160200282015b82811115610cf45782518260006101000a81548173ffffffffffffffffffffffffffffffffffffffff021916908373ffffffffffffffffffffffffffffffffffffffff16021790555091602001919060010190610c9c565b5b509050610d029190610d2b565b5090565b610d2891905b80821115610d24576000816000905550600101610d0c565b5090565b90565b610d6b91905b80821115610d6757600081816101000a81549073ffffffffffffffffffffffffffffffffffffffff021916905550600101610d31565b5090565b9056fea165627a7a723058208482118b9ad59ae11f10f2c4fadbd53ee074117b8e78eafe10024de91438ea070029a165627a7a723058204b91d5579401951bd15bf481aa5d6069f1d302b85eca104fed3694f2ce2a89890029",
  "source": "pragma solidity ^0.5.0;\nimport \"./Auction.sol\";\nimport \"./ProviderRating.sol\";\n\ncontract auctionExecutor{\n\n\t//Data Structures and id counter\n\tuint private id = 0;\n\tmapping(uint => Auction) public auctions;\n    ProviderRating ratings;\n\n    //Status Constants\n    uint8 constant public ONGOING = 1;\n\tuint8 constant public COMPLETED = 2;\n\n    constructor (ProviderRating _rating)\n    public\n    {\n        ratings = _rating;\n    }\n\n\tfunction initAuction(uint8 _providersNumber, uint8 tempFileSize, uint tempCollateralAmount, bytes32 tempRootHash)\n\tpublic\n\tpayable\n\treturns (bytes32 initMessage)\n\t{\n        auctions[id] = new Auction(msg.sender, _providersNumber, tempFileSize, tempRootHash, tempCollateralAmount);\n\t\tid++;\n\t\treturn \"Initialization successfull.\";\n\t}\n\n\tfunction getAuctionInfo(uint _id)\n\tpublic\n    view\n\treturns(address payable[] memory tempProvider, address payable tempClient, uint[] memory tempPrice, uint8 tempProvidersNumber, uint tempStartTime,\n            uint tempEndTime, bytes32 tempStatus, uint8 tempFileSize, uint tempCollateralAmount, bytes32 tempRootHash, bytes32 infoMessage)\n\t{\n\t\ttempProvider = auctions[_id].getProvidersList();\n        tempClient = auctions[_id].getClient();\n\t\ttempStartTime = auctions[_id].getStartTime();\n\t\ttempPrice = auctions[_id].getProvidersPriceList();\n\t\ttempEndTime = auctions[_id].getEndTime();\n\t\ttempProvidersNumber = auctions[_id].getProvidersNumber();\n        tempFileSize = auctions[_id].getFileSize();\n        tempCollateralAmount = auctions[_id].getCollateralAmount();\n        tempRootHash = auctions[_id].getRootHash();\n\t\ttempStatus = returnStringStatus(auctions[_id].getStatus());\n\t\tinfoMessage = \"OK\";\n\t}\n\n\tfunction bid(uint _id)\n\tpublic\n\tpayable\n    onlyOngoing(_id)\n    onlyNotOwner(_id)\n    onlyOverZeroEth()\n    notBlackListed()\n    notExists(_id)\n\treturns(bytes32 bidMessage)\n\t{\n        if (!ratings.providerExists(msg.sender))\n            ratings.addProvider(msg.sender);\n        address payable[] memory provs = auctions[_id].getProvidersList();\n        uint[] memory prices = auctions[_id].getProvidersPriceList();\n        uint8 desiredNumber = auctions[_id].getProvidersNumber();\n        if (prices.length < desiredNumber){\n            auctions[_id].addProvider(msg.sender);\n            auctions[_id].addProvidersPrice(msg.value);\n            return \"Success\";\n        }\n        uint max = 0;\n        uint8 maxi = 0;\n        for (uint8 i = 0; i < prices.length; i++)\n        {\n            if(prices[i] >= max){\n                max = prices[i];\n                maxi = i;\n            }\n        }\n        if (msg.value < max ){\n            provs[maxi].transfer(prices[maxi]);\n            auctions[_id].deleteProvider(maxi);\n            auctions[_id].deleteProvidersPrice(maxi);\n            auctions[_id].addProvider(msg.sender);\n            auctions[_id].addProvidersPrice(msg.value);\n            return \"Provider list altered.\";\n        }\n        else if (msg.value == max)\n        {\n            if (ratings.getRating(provs[maxi]) < ratings.getRating(msg.sender))\n            {\n                provs[maxi].transfer(prices[maxi]);\n                auctions[_id].deleteProvider(maxi);\n                auctions[_id].deleteProvidersPrice(maxi);\n                auctions[_id].addProvider(msg.sender);\n                auctions[_id].addProvidersPrice(msg.value);\n                return \"Provider list altered.\";\n            }\n        }\n        else {\n            revert(\"Bid not high enough\");\n        }\n\t}\n\n    function completeAuction(uint _id)\n    public\n    onlyOwner(_id)\n    returns (bytes32)\n    {\n        auctions[_id].setStatus(COMPLETED);\n        auctions[_id].setEndTime(now);\n        return \"Auction completed\";\n    }\n\n\t//Function that makes the contract able to accept payments\n\tfunction () external payable {\n\n\t}\n\n    //Modifiers\n    modifier onlyOngoing(uint __id) {\n        if (auctions[__id].getStatus() == COMPLETED) revert(\"Auction is completed\");\n        _;\n    }\n    modifier onlyNotOwner(uint __id) {\n        if (msg.sender == auctions[__id].getClient()) revert(\"Client cannot bid.\");\n        _;\n    }\n    modifier onlyOwner(uint __id) {\n        if (msg.sender != auctions[__id].getClient()) revert(\"Only the client can complete the auction.\");\n        _;\n    }\n    modifier onlyOverZeroEth(){\n        if (msg.value <= 0) revert(\"Payments should be over 0 ETH.\");\n        _;\n    }\n    modifier bidderNotBlackListed(){\n        if (msg.value <= 0) revert(\"Payments should be over 0 ETH.\");\n        _;\n    }\n    modifier notBlackListed(){\n        if (ratings.providerBlackListed(msg.sender)) revert(\"Bidder is blacklisted.\");\n        _;\n    }\n    modifier notExists(uint _id){\n        address payable[] memory provs = auctions[_id].getProvidersList();\n        for (uint8 i = 0; i < provs.length; i++)\n        {\n            if(provs[i] == msg.sender){\n                revert(\"Bidder is already in the providers' list.\");\n            }\n        }\n        _;\n    }\n\n    function returnStringStatus(uint8 _id)\n    public\n    pure\n    returns(bytes32)\n    {\n        if (_id == 1)\n            return \"Ongoing\";\n        else if (_id == 2)\n            return \"Completed\";\n        else\n            return \"Status id is not valid\";\n    }\n}",
  "sourcePath": "/home/canagno/ethChain/truffle/contracts/AuctionExecutor.sol",
  "compiler": {
    "name": "solc",
    "version": "0.5.0+commit.1d4f565a.Emscripten.clang"
  },
  "schemaVersion": "3.0.1",
  "updatedAt": "2019-12-28T12:55:54.939Z",
  "devdoc": {
    "methods": {}
  },
  "userdoc": {
    "methods": {}
  }
}