{
  "contractName": "auctionExecutor",
  "abi": [
    {
      "constant": true,
      "inputs": [],
      "name": "COMPLETED",
      "outputs": [
        {
          "name": "",
          "type": "uint8"
        }
      ],
      "payable": false,
      "stateMutability": "view",
      "type": "function",
      "signature": "0x4ce6c24a"
    },
    {
      "constant": true,
      "inputs": [
        {
          "name": "",
          "type": "uint256"
        }
      ],
      "name": "auctions",
      "outputs": [
        {
          "name": "",
          "type": "address"
        }
      ],
      "payable": false,
      "stateMutability": "view",
      "type": "function",
      "signature": "0x571a26a0"
    },
    {
      "constant": true,
      "inputs": [],
      "name": "ONGOING",
      "outputs": [
        {
          "name": "",
          "type": "uint8"
        }
      ],
      "payable": false,
      "stateMutability": "view",
      "type": "function",
      "signature": "0xf1a22c61"
    },
    {
      "payable": true,
      "stateMutability": "payable",
      "type": "fallback"
    },
    {
      "constant": false,
      "inputs": [
        {
          "name": "_client",
          "type": "address"
        },
        {
          "name": "_providersNumber",
          "type": "uint8"
        }
      ],
      "name": "initAuction",
      "outputs": [
        {
          "name": "initMessage",
          "type": "bytes32"
        }
      ],
      "payable": true,
      "stateMutability": "payable",
      "type": "function",
      "signature": "0x5cc43e0a"
    },
    {
      "constant": true,
      "inputs": [
        {
          "name": "_id",
          "type": "uint256"
        }
      ],
      "name": "getAuctionInfo",
      "outputs": [
        {
          "name": "tempProvider",
          "type": "address[]"
        },
        {
          "name": "tempClient",
          "type": "address"
        },
        {
          "name": "tempPrice",
          "type": "uint256[]"
        },
        {
          "name": "tempProvidersNumber",
          "type": "uint8"
        },
        {
          "name": "tempStartTime",
          "type": "uint256"
        },
        {
          "name": "tempEndTime",
          "type": "uint256"
        },
        {
          "name": "tempStatus",
          "type": "uint8"
        },
        {
          "name": "infoMessage",
          "type": "bytes32"
        }
      ],
      "payable": false,
      "stateMutability": "view",
      "type": "function",
      "signature": "0xfc3fc4ed"
    },
    {
      "constant": false,
      "inputs": [
        {
          "name": "_id",
          "type": "uint256"
        }
      ],
      "name": "bid",
      "outputs": [
        {
          "name": "bidMessage",
          "type": "bytes32"
        }
      ],
      "payable": true,
      "stateMutability": "payable",
      "type": "function",
      "signature": "0x454a2ab3"
    },
    {
      "constant": false,
      "inputs": [
        {
          "name": "_id",
          "type": "uint256"
        }
      ],
      "name": "completeAuction",
      "outputs": [
        {
          "name": "",
          "type": "bytes32"
        }
      ],
      "payable": false,
      "stateMutability": "nonpayable",
      "type": "function",
      "signature": "0x21b62886"
    }
  ],
  "bytecode": "0x60806040526000805534801561001457600080fd5b50612b02806100246000396000f3fe6080604052600436106200008b576000357c0100000000000000000000000000000000000000000000000000000000900463ffffffff16806321b62886146200008d578063454a2ab314620000e05780634ce6c24a1462000125578063571a26a014620001595780635cc43e0a14620001d8578063f1a22c611462000240578063fc3fc4ed1462000274575b005b3480156200009a57600080fd5b50620000ca60048036036020811015620000b357600080fd5b8101908080359060200190929190505050620003b6565b6040518082815260200191505060405180910390f35b6200010f60048036036020811015620000f857600080fd5b8101908080359060200190929190505050620006fd565b6040518082815260200191505060405180910390f35b3480156200013257600080fd5b506200013d62001422565b604051808260ff1660ff16815260200191505060405180910390f35b3480156200016657600080fd5b5062000196600480360360208110156200017f57600080fd5b810190808035906020019092919050505062001427565b604051808273ffffffffffffffffffffffffffffffffffffffff1673ffffffffffffffffffffffffffffffffffffffff16815260200191505060405180910390f35b6200022a60048036036040811015620001f057600080fd5b81019080803573ffffffffffffffffffffffffffffffffffffffff169060200190929190803560ff1690602001909291905050506200145a565b6040518082815260200191505060405180910390f35b3480156200024d57600080fd5b506200025862001555565b604051808260ff1660ff16815260200191505060405180910390f35b3480156200028157600080fd5b50620002b1600480360360208110156200029a57600080fd5b81019080803590602001909291905050506200155a565b60405180806020018973ffffffffffffffffffffffffffffffffffffffff1673ffffffffffffffffffffffffffffffffffffffff168152602001806020018860ff1660ff1681526020018781526020018681526020018560ff1660ff16815260200184815260200183810383528b818151815260200191508051906020019060200280838360005b838110156200035657808201518184015260208101905062000339565b50505050905001838103825289818151815260200191508051906020019060200280838360005b838110156200039a5780820151818401526020810190506200037d565b505050509050019a505050505050505050505060405180910390f35b6000816001600082815260200190815260200160002060009054906101000a900473ffffffffffffffffffffffffffffffffffffffff1673ffffffffffffffffffffffffffffffffffffffff166359dc735c6040518163ffffffff167c010000000000000000000000000000000000000000000000000000000002815260040160206040518083038186803b1580156200044f57600080fd5b505afa15801562000464573d6000803e3d6000fd5b505050506040513d60208110156200047b57600080fd5b810190808051906020019092919050505073ffffffffffffffffffffffffffffffffffffffff163373ffffffffffffffffffffffffffffffffffffffff1614151562000555576040517f08c379a00000000000000000000000000000000000000000000000000000000081526004018080602001828103825260298152602001807f4f6e6c792074686520636c69656e742063616e20636f6d706c6574652074686581526020017f2061756374696f6e2e000000000000000000000000000000000000000000000081525060400191505060405180910390fd5b6001600084815260200190815260200160002060009054906101000a900473ffffffffffffffffffffffffffffffffffffffff1673ffffffffffffffffffffffffffffffffffffffff16632e49d78b60026040518263ffffffff167c0100000000000000000000000000000000000000000000000000000000028152600401808260ff1660ff168152602001915050600060405180830381600087803b158015620005ff57600080fd5b505af115801562000614573d6000803e3d6000fd5b505050506001600084815260200190815260200160002060009054906101000a900473ffffffffffffffffffffffffffffffffffffffff1673ffffffffffffffffffffffffffffffffffffffff1663ccb98ffc426040518263ffffffff167c010000000000000000000000000000000000000000000000000000000002815260040180828152602001915050600060405180830381600087803b158015620006bb57600080fd5b505af1158015620006d0573d6000803e3d6000fd5b505050507f41756374696f6e20636f6d706c65746564000000000000000000000000000000915050919050565b600081600260ff166001600083815260200190815260200160002060009054906101000a900473ffffffffffffffffffffffffffffffffffffffff1673ffffffffffffffffffffffffffffffffffffffff16634e69d5606040518163ffffffff167c010000000000000000000000000000000000000000000000000000000002815260040160206040518083038186803b1580156200079b57600080fd5b505afa158015620007b0573d6000803e3d6000fd5b505050506040513d6020811015620007c757600080fd5b810190808051906020019092919050505060ff16141562000850576040517f08c379a00000000000000000000000000000000000000000000000000000000081526004018080602001828103825260148152602001807f41756374696f6e20697320636f6d706c6574656400000000000000000000000081525060200191505060405180910390fd5b826001600082815260200190815260200160002060009054906101000a900473ffffffffffffffffffffffffffffffffffffffff1673ffffffffffffffffffffffffffffffffffffffff166359dc735c6040518163ffffffff167c010000000000000000000000000000000000000000000000000000000002815260040160206040518083038186803b158015620008e757600080fd5b505afa158015620008fc573d6000803e3d6000fd5b505050506040513d60208110156200091357600080fd5b810190808051906020019092919050505073ffffffffffffffffffffffffffffffffffffffff163373ffffffffffffffffffffffffffffffffffffffff161415620009c6576040517f08c379a00000000000000000000000000000000000000000000000000000000081526004018080602001828103825260128152602001807f436c69656e742063616e6e6f74206269642e000000000000000000000000000081525060200191505060405180910390fd5b6000341115620013a25760606001600086815260200190815260200160002060009054906101000a900473ffffffffffffffffffffffffffffffffffffffff1673ffffffffffffffffffffffffffffffffffffffff166370c3063d6040518163ffffffff167c010000000000000000000000000000000000000000000000000000000002815260040160006040518083038186803b15801562000a6857600080fd5b505afa15801562000a7d573d6000803e3d6000fd5b505050506040513d6000823e3d601f19601f82011682018060405250602081101562000aa857600080fd5b81019080805164010000000081111562000ac157600080fd5b8281019050602081018481111562000ad857600080fd5b815185602082028301116401000000008211171562000af657600080fd5b5050929190505050905060606001600087815260200190815260200160002060009054906101000a900473ffffffffffffffffffffffffffffffffffffffff1673ffffffffffffffffffffffffffffffffffffffff1663372522cc6040518163ffffffff167c010000000000000000000000000000000000000000000000000000000002815260040160006040518083038186803b15801562000b9857600080fd5b505afa15801562000bad573d6000803e3d6000fd5b505050506040513d6000823e3d601f19601f82011682018060405250602081101562000bd857600080fd5b81019080805164010000000081111562000bf157600080fd5b8281019050602081018481111562000c0857600080fd5b815185602082028301116401000000008211171562000c2657600080fd5b5050929190505050905060006001600088815260200190815260200160002060009054906101000a900473ffffffffffffffffffffffffffffffffffffffff1673ffffffffffffffffffffffffffffffffffffffff1663ff38fe7a6040518163ffffffff167c010000000000000000000000000000000000000000000000000000000002815260040160206040518083038186803b15801562000cc857600080fd5b505afa15801562000cdd573d6000803e3d6000fd5b505050506040513d602081101562000cf457600080fd5b810190808051906020019092919050505090508060ff168251101562000ee4576001600088815260200190815260200160002060009054906101000a900473ffffffffffffffffffffffffffffffffffffffff1673ffffffffffffffffffffffffffffffffffffffff166346e2577a336040518263ffffffff167c0100000000000000000000000000000000000000000000000000000000028152600401808273ffffffffffffffffffffffffffffffffffffffff1673ffffffffffffffffffffffffffffffffffffffff168152602001915050600060405180830381600087803b15801562000de357600080fd5b505af115801562000df8573d6000803e3d6000fd5b505050506001600088815260200190815260200160002060009054906101000a900473ffffffffffffffffffffffffffffffffffffffff1673ffffffffffffffffffffffffffffffffffffffff166316e8875b346040518263ffffffff167c010000000000000000000000000000000000000000000000000000000002815260040180828152602001915050600060405180830381600087803b15801562000e9f57600080fd5b505af115801562000eb4573d6000803e3d6000fd5b505050507f537563636573730000000000000000000000000000000000000000000000000095505050506200141b565b6000809050600080905060008090505b84518160ff16101562000f565782858260ff1681518110151562000f1457fe5b9060200190602002015110151562000f4857848160ff1681518110151562000f3857fe5b9060200190602002015192508091505b808060010191505062000ef4565b50813410156200133457848160ff1681518110151562000f7257fe5b9060200190602002015173ffffffffffffffffffffffffffffffffffffffff166108fc858360ff1681518110151562000fa757fe5b906020019060200201519081150290604051600060405180830381858888f1935050505015801562000fdd573d6000803e3d6000fd5b50600160008a815260200190815260200160002060009054906101000a900473ffffffffffffffffffffffffffffffffffffffff1673ffffffffffffffffffffffffffffffffffffffff1663ea48ee7b826040518263ffffffff167c0100000000000000000000000000000000000000000000000000000000028152600401808260ff1660ff168152602001915050600060405180830381600087803b1580156200108757600080fd5b505af11580156200109c573d6000803e3d6000fd5b50505050600160008a815260200190815260200160002060009054906101000a900473ffffffffffffffffffffffffffffffffffffffff1673ffffffffffffffffffffffffffffffffffffffff1663f136fd08826040518263ffffffff167c0100000000000000000000000000000000000000000000000000000000028152600401808260ff1660ff168152602001915050600060405180830381600087803b1580156200114957600080fd5b505af11580156200115e573d6000803e3d6000fd5b50505050600160008a815260200190815260200160002060009054906101000a900473ffffffffffffffffffffffffffffffffffffffff1673ffffffffffffffffffffffffffffffffffffffff166346e2577a336040518263ffffffff167c0100000000000000000000000000000000000000000000000000000000028152600401808273ffffffffffffffffffffffffffffffffffffffff1673ffffffffffffffffffffffffffffffffffffffff168152602001915050600060405180830381600087803b1580156200123157600080fd5b505af115801562001246573d6000803e3d6000fd5b50505050600160008a815260200190815260200160002060009054906101000a900473ffffffffffffffffffffffffffffffffffffffff1673ffffffffffffffffffffffffffffffffffffffff166316e8875b346040518263ffffffff167c010000000000000000000000000000000000000000000000000000000002815260040180828152602001915050600060405180830381600087803b158015620012ed57600080fd5b505af115801562001302573d6000803e3d6000fd5b505050507f50726f7669646572206c69737420616c74657265642e00000000000000000000975050505050506200141b565b6040517f08c379a00000000000000000000000000000000000000000000000000000000081526004018080602001828103825260138152602001807f426964206e6f74206869676820656e6f7567680000000000000000000000000081525060200191505060405180910390fd5b60003414156200141a576040517f08c379a000000000000000000000000000000000000000000000000000000000815260040180806020018281038252601e8152602001807f5061796d656e74732073686f756c64206265206f7665722030204554482e000081525060200191505060405180910390fd5b5b5050919050565b600281565b60016020528060005260406000206000915054906101000a900473ffffffffffffffffffffffffffffffffffffffff1681565b600082826200146862001c1b565b808373ffffffffffffffffffffffffffffffffffffffff1673ffffffffffffffffffffffffffffffffffffffff1681526020018260ff1660ff16815260200192505050604051809103906000f080158015620014c8573d6000803e3d6000fd5b50600160008054815260200190815260200160002060006101000a81548173ffffffffffffffffffffffffffffffffffffffff021916908373ffffffffffffffffffffffffffffffffffffffff16021790555060008081548092919060010191905055507f496e697469616c697a6174696f6e207375636365737366756c6c2e0000000000905092915050565b600181565b6060600060606000806000806000600160008a815260200190815260200160002060009054906101000a900473ffffffffffffffffffffffffffffffffffffffff1673ffffffffffffffffffffffffffffffffffffffff166370c3063d6040518163ffffffff167c010000000000000000000000000000000000000000000000000000000002815260040160006040518083038186803b158015620015fe57600080fd5b505afa15801562001613573d6000803e3d6000fd5b505050506040513d6000823e3d601f19601f8201168201806040525060208110156200163e57600080fd5b8101908080516401000000008111156200165757600080fd5b828101905060208101848111156200166e57600080fd5b81518560208202830111640100000000821117156200168c57600080fd5b50509291905050509750600160008a815260200190815260200160002060009054906101000a900473ffffffffffffffffffffffffffffffffffffffff1673ffffffffffffffffffffffffffffffffffffffff166359dc735c6040518163ffffffff167c010000000000000000000000000000000000000000000000000000000002815260040160206040518083038186803b1580156200172c57600080fd5b505afa15801562001741573d6000803e3d6000fd5b505050506040513d60208110156200175857600080fd5b81019080805190602001909291905050509650600160008a815260200190815260200160002060009054906101000a900473ffffffffffffffffffffffffffffffffffffffff1673ffffffffffffffffffffffffffffffffffffffff1663c828371e6040518163ffffffff167c010000000000000000000000000000000000000000000000000000000002815260040160206040518083038186803b1580156200180157600080fd5b505afa15801562001816573d6000803e3d6000fd5b505050506040513d60208110156200182d57600080fd5b81019080805190602001909291905050509350600160008a815260200190815260200160002060009054906101000a900473ffffffffffffffffffffffffffffffffffffffff1673ffffffffffffffffffffffffffffffffffffffff1663372522cc6040518163ffffffff167c010000000000000000000000000000000000000000000000000000000002815260040160006040518083038186803b158015620018d657600080fd5b505afa158015620018eb573d6000803e3d6000fd5b505050506040513d6000823e3d601f19601f8201168201806040525060208110156200191657600080fd5b8101908080516401000000008111156200192f57600080fd5b828101905060208101848111156200194657600080fd5b81518560208202830111640100000000821117156200196457600080fd5b50509291905050509550600160008a815260200190815260200160002060009054906101000a900473ffffffffffffffffffffffffffffffffffffffff1673ffffffffffffffffffffffffffffffffffffffff1663439f5ac26040518163ffffffff167c010000000000000000000000000000000000000000000000000000000002815260040160206040518083038186803b15801562001a0457600080fd5b505afa15801562001a19573d6000803e3d6000fd5b505050506040513d602081101562001a3057600080fd5b81019080805190602001909291905050509250600160008a815260200190815260200160002060009054906101000a900473ffffffffffffffffffffffffffffffffffffffff1673ffffffffffffffffffffffffffffffffffffffff1663ff38fe7a6040518163ffffffff167c010000000000000000000000000000000000000000000000000000000002815260040160206040518083038186803b15801562001ad957600080fd5b505afa15801562001aee573d6000803e3d6000fd5b505050506040513d602081101562001b0557600080fd5b81019080805190602001909291905050509450600160008a815260200190815260200160002060009054906101000a900473ffffffffffffffffffffffffffffffffffffffff1673ffffffffffffffffffffffffffffffffffffffff16634e69d5606040518163ffffffff167c010000000000000000000000000000000000000000000000000000000002815260040160206040518083038186803b15801562001bae57600080fd5b505afa15801562001bc3573d6000803e3d6000fd5b505050506040513d602081101562001bda57600080fd5b810190808051906020019092919050505091507f4f4b0000000000000000000000000000000000000000000000000000000000009050919395975091939597565b604051610eaa8062001c2d8339019056fe60806040523480156200001157600080fd5b5060405160408062000eaa833981018060405260408110156200003357600080fd5b810190808051906020019092919080519060200190929190505050600260149054906101000a900460ff1660ff16604051908082528060200260200182016040528015620000905781602001602082028038833980820191505090505b5060009080519060200190620000a89291906200018b565b50600260149054906101000a900460ff1660ff16604051908082528060200260200182016040528015620000eb5781602001602082028038833980820191505090505b5060019080519060200190620001039291906200021a565b5081600260006101000a81548173ffffffffffffffffffffffffffffffffffffffff021916908373ffffffffffffffffffffffffffffffffffffffff16021790555080600260146101000a81548160ff021916908360ff160217905550426003819055506001600560006101000a81548160ff021916908360ff1602179055505050620002da565b82805482825590600052602060002090810192821562000207579160200282015b82811115620002065782518260006101000a81548173ffffffffffffffffffffffffffffffffffffffff021916908373ffffffffffffffffffffffffffffffffffffffff16021790555091602001919060010190620001ac565b5b5090506200021691906200026c565b5090565b82805482825590600052602060002090810192821562000259579160200282015b82811115620002585782518255916020019190600101906200023b565b5b509050620002689190620002b2565b5090565b620002af91905b80821115620002ab57600081816101000a81549073ffffffffffffffffffffffffffffffffffffffff02191690555060010162000273565b5090565b90565b620002d791905b80821115620002d3576000816000905550600101620002b9565b5090565b90565b610bc080620002ea6000396000f3fe608060405260043610610111576000357c0100000000000000000000000000000000000000000000000000000000900463ffffffff1680623c99b71461011657806316e8875b146101db5780632e49d78b14610216578063372522cc146102545780633e0a322d146102c0578063439f5ac2146102fb57806346e2577a146103265780634ce6c24a146103775780634e69d560146103a857806356abe851146103d957806359dc735c1461049e57806370c3063d146104f55780638526690a14610561578063c8002ee5146105b2578063c828371e146105f0578063ccb98ffc1461061b578063ea48ee7b14610656578063f136fd0814610694578063f1a22c61146106d2578063ff38fe7a14610703575b600080fd5b34801561012257600080fd5b506101d96004803603602081101561013957600080fd5b810190808035906020019064010000000081111561015657600080fd5b82018360208201111561016857600080fd5b8035906020019184602083028401116401000000008311171561018a57600080fd5b919080806020026020016040519081016040528093929190818152602001838360200280828437600081840152601f19601f820116905080830192505050505050509192919290505050610734565b005b3480156101e757600080fd5b50610214600480360360208110156101fe57600080fd5b810190808035906020019092919050505061074e565b005b34801561022257600080fd5b506102526004803603602081101561023957600080fd5b81019080803560ff16906020019092919050505061077d565b005b34801561026057600080fd5b5061026961079b565b6040518080602001828103825283818151815260200191508051906020019060200280838360005b838110156102ac578082015181840152602081019050610291565b505050509050019250505060405180910390f35b3480156102cc57600080fd5b506102f9600480360360208110156102e357600080fd5b81019080803590602001909291905050506107f3565b005b34801561030757600080fd5b506103106107fd565b6040518082815260200191505060405180910390f35b34801561033257600080fd5b506103756004803603602081101561034957600080fd5b81019080803573ffffffffffffffffffffffffffffffffffffffff169060200190929190505050610807565b005b34801561038357600080fd5b5061038c610870565b604051808260ff1660ff16815260200191505060405180910390f35b3480156103b457600080fd5b506103bd610875565b604051808260ff1660ff16815260200191505060405180910390f35b3480156103e557600080fd5b5061049c600480360360208110156103fc57600080fd5b810190808035906020019064010000000081111561041957600080fd5b82018360208201111561042b57600080fd5b8035906020019184602083028401116401000000008311171561044d57600080fd5b919080806020026020016040519081016040528093929190818152602001838360200280828437600081840152601f19601f82011690508083019250505050505050919291929050505061088c565b005b3480156104aa57600080fd5b506104b36108a6565b604051808273ffffffffffffffffffffffffffffffffffffffff1673ffffffffffffffffffffffffffffffffffffffff16815260200191505060405180910390f35b34801561050157600080fd5b5061050a6108d0565b6040518080602001828103825283818151815260200191508051906020019060200280838360005b8381101561054d578082015181840152602081019050610532565b505050509050019250505060405180910390f35b34801561056d57600080fd5b506105b06004803603602081101561058457600080fd5b81019080803573ffffffffffffffffffffffffffffffffffffffff16906020019092919050505061095e565b005b3480156105be57600080fd5b506105ee600480360360208110156105d557600080fd5b81019080803560ff1690602001909291905050506109a2565b005b3480156105fc57600080fd5b506106056109c0565b6040518082815260200191505060405180910390f35b34801561062757600080fd5b506106546004803603602081101561063e57600080fd5b81019080803590602001909291905050506109ca565b005b34801561066257600080fd5b506106926004803603602081101561067957600080fd5b81019080803560ff1690602001909291905050506109d4565b005b3480156106a057600080fd5b506106d0600480360360208110156106b757600080fd5b81019080803560ff169060200190929190505050610a16565b005b3480156106de57600080fd5b506106e7610a39565b604051808260ff1660ff16815260200191505060405180910390f35b34801561070f57600080fd5b50610718610a3e565b604051808260ff1660ff16815260200191505060405180910390f35b806001908051906020019061074a929190610a55565b5050565b600181908060018154018082558091505090600182039060005260206000200160009091929091909150555050565b80600560006101000a81548160ff021916908360ff16021790555050565b606060018054806020026020016040519081016040528092919081815260200182805480156107e957602002820191906000526020600020905b8154815260200190600101908083116107d5575b5050505050905090565b8060038190555050565b6000600454905090565b60008190806001815401808255809150509060018203906000526020600020016000909192909190916101000a81548173ffffffffffffffffffffffffffffffffffffffff021916908373ffffffffffffffffffffffffffffffffffffffff1602179055505050565b600281565b6000600560009054906101000a900460ff16905090565b80600090805190602001906108a2929190610aa2565b5050565b6000600260009054906101000a900473ffffffffffffffffffffffffffffffffffffffff16905090565b6060600080548060200260200160405190810160405280929190818152602001828054801561095457602002820191906000526020600020905b8160009054906101000a900473ffffffffffffffffffffffffffffffffffffffff1673ffffffffffffffffffffffffffffffffffffffff168152602001906001019080831161090a575b5050505050905090565b80600260006101000a81548173ffffffffffffffffffffffffffffffffffffffff021916908373ffffffffffffffffffffffffffffffffffffffff16021790555050565b80600260146101000a81548160ff021916908360ff16021790555050565b6000600354905090565b8060048190555050565b60008160ff168154811015156109e657fe5b9060005260206000200160006101000a81549073ffffffffffffffffffffffffffffffffffffffff021916905550565b60018160ff16815481101515610a2857fe5b906000526020600020016000905550565b600181565b6000600260149054906101000a900460ff16905090565b828054828255906000526020600020908101928215610a91579160200282015b82811115610a90578251825591602001919060010190610a75565b5b509050610a9e9190610b2c565b5090565b828054828255906000526020600020908101928215610b1b579160200282015b82811115610b1a5782518260006101000a81548173ffffffffffffffffffffffffffffffffffffffff021916908373ffffffffffffffffffffffffffffffffffffffff16021790555091602001919060010190610ac2565b5b509050610b289190610b51565b5090565b610b4e91905b80821115610b4a576000816000905550600101610b32565b5090565b90565b610b9191905b80821115610b8d57600081816101000a81549073ffffffffffffffffffffffffffffffffffffffff021916905550600101610b57565b5090565b9056fea165627a7a7230582014b84522d6a7786819712f68823c97b9c912cd9a86b046c8683be9ce02e799650029a165627a7a72305820fa00c372f8487f4d080110c7a7fa630eecb7024c48fc1b615d5bf7cd7b34200a0029",
  "source": "pragma solidity ^0.5.0;\nimport \"./Auction.sol\";\n\ncontract auctionExecutor{\n\n\t//Data Structures and id counter\n\tuint private id = 0;\n\tmapping(uint => Auction) public auctions;\n\n    //Status Constants\n    uint8 constant public ONGOING = 1;\n\tuint8 constant public COMPLETED = 2;\n\n\tfunction initAuction(address payable _client, uint8 _providersNumber)\n\tpublic\n\tpayable\n\treturns (bytes32 initMessage)\n\t{\n        auctions[id] = new Auction(_client, _providersNumber);\n\t\tid++;\n\t\treturn \"Initialization successfull.\";\n\t}\n\n\tfunction getAuctionInfo(uint _id)\n\tpublic\n\tview\n\treturns(address payable[] memory tempProvider, address payable tempClient, uint[] memory tempPrice, uint8 tempProvidersNumber, uint tempStartTime,\n            uint tempEndTime, uint8 tempStatus, bytes32 infoMessage)\n\t{\n\t\ttempProvider = auctions[_id].getProvidersList();\n        tempClient = auctions[_id].getClient();\n\t\ttempStartTime = auctions[_id].getStartTime();\n\t\ttempPrice = auctions[_id].getProvidersPriceList();\n\t\ttempEndTime = auctions[_id].getEndTime();\n\t\ttempProvidersNumber = auctions[_id].getProvidersNumber();\n\t\ttempStatus = auctions[_id].getStatus();\n\t\tinfoMessage = \"OK\";\n\t}\n\n\tfunction bid(uint _id)\n\tpublic\n\tpayable\n    onlyOngoing(_id)\n    onlyNotOwner(_id)\n\treturns(bytes32 bidMessage)\n\t{\n        if (msg.value > 0){\n            address payable[] memory provs = auctions[_id].getProvidersList();\n            uint[] memory prices = auctions[_id].getProvidersPriceList();\n            uint8 desiredNumber = auctions[_id].getProvidersNumber();\n            if (prices.length < desiredNumber){\n                auctions[_id].addProvider(msg.sender);\n                auctions[_id].addProvidersPrice(msg.value);\n                return \"Success\";\n            }\n            uint max = 0;\n            uint8 maxi = 0;\n            for (uint8 i = 0; i < prices.length; i++)\n            {\n                if(prices[i] >= max){\n                    max = prices[i];\n                    maxi = i;\n                }\n            }\n            if (msg.value < max ){\n                provs[maxi].transfer(prices[maxi]);\n                //address(\"0xc15Dcaa192d2FC7cbdb8E5BcEb6eF79F404bcD03\").transfer(prices[maxi]);\n                auctions[_id].deleteProvider(maxi);\n                auctions[_id].deleteProvidersPrice(maxi);\n                auctions[_id].addProvider(msg.sender);\n                auctions[_id].addProvidersPrice(msg.value);\n                return \"Provider list altered.\";\n            }\n            else {\n                revert(\"Bid not high enough\");\n            }\n        }\n        else if (msg.value == 0) revert(\"Payments should be over 0 ETH.\");\n\n\t}\n\n    function completeAuction(uint _id)\n    public\n    onlyOwner(_id)\n    returns (bytes32)\n    {\n        auctions[_id].setStatus(COMPLETED);\n        auctions[_id].setEndTime(now);\n        return \"Auction completed\";\n    }\n\n\t// Function that makes the contract able to accept payments\n\tfunction () external payable {\n\n\t}\n\n    //Modifiers\n    modifier onlyOngoing(uint __id) {\n        if (auctions[__id].getStatus() == COMPLETED) revert(\"Auction is completed\");\n        _;\n    }\n    modifier onlyNotOwner(uint __id) {\n        if (msg.sender == auctions[__id].getClient()) revert(\"Client cannot bid.\");\n        _;\n    }\n    modifier onlyOwner(uint __id) {\n        if (msg.sender != auctions[__id].getClient()) revert(\"Only the client can complete the auction.\");\n        _;\n    }\n}\n",
  "sourcePath": "/home/canagno/ethChain/truffle/contracts/AuctionExecutor.sol",
  "compiler": {
    "name": "solc",
    "version": "0.5.0+commit.1d4f565a.Emscripten.clang"
  },
  "schemaVersion": "3.0.1",
  "updatedAt": "2019-05-19T15:27:27.036Z",
  "devdoc": {
    "methods": {}
  },
  "userdoc": {
    "methods": {}
  }
}