{
  "contractName": "Auction",
  "abi": [
    {
      "constant": true,
      "inputs": [],
      "name": "COMPLETED",
      "outputs": [
        {
          "name": "",
          "type": "uint8"
        }
      ],
      "payable": false,
      "stateMutability": "view",
      "type": "function",
      "signature": "0x4ce6c24a"
    },
    {
      "constant": true,
      "inputs": [],
      "name": "ONGOING",
      "outputs": [
        {
          "name": "",
          "type": "uint8"
        }
      ],
      "payable": false,
      "stateMutability": "view",
      "type": "function",
      "signature": "0xf1a22c61"
    },
    {
      "inputs": [
        {
          "name": "_client",
          "type": "address"
        },
        {
          "name": "_providersNumber",
          "type": "uint8"
        }
      ],
      "payable": false,
      "stateMutability": "nonpayable",
      "type": "constructor",
      "signature": "constructor"
    },
    {
      "constant": false,
      "inputs": [
        {
          "name": "_providersList",
          "type": "address[]"
        }
      ],
      "name": "setProvidersList",
      "outputs": [],
      "payable": false,
      "stateMutability": "nonpayable",
      "type": "function",
      "signature": "0x56abe851"
    },
    {
      "constant": false,
      "inputs": [
        {
          "name": "_provider",
          "type": "address"
        }
      ],
      "name": "addProvider",
      "outputs": [],
      "payable": false,
      "stateMutability": "nonpayable",
      "type": "function",
      "signature": "0x46e2577a"
    },
    {
      "constant": false,
      "inputs": [
        {
          "name": "index",
          "type": "uint8"
        }
      ],
      "name": "deleteProvider",
      "outputs": [],
      "payable": false,
      "stateMutability": "nonpayable",
      "type": "function",
      "signature": "0xea48ee7b"
    },
    {
      "constant": true,
      "inputs": [],
      "name": "getProvidersList",
      "outputs": [
        {
          "name": "_providersList",
          "type": "address[]"
        }
      ],
      "payable": false,
      "stateMutability": "view",
      "type": "function",
      "signature": "0x70c3063d"
    },
    {
      "constant": false,
      "inputs": [
        {
          "name": "_client",
          "type": "address"
        }
      ],
      "name": "setClient",
      "outputs": [],
      "payable": false,
      "stateMutability": "nonpayable",
      "type": "function",
      "signature": "0x8526690a"
    },
    {
      "constant": true,
      "inputs": [],
      "name": "getClient",
      "outputs": [
        {
          "name": "_client",
          "type": "address"
        }
      ],
      "payable": false,
      "stateMutability": "view",
      "type": "function",
      "signature": "0x59dc735c"
    },
    {
      "constant": false,
      "inputs": [
        {
          "name": "_providersPriceList",
          "type": "uint256[]"
        }
      ],
      "name": "setProvidersPriceList",
      "outputs": [],
      "payable": false,
      "stateMutability": "nonpayable",
      "type": "function",
      "signature": "0x003c99b7"
    },
    {
      "constant": false,
      "inputs": [
        {
          "name": "_price",
          "type": "uint256"
        }
      ],
      "name": "addProvidersPrice",
      "outputs": [],
      "payable": false,
      "stateMutability": "nonpayable",
      "type": "function",
      "signature": "0x16e8875b"
    },
    {
      "constant": false,
      "inputs": [
        {
          "name": "index",
          "type": "uint8"
        }
      ],
      "name": "deleteProvidersPrice",
      "outputs": [],
      "payable": false,
      "stateMutability": "nonpayable",
      "type": "function",
      "signature": "0xf136fd08"
    },
    {
      "constant": true,
      "inputs": [],
      "name": "getProvidersPriceList",
      "outputs": [
        {
          "name": "_providersPriceList",
          "type": "uint256[]"
        }
      ],
      "payable": false,
      "stateMutability": "view",
      "type": "function",
      "signature": "0x372522cc"
    },
    {
      "constant": false,
      "inputs": [
        {
          "name": "_providersNumber",
          "type": "uint8"
        }
      ],
      "name": "setProvidersNumber",
      "outputs": [],
      "payable": false,
      "stateMutability": "nonpayable",
      "type": "function",
      "signature": "0xc8002ee5"
    },
    {
      "constant": true,
      "inputs": [],
      "name": "getProvidersNumber",
      "outputs": [
        {
          "name": "_providersNumber",
          "type": "uint8"
        }
      ],
      "payable": false,
      "stateMutability": "view",
      "type": "function",
      "signature": "0xff38fe7a"
    },
    {
      "constant": false,
      "inputs": [
        {
          "name": "_status",
          "type": "uint8"
        }
      ],
      "name": "setStatus",
      "outputs": [],
      "payable": false,
      "stateMutability": "nonpayable",
      "type": "function",
      "signature": "0x2e49d78b"
    },
    {
      "constant": true,
      "inputs": [],
      "name": "getStatus",
      "outputs": [
        {
          "name": "_status",
          "type": "uint8"
        }
      ],
      "payable": false,
      "stateMutability": "view",
      "type": "function",
      "signature": "0x4e69d560"
    },
    {
      "constant": false,
      "inputs": [
        {
          "name": "_time",
          "type": "uint256"
        }
      ],
      "name": "setStartTime",
      "outputs": [],
      "payable": false,
      "stateMutability": "nonpayable",
      "type": "function",
      "signature": "0x3e0a322d"
    },
    {
      "constant": true,
      "inputs": [],
      "name": "getStartTime",
      "outputs": [
        {
          "name": "_startTime",
          "type": "uint256"
        }
      ],
      "payable": false,
      "stateMutability": "view",
      "type": "function",
      "signature": "0xc828371e"
    },
    {
      "constant": false,
      "inputs": [
        {
          "name": "_time",
          "type": "uint256"
        }
      ],
      "name": "setEndTime",
      "outputs": [],
      "payable": false,
      "stateMutability": "nonpayable",
      "type": "function",
      "signature": "0xccb98ffc"
    },
    {
      "constant": true,
      "inputs": [],
      "name": "getEndTime",
      "outputs": [
        {
          "name": "_endTime",
          "type": "uint256"
        }
      ],
      "payable": false,
      "stateMutability": "view",
      "type": "function",
      "signature": "0x439f5ac2"
    }
  ],
  "bytecode": "0x60806040523480156200001157600080fd5b5060405160408062000eaa833981018060405260408110156200003357600080fd5b810190808051906020019092919080519060200190929190505050600260149054906101000a900460ff1660ff16604051908082528060200260200182016040528015620000905781602001602082028038833980820191505090505b5060009080519060200190620000a89291906200018b565b50600260149054906101000a900460ff1660ff16604051908082528060200260200182016040528015620000eb5781602001602082028038833980820191505090505b5060019080519060200190620001039291906200021a565b5081600260006101000a81548173ffffffffffffffffffffffffffffffffffffffff021916908373ffffffffffffffffffffffffffffffffffffffff16021790555080600260146101000a81548160ff021916908360ff160217905550426003819055506001600560006101000a81548160ff021916908360ff1602179055505050620002da565b82805482825590600052602060002090810192821562000207579160200282015b82811115620002065782518260006101000a81548173ffffffffffffffffffffffffffffffffffffffff021916908373ffffffffffffffffffffffffffffffffffffffff16021790555091602001919060010190620001ac565b5b5090506200021691906200026c565b5090565b82805482825590600052602060002090810192821562000259579160200282015b82811115620002585782518255916020019190600101906200023b565b5b509050620002689190620002b2565b5090565b620002af91905b80821115620002ab57600081816101000a81549073ffffffffffffffffffffffffffffffffffffffff02191690555060010162000273565b5090565b90565b620002d791905b80821115620002d3576000816000905550600101620002b9565b5090565b90565b610bc080620002ea6000396000f3fe608060405260043610610111576000357c0100000000000000000000000000000000000000000000000000000000900463ffffffff1680623c99b71461011657806316e8875b146101db5780632e49d78b14610216578063372522cc146102545780633e0a322d146102c0578063439f5ac2146102fb57806346e2577a146103265780634ce6c24a146103775780634e69d560146103a857806356abe851146103d957806359dc735c1461049e57806370c3063d146104f55780638526690a14610561578063c8002ee5146105b2578063c828371e146105f0578063ccb98ffc1461061b578063ea48ee7b14610656578063f136fd0814610694578063f1a22c61146106d2578063ff38fe7a14610703575b600080fd5b34801561012257600080fd5b506101d96004803603602081101561013957600080fd5b810190808035906020019064010000000081111561015657600080fd5b82018360208201111561016857600080fd5b8035906020019184602083028401116401000000008311171561018a57600080fd5b919080806020026020016040519081016040528093929190818152602001838360200280828437600081840152601f19601f820116905080830192505050505050509192919290505050610734565b005b3480156101e757600080fd5b50610214600480360360208110156101fe57600080fd5b810190808035906020019092919050505061074e565b005b34801561022257600080fd5b506102526004803603602081101561023957600080fd5b81019080803560ff16906020019092919050505061077d565b005b34801561026057600080fd5b5061026961079b565b6040518080602001828103825283818151815260200191508051906020019060200280838360005b838110156102ac578082015181840152602081019050610291565b505050509050019250505060405180910390f35b3480156102cc57600080fd5b506102f9600480360360208110156102e357600080fd5b81019080803590602001909291905050506107f3565b005b34801561030757600080fd5b506103106107fd565b6040518082815260200191505060405180910390f35b34801561033257600080fd5b506103756004803603602081101561034957600080fd5b81019080803573ffffffffffffffffffffffffffffffffffffffff169060200190929190505050610807565b005b34801561038357600080fd5b5061038c610870565b604051808260ff1660ff16815260200191505060405180910390f35b3480156103b457600080fd5b506103bd610875565b604051808260ff1660ff16815260200191505060405180910390f35b3480156103e557600080fd5b5061049c600480360360208110156103fc57600080fd5b810190808035906020019064010000000081111561041957600080fd5b82018360208201111561042b57600080fd5b8035906020019184602083028401116401000000008311171561044d57600080fd5b919080806020026020016040519081016040528093929190818152602001838360200280828437600081840152601f19601f82011690508083019250505050505050919291929050505061088c565b005b3480156104aa57600080fd5b506104b36108a6565b604051808273ffffffffffffffffffffffffffffffffffffffff1673ffffffffffffffffffffffffffffffffffffffff16815260200191505060405180910390f35b34801561050157600080fd5b5061050a6108d0565b6040518080602001828103825283818151815260200191508051906020019060200280838360005b8381101561054d578082015181840152602081019050610532565b505050509050019250505060405180910390f35b34801561056d57600080fd5b506105b06004803603602081101561058457600080fd5b81019080803573ffffffffffffffffffffffffffffffffffffffff16906020019092919050505061095e565b005b3480156105be57600080fd5b506105ee600480360360208110156105d557600080fd5b81019080803560ff1690602001909291905050506109a2565b005b3480156105fc57600080fd5b506106056109c0565b6040518082815260200191505060405180910390f35b34801561062757600080fd5b506106546004803603602081101561063e57600080fd5b81019080803590602001909291905050506109ca565b005b34801561066257600080fd5b506106926004803603602081101561067957600080fd5b81019080803560ff1690602001909291905050506109d4565b005b3480156106a057600080fd5b506106d0600480360360208110156106b757600080fd5b81019080803560ff169060200190929190505050610a16565b005b3480156106de57600080fd5b506106e7610a39565b604051808260ff1660ff16815260200191505060405180910390f35b34801561070f57600080fd5b50610718610a3e565b604051808260ff1660ff16815260200191505060405180910390f35b806001908051906020019061074a929190610a55565b5050565b600181908060018154018082558091505090600182039060005260206000200160009091929091909150555050565b80600560006101000a81548160ff021916908360ff16021790555050565b606060018054806020026020016040519081016040528092919081815260200182805480156107e957602002820191906000526020600020905b8154815260200190600101908083116107d5575b5050505050905090565b8060038190555050565b6000600454905090565b60008190806001815401808255809150509060018203906000526020600020016000909192909190916101000a81548173ffffffffffffffffffffffffffffffffffffffff021916908373ffffffffffffffffffffffffffffffffffffffff1602179055505050565b600281565b6000600560009054906101000a900460ff16905090565b80600090805190602001906108a2929190610aa2565b5050565b6000600260009054906101000a900473ffffffffffffffffffffffffffffffffffffffff16905090565b6060600080548060200260200160405190810160405280929190818152602001828054801561095457602002820191906000526020600020905b8160009054906101000a900473ffffffffffffffffffffffffffffffffffffffff1673ffffffffffffffffffffffffffffffffffffffff168152602001906001019080831161090a575b5050505050905090565b80600260006101000a81548173ffffffffffffffffffffffffffffffffffffffff021916908373ffffffffffffffffffffffffffffffffffffffff16021790555050565b80600260146101000a81548160ff021916908360ff16021790555050565b6000600354905090565b8060048190555050565b60008160ff168154811015156109e657fe5b9060005260206000200160006101000a81549073ffffffffffffffffffffffffffffffffffffffff021916905550565b60018160ff16815481101515610a2857fe5b906000526020600020016000905550565b600181565b6000600260149054906101000a900460ff16905090565b828054828255906000526020600020908101928215610a91579160200282015b82811115610a90578251825591602001919060010190610a75565b5b509050610a9e9190610b2c565b5090565b828054828255906000526020600020908101928215610b1b579160200282015b82811115610b1a5782518260006101000a81548173ffffffffffffffffffffffffffffffffffffffff021916908373ffffffffffffffffffffffffffffffffffffffff16021790555091602001919060010190610ac2565b5b509050610b289190610b51565b5090565b610b4e91905b80821115610b4a576000816000905550600101610b32565b5090565b90565b610b9191905b80821115610b8d57600081816101000a81549073ffffffffffffffffffffffffffffffffffffffff021916905550600101610b57565b5090565b9056fea165627a7a72305820ef964e0aaebda1ffa5fc66dbee6ce39c02834f6308fe110beb0d8b73bdd0cfab0029",
  "source": "pragma solidity ^0.5.0;\n\ncontract Auction{\n\n\taddress payable[] private providersList;\n\tuint[] private providersPriceList;\n    address payable private client;\n\tuint8 private providersNumber;\n\tuint private startTime; //startTime is initiated to now in the init function of the auction. It is caclulated in seconds since the last Epoch.\n\tuint private endTime; //time the auction was completed.\n    uint8 private status; //state of the contract\n    //Status Constants\n    uint8 constant public ONGOING = 1;\n\tuint8 constant public COMPLETED = 2;\n\n\tconstructor(address payable _client, uint8 _providersNumber)\n\tpublic\n\t{\n\t\tprovidersList = new address payable[](providersNumber);\n        providersPriceList = new uint[](providersNumber);\n\t\tclient = _client;\n\t\tprovidersNumber = _providersNumber;\n\t\tstartTime = now;\n\t\tstatus = ONGOING;\n\t}\n\n    function setProvidersList (address payable[] memory _providersList)\n    public\n    {\n        providersList = _providersList;\n    }\n\n    function addProvider (address payable _provider)\n    public\n    {\n        providersList.push(_provider);\n    }\n\n    function deleteProvider (uint8 index)\n    public\n    {\n        delete providersList[index];\n    }\n\n    function getProvidersList ()\n    public\n    view\n    returns (address payable[] memory _providersList)\n    {\n        return providersList;\n    }\n\n    function setClient (address payable _client)\n    public\n    {\n        client = _client;\n    }\n\n    function getClient ()\n    public\n    view\n    returns (address payable _client)\n    {\n        return client;\n    }\n\n    function setProvidersPriceList (uint[] memory _providersPriceList)\n    public\n    {\n        providersPriceList = _providersPriceList;\n    }\n\n    function addProvidersPrice (uint _price)\n    public\n    {\n        providersPriceList.push(_price);\n    }\n\n    function deleteProvidersPrice (uint8 index)\n    public\n    {\n        delete providersPriceList[index];\n    }\n\n    function getProvidersPriceList ()\n    public\n    view\n    returns (uint[] memory _providersPriceList)\n    {\n        return providersPriceList;\n    }\n\n    function setProvidersNumber (uint8 _providersNumber)\n    public\n    {\n        providersNumber = _providersNumber;\n    }\n\n    function getProvidersNumber ()\n    public\n    view\n    returns (uint8 _providersNumber)\n    {\n        return providersNumber;\n    }\n\n    function setStatus (uint8 _status)\n    public\n    {\n        status = _status;\n    }\n\n    function getStatus ()\n    public\n    view\n    returns (uint8 _status)\n    {\n        return status;\n    }\n\n    function setStartTime (uint _time)\n    public\n    {\n        startTime = _time;\n    }\n\n    function getStartTime ()\n    public\n    view\n    returns (uint _startTime)\n    {\n        return startTime;\n    }\n\n    function setEndTime (uint _time)\n    public\n    {\n        endTime = _time;\n    }\n\n    function getEndTime ()\n    public\n    view\n    returns (uint _endTime)\n    {\n        return endTime;\n    }\n\n}",
  "sourcePath": "/home/canagno/ethChain/truffle/contracts/Auction.sol",
  "compiler": {
    "name": "solc",
    "version": "0.5.0+commit.1d4f565a.Emscripten.clang"
  },
  "schemaVersion": "3.0.1",
  "updatedAt": "2019-06-08T14:59:14.745Z",
  "devdoc": {
    "methods": {}
  },
  "userdoc": {
    "methods": {}
  }
}