{
  "contractName": "Auction",
  "abi": [
    {
      "constant": true,
      "inputs": [],
      "name": "COMPLETED",
      "outputs": [
        {
          "name": "",
          "type": "uint8"
        }
      ],
      "payable": false,
      "stateMutability": "view",
      "type": "function",
      "signature": "0x4ce6c24a"
    },
    {
      "constant": true,
      "inputs": [],
      "name": "ONGOING",
      "outputs": [
        {
          "name": "",
          "type": "uint8"
        }
      ],
      "payable": false,
      "stateMutability": "view",
      "type": "function",
      "signature": "0xf1a22c61"
    },
    {
      "inputs": [
        {
          "name": "_client",
          "type": "address"
        },
        {
          "name": "_providersNumber",
          "type": "uint8"
        },
        {
          "name": "_fileSize",
          "type": "uint8"
        },
        {
          "name": "_rootHash",
          "type": "bytes32"
        },
        {
          "name": "_collateralAmount",
          "type": "uint256"
        }
      ],
      "payable": false,
      "stateMutability": "nonpayable",
      "type": "constructor",
      "signature": "constructor"
    },
    {
      "constant": false,
      "inputs": [
        {
          "name": "_providersList",
          "type": "address[]"
        }
      ],
      "name": "setProvidersList",
      "outputs": [],
      "payable": false,
      "stateMutability": "nonpayable",
      "type": "function",
      "signature": "0x56abe851"
    },
    {
      "constant": false,
      "inputs": [
        {
          "name": "_provider",
          "type": "address"
        }
      ],
      "name": "addProvider",
      "outputs": [],
      "payable": false,
      "stateMutability": "nonpayable",
      "type": "function",
      "signature": "0x46e2577a"
    },
    {
      "constant": false,
      "inputs": [
        {
          "name": "index",
          "type": "uint8"
        }
      ],
      "name": "deleteProvider",
      "outputs": [],
      "payable": false,
      "stateMutability": "nonpayable",
      "type": "function",
      "signature": "0xea48ee7b"
    },
    {
      "constant": true,
      "inputs": [],
      "name": "getProvidersList",
      "outputs": [
        {
          "name": "_providersList",
          "type": "address[]"
        }
      ],
      "payable": false,
      "stateMutability": "view",
      "type": "function",
      "signature": "0x70c3063d"
    },
    {
      "constant": false,
      "inputs": [
        {
          "name": "_client",
          "type": "address"
        }
      ],
      "name": "setClient",
      "outputs": [],
      "payable": false,
      "stateMutability": "nonpayable",
      "type": "function",
      "signature": "0x8526690a"
    },
    {
      "constant": true,
      "inputs": [],
      "name": "getClient",
      "outputs": [
        {
          "name": "_client",
          "type": "address"
        }
      ],
      "payable": false,
      "stateMutability": "view",
      "type": "function",
      "signature": "0x59dc735c"
    },
    {
      "constant": false,
      "inputs": [
        {
          "name": "_providersPriceList",
          "type": "uint256[]"
        }
      ],
      "name": "setProvidersPriceList",
      "outputs": [],
      "payable": false,
      "stateMutability": "nonpayable",
      "type": "function",
      "signature": "0x003c99b7"
    },
    {
      "constant": false,
      "inputs": [
        {
          "name": "_price",
          "type": "uint256"
        }
      ],
      "name": "addProvidersPrice",
      "outputs": [],
      "payable": false,
      "stateMutability": "nonpayable",
      "type": "function",
      "signature": "0x16e8875b"
    },
    {
      "constant": false,
      "inputs": [
        {
          "name": "index",
          "type": "uint8"
        }
      ],
      "name": "deleteProvidersPrice",
      "outputs": [],
      "payable": false,
      "stateMutability": "nonpayable",
      "type": "function",
      "signature": "0xf136fd08"
    },
    {
      "constant": true,
      "inputs": [],
      "name": "getProvidersPriceList",
      "outputs": [
        {
          "name": "_providersPriceList",
          "type": "uint256[]"
        }
      ],
      "payable": false,
      "stateMutability": "view",
      "type": "function",
      "signature": "0x372522cc"
    },
    {
      "constant": false,
      "inputs": [
        {
          "name": "_providersNumber",
          "type": "uint8"
        }
      ],
      "name": "setProvidersNumber",
      "outputs": [],
      "payable": false,
      "stateMutability": "nonpayable",
      "type": "function",
      "signature": "0xc8002ee5"
    },
    {
      "constant": true,
      "inputs": [],
      "name": "getProvidersNumber",
      "outputs": [
        {
          "name": "_providersNumber",
          "type": "uint8"
        }
      ],
      "payable": false,
      "stateMutability": "view",
      "type": "function",
      "signature": "0xff38fe7a"
    },
    {
      "constant": false,
      "inputs": [
        {
          "name": "_status",
          "type": "uint8"
        }
      ],
      "name": "setStatus",
      "outputs": [],
      "payable": false,
      "stateMutability": "nonpayable",
      "type": "function",
      "signature": "0x2e49d78b"
    },
    {
      "constant": true,
      "inputs": [],
      "name": "getStatus",
      "outputs": [
        {
          "name": "_status",
          "type": "uint8"
        }
      ],
      "payable": false,
      "stateMutability": "view",
      "type": "function",
      "signature": "0x4e69d560"
    },
    {
      "constant": false,
      "inputs": [
        {
          "name": "_fileSize",
          "type": "uint8"
        }
      ],
      "name": "setFileSize",
      "outputs": [],
      "payable": false,
      "stateMutability": "nonpayable",
      "type": "function",
      "signature": "0xa7b410e0"
    },
    {
      "constant": true,
      "inputs": [],
      "name": "getFileSize",
      "outputs": [
        {
          "name": "_fileSize",
          "type": "uint8"
        }
      ],
      "payable": false,
      "stateMutability": "view",
      "type": "function",
      "signature": "0x1322f7fa"
    },
    {
      "constant": false,
      "inputs": [
        {
          "name": "_rootHash",
          "type": "bytes32"
        }
      ],
      "name": "setRootHash",
      "outputs": [],
      "payable": false,
      "stateMutability": "nonpayable",
      "type": "function",
      "signature": "0x2d7eae66"
    },
    {
      "constant": true,
      "inputs": [],
      "name": "getRootHash",
      "outputs": [
        {
          "name": "_rootHash",
          "type": "bytes32"
        }
      ],
      "payable": false,
      "stateMutability": "view",
      "type": "function",
      "signature": "0x80759f1f"
    },
    {
      "constant": false,
      "inputs": [
        {
          "name": "_collateralAmount",
          "type": "uint256"
        }
      ],
      "name": "setCollateralAmount",
      "outputs": [],
      "payable": false,
      "stateMutability": "nonpayable",
      "type": "function",
      "signature": "0x3d4f04ad"
    },
    {
      "constant": true,
      "inputs": [],
      "name": "getCollateralAmount",
      "outputs": [
        {
          "name": "_collateralAmount",
          "type": "uint256"
        }
      ],
      "payable": false,
      "stateMutability": "view",
      "type": "function",
      "signature": "0x315deeaa"
    },
    {
      "constant": false,
      "inputs": [
        {
          "name": "_time",
          "type": "uint256"
        }
      ],
      "name": "setStartTime",
      "outputs": [],
      "payable": false,
      "stateMutability": "nonpayable",
      "type": "function",
      "signature": "0x3e0a322d"
    },
    {
      "constant": true,
      "inputs": [],
      "name": "getStartTime",
      "outputs": [
        {
          "name": "_startTime",
          "type": "uint256"
        }
      ],
      "payable": false,
      "stateMutability": "view",
      "type": "function",
      "signature": "0xc828371e"
    },
    {
      "constant": false,
      "inputs": [
        {
          "name": "_time",
          "type": "uint256"
        }
      ],
      "name": "setEndTime",
      "outputs": [],
      "payable": false,
      "stateMutability": "nonpayable",
      "type": "function",
      "signature": "0xccb98ffc"
    },
    {
      "constant": true,
      "inputs": [],
      "name": "getEndTime",
      "outputs": [
        {
          "name": "_endTime",
          "type": "uint256"
        }
      ],
      "payable": false,
      "stateMutability": "view",
      "type": "function",
      "signature": "0x439f5ac2"
    }
  ],
  "bytecode": "0x60806040523480156200001157600080fd5b5060405160a080620010ce833981018060405260a08110156200003357600080fd5b810190808051906020019092919080519060200190929190805190602001909291908051906020019092919080519060200190929190505050600260149054906101000a900460ff1660ff16604051908082528060200260200182016040528015620000ae5781602001602082028038833980820191505090505b5060009080519060200190620000c6929190620001d5565b50600260149054906101000a900460ff1660ff16604051908082528060200260200182016040528015620001095781602001602082028038833980820191505090505b50600190805190602001906200012192919062000264565b5084600260006101000a81548173ffffffffffffffffffffffffffffffffffffffff021916908373ffffffffffffffffffffffffffffffffffffffff16021790555082600260156101000a81548160ff021916908360ff160217905550816003819055508060048190555083600260146101000a81548160ff021916908360ff160217905550426005819055506001600760006101000a81548160ff021916908360ff160217905550505050505062000324565b82805482825590600052602060002090810192821562000251579160200282015b82811115620002505782518260006101000a81548173ffffffffffffffffffffffffffffffffffffffff021916908373ffffffffffffffffffffffffffffffffffffffff16021790555091602001919060010190620001f6565b5b509050620002609190620002b6565b5090565b828054828255906000526020600020908101928215620002a3579160200282015b82811115620002a257825182559160200191906001019062000285565b5b509050620002b29190620002fc565b5090565b620002f991905b80821115620002f557600081816101000a81549073ffffffffffffffffffffffffffffffffffffffff021916905550600101620002bd565b5090565b90565b6200032191905b808211156200031d57600081600090555060010162000303565b5090565b90565b610d9a80620003346000396000f3fe608060405260043610610153576000357c0100000000000000000000000000000000000000000000000000000000900463ffffffff1680623c99b7146101585780631322f7fa1461021d57806316e8875b1461024e5780632d7eae66146102895780632e49d78b146102c4578063315deeaa14610302578063372522cc1461032d5780633d4f04ad146103995780633e0a322d146103d4578063439f5ac21461040f57806346e2577a1461043a5780634ce6c24a1461048b5780634e69d560146104bc57806356abe851146104ed57806359dc735c146105b257806370c3063d1461060957806380759f1f146106755780638526690a146106a0578063a7b410e0146106f1578063c8002ee51461072f578063c828371e1461076d578063ccb98ffc14610798578063ea48ee7b146107d3578063f136fd0814610811578063f1a22c611461084f578063ff38fe7a14610880575b600080fd5b34801561016457600080fd5b5061021b6004803603602081101561017b57600080fd5b810190808035906020019064010000000081111561019857600080fd5b8201836020820111156101aa57600080fd5b803590602001918460208302840111640100000000831117156101cc57600080fd5b919080806020026020016040519081016040528093929190818152602001838360200280828437600081840152601f19601f8201169050808301925050505050505091929192905050506108b1565b005b34801561022957600080fd5b506102326108cb565b604051808260ff1660ff16815260200191505060405180910390f35b34801561025a57600080fd5b506102876004803603602081101561027157600080fd5b81019080803590602001909291905050506108e2565b005b34801561029557600080fd5b506102c2600480360360208110156102ac57600080fd5b8101908080359060200190929190505050610911565b005b3480156102d057600080fd5b50610300600480360360208110156102e757600080fd5b81019080803560ff16906020019092919050505061091b565b005b34801561030e57600080fd5b50610317610939565b6040518082815260200191505060405180910390f35b34801561033957600080fd5b50610342610943565b6040518080602001828103825283818151815260200191508051906020019060200280838360005b8381101561038557808201518184015260208101905061036a565b505050509050019250505060405180910390f35b3480156103a557600080fd5b506103d2600480360360208110156103bc57600080fd5b810190808035906020019092919050505061099b565b005b3480156103e057600080fd5b5061040d600480360360208110156103f757600080fd5b81019080803590602001909291905050506109a5565b005b34801561041b57600080fd5b506104246109af565b6040518082815260200191505060405180910390f35b34801561044657600080fd5b506104896004803603602081101561045d57600080fd5b81019080803573ffffffffffffffffffffffffffffffffffffffff1690602001909291905050506109b9565b005b34801561049757600080fd5b506104a0610a22565b604051808260ff1660ff16815260200191505060405180910390f35b3480156104c857600080fd5b506104d1610a27565b604051808260ff1660ff16815260200191505060405180910390f35b3480156104f957600080fd5b506105b06004803603602081101561051057600080fd5b810190808035906020019064010000000081111561052d57600080fd5b82018360208201111561053f57600080fd5b8035906020019184602083028401116401000000008311171561056157600080fd5b919080806020026020016040519081016040528093929190818152602001838360200280828437600081840152601f19601f820116905080830192505050505050509192919290505050610a3e565b005b3480156105be57600080fd5b506105c7610a58565b604051808273ffffffffffffffffffffffffffffffffffffffff1673ffffffffffffffffffffffffffffffffffffffff16815260200191505060405180910390f35b34801561061557600080fd5b5061061e610a82565b6040518080602001828103825283818151815260200191508051906020019060200280838360005b83811015610661578082015181840152602081019050610646565b505050509050019250505060405180910390f35b34801561068157600080fd5b5061068a610b10565b6040518082815260200191505060405180910390f35b3480156106ac57600080fd5b506106ef600480360360208110156106c357600080fd5b81019080803573ffffffffffffffffffffffffffffffffffffffff169060200190929190505050610b1a565b005b3480156106fd57600080fd5b5061072d6004803603602081101561071457600080fd5b81019080803560ff169060200190929190505050610b5e565b005b34801561073b57600080fd5b5061076b6004803603602081101561075257600080fd5b81019080803560ff169060200190929190505050610b7c565b005b34801561077957600080fd5b50610782610b9a565b6040518082815260200191505060405180910390f35b3480156107a457600080fd5b506107d1600480360360208110156107bb57600080fd5b8101908080359060200190929190505050610ba4565b005b3480156107df57600080fd5b5061080f600480360360208110156107f657600080fd5b81019080803560ff169060200190929190505050610bae565b005b34801561081d57600080fd5b5061084d6004803603602081101561083457600080fd5b81019080803560ff169060200190929190505050610bf0565b005b34801561085b57600080fd5b50610864610c13565b604051808260ff1660ff16815260200191505060405180910390f35b34801561088c57600080fd5b50610895610c18565b604051808260ff1660ff16815260200191505060405180910390f35b80600190805190602001906108c7929190610c2f565b5050565b6000600260159054906101000a900460ff16905090565b600181908060018154018082558091505090600182039060005260206000200160009091929091909150555050565b8060038190555050565b80600760006101000a81548160ff021916908360ff16021790555050565b6000600454905090565b6060600180548060200260200160405190810160405280929190818152602001828054801561099157602002820191906000526020600020905b81548152602001906001019080831161097d575b5050505050905090565b8060048190555050565b8060058190555050565b6000600654905090565b60008190806001815401808255809150509060018203906000526020600020016000909192909190916101000a81548173ffffffffffffffffffffffffffffffffffffffff021916908373ffffffffffffffffffffffffffffffffffffffff1602179055505050565b600281565b6000600760009054906101000a900460ff16905090565b8060009080519060200190610a54929190610c7c565b5050565b6000600260009054906101000a900473ffffffffffffffffffffffffffffffffffffffff16905090565b60606000805480602002602001604051908101604052809291908181526020018280548015610b0657602002820191906000526020600020905b8160009054906101000a900473ffffffffffffffffffffffffffffffffffffffff1673ffffffffffffffffffffffffffffffffffffffff1681526020019060010190808311610abc575b5050505050905090565b6000600354905090565b80600260006101000a81548173ffffffffffffffffffffffffffffffffffffffff021916908373ffffffffffffffffffffffffffffffffffffffff16021790555050565b80600260156101000a81548160ff021916908360ff16021790555050565b80600260146101000a81548160ff021916908360ff16021790555050565b6000600554905090565b8060068190555050565b60008160ff16815481101515610bc057fe5b9060005260206000200160006101000a81549073ffffffffffffffffffffffffffffffffffffffff021916905550565b60018160ff16815481101515610c0257fe5b906000526020600020016000905550565b600181565b6000600260149054906101000a900460ff16905090565b828054828255906000526020600020908101928215610c6b579160200282015b82811115610c6a578251825591602001919060010190610c4f565b5b509050610c789190610d06565b5090565b828054828255906000526020600020908101928215610cf5579160200282015b82811115610cf45782518260006101000a81548173ffffffffffffffffffffffffffffffffffffffff021916908373ffffffffffffffffffffffffffffffffffffffff16021790555091602001919060010190610c9c565b5b509050610d029190610d2b565b5090565b610d2891905b80821115610d24576000816000905550600101610d0c565b5090565b90565b610d6b91905b80821115610d6757600081816101000a81549073ffffffffffffffffffffffffffffffffffffffff021916905550600101610d31565b5090565b9056fea165627a7a723058208482118b9ad59ae11f10f2c4fadbd53ee074117b8e78eafe10024de91438ea070029",
  "source": "pragma solidity ^0.5.0;\n\ncontract Auction{\n\n\taddress payable[] private providersList;\n\tuint[] private providersPriceList;\n    address payable private client;\n\tuint8 private providersNumber;\n    uint8 private fileSize;\n    bytes32 private rootHash;\n\tuint private collateralAmount;\n\tuint private startTime; //startTime is initiated to now in the init function of the auction. It is caclulated in seconds since the last Epoch.\n\tuint private endTime; //time the auction was completed.\n    uint8 private status; //state of the contract\n    //Status Constants\n    uint8 constant public ONGOING = 1;\n\tuint8 constant public COMPLETED = 2;\n\n\tconstructor(address payable _client, uint8 _providersNumber, uint8 _fileSize, bytes32 _rootHash, uint _collateralAmount)\n\tpublic\n\t{\n\t\tprovidersList = new address payable[](providersNumber);\n        providersPriceList = new uint[](providersNumber);\n\t\tclient = _client;\n        fileSize = _fileSize;\n        rootHash = _rootHash;\n\t\tcollateralAmount = _collateralAmount;\n\t\tprovidersNumber = _providersNumber;\n\t\tstartTime = now;\n\t\tstatus = ONGOING;\n\t}\n\n    function setProvidersList (address payable[] memory _providersList)\n    public\n    {\n        providersList = _providersList;\n    }\n\n    function addProvider (address payable _provider)\n    public\n    {\n        providersList.push(_provider);\n    }\n\n    function deleteProvider (uint8 index)\n    public\n    {\n        delete providersList[index];\n    }\n\n    function getProvidersList ()\n    public\n    view\n    returns (address payable[] memory _providersList)\n    {\n        return providersList;\n    }\n\n    function setClient (address payable _client)\n    public\n    {\n        client = _client;\n    }\n\n    function getClient ()\n    public\n    view\n    returns (address payable _client)\n    {\n        return client;\n    }\n\n    function setProvidersPriceList (uint[] memory _providersPriceList)\n    public\n    {\n        providersPriceList = _providersPriceList;\n    }\n\n    function addProvidersPrice (uint _price)\n    public\n    {\n        providersPriceList.push(_price);\n    }\n\n    function deleteProvidersPrice (uint8 index)\n    public\n    {\n        delete providersPriceList[index];\n    }\n\n    function getProvidersPriceList ()\n    public\n    view\n    returns (uint[] memory _providersPriceList)\n    {\n        return providersPriceList;\n    }\n\n    function setProvidersNumber (uint8 _providersNumber)\n    public\n    {\n        providersNumber = _providersNumber;\n    }\n\n    function getProvidersNumber ()\n    public\n    view\n    returns (uint8 _providersNumber)\n    {\n        return providersNumber;\n    }\n\n    function setStatus (uint8 _status)\n    public\n    {\n        status = _status;\n    }\n\n    function getStatus ()\n    public\n    view\n    returns (uint8 _status)\n    {\n        return status;\n    }\n\n    function setFileSize (uint8 _fileSize)\n    public\n    {\n        fileSize = _fileSize;\n    }\n\n    function getFileSize ()\n    public\n    view\n    returns (uint8 _fileSize)\n    {\n        return fileSize;\n    }\n\n    function setRootHash (bytes32 _rootHash)\n    public\n    {\n        rootHash = _rootHash;\n    }\n\n    function getRootHash ()\n    public\n    view\n    returns (bytes32 _rootHash)\n    {\n        return rootHash;\n    }\n\n    function setCollateralAmount (uint _collateralAmount)\n    public\n    {\n        collateralAmount = _collateralAmount;\n    }\n\n    function getCollateralAmount ()\n    public\n    view\n    returns (uint _collateralAmount)\n    {\n        return collateralAmount;\n    }\n\n    function setStartTime (uint _time)\n    public\n    {\n        startTime = _time;\n    }\n\n    function getStartTime ()\n    public\n    view\n    returns (uint _startTime)\n    {\n        return startTime;\n    }\n\n    function setEndTime (uint _time)\n    public\n    {\n        endTime = _time;\n    }\n\n    function getEndTime ()\n    public\n    view\n    returns (uint _endTime)\n    {\n        return endTime;\n    }\n\n}",
  "sourcePath": "/home/canagno/ethChain/truffle/contracts/Auction.sol",
  "compiler": {
    "name": "solc",
    "version": "0.5.0+commit.1d4f565a.Emscripten.clang"
  },
  "schemaVersion": "3.0.1",
  "updatedAt": "2020-03-06T06:05:29.906Z",
  "devdoc": {
    "methods": {}
  },
  "userdoc": {
    "methods": {}
  }
}