{
  "contractName": "Contract",
  "abi": [
    {
      "constant": true,
      "inputs": [],
      "name": "provider",
      "outputs": [
        {
          "name": "",
          "type": "address"
        }
      ],
      "payable": false,
      "stateMutability": "view",
      "type": "function"
    },
    {
      "constant": true,
      "inputs": [],
      "name": "client",
      "outputs": [
        {
          "name": "",
          "type": "address"
        }
      ],
      "payable": false,
      "stateMutability": "view",
      "type": "function"
    },
    {
      "constant": true,
      "inputs": [],
      "name": "rootHash",
      "outputs": [
        {
          "name": "",
          "type": "uint256"
        }
      ],
      "payable": false,
      "stateMutability": "view",
      "type": "function"
    },
    {
      "constant": true,
      "inputs": [],
      "name": "startTime",
      "outputs": [
        {
          "name": "",
          "type": "uint256"
        }
      ],
      "payable": false,
      "stateMutability": "view",
      "type": "function"
    },
    {
      "constant": true,
      "inputs": [],
      "name": "collateralAmount",
      "outputs": [
        {
          "name": "",
          "type": "uint256"
        }
      ],
      "payable": false,
      "stateMutability": "view",
      "type": "function"
    },
    {
      "constant": true,
      "inputs": [],
      "name": "price",
      "outputs": [
        {
          "name": "",
          "type": "uint256"
        }
      ],
      "payable": false,
      "stateMutability": "view",
      "type": "function"
    },
    {
      "constant": true,
      "inputs": [],
      "name": "state",
      "outputs": [
        {
          "name": "",
          "type": "bytes32"
        }
      ],
      "payable": false,
      "stateMutability": "view",
      "type": "function"
    },
    {
      "inputs": [
        {
          "name": "_provider",
          "type": "address"
        },
        {
          "name": "_client",
          "type": "address"
        },
        {
          "name": "_rootHash",
          "type": "uint256"
        },
        {
          "name": "_collateralAmount",
          "type": "uint256"
        },
        {
          "name": "_price",
          "type": "uint256"
        }
      ],
      "payable": false,
      "stateMutability": "nonpayable",
      "type": "constructor"
    },
    {
      "constant": false,
      "inputs": [
        {
          "name": "_provider",
          "type": "address"
        }
      ],
      "name": "setProvider",
      "outputs": [],
      "payable": false,
      "stateMutability": "nonpayable",
      "type": "function"
    },
    {
      "constant": false,
      "inputs": [
        {
          "name": "_client",
          "type": "address"
        }
      ],
      "name": "setClient",
      "outputs": [],
      "payable": false,
      "stateMutability": "nonpayable",
      "type": "function"
    },
    {
      "constant": false,
      "inputs": [
        {
          "name": "_rootHash",
          "type": "uint256"
        }
      ],
      "name": "setRootHash",
      "outputs": [],
      "payable": false,
      "stateMutability": "nonpayable",
      "type": "function"
    },
    {
      "constant": false,
      "inputs": [
        {
          "name": "_collateralAmount",
          "type": "uint256"
        }
      ],
      "name": "setCollateralAmount",
      "outputs": [],
      "payable": false,
      "stateMutability": "nonpayable",
      "type": "function"
    },
    {
      "constant": false,
      "inputs": [
        {
          "name": "_price",
          "type": "uint256"
        }
      ],
      "name": "setPrice",
      "outputs": [],
      "payable": false,
      "stateMutability": "nonpayable",
      "type": "function"
    },
    {
      "constant": false,
      "inputs": [
        {
          "name": "_state",
          "type": "bytes32"
        }
      ],
      "name": "setState",
      "outputs": [],
      "payable": false,
      "stateMutability": "nonpayable",
      "type": "function"
    },
    {
      "constant": false,
      "inputs": [
        {
          "name": "_time",
          "type": "uint256"
        }
      ],
      "name": "setStartTime",
      "outputs": [],
      "payable": false,
      "stateMutability": "nonpayable",
      "type": "function"
    }
  ],
  "bytecode": "0x608060405234801561001057600080fd5b5060405160a0806106b1833981018060405260a081101561003057600080fd5b810190808051906020019092919080519060200190929190805190602001909291908051906020019092919080519060200190929190505050846000806101000a81548173ffffffffffffffffffffffffffffffffffffffff021916908373ffffffffffffffffffffffffffffffffffffffff16021790555083600160006101000a81548173ffffffffffffffffffffffffffffffffffffffff021916908373ffffffffffffffffffffffffffffffffffffffff160217905550826002819055508160038190555080600481905550426005819055507f41637469766500000000000000000000000000000000000000000000000000006006819055505050505050610570806101416000396000f3fe6080604052600436106100cf576000357c0100000000000000000000000000000000000000000000000000000000900463ffffffff1680628df797146100d4578063085d48831461010f5780630ec3a87414610166578063109e94cf146101a15780631d80009a146101f85780633d4f04ad146102235780633e0a322d1461025e57806378e97925146102995780638526690a146102c457806391b7f5ed1461031557806392d09ceb14610350578063a035b1fe1461037b578063c19d93fb146103a6578063cfd8d6c0146103d1575b600080fd5b3480156100e057600080fd5b5061010d600480360360208110156100f757600080fd5b8101908080359060200190929190505050610422565b005b34801561011b57600080fd5b5061012461042c565b604051808273ffffffffffffffffffffffffffffffffffffffff1673ffffffffffffffffffffffffffffffffffffffff16815260200191505060405180910390f35b34801561017257600080fd5b5061019f6004803603602081101561018957600080fd5b8101908080359060200190929190505050610451565b005b3480156101ad57600080fd5b506101b661045b565b604051808273ffffffffffffffffffffffffffffffffffffffff1673ffffffffffffffffffffffffffffffffffffffff16815260200191505060405180910390f35b34801561020457600080fd5b5061020d610481565b6040518082815260200191505060405180910390f35b34801561022f57600080fd5b5061025c6004803603602081101561024657600080fd5b8101908080359060200190929190505050610487565b005b34801561026a57600080fd5b506102976004803603602081101561028157600080fd5b8101908080359060200190929190505050610491565b005b3480156102a557600080fd5b506102ae61049b565b6040518082815260200191505060405180910390f35b3480156102d057600080fd5b50610313600480360360208110156102e757600080fd5b81019080803573ffffffffffffffffffffffffffffffffffffffff1690602001909291905050506104a1565b005b34801561032157600080fd5b5061034e6004803603602081101561033857600080fd5b81019080803590602001909291905050506104e5565b005b34801561035c57600080fd5b506103656104ef565b6040518082815260200191505060405180910390f35b34801561038757600080fd5b506103906104f5565b6040518082815260200191505060405180910390f35b3480156103b257600080fd5b506103bb6104fb565b6040518082815260200191505060405180910390f35b3480156103dd57600080fd5b50610420600480360360208110156103f457600080fd5b81019080803573ffffffffffffffffffffffffffffffffffffffff169060200190929190505050610501565b005b8060068190555050565b6000809054906101000a900473ffffffffffffffffffffffffffffffffffffffff1681565b8060028190555050565b600160009054906101000a900473ffffffffffffffffffffffffffffffffffffffff1681565b60025481565b8060038190555050565b8060058190555050565b60055481565b80600160006101000a81548173ffffffffffffffffffffffffffffffffffffffff021916908373ffffffffffffffffffffffffffffffffffffffff16021790555050565b8060048190555050565b60035481565b60045481565b60065481565b806000806101000a81548173ffffffffffffffffffffffffffffffffffffffff021916908373ffffffffffffffffffffffffffffffffffffffff1602179055505056fea165627a7a7230582067139f6c00a128f778dcb0c089c703b33cd707455dd59813a3ab6d4b476dae640029",
  "source": "pragma solidity ^0.5.0;\n\ncontract Contract{\n\n\taddress payable public provider;\n\taddress payable public client;\n\tuint public rootHash;\n\tuint public collateralAmount; //collateralAmount is stored in wei (10^-19 eth)\n\tuint public price; //price is stored in wei (10^-19 eth)\n\tuint public startTime; //startTime is initiated to now in the init function and is refreshed every time a payment is made. It is caclulated in seconds since the last Epoch.\n\tbytes32 public state; //state of the contract, taking values from the State enum\n\n\tconstructor(address payable _provider, address payable _client, uint _rootHash, uint _collateralAmount, uint _price)\n\tpublic\n\t{\n\t\tprovider = _provider;\n\t\tclient = _client;\n\t\trootHash = _rootHash;\n\t\tcollateralAmount = _collateralAmount;\n\t\tprice = _price;\n\t\tstartTime = now;\n\t\tstate = \"Active\";\n\t}\n\n    function setProvider (address payable _provider) \n    public\n    {\n        provider = _provider;\n    }\n\n    function setClient (address payable _client) \n    public\n    {\n        client = _client;\n    }\n\n    function setRootHash (uint _rootHash) \n    public\n    {\n        rootHash = _rootHash;\n    }\n\n    function setCollateralAmount (uint _collateralAmount) \n    public\n    {\n        collateralAmount = _collateralAmount;\n    }\n\n    function setPrice (uint _price) \n    public\n    {\n        price = _price;\n    }\n\n    function setState (bytes32 _state) \n    public\n    {\n        state = _state;\n    }\n\n    function setStartTime (uint _time) \n    public\n    {\n        startTime = _time;\n    }\n\n}",
  "sourcePath": "/home/canagno/ethChain/truffle/contracts/Contract.sol",
  "compiler": {
    "name": "solc",
    "version": "0.5.0+commit.1d4f565a.Emscripten.clang"
  },
  "schemaVersion": "3.0.1",
  "updatedAt": "2019-03-31T12:45:27.808Z",
  "devdoc": {
    "methods": {}
  },
  "userdoc": {
    "methods": {}
  }
}