{
  "contractName": "Contract",
  "abi": [
    {
      "constant": true,
      "inputs": [],
      "name": "COMPLETED",
      "outputs": [
        {
          "name": "",
          "type": "uint8"
        }
      ],
      "payable": false,
      "stateMutability": "view",
      "type": "function",
      "signature": "0x4ce6c24a"
    },
    {
      "constant": true,
      "inputs": [],
      "name": "INVALID",
      "outputs": [
        {
          "name": "",
          "type": "uint8"
        }
      ],
      "payable": false,
      "stateMutability": "view",
      "type": "function",
      "signature": "0x7fcce2a9"
    },
    {
      "constant": true,
      "inputs": [],
      "name": "ACTIVE",
      "outputs": [
        {
          "name": "",
          "type": "uint8"
        }
      ],
      "payable": false,
      "stateMutability": "view",
      "type": "function",
      "signature": "0xc90bd047"
    },
    {
      "constant": true,
      "inputs": [],
      "name": "CANCELED",
      "outputs": [
        {
          "name": "",
          "type": "uint8"
        }
      ],
      "payable": false,
      "stateMutability": "view",
      "type": "function",
      "signature": "0xf2f4c1da"
    },
    {
      "inputs": [
        {
          "name": "_provider",
          "type": "address[]"
        },
        {
          "name": "_client",
          "type": "address"
        },
        {
          "name": "_rootHash",
          "type": "uint256"
        },
        {
          "name": "_collateralAmount",
          "type": "uint256"
        },
        {
          "name": "_price",
          "type": "uint256"
        }
      ],
      "payable": false,
      "stateMutability": "nonpayable",
      "type": "constructor",
      "signature": "constructor"
    },
    {
      "constant": false,
      "inputs": [
        {
          "name": "_provider",
          "type": "address[]"
        }
      ],
      "name": "setProvider",
      "outputs": [],
      "payable": false,
      "stateMutability": "nonpayable",
      "type": "function",
      "signature": "0xb316df77"
    },
    {
      "constant": true,
      "inputs": [],
      "name": "getProviders",
      "outputs": [
        {
          "name": "",
          "type": "address[]"
        }
      ],
      "payable": false,
      "stateMutability": "view",
      "type": "function",
      "signature": "0xedc922a9"
    },
    {
      "constant": false,
      "inputs": [
        {
          "name": "_client",
          "type": "address"
        }
      ],
      "name": "setClient",
      "outputs": [],
      "payable": false,
      "stateMutability": "nonpayable",
      "type": "function",
      "signature": "0x8526690a"
    },
    {
      "constant": true,
      "inputs": [],
      "name": "getClient",
      "outputs": [
        {
          "name": "_client",
          "type": "address"
        }
      ],
      "payable": false,
      "stateMutability": "view",
      "type": "function",
      "signature": "0x59dc735c"
    },
    {
      "constant": false,
      "inputs": [
        {
          "name": "_rootHash",
          "type": "uint256"
        }
      ],
      "name": "setRootHash",
      "outputs": [],
      "payable": false,
      "stateMutability": "nonpayable",
      "type": "function",
      "signature": "0x0ec3a874"
    },
    {
      "constant": true,
      "inputs": [],
      "name": "getRootHash",
      "outputs": [
        {
          "name": "_rootHash",
          "type": "uint256"
        }
      ],
      "payable": false,
      "stateMutability": "view",
      "type": "function",
      "signature": "0x80759f1f"
    },
    {
      "constant": false,
      "inputs": [
        {
          "name": "_collateralAmount",
          "type": "uint256"
        }
      ],
      "name": "setCollateralAmount",
      "outputs": [],
      "payable": false,
      "stateMutability": "nonpayable",
      "type": "function",
      "signature": "0x3d4f04ad"
    },
    {
      "constant": true,
      "inputs": [],
      "name": "getCollateralAmount",
      "outputs": [
        {
          "name": "_collateralAmount",
          "type": "uint256"
        }
      ],
      "payable": false,
      "stateMutability": "view",
      "type": "function",
      "signature": "0x315deeaa"
    },
    {
      "constant": false,
      "inputs": [
        {
          "name": "_price",
          "type": "uint256"
        }
      ],
      "name": "setPrice",
      "outputs": [],
      "payable": false,
      "stateMutability": "nonpayable",
      "type": "function",
      "signature": "0x91b7f5ed"
    },
    {
      "constant": true,
      "inputs": [],
      "name": "getPrice",
      "outputs": [
        {
          "name": "_price",
          "type": "uint256"
        }
      ],
      "payable": false,
      "stateMutability": "view",
      "type": "function",
      "signature": "0x98d5fdca"
    },
    {
      "constant": false,
      "inputs": [
        {
          "name": "_state",
          "type": "uint8"
        }
      ],
      "name": "setState",
      "outputs": [],
      "payable": false,
      "stateMutability": "nonpayable",
      "type": "function",
      "signature": "0x56de96db"
    },
    {
      "constant": true,
      "inputs": [],
      "name": "getState",
      "outputs": [
        {
          "name": "_state",
          "type": "uint8"
        }
      ],
      "payable": false,
      "stateMutability": "view",
      "type": "function",
      "signature": "0x1865c57d"
    },
    {
      "constant": false,
      "inputs": [
        {
          "name": "_time",
          "type": "uint256"
        }
      ],
      "name": "setStartTime",
      "outputs": [],
      "payable": false,
      "stateMutability": "nonpayable",
      "type": "function",
      "signature": "0x3e0a322d"
    },
    {
      "constant": true,
      "inputs": [],
      "name": "getStartTime",
      "outputs": [
        {
          "name": "_startTime",
          "type": "uint256"
        }
      ],
      "payable": false,
      "stateMutability": "view",
      "type": "function",
      "signature": "0xc828371e"
    }
  ],
  "bytecode": "0x608060405234801561001057600080fd5b50604051610a74380380610a74833981018060405260a081101561003357600080fd5b81019080805164010000000081111561004b57600080fd5b8281019050602081018481111561006157600080fd5b815185602082028301116401000000008211171561007e57600080fd5b50509291906020018051906020019092919080519060200190929190805190602001909291908051906020019092919050505084600090805190602001906100c792919061014b565b5083600160006101000a81548173ffffffffffffffffffffffffffffffffffffffff021916908373ffffffffffffffffffffffffffffffffffffffff160217905550826002819055508160038190555080600481905550426005819055506001600660006101000a81548160ff021916908360ff1602179055505050505050610218565b8280548282559060005260206000209081019282156101c4579160200282015b828111156101c35782518260006101000a81548173ffffffffffffffffffffffffffffffffffffffff021916908373ffffffffffffffffffffffffffffffffffffffff1602179055509160200191906001019061016b565b5b5090506101d191906101d5565b5090565b61021591905b8082111561021157600081816101000a81549073ffffffffffffffffffffffffffffffffffffffff0219169055506001016101db565b5090565b90565b61084d806102276000396000f3fe6080604052600436106100fc576000357c0100000000000000000000000000000000000000000000000000000000900463ffffffff1680630ec3a874146101015780631865c57d1461013c578063315deeaa1461016d5780633d4f04ad146101985780633e0a322d146101d35780634ce6c24a1461020e57806356de96db1461023f57806359dc735c1461027d5780637fcce2a9146102d457806380759f1f146103055780638526690a1461033057806391b7f5ed1461038157806398d5fdca146103bc578063b316df77146103e7578063c828371e146104ac578063c90bd047146104d7578063edc922a914610508578063f2f4c1da14610574575b600080fd5b34801561010d57600080fd5b5061013a6004803603602081101561012457600080fd5b81019080803590602001909291905050506105a5565b005b34801561014857600080fd5b506101516105af565b604051808260ff1660ff16815260200191505060405180910390f35b34801561017957600080fd5b506101826105c6565b6040518082815260200191505060405180910390f35b3480156101a457600080fd5b506101d1600480360360208110156101bb57600080fd5b81019080803590602001909291905050506105d0565b005b3480156101df57600080fd5b5061020c600480360360208110156101f657600080fd5b81019080803590602001909291905050506105da565b005b34801561021a57600080fd5b506102236105e4565b604051808260ff1660ff16815260200191505060405180910390f35b34801561024b57600080fd5b5061027b6004803603602081101561026257600080fd5b81019080803560ff1690602001909291905050506105e9565b005b34801561028957600080fd5b50610292610607565b604051808273ffffffffffffffffffffffffffffffffffffffff1673ffffffffffffffffffffffffffffffffffffffff16815260200191505060405180910390f35b3480156102e057600080fd5b506102e9610631565b604051808260ff1660ff16815260200191505060405180910390f35b34801561031157600080fd5b5061031a610636565b6040518082815260200191505060405180910390f35b34801561033c57600080fd5b5061037f6004803603602081101561035357600080fd5b81019080803573ffffffffffffffffffffffffffffffffffffffff169060200190929190505050610640565b005b34801561038d57600080fd5b506103ba600480360360208110156103a457600080fd5b8101908080359060200190929190505050610684565b005b3480156103c857600080fd5b506103d161068e565b6040518082815260200191505060405180910390f35b3480156103f357600080fd5b506104aa6004803603602081101561040a57600080fd5b810190808035906020019064010000000081111561042757600080fd5b82018360208201111561043957600080fd5b8035906020019184602083028401116401000000008311171561045b57600080fd5b919080806020026020016040519081016040528093929190818152602001838360200280828437600081840152601f19601f820116905080830192505050505050509192919290505050610698565b005b3480156104b857600080fd5b506104c16106b2565b6040518082815260200191505060405180910390f35b3480156104e357600080fd5b506104ec6106bc565b604051808260ff1660ff16815260200191505060405180910390f35b34801561051457600080fd5b5061051d6106c1565b6040518080602001828103825283818151815260200191508051906020019060200280838360005b83811015610560578082015181840152602081019050610545565b505050509050019250505060405180910390f35b34801561058057600080fd5b5061058961074f565b604051808260ff1660ff16815260200191505060405180910390f35b8060028190555050565b6000600660009054906101000a900460ff16905090565b6000600354905090565b8060038190555050565b8060058190555050565b600481565b80600660006101000a81548160ff021916908360ff16021790555050565b6000600160009054906101000a900473ffffffffffffffffffffffffffffffffffffffff16905090565b600281565b6000600254905090565b80600160006101000a81548173ffffffffffffffffffffffffffffffffffffffff021916908373ffffffffffffffffffffffffffffffffffffffff16021790555050565b8060048190555050565b6000600454905090565b80600090805190602001906106ae929190610754565b5050565b6000600554905090565b600181565b6060600080548060200260200160405190810160405280929190818152602001828054801561074557602002820191906000526020600020905b8160009054906101000a900473ffffffffffffffffffffffffffffffffffffffff1673ffffffffffffffffffffffffffffffffffffffff16815260200190600101908083116106fb575b5050505050905090565b600381565b8280548282559060005260206000209081019282156107cd579160200282015b828111156107cc5782518260006101000a81548173ffffffffffffffffffffffffffffffffffffffff021916908373ffffffffffffffffffffffffffffffffffffffff16021790555091602001919060010190610774565b5b5090506107da91906107de565b5090565b61081e91905b8082111561081a57600081816101000a81549073ffffffffffffffffffffffffffffffffffffffff0219169055506001016107e4565b5090565b9056fea165627a7a72305820a38a3badd61a314cdd905b06afddd630f55760d9f6aae9e279103f53b138773d0029",
  "source": "pragma solidity ^0.5.0;\n\ncontract Contract{\n\n\taddress payable[] private provider;\n\taddress payable private client;\n\tuint private rootHash;\n\tuint private collateralAmount; //collateralAmount is stored in wei (10^-19 eth)\n\tuint private price; //price is stored in wei (10^-19 eth)\n\tuint private startTime; //startTime is initiated to now in the init function. It is caclulated in seconds since the last Epoch.\n\tuint8 private state; //state of the contract\n    //State Constants\n    uint8 constant public ACTIVE = 1;\n\tuint8 constant public INVALID = 2;\n\tuint8 constant public CANCELED = 3;\n\tuint8 constant public COMPLETED = 4;\n\n\tconstructor(address payable[] memory _provider, address payable _client, uint _rootHash, uint _collateralAmount, uint _price)\n\tpublic\n\t{\n\t\tprovider = _provider;\n\t\tclient = _client;\n\t\trootHash = _rootHash;\n\t\tcollateralAmount = _collateralAmount;\n\t\tprice = _price;\n\t\tstartTime = now;\n\t\tstate = ACTIVE;\n\t}\n\n    function setProvider (address payable[] memory _provider) \n    public\n    {\n        provider = _provider;\n    }\n\n    function getProviders () \n    public\n    view\n    returns (address  payable[] memory)\n    {\n        return provider;\n    }\n\n    function setClient (address payable _client) \n    public\n    {\n        client = _client;\n    }\n\n    function getClient () \n    public\n    view\n    returns (address payable _client)\n    {\n        return client;\n    }\n\n    function setRootHash (uint _rootHash) \n    public\n    {\n        rootHash = _rootHash;\n    }\n\n    function getRootHash () \n    public\n    view\n    returns (uint _rootHash)\n    {\n        return rootHash;\n    }\n\n    function setCollateralAmount (uint _collateralAmount) \n    public\n    {\n        collateralAmount = _collateralAmount;\n    }\n\n    function getCollateralAmount () \n    public\n    view\n    returns (uint _collateralAmount)\n    {\n        return collateralAmount;\n    }\n\n    function setPrice (uint _price) \n    public\n    {\n        price = _price;\n    }\n\n    function getPrice () \n    public\n    view\n    returns (uint _price)\n    {\n        return price;\n    }\n\n    function setState (uint8 _state) \n    public\n    {\n        state = _state;\n    }\n\n    function getState () \n    public\n    view\n    returns (uint8 _state)\n    {\n        return state;\n    }\n\n    function setStartTime (uint _time) \n    public\n    {\n        startTime = _time;\n    }\n\n    function getStartTime () \n    public\n    view\n    returns (uint _startTime)\n    {\n        return startTime;\n    }\n\n}",
  "sourcePath": "/home/canagno/ethChain/truffle/contracts/Contract.sol",
  "compiler": {
    "name": "solc",
    "version": "0.5.0+commit.1d4f565a.Emscripten.clang"
  },
  "schemaVersion": "3.0.1",
  "updatedAt": "2019-05-14T15:12:28.172Z",
  "devdoc": {
    "methods": {}
  },
  "userdoc": {
    "methods": {}
  }
}