{
  "contractName": "contractExecutor",
  "abi": [
    {
      "constant": true,
      "inputs": [
        {
          "name": "",
          "type": "uint256"
        }
      ],
      "name": "contracts",
      "outputs": [
        {
          "name": "",
          "type": "address"
        }
      ],
      "payable": false,
      "stateMutability": "view",
      "type": "function",
      "signature": "0x474da79a"
    },
    {
      "constant": true,
      "inputs": [],
      "name": "COMPLETED",
      "outputs": [
        {
          "name": "",
          "type": "uint8"
        }
      ],
      "payable": false,
      "stateMutability": "view",
      "type": "function",
      "signature": "0x4ce6c24a"
    },
    {
      "constant": true,
      "inputs": [],
      "name": "INVALID",
      "outputs": [
        {
          "name": "",
          "type": "uint8"
        }
      ],
      "payable": false,
      "stateMutability": "view",
      "type": "function",
      "signature": "0x7fcce2a9"
    },
    {
      "constant": true,
      "inputs": [],
      "name": "ACTIVE",
      "outputs": [
        {
          "name": "",
          "type": "uint8"
        }
      ],
      "payable": false,
      "stateMutability": "view",
      "type": "function",
      "signature": "0xc90bd047"
    },
    {
      "constant": true,
      "inputs": [
        {
          "name": "",
          "type": "uint256"
        }
      ],
      "name": "paymentTime",
      "outputs": [
        {
          "name": "",
          "type": "uint256"
        }
      ],
      "payable": false,
      "stateMutability": "view",
      "type": "function",
      "signature": "0xe6886ed8"
    },
    {
      "constant": true,
      "inputs": [],
      "name": "CANCELED",
      "outputs": [
        {
          "name": "",
          "type": "uint8"
        }
      ],
      "payable": false,
      "stateMutability": "view",
      "type": "function",
      "signature": "0xf2f4c1da"
    },
    {
      "inputs": [
        {
          "name": "_rating",
          "type": "address"
        }
      ],
      "payable": false,
      "stateMutability": "nonpayable",
      "type": "constructor",
      "signature": "constructor"
    },
    {
      "payable": true,
      "stateMutability": "payable",
      "type": "fallback"
    },
    {
      "constant": false,
      "inputs": [
        {
          "name": "provider",
          "type": "address[]"
        },
        {
          "name": "client",
          "type": "address"
        },
        {
          "name": "rootHash",
          "type": "bytes32"
        },
        {
          "name": "collateralAmount",
          "type": "uint256"
        },
        {
          "name": "price",
          "type": "uint256"
        }
      ],
      "name": "initContract",
      "outputs": [
        {
          "name": "initMessage",
          "type": "bytes32"
        }
      ],
      "payable": true,
      "stateMutability": "payable",
      "type": "function",
      "signature": "0x8ee3bc53"
    },
    {
      "constant": true,
      "inputs": [
        {
          "name": "_id",
          "type": "uint256"
        }
      ],
      "name": "getContractInfo",
      "outputs": [
        {
          "name": "tempProvider",
          "type": "address[]"
        },
        {
          "name": "tempClient",
          "type": "address"
        },
        {
          "name": "tempPrice",
          "type": "uint256"
        },
        {
          "name": "infoMessage",
          "type": "bytes32"
        },
        {
          "name": "tempCollateral",
          "type": "uint256"
        },
        {
          "name": "tempTime",
          "type": "uint256"
        },
        {
          "name": "temppTime",
          "type": "uint256"
        },
        {
          "name": "tempState",
          "type": "uint8"
        }
      ],
      "payable": false,
      "stateMutability": "view",
      "type": "function",
      "signature": "0x8aa3e011"
    },
    {
      "constant": false,
      "inputs": [
        {
          "name": "_id",
          "type": "uint256"
        }
      ],
      "name": "pay",
      "outputs": [
        {
          "name": "paymentMessage",
          "type": "bytes32"
        }
      ],
      "payable": true,
      "stateMutability": "payable",
      "type": "function",
      "signature": "0xc290d691"
    },
    {
      "constant": false,
      "inputs": [
        {
          "name": "_id",
          "type": "uint256"
        }
      ],
      "name": "terminateCulpClient",
      "outputs": [
        {
          "name": "terminationMessage",
          "type": "bytes32"
        }
      ],
      "payable": true,
      "stateMutability": "payable",
      "type": "function",
      "signature": "0x29cbcedb"
    },
    {
      "constant": false,
      "inputs": [
        {
          "name": "_id",
          "type": "uint256"
        },
        {
          "name": "_provider",
          "type": "address"
        }
      ],
      "name": "terminateCulpProvider",
      "outputs": [
        {
          "name": "terminationMessage",
          "type": "bytes32"
        }
      ],
      "payable": true,
      "stateMutability": "payable",
      "type": "function",
      "signature": "0x6e2b8c89"
    },
    {
      "constant": false,
      "inputs": [
        {
          "name": "_id",
          "type": "uint256"
        }
      ],
      "name": "terminateMutual",
      "outputs": [
        {
          "name": "terminationMessage",
          "type": "bytes32"
        }
      ],
      "payable": true,
      "stateMutability": "payable",
      "type": "function",
      "signature": "0x39d46fd6"
    },
    {
      "constant": true,
      "inputs": [
        {
          "name": "_id",
          "type": "uint256"
        }
      ],
      "name": "timeDif",
      "outputs": [
        {
          "name": "",
          "type": "uint256"
        }
      ],
      "payable": false,
      "stateMutability": "view",
      "type": "function",
      "signature": "0xdeec16e9"
    },
    {
      "constant": false,
      "inputs": [
        {
          "name": "_id",
          "type": "uint256"
        }
      ],
      "name": "invalidateContract",
      "outputs": [],
      "payable": false,
      "stateMutability": "nonpayable",
      "type": "function",
      "signature": "0x59a48e46"
    }
  ],
  "bytecode": "0x60806040526000805534801561001457600080fd5b5060405160208061463a8339810180604052602081101561003457600080fd5b810190808051906020019092919050505080600460006101000a81548173ffffffffffffffffffffffffffffffffffffffff021916908373ffffffffffffffffffffffffffffffffffffffff160217905550506145a4806100966000396000f3fe608060405260043610620000df576000357c0100000000000000000000000000000000000000000000000000000000900463ffffffff16806329cbcedb14620000e157806339d46fd61462000126578063474da79a146200016b5780634ce6c24a14620001ea57806359a48e46146200021e5780636e2b8c89146200025d5780637fcce2a914620002c25780638aa3e01114620002f65780638ee3bc5314620003ef578063c290d69114620004ff578063c90bd0471462000544578063deec16e91462000578578063e6886ed814620005cb578063f2f4c1da146200061e575b005b6200011060048036036020811015620000f957600080fd5b810190808035906020019092919050505062000652565b6040518082815260200191505060405180910390f35b62000155600480360360208110156200013e57600080fd5b810190808035906020019092919050505062000bc7565b6040518082815260200191505060405180910390f35b3480156200017857600080fd5b50620001a8600480360360208110156200019157600080fd5b810190808035906020019092919050505062001349565b604051808273ffffffffffffffffffffffffffffffffffffffff1673ffffffffffffffffffffffffffffffffffffffff16815260200191505060405180910390f35b348015620001f757600080fd5b50620002026200137c565b604051808260ff1660ff16815260200191505060405180910390f35b3480156200022b57600080fd5b506200025b600480360360208110156200024457600080fd5b810190808035906020019092919050505062001381565b005b620002ac600480360360408110156200027557600080fd5b8101908080359060200190929190803573ffffffffffffffffffffffffffffffffffffffff169060200190929190505050620013ba565b6040518082815260200191505060405180910390f35b348015620002cf57600080fd5b50620002da62001a84565b604051808260ff1660ff16815260200191505060405180910390f35b3480156200030357600080fd5b5062000333600480360360208110156200031c57600080fd5b810190808035906020019092919050505062001a89565b60405180806020018973ffffffffffffffffffffffffffffffffffffffff1673ffffffffffffffffffffffffffffffffffffffff1681526020018881526020018781526020018681526020018581526020018481526020018360ff1660ff16815260200182810382528a818151815260200191508051906020019060200280838360005b83811015620003d4578082015181840152602081019050620003b7565b50505050905001995050505050505050505060405180910390f35b620004e9600480360360a08110156200040757600080fd5b81019080803590602001906401000000008111156200042557600080fd5b8201836020820111156200043857600080fd5b803590602001918460208302840111640100000000831117156200045b57600080fd5b919080806020026020016040519081016040528093929190818152602001838360200280828437600081840152601f19601f820116905080830192505050505050509192919290803573ffffffffffffffffffffffffffffffffffffffff16906020019092919080359060200190929190803590602001909291908035906020019092919050505062002b9f565b6040518082815260200191505060405180910390f35b6200052e600480360360208110156200051757600080fd5b810190808035906020019092919050505062002fe6565b6040518082815260200191505060405180910390f35b3480156200055157600080fd5b506200055c62003aad565b604051808260ff1660ff16815260200191505060405180910390f35b3480156200058557600080fd5b50620005b5600480360360208110156200059e57600080fd5b810190808035906020019092919050505062003ab2565b6040518082815260200191505060405180910390f35b348015620005d857600080fd5b506200060860048036036020811015620005f157600080fd5b810190808035906020019092919050505062003ad6565b6040518082815260200191505060405180910390f35b3480156200062b57600080fd5b506200063662003aee565b604051808260ff1660ff16815260200191505060405180910390f35b6000816228206f620006648262003ab2565b1115156200074c576040517f08c379a000000000000000000000000000000000000000000000000000000000815260040180806020018281038252606e8152602001807f436f6e74726163742063616e206265207465726d696e6174656420776974682081526020017f74686520636c69656e742063756c7061626c65206f6e6c79206966206d6f726581526020017f207468616e206f6e65206d6f6e746820686173207061737365642073696e636581526020017f206c617374207061796d656e742e00000000000000000000000000000000000081525060800191505060405180910390fd5b6001600084815260200190815260200160002060009054906101000a900473ffffffffffffffffffffffffffffffffffffffff1673ffffffffffffffffffffffffffffffffffffffff166356de96db60036040518263ffffffff167c0100000000000000000000000000000000000000000000000000000000028152600401808260ff1660ff168152602001915050600060405180830381600087803b158015620007f657600080fd5b505af11580156200080b573d6000803e3d6000fd5b5050505060606001600085815260200190815260200160002060009054906101000a900473ffffffffffffffffffffffffffffffffffffffff1673ffffffffffffffffffffffffffffffffffffffff1663edc922a96040518163ffffffff167c010000000000000000000000000000000000000000000000000000000002815260040160006040518083038186803b158015620008a757600080fd5b505afa158015620008bc573d6000803e3d6000fd5b505050506040513d6000823e3d601f19601f820116820180604052506020811015620008e757600080fd5b8101908080516401000000008111156200090057600080fd5b828101905060208101848111156200091757600080fd5b81518560208202830111640100000000821117156200093557600080fd5b5050929190505050905060006001600086815260200190815260200160002060009054906101000a900473ffffffffffffffffffffffffffffffffffffffff1673ffffffffffffffffffffffffffffffffffffffff1663315deeaa6040518163ffffffff167c010000000000000000000000000000000000000000000000000000000002815260040160206040518083038186803b158015620009d757600080fd5b505afa158015620009ec573d6000803e3d6000fd5b505050506040513d602081101562000a0357600080fd5b8101908080519060200190929190505050905060008090505b825181101562000b9057600460009054906101000a900473ffffffffffffffffffffffffffffffffffffffff1673ffffffffffffffffffffffffffffffffffffffff1663b57e2ec0848381518110151562000a7357fe5b906020019060200201516040518263ffffffff167c0100000000000000000000000000000000000000000000000000000000028152600401808273ffffffffffffffffffffffffffffffffffffffff1673ffffffffffffffffffffffffffffffffffffffff168152602001915050600060405180830381600087803b15801562000afc57600080fd5b505af115801562000b11573d6000803e3d6000fd5b50505050828181518110151562000b2457fe5b9060200190602002015173ffffffffffffffffffffffffffffffffffffffff166108fc84518481151562000b5457fe5b049081150290604051600060405180830381858888f1935050505015801562000b81573d6000803e3d6000fd5b50808060010191505062000a1c565b5062000b9c8562001381565b7f4f4b0000000000000000000000000000000000000000000000000000000000009350505050919050565b600081600f62000bd78262003ab2565b111562000c98576040517f08c379a00000000000000000000000000000000000000000000000000000000081526004018080602001828103825260568152602001807f436f6e74726163742063616e206265206d757475616c6c79207465726d696e6181526020017f746564206265666f72652068616c642061206d6f6e746820686173207061737381526020017f65642073696e6365206c617374207061796d656e742e0000000000000000000081525060600191505060405180910390fd5b6001600084815260200190815260200160002060009054906101000a900473ffffffffffffffffffffffffffffffffffffffff1673ffffffffffffffffffffffffffffffffffffffff166356de96db60046040518263ffffffff167c0100000000000000000000000000000000000000000000000000000000028152600401808260ff1660ff168152602001915050600060405180830381600087803b15801562000d4257600080fd5b505af115801562000d57573d6000803e3d6000fd5b5050505060606001600085815260200190815260200160002060009054906101000a900473ffffffffffffffffffffffffffffffffffffffff1673ffffffffffffffffffffffffffffffffffffffff1663edc922a96040518163ffffffff167c010000000000000000000000000000000000000000000000000000000002815260040160006040518083038186803b15801562000df357600080fd5b505afa15801562000e08573d6000803e3d6000fd5b505050506040513d6000823e3d601f19601f82011682018060405250602081101562000e3357600080fd5b81019080805164010000000081111562000e4c57600080fd5b8281019050602081018481111562000e6357600080fd5b815185602082028301116401000000008211171562000e8157600080fd5b5050929190505050905060006001600086815260200190815260200160002060009054906101000a900473ffffffffffffffffffffffffffffffffffffffff1673ffffffffffffffffffffffffffffffffffffffff1663315deeaa6040518163ffffffff167c010000000000000000000000000000000000000000000000000000000002815260040160206040518083038186803b15801562000f2357600080fd5b505afa15801562000f38573d6000803e3d6000fd5b505050506040513d602081101562000f4f57600080fd5b8101908080519060200190929190505050905060006001835101905060008090505b8351811015620011eb57600115620010e457838181518110151562000f9257fe5b9060200190602002015173ffffffffffffffffffffffffffffffffffffffff166108fc838581151562000fc157fe5b049081150290604051600060405180830381858888f1935050505015801562000fee573d6000803e3d6000fd5b50600460009054906101000a900473ffffffffffffffffffffffffffffffffffffffff1673ffffffffffffffffffffffffffffffffffffffff1663b57e2ec085838151811015156200103c57fe5b906020019060200201516040518263ffffffff167c0100000000000000000000000000000000000000000000000000000000028152600401808273ffffffffffffffffffffffffffffffffffffffff1673ffffffffffffffffffffffffffffffffffffffff168152602001915050600060405180830381600087803b158015620010c557600080fd5b505af1158015620010da573d6000803e3d6000fd5b50505050620011dd565b600460009054906101000a900473ffffffffffffffffffffffffffffffffffffffff1673ffffffffffffffffffffffffffffffffffffffff16636dbb0c8185838151811015156200113157fe5b906020019060200201516040518263ffffffff167c0100000000000000000000000000000000000000000000000000000000028152600401808273ffffffffffffffffffffffffffffffffffffffff1673ffffffffffffffffffffffffffffffffffffffff168152602001915050600060405180830381600087803b158015620011ba57600080fd5b505af1158015620011cf573d6000803e3d6000fd5b505050508180600190039250505b808060010191505062000f71565b506001600087815260200190815260200160002060009054906101000a900473ffffffffffffffffffffffffffffffffffffffff1673ffffffffffffffffffffffffffffffffffffffff166359dc735c6040518163ffffffff167c010000000000000000000000000000000000000000000000000000000002815260040160206040518083038186803b1580156200128257600080fd5b505afa15801562001297573d6000803e3d6000fd5b505050506040513d6020811015620012ae57600080fd5b810190808051906020019092919050505073ffffffffffffffffffffffffffffffffffffffff166108fc8284811515620012e457fe5b049081150290604051600060405180830381858888f1935050505015801562001311573d6000803e3d6000fd5b507f4f4b0000000000000000000000000000000000000000000000000000000000009450620013408662001381565b50505050919050565b60016020528060005260406000206000915054906101000a900473ffffffffffffffffffffffffffffffffffffffff1681565b600481565b6001600082815260200190815260200160002060006101000a81549073ffffffffffffffffffffffffffffffffffffffff021916905550565b60006001600084815260200190815260200160002060009054906101000a900473ffffffffffffffffffffffffffffffffffffffff1673ffffffffffffffffffffffffffffffffffffffff166356de96db60036040518263ffffffff167c0100000000000000000000000000000000000000000000000000000000028152600401808260ff1660ff168152602001915050600060405180830381600087803b1580156200146657600080fd5b505af11580156200147b573d6000803e3d6000fd5b5050505060606001600085815260200190815260200160002060009054906101000a900473ffffffffffffffffffffffffffffffffffffffff1673ffffffffffffffffffffffffffffffffffffffff1663edc922a96040518163ffffffff167c010000000000000000000000000000000000000000000000000000000002815260040160006040518083038186803b1580156200151757600080fd5b505afa1580156200152c573d6000803e3d6000fd5b505050506040513d6000823e3d601f19601f8201168201806040525060208110156200155757600080fd5b8101908080516401000000008111156200157057600080fd5b828101905060208101848111156200158757600080fd5b8151856020820283011164010000000082111715620015a557600080fd5b5050929190505050905060006001600086815260200190815260200160002060009054906101000a900473ffffffffffffffffffffffffffffffffffffffff1673ffffffffffffffffffffffffffffffffffffffff1663315deeaa6040518163ffffffff167c010000000000000000000000000000000000000000000000000000000002815260040160206040518083038186803b1580156200164757600080fd5b505afa1580156200165c573d6000803e3d6000fd5b505050506040513d60208110156200167357600080fd5b81019080805190602001909291905050509050600460009054906101000a900473ffffffffffffffffffffffffffffffffffffffff1673ffffffffffffffffffffffffffffffffffffffff16636dbb0c81856040518263ffffffff167c0100000000000000000000000000000000000000000000000000000000028152600401808273ffffffffffffffffffffffffffffffffffffffff1673ffffffffffffffffffffffffffffffffffffffff168152602001915050600060405180830381600087803b1580156200174457600080fd5b505af115801562001759573d6000803e3d6000fd5b5050505060008090505b825181101562001a4d578473ffffffffffffffffffffffffffffffffffffffff1683828151811015156200179357fe5b9060200190602002015173ffffffffffffffffffffffffffffffffffffffff161415156200191857600460009054906101000a900473ffffffffffffffffffffffffffffffffffffffff1673ffffffffffffffffffffffffffffffffffffffff1663b57e2ec084838151811015156200180857fe5b906020019060200201516040518263ffffffff167c0100000000000000000000000000000000000000000000000000000000028152600401808273ffffffffffffffffffffffffffffffffffffffff1673ffffffffffffffffffffffffffffffffffffffff168152602001915050600060405180830381600087803b1580156200189157600080fd5b505af1158015620018a6573d6000803e3d6000fd5b505050508281815181101515620018b957fe5b9060200190602002015173ffffffffffffffffffffffffffffffffffffffff166108fc845184811515620018e957fe5b049081150290604051600060405180830381858888f1935050505015801562001916573d6000803e3d6000fd5b505b6001600087815260200190815260200160002060009054906101000a900473ffffffffffffffffffffffffffffffffffffffff1673ffffffffffffffffffffffffffffffffffffffff166359dc735c6040518163ffffffff167c010000000000000000000000000000000000000000000000000000000002815260040160206040518083038186803b158015620019ae57600080fd5b505afa158015620019c3573d6000803e3d6000fd5b505050506040513d6020811015620019da57600080fd5b810190808051906020019092919050505073ffffffffffffffffffffffffffffffffffffffff166108fc84518481151562001a1157fe5b049081150290604051600060405180830381858888f1935050505015801562001a3e573d6000803e3d6000fd5b50808060010191505062001763565b5062001a598562001381565b7f4f4b0000000000000000000000000000000000000000000000000000000000009250505092915050565b600281565b606060008060008060008060008073ffffffffffffffffffffffffffffffffffffffff16600160008b815260200190815260200160002060009054906101000a900473ffffffffffffffffffffffffffffffffffffffff1673ffffffffffffffffffffffffffffffffffffffff166359dc735c6040518163ffffffff167c010000000000000000000000000000000000000000000000000000000002815260040160206040518083038186803b15801562001b4357600080fd5b505afa15801562001b58573d6000803e3d6000fd5b505050506040513d602081101562001b6f57600080fd5b810190808051906020019092919050505073ffffffffffffffffffffffffffffffffffffffff161415156200213457600160008a815260200190815260200160002060009054906101000a900473ffffffffffffffffffffffffffffffffffffffff1673ffffffffffffffffffffffffffffffffffffffff1663edc922a96040518163ffffffff167c010000000000000000000000000000000000000000000000000000000002815260040160006040518083038186803b15801562001c3457600080fd5b505afa15801562001c49573d6000803e3d6000fd5b505050506040513d6000823e3d601f19601f82011682018060405250602081101562001c7457600080fd5b81019080805164010000000081111562001c8d57600080fd5b8281019050602081018481111562001ca457600080fd5b815185602082028301116401000000008211171562001cc257600080fd5b50509291905050509750600160008a815260200190815260200160002060009054906101000a900473ffffffffffffffffffffffffffffffffffffffff1673ffffffffffffffffffffffffffffffffffffffff166359dc735c6040518163ffffffff167c010000000000000000000000000000000000000000000000000000000002815260040160206040518083038186803b15801562001d6257600080fd5b505afa15801562001d77573d6000803e3d6000fd5b505050506040513d602081101562001d8e57600080fd5b81019080805190602001909291905050509650600160008a815260200190815260200160002060009054906101000a900473ffffffffffffffffffffffffffffffffffffffff1673ffffffffffffffffffffffffffffffffffffffff1663c828371e6040518163ffffffff167c010000000000000000000000000000000000000000000000000000000002815260040160206040518083038186803b15801562001e3757600080fd5b505afa15801562001e4c573d6000803e3d6000fd5b505050506040513d602081101562001e6357600080fd5b81019080805190602001909291905050509250600160008a815260200190815260200160002060009054906101000a900473ffffffffffffffffffffffffffffffffffffffff1673ffffffffffffffffffffffffffffffffffffffff166398d5fdca6040518163ffffffff167c010000000000000000000000000000000000000000000000000000000002815260040160206040518083038186803b15801562001f0c57600080fd5b505afa15801562001f21573d6000803e3d6000fd5b505050506040513d602081101562001f3857600080fd5b81019080805190602001909291905050509550600260008a8152602001908152602001600020549150600160008a815260200190815260200160002060009054906101000a900473ffffffffffffffffffffffffffffffffffffffff1673ffffffffffffffffffffffffffffffffffffffff1663315deeaa6040518163ffffffff167c010000000000000000000000000000000000000000000000000000000002815260040160206040518083038186803b15801562001ff757600080fd5b505afa1580156200200c573d6000803e3d6000fd5b505050506040513d60208110156200202357600080fd5b81019080805190602001909291905050509350600160008a815260200190815260200160002060009054906101000a900473ffffffffffffffffffffffffffffffffffffffff1673ffffffffffffffffffffffffffffffffffffffff16631865c57d6040518163ffffffff167c010000000000000000000000000000000000000000000000000000000002815260040160206040518083038186803b158015620020cc57600080fd5b505afa158015620020e1573d6000803e3d6000fd5b505050506040513d6020811015620020f857600080fd5b810190808051906020019092919050505090507f4f4b000000000000000000000000000000000000000000000000000000000000945062002b94565b600260ff16600160008b815260200190815260200160002060009054906101000a900473ffffffffffffffffffffffffffffffffffffffff1673ffffffffffffffffffffffffffffffffffffffff16631865c57d6040518163ffffffff167c010000000000000000000000000000000000000000000000000000000002815260040160206040518083038186803b158015620021cf57600080fd5b505afa158015620021e4573d6000803e3d6000fd5b505050506040513d6020811015620021fb57600080fd5b810190808051906020019092919050505060ff161415620026d757600160008a815260200190815260200160002060009054906101000a900473ffffffffffffffffffffffffffffffffffffffff1673ffffffffffffffffffffffffffffffffffffffff1663edc922a96040518163ffffffff167c010000000000000000000000000000000000000000000000000000000002815260040160006040518083038186803b158015620022ac57600080fd5b505afa158015620022c1573d6000803e3d6000fd5b505050506040513d6000823e3d601f19601f820116820180604052506020811015620022ec57600080fd5b8101908080516401000000008111156200230557600080fd5b828101905060208101848111156200231c57600080fd5b81518560208202830111640100000000821117156200233a57600080fd5b50509291905050509750600160008a815260200190815260200160002060009054906101000a900473ffffffffffffffffffffffffffffffffffffffff1673ffffffffffffffffffffffffffffffffffffffff166359dc735c6040518163ffffffff167c010000000000000000000000000000000000000000000000000000000002815260040160206040518083038186803b158015620023da57600080fd5b505afa158015620023ef573d6000803e3d6000fd5b505050506040513d60208110156200240657600080fd5b81019080805190602001909291905050509650600160008a815260200190815260200160002060009054906101000a900473ffffffffffffffffffffffffffffffffffffffff1673ffffffffffffffffffffffffffffffffffffffff1663c828371e6040518163ffffffff167c010000000000000000000000000000000000000000000000000000000002815260040160206040518083038186803b158015620024af57600080fd5b505afa158015620024c4573d6000803e3d6000fd5b505050506040513d6020811015620024db57600080fd5b81019080805190602001909291905050509250600160008a815260200190815260200160002060009054906101000a900473ffffffffffffffffffffffffffffffffffffffff1673ffffffffffffffffffffffffffffffffffffffff166398d5fdca6040518163ffffffff167c010000000000000000000000000000000000000000000000000000000002815260040160206040518083038186803b1580156200258457600080fd5b505afa15801562002599573d6000803e3d6000fd5b505050506040513d6020811015620025b057600080fd5b81019080805190602001909291905050509550600260008a8152602001908152602001600020549150600160008a815260200190815260200160002060009054906101000a900473ffffffffffffffffffffffffffffffffffffffff1673ffffffffffffffffffffffffffffffffffffffff16631865c57d6040518163ffffffff167c010000000000000000000000000000000000000000000000000000000002815260040160206040518083038186803b1580156200266f57600080fd5b505afa15801562002684573d6000803e3d6000fd5b505050506040513d60208110156200269b57600080fd5b810190808051906020019092919050505090507f4e6f7420656e6f7567682066756e64732e000000000000000000000000000000945062002b93565b600160008a815260200190815260200160002060009054906101000a900473ffffffffffffffffffffffffffffffffffffffff1673ffffffffffffffffffffffffffffffffffffffff1663edc922a96040518163ffffffff167c010000000000000000000000000000000000000000000000000000000002815260040160006040518083038186803b1580156200276d57600080fd5b505afa15801562002782573d6000803e3d6000fd5b505050506040513d6000823e3d601f19601f820116820180604052506020811015620027ad57600080fd5b810190808051640100000000811115620027c657600080fd5b82810190506020810184811115620027dd57600080fd5b8151856020820283011164010000000082111715620027fb57600080fd5b50509291905050509750600160008a815260200190815260200160002060009054906101000a900473ffffffffffffffffffffffffffffffffffffffff1673ffffffffffffffffffffffffffffffffffffffff166359dc735c6040518163ffffffff167c010000000000000000000000000000000000000000000000000000000002815260040160206040518083038186803b1580156200289b57600080fd5b505afa158015620028b0573d6000803e3d6000fd5b505050506040513d6020811015620028c757600080fd5b81019080805190602001909291905050509650600160008a815260200190815260200160002060009054906101000a900473ffffffffffffffffffffffffffffffffffffffff1673ffffffffffffffffffffffffffffffffffffffff1663c828371e6040518163ffffffff167c010000000000000000000000000000000000000000000000000000000002815260040160206040518083038186803b1580156200297057600080fd5b505afa15801562002985573d6000803e3d6000fd5b505050506040513d60208110156200299c57600080fd5b81019080805190602001909291905050509250600160008a815260200190815260200160002060009054906101000a900473ffffffffffffffffffffffffffffffffffffffff1673ffffffffffffffffffffffffffffffffffffffff166398d5fdca6040518163ffffffff167c010000000000000000000000000000000000000000000000000000000002815260040160206040518083038186803b15801562002a4557600080fd5b505afa15801562002a5a573d6000803e3d6000fd5b505050506040513d602081101562002a7157600080fd5b81019080805190602001909291905050509550600260008a8152602001908152602001600020549150600160008a815260200190815260200160002060009054906101000a900473ffffffffffffffffffffffffffffffffffffffff1673ffffffffffffffffffffffffffffffffffffffff16631865c57d6040518163ffffffff167c010000000000000000000000000000000000000000000000000000000002815260040160206040518083038186803b15801562002b3057600080fd5b505afa15801562002b45573d6000803e3d6000fd5b505050506040513d602081101562002b5c57600080fd5b810190808051906020019092919050505090507f4e6f20436f6e747261637420696e697469616c697a65642e000000000000000094505b5b919395975091939597565b600082600181023414151562002c43576040517f08c379a000000000000000000000000000000000000000000000000000000000815260040180806020018281038252602b8152602001807f496e73756666696369656e74206f722065786365737369766520636f6c6c617481526020017f6572616c20616d6f756e7400000000000000000000000000000000000000000081525060400191505060405180910390fd5b868686868662002c5262003af3565b80806020018673ffffffffffffffffffffffffffffffffffffffff1673ffffffffffffffffffffffffffffffffffffffff168152602001858152602001848152602001838152602001828103825287818151815260200191508051906020019060200280838360005b8381101562002cd857808201518184015260208101905062002cbb565b505050509050019650505050505050604051809103906000f08015801562002d04573d6000803e3d6000fd5b50600160008054815260200190815260200160002060006101000a81548173ffffffffffffffffffffffffffffffffffffffff021916908373ffffffffffffffffffffffffffffffffffffffff16021790555060008090505b875181101562002f8e57600460009054906101000a900473ffffffffffffffffffffffffffffffffffffffff1673ffffffffffffffffffffffffffffffffffffffff16635a120d2f898381518110151562002db457fe5b906020019060200201516040518263ffffffff167c0100000000000000000000000000000000000000000000000000000000028152600401808273ffffffffffffffffffffffffffffffffffffffff1673ffffffffffffffffffffffffffffffffffffffff16815260200191505060206040518083038186803b15801562002e3b57600080fd5b505afa15801562002e50573d6000803e3d6000fd5b505050506040513d602081101562002e6757600080fd5b81019080805190602001909291905050501562002f12576040517f08c379a00000000000000000000000000000000000000000000000000000000081526004018080602001828103825260248152602001807f4f6e65206f66207468652070726f76696465727320697320626c61636b6c697381526020017f7465642e0000000000000000000000000000000000000000000000000000000081525060400191505060405180910390fd5b42600360008054815260200190815260200160002060008a8481518110151562002f3857fe5b9060200190602002015173ffffffffffffffffffffffffffffffffffffffff1673ffffffffffffffffffffffffffffffffffffffff16815260200190815260200160002081905550808060010191505062002d5d565b504260026000805481526020019081526020016000208190555060008081548092919060010191905055507f496e697469616c697a6174696f6e207375636365737366756c6c2e000000000091505095945050505050565b6000816001600082815260200190815260200160002060009054906101000a900473ffffffffffffffffffffffffffffffffffffffff1673ffffffffffffffffffffffffffffffffffffffff166359dc735c6040518163ffffffff167c010000000000000000000000000000000000000000000000000000000002815260040160206040518083038186803b1580156200307f57600080fd5b505afa15801562003094573d6000803e3d6000fd5b505050506040513d6020811015620030ab57600080fd5b810190808051906020019092919050505073ffffffffffffffffffffffffffffffffffffffff163373ffffffffffffffffffffffffffffffffffffffff1614151562003185576040517f08c379a00000000000000000000000000000000000000000000000000000000081526004018080602001828103825260258152602001807f4f6e6c792074686520636c69656e742063616e207061792074686520636f6e7481526020017f726163742e00000000000000000000000000000000000000000000000000000081525060400191505060405180910390fd5b82600160ff166001600083815260200190815260200160002060009054906101000a900473ffffffffffffffffffffffffffffffffffffffff1673ffffffffffffffffffffffffffffffffffffffff16631865c57d6040518163ffffffff167c010000000000000000000000000000000000000000000000000000000002815260040160206040518083038186803b1580156200322157600080fd5b505afa15801562003236573d6000803e3d6000fd5b505050506040513d60208110156200324d57600080fd5b810190808051906020019092919050505060ff1614158015620033495750600260ff166001600083815260200190815260200160002060009054906101000a900473ffffffffffffffffffffffffffffffffffffffff1673ffffffffffffffffffffffffffffffffffffffff16631865c57d6040518163ffffffff167c010000000000000000000000000000000000000000000000000000000002815260040160206040518083038186803b1580156200330657600080fd5b505afa1580156200331b573d6000803e3d6000fd5b505050506040513d60208110156200333257600080fd5b810190808051906020019092919050505060ff1614155b15620033bd576040517f08c379a00000000000000000000000000000000000000000000000000000000081526004018080602001828103825260178152602001807f436f6e7472616374206973207465726d696e617465642e00000000000000000081525060200191505060405180910390fd5b83601e620033cb8262003ab2565b101562003440576040517f08c379a00000000000000000000000000000000000000000000000000000000081526004018080602001828103825260208152602001807f5061796d656e747320617265206d6164652065766572792031206d6f6e74682e81525060200191505060405180910390fd5b84600180600083815260200190815260200160002060009054906101000a900473ffffffffffffffffffffffffffffffffffffffff1673ffffffffffffffffffffffffffffffffffffffff166398d5fdca6040518163ffffffff167c010000000000000000000000000000000000000000000000000000000002815260040160206040518083038186803b158015620034d857600080fd5b505afa158015620034ed573d6000803e3d6000fd5b505050506040513d60208110156200350457600080fd5b8101908080519060200190929190505050023414151562003650576001600082815260200190815260200160002060009054906101000a900473ffffffffffffffffffffffffffffffffffffffff1673ffffffffffffffffffffffffffffffffffffffff166356de96db60026040518263ffffffff167c0100000000000000000000000000000000000000000000000000000000028152600401808260ff1660ff168152602001915050600060405180830381600087803b158015620035c957600080fd5b505af1158015620035de573d6000803e3d6000fd5b505050506040517f08c379a00000000000000000000000000000000000000000000000000000000081526004018080602001828103825260208152602001807f496e73756666696369656e74206f722065786365737369766520616d6f756e7481525060200191505060405180910390fd5b60606001600088815260200190815260200160002060009054906101000a900473ffffffffffffffffffffffffffffffffffffffff1673ffffffffffffffffffffffffffffffffffffffff1663edc922a96040518163ffffffff167c010000000000000000000000000000000000000000000000000000000002815260040160006040518083038186803b158015620036e857600080fd5b505afa158015620036fd573d6000803e3d6000fd5b505050506040513d6000823e3d601f19601f8201168201806040525060208110156200372857600080fd5b8101908080516401000000008111156200374157600080fd5b828101905060208101848111156200375857600080fd5b81518560208202830111640100000000821117156200377657600080fd5b5050929190505050905060008090505b815181101562003aa25760008282815181101515620037a157fe5b90602001906020020151905060008173ffffffffffffffffffffffffffffffffffffffff163190508173ffffffffffffffffffffffffffffffffffffffff166108fc855134811515620037f057fe5b049081150290604051600060405180830381858888f193505050501580156200381d573d6000803e3d6000fd5b508351600160008c815260200190815260200160002060009054906101000a900473ffffffffffffffffffffffffffffffffffffffff1673ffffffffffffffffffffffffffffffffffffffff166398d5fdca6040518163ffffffff167c010000000000000000000000000000000000000000000000000000000002815260040160206040518083038186803b158015620038b657600080fd5b505afa158015620038cb573d6000803e3d6000fd5b505050506040513d6020811015620038e257600080fd5b8101908080519060200190929190505050811515620038fd57fe5b0481018273ffffffffffffffffffffffffffffffffffffffff1631101515620039615742600260008c8152602001908152602001600020819055507f5061796d656e74207375636365737366756c6c2e000000000000000000000000985062003a92565b600160008b815260200190815260200160002060009054906101000a900473ffffffffffffffffffffffffffffffffffffffff1673ffffffffffffffffffffffffffffffffffffffff166356de96db60026040518263ffffffff167c0100000000000000000000000000000000000000000000000000000000028152600401808260ff1660ff168152602001915050600060405180830381600087803b15801562003a0b57600080fd5b505af115801562003a20573d6000803e3d6000fd5b505050506040517f08c379a00000000000000000000000000000000000000000000000000000000081526004018080602001828103825260128152602001807f5472616e73616374696f6e206661696c6564000000000000000000000000000081525060200191505060405180910390fd5b5050808060010191505062003786565b505050505050919050565b600181565b60008060026000848152602001908152602001600020544203905080915050919050565b60026020528060005260406000206000915090505481565b600381565b604051610a748062003b058339019056fe608060405234801561001057600080fd5b50604051610a74380380610a74833981018060405260a081101561003357600080fd5b81019080805164010000000081111561004b57600080fd5b8281019050602081018481111561006157600080fd5b815185602082028301116401000000008211171561007e57600080fd5b50509291906020018051906020019092919080519060200190929190805190602001909291908051906020019092919050505084600090805190602001906100c792919061014b565b5083600160006101000a81548173ffffffffffffffffffffffffffffffffffffffff021916908373ffffffffffffffffffffffffffffffffffffffff160217905550826002819055508160038190555080600481905550426005819055506001600660006101000a81548160ff021916908360ff1602179055505050505050610218565b8280548282559060005260206000209081019282156101c4579160200282015b828111156101c35782518260006101000a81548173ffffffffffffffffffffffffffffffffffffffff021916908373ffffffffffffffffffffffffffffffffffffffff1602179055509160200191906001019061016b565b5b5090506101d191906101d5565b5090565b61021591905b8082111561021157600081816101000a81549073ffffffffffffffffffffffffffffffffffffffff0219169055506001016101db565b5090565b90565b61084d806102276000396000f3fe6080604052600436106100fc576000357c0100000000000000000000000000000000000000000000000000000000900463ffffffff1680631865c57d146101015780632d7eae6614610132578063315deeaa1461016d5780633d4f04ad146101985780633e0a322d146101d35780634ce6c24a1461020e57806356de96db1461023f57806359dc735c1461027d5780637fcce2a9146102d457806380759f1f146103055780638526690a1461033057806391b7f5ed1461038157806398d5fdca146103bc578063b316df77146103e7578063c828371e146104ac578063c90bd047146104d7578063edc922a914610508578063f2f4c1da14610574575b600080fd5b34801561010d57600080fd5b506101166105a5565b604051808260ff1660ff16815260200191505060405180910390f35b34801561013e57600080fd5b5061016b6004803603602081101561015557600080fd5b81019080803590602001909291905050506105bc565b005b34801561017957600080fd5b506101826105c6565b6040518082815260200191505060405180910390f35b3480156101a457600080fd5b506101d1600480360360208110156101bb57600080fd5b81019080803590602001909291905050506105d0565b005b3480156101df57600080fd5b5061020c600480360360208110156101f657600080fd5b81019080803590602001909291905050506105da565b005b34801561021a57600080fd5b506102236105e4565b604051808260ff1660ff16815260200191505060405180910390f35b34801561024b57600080fd5b5061027b6004803603602081101561026257600080fd5b81019080803560ff1690602001909291905050506105e9565b005b34801561028957600080fd5b50610292610607565b604051808273ffffffffffffffffffffffffffffffffffffffff1673ffffffffffffffffffffffffffffffffffffffff16815260200191505060405180910390f35b3480156102e057600080fd5b506102e9610631565b604051808260ff1660ff16815260200191505060405180910390f35b34801561031157600080fd5b5061031a610636565b6040518082815260200191505060405180910390f35b34801561033c57600080fd5b5061037f6004803603602081101561035357600080fd5b81019080803573ffffffffffffffffffffffffffffffffffffffff169060200190929190505050610640565b005b34801561038d57600080fd5b506103ba600480360360208110156103a457600080fd5b8101908080359060200190929190505050610684565b005b3480156103c857600080fd5b506103d161068e565b6040518082815260200191505060405180910390f35b3480156103f357600080fd5b506104aa6004803603602081101561040a57600080fd5b810190808035906020019064010000000081111561042757600080fd5b82018360208201111561043957600080fd5b8035906020019184602083028401116401000000008311171561045b57600080fd5b919080806020026020016040519081016040528093929190818152602001838360200280828437600081840152601f19601f820116905080830192505050505050509192919290505050610698565b005b3480156104b857600080fd5b506104c16106b2565b6040518082815260200191505060405180910390f35b3480156104e357600080fd5b506104ec6106bc565b604051808260ff1660ff16815260200191505060405180910390f35b34801561051457600080fd5b5061051d6106c1565b6040518080602001828103825283818151815260200191508051906020019060200280838360005b83811015610560578082015181840152602081019050610545565b505050509050019250505060405180910390f35b34801561058057600080fd5b5061058961074f565b604051808260ff1660ff16815260200191505060405180910390f35b6000600660009054906101000a900460ff16905090565b8060028190555050565b6000600354905090565b8060038190555050565b8060058190555050565b600481565b80600660006101000a81548160ff021916908360ff16021790555050565b6000600160009054906101000a900473ffffffffffffffffffffffffffffffffffffffff16905090565b600281565b6000600254905090565b80600160006101000a81548173ffffffffffffffffffffffffffffffffffffffff021916908373ffffffffffffffffffffffffffffffffffffffff16021790555050565b8060048190555050565b6000600454905090565b80600090805190602001906106ae929190610754565b5050565b6000600554905090565b600181565b6060600080548060200260200160405190810160405280929190818152602001828054801561074557602002820191906000526020600020905b8160009054906101000a900473ffffffffffffffffffffffffffffffffffffffff1673ffffffffffffffffffffffffffffffffffffffff16815260200190600101908083116106fb575b5050505050905090565b600381565b8280548282559060005260206000209081019282156107cd579160200282015b828111156107cc5782518260006101000a81548173ffffffffffffffffffffffffffffffffffffffff021916908373ffffffffffffffffffffffffffffffffffffffff16021790555091602001919060010190610774565b5b5090506107da91906107de565b5090565b61081e91905b8082111561081a57600081816101000a81549073ffffffffffffffffffffffffffffffffffffffff0219169055506001016107e4565b5090565b9056fea165627a7a72305820abc4ecda371e11e40adedad6c7355c69ce0fa9cef1538c92fcf64af822549d710029a165627a7a72305820befe661a9d49057289510d9e2e773775d6f978d575e812d1e949c89f4f3b31050029",
  "source": "pragma solidity ^0.5.0;\nimport \"./Contract.sol\";\nimport \"./storage-proof.sol\";\nimport \"./ProviderRating.sol\";\n\n\ncontract contractExecutor{\n\n\t//Data Structures and id counter\n\tuint private id = 0;\n\tmapping(uint => Contract) public contracts;\n\tmapping(uint => uint) public paymentTime;\n\tmapping(uint => mapping(address => uint)) verifications;\n    ProviderRating ratings;\n\n\t//State Constants\n\tuint8 constant public ACTIVE = 1;\n\tuint8 constant public INVALID = 2;\n\tuint8 constant public CANCELED = 3;\n\tuint8 constant public COMPLETED = 4;\n\n\tconstructor (ProviderRating _rating)\n    public\n    {\n        ratings = _rating;\n    }\n\n\tfunction initContract(address payable[] memory provider, address payable client, bytes32 rootHash, uint collateralAmount, uint price)\n\tpublic\n\tpayable\n\tonlyIfCollateral(collateralAmount)\n\treturns (bytes32 initMessage)\n\t{\n\t\t\tcontracts[id] = new Contract(provider, client, rootHash, collateralAmount, price);\n\t\t\tfor (uint i = 0; i < provider.length; i++){\n\t\t\t\tif (ratings.providerBlackListed(provider[i]))\n\t\t\t\t{\n\t\t\t\t\trevert(\"One of the providers is blacklisted.\");\n\t\t\t\t}\n\t\t\t\tverifications[id][provider[i]] = now;\n\t\t\t}\n\t\t\tpaymentTime[id] = now;\n\t\t\tid++;\n\t\t\tinitMessage = \"Initialization successfull.\";\n\t}\n\n\tfunction getContractInfo(uint _id)\n\tpublic\n\tview\n\treturns(address payable[] memory tempProvider, address payable tempClient, uint tempPrice, bytes32 infoMessage, uint tempCollateral, uint tempTime, uint temppTime, uint8 tempState)\n\t{\n\t\tif (contracts[_id].getClient() != 0x0000000000000000000000000000000000000000){\n\t\t\ttempProvider = contracts[_id].getProviders();\n\t\t\ttempClient = contracts[_id].getClient();\n\t\t\ttempTime = contracts[_id].getStartTime();\n\t\t\ttempPrice = contracts[_id].getPrice();\n\t\t\ttemppTime = paymentTime[_id];\n\t\t\ttempCollateral = contracts[_id].getCollateralAmount();\n\t\t\ttempState = contracts[_id].getState();\n\t\t\tinfoMessage = \"OK\";\n\t\t}\n\t\telse\n\t\t{\n\t\t\tif (contracts[_id].getState() == INVALID)\n\t\t\t{\n\t\t\t\ttempProvider = contracts[_id].getProviders();\n\t\t\t\ttempClient = contracts[_id].getClient();\n\t\t\t\ttempTime = contracts[_id].getStartTime();\n\t\t\t\ttempPrice = contracts[_id].getPrice();\n\t\t\t\ttemppTime = paymentTime[_id];\n\t\t\t\ttempState = contracts[_id].getState();\n\t\t\t\tinfoMessage = \"Not enough funds.\";\n\t\t\t}\n\t\t\telse\n\t\t\t{\n\t\t\t\ttempProvider = contracts[_id].getProviders();\n\t\t\t\ttempClient = contracts[_id].getClient();\n\t\t\t\ttempTime = contracts[_id].getStartTime();\n\t\t\t\ttempPrice = contracts[_id].getPrice();\n\t\t\t\ttemppTime = paymentTime[_id];\n\t\t\t\ttempState = contracts[_id].getState();\n\t\t\t\tinfoMessage = \"No Contract initialized.\";\n\t\t\t}\n\t\t}\n\t}\n\n\tfunction pay(uint _id)\n\tpublic\n\tpayable\n\tonlyClient(_id)\n\tonlyActiveOrInvalid(_id)\n\tonlyAfterOneMonth(_id)\n\tonlyRightPrice(_id)\n\treturns(bytes32 paymentMessage)\n\t{\n\t\taddress payable[] memory provs = contracts[_id].getProviders();\n\t\tfor (uint i = 0; i < provs.length; i++)\n\t\t{\n\t\t\taddress payable currProv = provs[i];\n\t\t\tuint providerBalance = currProv.balance;\n\t\t\tcurrProv.transfer(msg.value / provs.length);\n\t\t\tif (currProv.balance >= providerBalance + (contracts[_id].getPrice() / provs.length)){\n\t\t\t\t\tpaymentTime[_id] = now;//If the payment is successfull, set the payment time to now.\n\t\t\t\t\tpaymentMessage = \"Payment successfull.\";\n\t\t\t}\n\t\t\telse {\n\t\t\t\tcontracts[_id].setState(INVALID);\n\t\t\t\trevert(\"Transaction failed\");\n\t\t\t}\n\t\t}\n\t}\n\n\t// function getVerification(uint _id, address payable _provider, bytes memory _leaf, bytes32[] memory _nodeHashes, bool[] memory _nodeOrientations)\n\t// public\n\t// returns(bytes32 verificationMessage)\n\t// {\n\t// \tif (StorageProof.verify(contracts[_id].getRootHash(), _leaf, _nodeHashes, _nodeOrientations)){\n\t// \t\tverifications[_id][_provider] = now;\n\t// \t\tverificationMessage = \"OK\";\n\t// \t}\n\t// \telse{\n\t// \t\tterminateCulpProvider(_id, _provider,  _leaf, _nodeHashes, _nodeOrientations);\n\t// \t\tverificationMessage = \"NOK\";\n\t// \t}\n\t// }\n\n\tfunction terminateCulpClient(uint _id)\n\tpublic\n\tpayable\n\tonlyMoreThanOneMonth(_id)\n\treturns(bytes32 terminationMessage)\n\t{\n\t\tcontracts[_id].setState(CANCELED);\n\t\taddress payable[] memory provs = contracts[_id].getProviders();\n\t\tuint coll = contracts[_id].getCollateralAmount();\n\t\tfor (uint i = 0; i < provs.length; i++){\n\t\t\t//Level up the providers' rating\n\t\t\tratings.levelUpRating(provs[i]);\n\t\t\tprovs[i].transfer(coll / provs.length);\n\t\t}\n\t\tinvalidateContract(_id);\n\t\treturn \"OK\";\n\t}\n\n\tfunction terminateCulpProvider(uint _id, address payable _provider)\n\tpublic\n\tpayable\n\t//onlyNotVerified(_id, _leaf, _nodeHashes, _nodeOrientations)\n\treturns(bytes32 terminationMessage)\n\t{\n\t\tcontracts[_id].setState(CANCELED);\n\t\taddress payable[] memory provs = contracts[_id].getProviders();\n\t\tuint coll = contracts[_id].getCollateralAmount();\n\t\t//Level down culpable provider's rating\n\t\tratings.levelDownRating(_provider);\n\t\tfor (uint i = 0; i < provs.length; i++){\n\t\t\tif (provs[i] != _provider){\n\t\t\t\t//Level up the rest of the providers' rating\n\t\t\t\tratings.levelUpRating(provs[i]);\n\t\t\t\tprovs[i].transfer(coll / (provs.length));\n\t\t\t}\n\t\t\taddress(contracts[_id].getClient()).transfer(coll / (provs.length));\n\t\t}\n\t\tinvalidateContract(_id);\n\t\treturn \"OK\";\n\t}\n\n\tfunction terminateMutual(uint _id)\n\tpublic\n\tpayable\n\tonlyLessThanHalfMonth(_id)\n\treturns(bytes32 terminationMessage)\n\t{\n\t\tcontracts[_id].setState(COMPLETED);\n\t\taddress payable[] memory provs = contracts[_id].getProviders();\n\t\tuint coll = contracts[_id].getCollateralAmount();\n\t\tuint splitCount = provs.length + 1;\n\t\tfor (uint i = 0; i < provs.length; i++){\n\t\t\tif (true){\n\t\t\t\tprovs[i].transfer(coll / splitCount);\n\t\t\t\t//Level up provider's rating\n\t\t\t\tratings.levelUpRating(provs[i]);\n\t\t\t}\n\t\t\telse{\n\t\t\t\t//Level down provider's rating\n\t\t\t\tratings.levelDownRating(provs[i]);\n\t\t\t\tsplitCount--;\n\t\t\t}\n\t\t}\n\t\taddress(contracts[_id].getClient()).transfer(coll / splitCount);\n\t\tterminationMessage = \"OK\";\n\t\tinvalidateContract(_id);\n\t}\n\n\tfunction timeDif(uint _id)\n\tpublic\n\tview\n\treturns(uint256)\n\t{\n\t\tuint256 duration = now - paymentTime[_id];\n\t\treturn duration;\n\t}\n\n\tfunction invalidateContract(uint _id)\n\tpublic\n\t{\n\t\tdelete contracts[_id];\n\t}\n\n\t//Function that makes the contract able to accept payments\n\tfunction () external payable {\n\n\t}\n\n\t//Modifiers\n\tmodifier onlyActiveOrInvalid(uint _id){\n\t\tif (contracts[_id].getState() != ACTIVE && contracts[_id].getState() != INVALID) revert(\"Contract is terminated.\");\n        _;\n\t}\n\tmodifier onlyAfterOneMonth(uint _id){\n\t\tif (timeDif(_id) < 30) revert(\"Payments are made every 1 month.\");\n        _;\n\t}\n\tmodifier onlyRightPrice(uint _id){\n\t\tif(msg.value != contracts[_id].getPrice() * 1 wei) {\n\t\t\tcontracts[_id].setState(INVALID);\n\t\t\trevert(\"Insufficient or excessive amount\");\n\t\t}\n\t\t_;\n\t}\n\tmodifier onlyIfCollateral(uint coll){\n\t\tif (msg.value != coll * 1 wei) revert(\"Insufficient or excessive collateral amount\");\n\t\t_;\n\t}\n\tmodifier onlyLessThanHalfMonth(uint _id){\n\t\tif (timeDif(_id) > 15) revert(\"Contract can be mutually terminated before hald a month has passed since last payment.\");\n\t\t_;\n\t}\n\tmodifier onlyMoreThanOneMonth(uint _id){\n\t\tif (timeDif(_id) <= 2629743)\n\t\t\trevert(\"Contract can be terminated with the client culpable only if more than one month has passed since last payment.\");\n\t\t_;\n\t}\n\tmodifier onlyNotVerified(uint _id, bytes memory _leaf, bytes32[] memory _nodeHashes, bool[] memory _nodeOrientations){\n\t\tif (StorageProof.verify(contracts[_id].getRootHash(), _leaf, _nodeHashes, _nodeOrientations)) revert(\"Merkle Proof was verified.\");\n\t\t_;\n\t}\n\tmodifier onlyClient(uint _id){\n\t\tif (msg.sender != contracts[_id].getClient()) revert(\"Only the client can pay the contract.\");\n        _;\n\t}\n\n}",
  "sourcePath": "/home/canagno/ethChain/truffle/contracts/ContractExecutor.sol",
  "compiler": {
    "name": "solc",
    "version": "0.5.0+commit.1d4f565a.Emscripten.clang"
  },
  "schemaVersion": "3.0.1",
  "updatedAt": "2019-06-22T14:04:16.508Z",
  "devdoc": {
    "methods": {}
  },
  "userdoc": {
    "methods": {}
  }
}