{
  "contractName": "Contract",
  "abi": [
    {
      "constant": true,
      "inputs": [],
      "name": "client",
      "outputs": [
        {
          "name": "",
          "type": "address"
        }
      ],
      "payable": false,
      "stateMutability": "view",
      "type": "function",
      "signature": "0x109e94cf"
    },
    {
      "constant": true,
      "inputs": [],
      "name": "rootHash",
      "outputs": [
        {
          "name": "",
          "type": "uint256"
        }
      ],
      "payable": false,
      "stateMutability": "view",
      "type": "function",
      "signature": "0x1d80009a"
    },
    {
      "constant": true,
      "inputs": [
        {
          "name": "",
          "type": "uint256"
        }
      ],
      "name": "provider",
      "outputs": [
        {
          "name": "",
          "type": "address"
        }
      ],
      "payable": false,
      "stateMutability": "view",
      "type": "function",
      "signature": "0x52cc70c6"
    },
    {
      "constant": true,
      "inputs": [],
      "name": "startTime",
      "outputs": [
        {
          "name": "",
          "type": "uint256"
        }
      ],
      "payable": false,
      "stateMutability": "view",
      "type": "function",
      "signature": "0x78e97925"
    },
    {
      "constant": true,
      "inputs": [],
      "name": "collateralAmount",
      "outputs": [
        {
          "name": "",
          "type": "uint256"
        }
      ],
      "payable": false,
      "stateMutability": "view",
      "type": "function",
      "signature": "0x92d09ceb"
    },
    {
      "constant": true,
      "inputs": [],
      "name": "price",
      "outputs": [
        {
          "name": "",
          "type": "uint256"
        }
      ],
      "payable": false,
      "stateMutability": "view",
      "type": "function",
      "signature": "0xa035b1fe"
    },
    {
      "constant": true,
      "inputs": [],
      "name": "state",
      "outputs": [
        {
          "name": "",
          "type": "uint8"
        }
      ],
      "payable": false,
      "stateMutability": "view",
      "type": "function",
      "signature": "0xc19d93fb"
    },
    {
      "inputs": [
        {
          "name": "_provider",
          "type": "address[]"
        },
        {
          "name": "_client",
          "type": "address"
        },
        {
          "name": "_rootHash",
          "type": "uint256"
        },
        {
          "name": "_collateralAmount",
          "type": "uint256"
        },
        {
          "name": "_price",
          "type": "uint256"
        }
      ],
      "payable": false,
      "stateMutability": "nonpayable",
      "type": "constructor",
      "signature": "constructor"
    },
    {
      "constant": false,
      "inputs": [
        {
          "name": "_provider",
          "type": "address[]"
        }
      ],
      "name": "setProvider",
      "outputs": [],
      "payable": false,
      "stateMutability": "nonpayable",
      "type": "function",
      "signature": "0xb316df77"
    },
    {
      "constant": true,
      "inputs": [],
      "name": "getProviders",
      "outputs": [
        {
          "name": "",
          "type": "address[]"
        }
      ],
      "payable": false,
      "stateMutability": "view",
      "type": "function",
      "signature": "0xedc922a9"
    },
    {
      "constant": false,
      "inputs": [
        {
          "name": "_client",
          "type": "address"
        }
      ],
      "name": "setClient",
      "outputs": [],
      "payable": false,
      "stateMutability": "nonpayable",
      "type": "function",
      "signature": "0x8526690a"
    },
    {
      "constant": false,
      "inputs": [
        {
          "name": "_rootHash",
          "type": "uint256"
        }
      ],
      "name": "setRootHash",
      "outputs": [],
      "payable": false,
      "stateMutability": "nonpayable",
      "type": "function",
      "signature": "0x0ec3a874"
    },
    {
      "constant": false,
      "inputs": [
        {
          "name": "_collateralAmount",
          "type": "uint256"
        }
      ],
      "name": "setCollateralAmount",
      "outputs": [],
      "payable": false,
      "stateMutability": "nonpayable",
      "type": "function",
      "signature": "0x3d4f04ad"
    },
    {
      "constant": false,
      "inputs": [
        {
          "name": "_price",
          "type": "uint256"
        }
      ],
      "name": "setPrice",
      "outputs": [],
      "payable": false,
      "stateMutability": "nonpayable",
      "type": "function",
      "signature": "0x91b7f5ed"
    },
    {
      "constant": false,
      "inputs": [
        {
          "name": "_state",
          "type": "uint8"
        }
      ],
      "name": "setState",
      "outputs": [],
      "payable": false,
      "stateMutability": "nonpayable",
      "type": "function",
      "signature": "0x56de96db"
    },
    {
      "constant": false,
      "inputs": [
        {
          "name": "_time",
          "type": "uint256"
        }
      ],
      "name": "setStartTime",
      "outputs": [],
      "payable": false,
      "stateMutability": "nonpayable",
      "type": "function",
      "signature": "0x3e0a322d"
    }
  ],
  "bytecode": "0x608060405234801561001057600080fd5b50604051610a1c380380610a1c833981018060405260a081101561003357600080fd5b81019080805164010000000081111561004b57600080fd5b8281019050602081018481111561006157600080fd5b815185602082028301116401000000008211171561007e57600080fd5b50509291906020018051906020019092919080519060200190929190805190602001909291908051906020019092919050505084600090805190602001906100c792919061014b565b5083600160006101000a81548173ffffffffffffffffffffffffffffffffffffffff021916908373ffffffffffffffffffffffffffffffffffffffff160217905550826002819055508160038190555080600481905550426005819055506001600660006101000a81548160ff021916908360ff1602179055505050505050610218565b8280548282559060005260206000209081019282156101c4579160200282015b828111156101c35782518260006101000a81548173ffffffffffffffffffffffffffffffffffffffff021916908373ffffffffffffffffffffffffffffffffffffffff1602179055509160200191906001019061016b565b5b5090506101d191906101d5565b5090565b61021591905b8082111561021157600081816101000a81549073ffffffffffffffffffffffffffffffffffffffff0219169055506001016101db565b5090565b90565b6107f5806102276000396000f3fe6080604052600436106100db576000357c0100000000000000000000000000000000000000000000000000000000900463ffffffff1680630ec3a874146100e0578063109e94cf1461011b5780631d80009a146101725780633d4f04ad1461019d5780633e0a322d146101d857806352cc70c61461021357806356de96db1461028e57806378e97925146102cc5780638526690a146102f757806391b7f5ed1461034857806392d09ceb14610383578063a035b1fe146103ae578063b316df77146103d9578063c19d93fb1461049e578063edc922a9146104cf575b600080fd5b3480156100ec57600080fd5b506101196004803603602081101561010357600080fd5b810190808035906020019092919050505061053b565b005b34801561012757600080fd5b50610130610545565b604051808273ffffffffffffffffffffffffffffffffffffffff1673ffffffffffffffffffffffffffffffffffffffff16815260200191505060405180910390f35b34801561017e57600080fd5b5061018761056b565b6040518082815260200191505060405180910390f35b3480156101a957600080fd5b506101d6600480360360208110156101c057600080fd5b8101908080359060200190929190505050610571565b005b3480156101e457600080fd5b50610211600480360360208110156101fb57600080fd5b810190808035906020019092919050505061057b565b005b34801561021f57600080fd5b5061024c6004803603602081101561023657600080fd5b8101908080359060200190929190505050610585565b604051808273ffffffffffffffffffffffffffffffffffffffff1673ffffffffffffffffffffffffffffffffffffffff16815260200191505060405180910390f35b34801561029a57600080fd5b506102ca600480360360208110156102b157600080fd5b81019080803560ff1690602001909291905050506105c3565b005b3480156102d857600080fd5b506102e16105e1565b6040518082815260200191505060405180910390f35b34801561030357600080fd5b506103466004803603602081101561031a57600080fd5b81019080803573ffffffffffffffffffffffffffffffffffffffff1690602001909291905050506105e7565b005b34801561035457600080fd5b506103816004803603602081101561036b57600080fd5b810190808035906020019092919050505061062b565b005b34801561038f57600080fd5b50610398610635565b6040518082815260200191505060405180910390f35b3480156103ba57600080fd5b506103c361063b565b6040518082815260200191505060405180910390f35b3480156103e557600080fd5b5061049c600480360360208110156103fc57600080fd5b810190808035906020019064010000000081111561041957600080fd5b82018360208201111561042b57600080fd5b8035906020019184602083028401116401000000008311171561044d57600080fd5b919080806020026020016040519081016040528093929190818152602001838360200280828437600081840152601f19601f820116905080830192505050505050509192919290505050610641565b005b3480156104aa57600080fd5b506104b361065b565b604051808260ff1660ff16815260200191505060405180910390f35b3480156104db57600080fd5b506104e461066e565b6040518080602001828103825283818151815260200191508051906020019060200280838360005b8381101561052757808201518184015260208101905061050c565b505050509050019250505060405180910390f35b8060028190555050565b600160009054906101000a900473ffffffffffffffffffffffffffffffffffffffff1681565b60025481565b8060038190555050565b8060058190555050565b60008181548110151561059457fe5b906000526020600020016000915054906101000a900473ffffffffffffffffffffffffffffffffffffffff1681565b80600660006101000a81548160ff021916908360ff16021790555050565b60055481565b80600160006101000a81548173ffffffffffffffffffffffffffffffffffffffff021916908373ffffffffffffffffffffffffffffffffffffffff16021790555050565b8060048190555050565b60035481565b60045481565b80600090805190602001906106579291906106fc565b5050565b600660009054906101000a900460ff1681565b606060008054806020026020016040519081016040528092919081815260200182805480156106f257602002820191906000526020600020905b8160009054906101000a900473ffffffffffffffffffffffffffffffffffffffff1673ffffffffffffffffffffffffffffffffffffffff16815260200190600101908083116106a8575b5050505050905090565b828054828255906000526020600020908101928215610775579160200282015b828111156107745782518260006101000a81548173ffffffffffffffffffffffffffffffffffffffff021916908373ffffffffffffffffffffffffffffffffffffffff1602179055509160200191906001019061071c565b5b5090506107829190610786565b5090565b6107c691905b808211156107c257600081816101000a81549073ffffffffffffffffffffffffffffffffffffffff02191690555060010161078c565b5090565b9056fea165627a7a72305820b8f10d5e425a16c74c66f79948eb61d71e58925bbe2de78ae3c09520881e47ae0029",
  "source": "pragma solidity ^0.5.0;\n\ncontract Contract{\n\n\taddress payable[] public provider;\n\taddress payable public client;\n\tuint public rootHash;\n\tuint public collateralAmount; //collateralAmount is stored in wei (10^-19 eth)\n\tuint public price; //price is stored in wei (10^-19 eth)\n\tuint public startTime; //startTime is initiated to now in the init function. It is caclulated in seconds since the last Epoch.\n\tuint8 public state; //state of the contract, 1 = Active, 2 = Invalid, 3 = Canceled, 4 = Invalid.\n\n\tconstructor(address payable[] memory _provider, address payable _client, uint _rootHash, uint _collateralAmount, uint _price)\n\tpublic\n\t{\n\t\tprovider = _provider;\n\t\tclient = _client;\n\t\trootHash = _rootHash;\n\t\tcollateralAmount = _collateralAmount;\n\t\tprice = _price;\n\t\tstartTime = now;\n\t\tstate = 1;\n\t}\n\n    function setProvider (address payable[] memory _provider) \n    public\n    {\n        provider = _provider;\n    }\n\n    function getProviders () \n    public\n    view\n    returns (address  payable[] memory)\n    {\n        return provider;\n    }\n\n    function setClient (address payable _client) \n    public\n    {\n        client = _client;\n    }\n\n    function setRootHash (uint _rootHash) \n    public\n    {\n        rootHash = _rootHash;\n    }\n\n    function setCollateralAmount (uint _collateralAmount) \n    public\n    {\n        collateralAmount = _collateralAmount;\n    }\n\n    function setPrice (uint _price) \n    public\n    {\n        price = _price;\n    }\n\n    function setState (uint8 _state) \n    public\n    {\n        state = _state;\n    }\n\n    function setStartTime (uint _time) \n    public\n    {\n        startTime = _time;\n    }\n\n}",
  "sourcePath": "/home/canagno/ethChain/truffle/contracts/Contract.sol",
  "compiler": {
    "name": "solc",
    "version": "0.5.0+commit.1d4f565a.Emscripten.clang"
  },
  "schemaVersion": "3.0.1",
  "updatedAt": "2019-04-21T11:19:16.302Z",
  "devdoc": {
    "methods": {}
  },
  "userdoc": {
    "methods": {}
  }
}