{
  "contractName": "contractExecutor",
  "abi": [
    {
      "constant": true,
      "inputs": [
        {
          "name": "",
          "type": "uint256"
        }
      ],
      "name": "contracts",
      "outputs": [
        {
          "name": "",
          "type": "address"
        }
      ],
      "payable": false,
      "stateMutability": "view",
      "type": "function",
      "signature": "0x474da79a"
    },
    {
      "constant": true,
      "inputs": [],
      "name": "COMPLETED",
      "outputs": [
        {
          "name": "",
          "type": "uint8"
        }
      ],
      "payable": false,
      "stateMutability": "view",
      "type": "function",
      "signature": "0x4ce6c24a"
    },
    {
      "constant": true,
      "inputs": [],
      "name": "INVALID",
      "outputs": [
        {
          "name": "",
          "type": "uint8"
        }
      ],
      "payable": false,
      "stateMutability": "view",
      "type": "function",
      "signature": "0x7fcce2a9"
    },
    {
      "constant": true,
      "inputs": [],
      "name": "ACTIVE",
      "outputs": [
        {
          "name": "",
          "type": "uint8"
        }
      ],
      "payable": false,
      "stateMutability": "view",
      "type": "function",
      "signature": "0xc90bd047"
    },
    {
      "constant": true,
      "inputs": [
        {
          "name": "",
          "type": "uint256"
        }
      ],
      "name": "paymentTime",
      "outputs": [
        {
          "name": "",
          "type": "uint256"
        }
      ],
      "payable": false,
      "stateMutability": "view",
      "type": "function",
      "signature": "0xe6886ed8"
    },
    {
      "constant": true,
      "inputs": [],
      "name": "CANCELED",
      "outputs": [
        {
          "name": "",
          "type": "uint8"
        }
      ],
      "payable": false,
      "stateMutability": "view",
      "type": "function",
      "signature": "0xf2f4c1da"
    },
    {
      "payable": true,
      "stateMutability": "payable",
      "type": "fallback"
    },
    {
      "constant": false,
      "inputs": [
        {
          "name": "provider",
          "type": "address[]"
        },
        {
          "name": "client",
          "type": "address"
        },
        {
          "name": "rootHash",
          "type": "bytes32"
        },
        {
          "name": "collateralAmount",
          "type": "uint256"
        },
        {
          "name": "price",
          "type": "uint256"
        }
      ],
      "name": "init",
      "outputs": [
        {
          "name": "initMessage",
          "type": "bytes32"
        }
      ],
      "payable": true,
      "stateMutability": "payable",
      "type": "function",
      "signature": "0x7333b856"
    },
    {
      "constant": true,
      "inputs": [
        {
          "name": "_id",
          "type": "uint256"
        }
      ],
      "name": "getContractInfo",
      "outputs": [
        {
          "name": "tempProvider",
          "type": "address[]"
        },
        {
          "name": "tempPrice",
          "type": "uint256"
        },
        {
          "name": "infoMessage",
          "type": "bytes32"
        },
        {
          "name": "tempCollateral",
          "type": "uint256"
        },
        {
          "name": "tempTime",
          "type": "uint256"
        },
        {
          "name": "temppTime",
          "type": "uint256"
        },
        {
          "name": "tempState",
          "type": "uint8"
        }
      ],
      "payable": false,
      "stateMutability": "view",
      "type": "function",
      "signature": "0x8aa3e011"
    },
    {
      "constant": false,
      "inputs": [
        {
          "name": "_id",
          "type": "uint256"
        }
      ],
      "name": "pay",
      "outputs": [
        {
          "name": "paymentMessage",
          "type": "bytes32"
        }
      ],
      "payable": true,
      "stateMutability": "payable",
      "type": "function",
      "signature": "0xc290d691"
    },
    {
      "constant": false,
      "inputs": [
        {
          "name": "_id",
          "type": "uint256"
        },
        {
          "name": "_provider",
          "type": "address"
        },
        {
          "name": "_leaf",
          "type": "bytes"
        },
        {
          "name": "_nodeHashes",
          "type": "bytes32[]"
        },
        {
          "name": "_nodeOrientations",
          "type": "bool[]"
        }
      ],
      "name": "getVerification",
      "outputs": [
        {
          "name": "verificationMessage",
          "type": "bytes32"
        }
      ],
      "payable": false,
      "stateMutability": "nonpayable",
      "type": "function",
      "signature": "0xb677738b"
    },
    {
      "constant": false,
      "inputs": [
        {
          "name": "_id",
          "type": "uint256"
        }
      ],
      "name": "terminateCulpClient",
      "outputs": [
        {
          "name": "terminationMessage",
          "type": "bytes32"
        }
      ],
      "payable": true,
      "stateMutability": "payable",
      "type": "function",
      "signature": "0x29cbcedb"
    },
    {
      "constant": false,
      "inputs": [
        {
          "name": "_id",
          "type": "uint256"
        },
        {
          "name": "_provider",
          "type": "address"
        },
        {
          "name": "_leaf",
          "type": "bytes"
        },
        {
          "name": "_nodeHashes",
          "type": "bytes32[]"
        },
        {
          "name": "_nodeOrientations",
          "type": "bool[]"
        }
      ],
      "name": "terminateCulpProvider",
      "outputs": [
        {
          "name": "terminationMessage",
          "type": "bytes32"
        }
      ],
      "payable": true,
      "stateMutability": "payable",
      "type": "function",
      "signature": "0x5deb0d53"
    },
    {
      "constant": false,
      "inputs": [
        {
          "name": "_id",
          "type": "uint256"
        },
        {
          "name": "_leaf",
          "type": "bytes"
        },
        {
          "name": "_nodeHashes",
          "type": "bytes32[]"
        },
        {
          "name": "_nodeOrientations",
          "type": "bool[]"
        }
      ],
      "name": "terminateMutual",
      "outputs": [
        {
          "name": "terminationMessage",
          "type": "bytes32"
        }
      ],
      "payable": true,
      "stateMutability": "payable",
      "type": "function",
      "signature": "0xa972caff"
    },
    {
      "constant": true,
      "inputs": [
        {
          "name": "_id",
          "type": "uint256"
        }
      ],
      "name": "timeDif",
      "outputs": [
        {
          "name": "",
          "type": "uint256"
        }
      ],
      "payable": false,
      "stateMutability": "view",
      "type": "function",
      "signature": "0xdeec16e9"
    },
    {
      "constant": false,
      "inputs": [
        {
          "name": "_id",
          "type": "uint256"
        }
      ],
      "name": "invalidateContract",
      "outputs": [],
      "payable": false,
      "stateMutability": "nonpayable",
      "type": "function",
      "signature": "0x59a48e46"
    }
  ],
  "bytecode": "0x60806040526000805534801561001457600080fd5b506149b0806100246000396000f3fe608060405260043610620000eb576000357c0100000000000000000000000000000000000000000000000000000000900463ffffffff16806329cbcedb14620000ed578063474da79a14620001325780634ce6c24a14620001b157806359a48e4614620001e55780635deb0d5314620002245780637333b85614620004515780637fcce2a914620005615780638aa3e0111462000595578063a972caff146200065b578063b677738b1462000868578063c290d6911462000aa3578063c90bd0471462000ae8578063deec16e91462000b1c578063e6886ed81462000b6f578063f2f4c1da1462000bc2575b005b6200011c600480360360208110156200010557600080fd5b810190808035906020019092919050505062000bf6565b6040518082815260200191505060405180910390f35b3480156200013f57600080fd5b506200016f600480360360208110156200015857600080fd5b81019080803590602001909291905050506200107c565b604051808273ffffffffffffffffffffffffffffffffffffffff1673ffffffffffffffffffffffffffffffffffffffff16815260200191505060405180910390f35b348015620001be57600080fd5b50620001c9620010af565b604051808260ff1660ff16815260200191505060405180910390f35b348015620001f257600080fd5b5062000222600480360360208110156200020b57600080fd5b8101908080359060200190929190505050620010b4565b005b6200043b600480360360a08110156200023c57600080fd5b8101908080359060200190929190803573ffffffffffffffffffffffffffffffffffffffff169060200190929190803590602001906401000000008111156200028457600080fd5b8201836020820111156200029757600080fd5b80359060200191846001830284011164010000000083111715620002ba57600080fd5b91908080601f016020809104026020016040519081016040528093929190818152602001838380828437600081840152601f19601f820116905080830192505050505050509192919290803590602001906401000000008111156200031e57600080fd5b8201836020820111156200033157600080fd5b803590602001918460208302840111640100000000831117156200035457600080fd5b919080806020026020016040519081016040528093929190818152602001838360200280828437600081840152601f19601f82011690508083019250505050505050919291929080359060200190640100000000811115620003b557600080fd5b820183602082011115620003c857600080fd5b80359060200191846020830284011164010000000083111715620003eb57600080fd5b919080806020026020016040519081016040528093929190818152602001838360200280828437600081840152601f19601f820116905080830192505050505050509192919290505050620010ed565b6040518082815260200191505060405180910390f35b6200054b600480360360a08110156200046957600080fd5b81019080803590602001906401000000008111156200048757600080fd5b8201836020820111156200049a57600080fd5b80359060200191846020830284011164010000000083111715620004bd57600080fd5b919080806020026020016040519081016040528093929190818152602001838360200280828437600081840152601f19601f820116905080830192505050505050509192919290803573ffffffffffffffffffffffffffffffffffffffff169060200190929190803590602001909291908035906020019092919080359060200190929190505050620018f1565b6040518082815260200191505060405180910390f35b3480156200056e57600080fd5b506200057962001c0d565b604051808260ff1660ff16815260200191505060405180910390f35b348015620005a257600080fd5b50620005d260048036036020811015620005bb57600080fd5b810190808035906020019092919050505062001c12565b60405180806020018881526020018781526020018681526020018581526020018481526020018360ff1660ff168152602001828103825289818151815260200191508051906020019060200280838360005b838110156200064157808201518184015260208101905062000624565b505050509050019850505050505050505060405180910390f35b62000852600480360360808110156200067357600080fd5b8101908080359060200190929190803590602001906401000000008111156200069b57600080fd5b820183602082011115620006ae57600080fd5b80359060200191846001830284011164010000000083111715620006d157600080fd5b91908080601f016020809104026020016040519081016040528093929190818152602001838380828437600081840152601f19601f820116905080830192505050505050509192919290803590602001906401000000008111156200073557600080fd5b8201836020820111156200074857600080fd5b803590602001918460208302840111640100000000831117156200076b57600080fd5b919080806020026020016040519081016040528093929190818152602001838360200280828437600081840152601f19601f82011690508083019250505050505050919291929080359060200190640100000000811115620007cc57600080fd5b820183602082011115620007df57600080fd5b803590602001918460208302840111640100000000831117156200080257600080fd5b919080806020026020016040519081016040528093929190818152602001838360200280828437600081840152601f19601f82011690508083019250505050505050919291929050505062002aa8565b6040518082815260200191505060405180910390f35b3480156200087557600080fd5b5062000a8d600480360360a08110156200088e57600080fd5b8101908080359060200190929190803573ffffffffffffffffffffffffffffffffffffffff16906020019092919080359060200190640100000000811115620008d657600080fd5b820183602082011115620008e957600080fd5b803590602001918460018302840111640100000000831117156200090c57600080fd5b91908080601f016020809104026020016040519081016040528093929190818152602001838380828437600081840152601f19601f820116905080830192505050505050509192919290803590602001906401000000008111156200097057600080fd5b8201836020820111156200098357600080fd5b80359060200191846020830284011164010000000083111715620009a657600080fd5b919080806020026020016040519081016040528093929190818152602001838360200280828437600081840152601f19601f8201169050808301925050505050505091929192908035906020019064010000000081111562000a0757600080fd5b82018360208201111562000a1a57600080fd5b8035906020019184602083028401116401000000008311171562000a3d57600080fd5b919080806020026020016040519081016040528093929190818152602001838360200280828437600081840152601f19601f820116905080830192505050505050509192919290505050620032d0565b6040518082815260200191505060405180910390f35b62000ad26004803603602081101562000abb57600080fd5b810190808035906020019092919050505062003614565b6040518082815260200191505060405180910390f35b34801562000af557600080fd5b5062000b0062003eb9565b604051808260ff1660ff16815260200191505060405180910390f35b34801562000b2957600080fd5b5062000b596004803603602081101562000b4257600080fd5b810190808035906020019092919050505062003ebe565b6040518082815260200191505060405180910390f35b34801562000b7c57600080fd5b5062000bac6004803603602081101562000b9557600080fd5b810190808035906020019092919050505062003ee2565b6040518082815260200191505060405180910390f35b34801562000bcf57600080fd5b5062000bda62003efa565b604051808260ff1660ff16815260200191505060405180910390f35b6000816228206f62000c088262003ebe565b11151562000cf0576040517f08c379a000000000000000000000000000000000000000000000000000000000815260040180806020018281038252606e8152602001807f436f6e74726163742063616e206265207465726d696e6174656420776974682081526020017f74686520636c69656e742063756c7061626c65206f6e6c79206966206d6f726581526020017f207468616e206f6e65206d6f6e746820686173207061737365642073696e636581526020017f206c617374207061796d656e742e00000000000000000000000000000000000081525060800191505060405180910390fd5b6001600084815260200190815260200160002060009054906101000a900473ffffffffffffffffffffffffffffffffffffffff1673ffffffffffffffffffffffffffffffffffffffff166356de96db60036040518263ffffffff167c0100000000000000000000000000000000000000000000000000000000028152600401808260ff1660ff168152602001915050600060405180830381600087803b15801562000d9a57600080fd5b505af115801562000daf573d6000803e3d6000fd5b5050505060606001600085815260200190815260200160002060009054906101000a900473ffffffffffffffffffffffffffffffffffffffff1673ffffffffffffffffffffffffffffffffffffffff1663edc922a96040518163ffffffff167c010000000000000000000000000000000000000000000000000000000002815260040160006040518083038186803b15801562000e4b57600080fd5b505afa15801562000e60573d6000803e3d6000fd5b505050506040513d6000823e3d601f19601f82011682018060405250602081101562000e8b57600080fd5b81019080805164010000000081111562000ea457600080fd5b8281019050602081018481111562000ebb57600080fd5b815185602082028301116401000000008211171562000ed957600080fd5b5050929190505050905060006001600086815260200190815260200160002060009054906101000a900473ffffffffffffffffffffffffffffffffffffffff1673ffffffffffffffffffffffffffffffffffffffff1663315deeaa6040518163ffffffff167c010000000000000000000000000000000000000000000000000000000002815260040160206040518083038186803b15801562000f7b57600080fd5b505afa15801562000f90573d6000803e3d6000fd5b505050506040513d602081101562000fa757600080fd5b8101908080519060200190929190505050905060008090505b82518110156200104557828181518110151562000fd957fe5b9060200190602002015173ffffffffffffffffffffffffffffffffffffffff166108fc8451848115156200100957fe5b049081150290604051600060405180830381858888f1935050505015801562001036573d6000803e3d6000fd5b50808060010191505062000fc0565b506200105185620010b4565b7f4f4b0000000000000000000000000000000000000000000000000000000000009350505050919050565b60016020528060005260406000206000915054906101000a900473ffffffffffffffffffffffffffffffffffffffff1681565b600481565b6001600082815260200190815260200160002060006101000a81549073ffffffffffffffffffffffffffffffffffffffff021916905550565b60008584848473__StorageProof__________________________631e716f6d6001600087815260200190815260200160002060009054906101000a900473ffffffffffffffffffffffffffffffffffffffff1673ffffffffffffffffffffffffffffffffffffffff166380759f1f6040518163ffffffff167c010000000000000000000000000000000000000000000000000000000002815260040160206040518083038186803b158015620011a357600080fd5b505afa158015620011b8573d6000803e3d6000fd5b505050506040513d6020811015620011cf57600080fd5b81019080805190602001909291905050508585856040518563ffffffff167c010000000000000000000000000000000000000000000000000000000002815260040180858152602001806020018060200180602001848103845287818151815260200191508051906020019080838360005b838110156200125e57808201518184015260208101905062001241565b50505050905090810190601f1680156200128c5780820380516001836020036101000a031916815260200191505b50848103835286818151815260200191508051906020019060200280838360005b83811015620012ca578082015181840152602081019050620012ad565b50505050905001848103825285818151815260200191508051906020019060200280838360005b838110156200130e578082015181840152602081019050620012f1565b5050505090500197505050505050505060206040518083038186803b1580156200133757600080fd5b505af41580156200134c573d6000803e3d6000fd5b505050506040513d60208110156200136357600080fd5b810190808051906020019092919050505015620013e8576040517f08c379a000000000000000000000000000000000000000000000000000000000815260040180806020018281038252601a8152602001807f4d65726b6c652050726f6f66207761732076657269666965642e00000000000081525060200191505060405180910390fd5b600160008b815260200190815260200160002060009054906101000a900473ffffffffffffffffffffffffffffffffffffffff1673ffffffffffffffffffffffffffffffffffffffff166356de96db60036040518263ffffffff167c0100000000000000000000000000000000000000000000000000000000028152600401808260ff1660ff168152602001915050600060405180830381600087803b1580156200149257600080fd5b505af1158015620014a7573d6000803e3d6000fd5b505050506060600160008c815260200190815260200160002060009054906101000a900473ffffffffffffffffffffffffffffffffffffffff1673ffffffffffffffffffffffffffffffffffffffff1663edc922a96040518163ffffffff167c010000000000000000000000000000000000000000000000000000000002815260040160006040518083038186803b1580156200154357600080fd5b505afa15801562001558573d6000803e3d6000fd5b505050506040513d6000823e3d601f19601f8201168201806040525060208110156200158357600080fd5b8101908080516401000000008111156200159c57600080fd5b82810190506020810184811115620015b357600080fd5b8151856020820283011164010000000082111715620015d157600080fd5b505092919050505090506000600160008d815260200190815260200160002060009054906101000a900473ffffffffffffffffffffffffffffffffffffffff1673ffffffffffffffffffffffffffffffffffffffff1663315deeaa6040518163ffffffff167c010000000000000000000000000000000000000000000000000000000002815260040160206040518083038186803b1580156200167357600080fd5b505afa15801562001688573d6000803e3d6000fd5b505050506040513d60208110156200169f57600080fd5b8101908080519060200190929190505050905060008090505b8251811015620018b3578b73ffffffffffffffffffffffffffffffffffffffff168382815181101515620016e857fe5b9060200190602002015173ffffffffffffffffffffffffffffffffffffffff161415156200177e5782818151811015156200171f57fe5b9060200190602002015173ffffffffffffffffffffffffffffffffffffffff166108fc8451848115156200174f57fe5b049081150290604051600060405180830381858888f193505050501580156200177c573d6000803e3d6000fd5b505b600160008e815260200190815260200160002060009054906101000a900473ffffffffffffffffffffffffffffffffffffffff1673ffffffffffffffffffffffffffffffffffffffff166359dc735c6040518163ffffffff167c010000000000000000000000000000000000000000000000000000000002815260040160206040518083038186803b1580156200181457600080fd5b505afa15801562001829573d6000803e3d6000fd5b505050506040513d60208110156200184057600080fd5b810190808051906020019092919050505073ffffffffffffffffffffffffffffffffffffffff166108fc8451848115156200187757fe5b049081150290604051600060405180830381858888f19350505050158015620018a4573d6000803e3d6000fd5b508080600101915050620016b8565b50620018bf8c620010b4565b7f4f4b000000000000000000000000000000000000000000000000000000000000965050505050505095945050505050565b600082600181023414151562001995576040517f08c379a000000000000000000000000000000000000000000000000000000000815260040180806020018281038252602b8152602001807f496e73756666696369656e74206f722065786365737369766520636f6c6c617481526020017f6572616c20616d6f756e7400000000000000000000000000000000000000000081525060400191505060405180910390fd5b6001840234141562001b95578686868686620019b062003eff565b80806020018673ffffffffffffffffffffffffffffffffffffffff1673ffffffffffffffffffffffffffffffffffffffff168152602001858152602001848152602001838152602001828103825287818151815260200191508051906020019060200280838360005b8381101562001a3657808201518184015260208101905062001a19565b505050509050019650505050505050604051809103906000f08015801562001a62573d6000803e3d6000fd5b50600160008054815260200190815260200160002060006101000a81548173ffffffffffffffffffffffffffffffffffffffff021916908373ffffffffffffffffffffffffffffffffffffffff16021790555060008090505b875181101562001b415742600360008054815260200190815260200160002060008a8481518110151562001aeb57fe5b9060200190602002015173ffffffffffffffffffffffffffffffffffffffff1673ffffffffffffffffffffffffffffffffffffffff16815260200190815260200160002081905550808060010191505062001abb565b504260026000805481526020019081526020016000208190555060008081548092919060010191905055507f496e697469616c697a6174696f6e207375636365737366756c6c2e0000000000915062001c03565b6040517f08c379a00000000000000000000000000000000000000000000000000000000081526004018080602001828103825260208152602001807f496e73756666696369656e74206f722065786365737369766520616d6f756e7481525060200191505060405180910390fd5b5095945050505050565b600281565b6060600080600080600080600073ffffffffffffffffffffffffffffffffffffffff16600160008a815260200190815260200160002060009054906101000a900473ffffffffffffffffffffffffffffffffffffffff1673ffffffffffffffffffffffffffffffffffffffff166359dc735c6040518163ffffffff167c010000000000000000000000000000000000000000000000000000000002815260040160206040518083038186803b15801562001ccb57600080fd5b505afa15801562001ce0573d6000803e3d6000fd5b505050506040513d602081101562001cf757600080fd5b810190808051906020019092919050505073ffffffffffffffffffffffffffffffffffffffff16141515620021e7576001600089815260200190815260200160002060009054906101000a900473ffffffffffffffffffffffffffffffffffffffff1673ffffffffffffffffffffffffffffffffffffffff1663edc922a96040518163ffffffff167c010000000000000000000000000000000000000000000000000000000002815260040160006040518083038186803b15801562001dbc57600080fd5b505afa15801562001dd1573d6000803e3d6000fd5b505050506040513d6000823e3d601f19601f82011682018060405250602081101562001dfc57600080fd5b81019080805164010000000081111562001e1557600080fd5b8281019050602081018481111562001e2c57600080fd5b815185602082028301116401000000008211171562001e4a57600080fd5b505092919050505096506001600089815260200190815260200160002060009054906101000a900473ffffffffffffffffffffffffffffffffffffffff1673ffffffffffffffffffffffffffffffffffffffff1663c828371e6040518163ffffffff167c010000000000000000000000000000000000000000000000000000000002815260040160206040518083038186803b15801562001eea57600080fd5b505afa15801562001eff573d6000803e3d6000fd5b505050506040513d602081101562001f1657600080fd5b810190808051906020019092919050505092506001600089815260200190815260200160002060009054906101000a900473ffffffffffffffffffffffffffffffffffffffff1673ffffffffffffffffffffffffffffffffffffffff166398d5fdca6040518163ffffffff167c010000000000000000000000000000000000000000000000000000000002815260040160206040518083038186803b15801562001fbf57600080fd5b505afa15801562001fd4573d6000803e3d6000fd5b505050506040513d602081101562001feb57600080fd5b81019080805190602001909291905050509550600260008981526020019081526020016000205491506001600089815260200190815260200160002060009054906101000a900473ffffffffffffffffffffffffffffffffffffffff1673ffffffffffffffffffffffffffffffffffffffff1663315deeaa6040518163ffffffff167c010000000000000000000000000000000000000000000000000000000002815260040160206040518083038186803b158015620020aa57600080fd5b505afa158015620020bf573d6000803e3d6000fd5b505050506040513d6020811015620020d657600080fd5b810190808051906020019092919050505093506001600089815260200190815260200160002060009054906101000a900473ffffffffffffffffffffffffffffffffffffffff1673ffffffffffffffffffffffffffffffffffffffff16631865c57d6040518163ffffffff167c010000000000000000000000000000000000000000000000000000000002815260040160206040518083038186803b1580156200217f57600080fd5b505afa15801562002194573d6000803e3d6000fd5b505050506040513d6020811015620021ab57600080fd5b810190808051906020019092919050505090507f4f4b000000000000000000000000000000000000000000000000000000000000945062002a9d565b600260ff16600160008a815260200190815260200160002060009054906101000a900473ffffffffffffffffffffffffffffffffffffffff1673ffffffffffffffffffffffffffffffffffffffff16631865c57d6040518163ffffffff167c010000000000000000000000000000000000000000000000000000000002815260040160206040518083038186803b1580156200228257600080fd5b505afa15801562002297573d6000803e3d6000fd5b505050506040513d6020811015620022ae57600080fd5b810190808051906020019092919050505060ff161415620026b5576001600089815260200190815260200160002060009054906101000a900473ffffffffffffffffffffffffffffffffffffffff1673ffffffffffffffffffffffffffffffffffffffff1663edc922a96040518163ffffffff167c010000000000000000000000000000000000000000000000000000000002815260040160006040518083038186803b1580156200235f57600080fd5b505afa15801562002374573d6000803e3d6000fd5b505050506040513d6000823e3d601f19601f8201168201806040525060208110156200239f57600080fd5b810190808051640100000000811115620023b857600080fd5b82810190506020810184811115620023cf57600080fd5b8151856020820283011164010000000082111715620023ed57600080fd5b505092919050505096506001600089815260200190815260200160002060009054906101000a900473ffffffffffffffffffffffffffffffffffffffff1673ffffffffffffffffffffffffffffffffffffffff1663c828371e6040518163ffffffff167c010000000000000000000000000000000000000000000000000000000002815260040160206040518083038186803b1580156200248d57600080fd5b505afa158015620024a2573d6000803e3d6000fd5b505050506040513d6020811015620024b957600080fd5b810190808051906020019092919050505092506001600089815260200190815260200160002060009054906101000a900473ffffffffffffffffffffffffffffffffffffffff1673ffffffffffffffffffffffffffffffffffffffff166398d5fdca6040518163ffffffff167c010000000000000000000000000000000000000000000000000000000002815260040160206040518083038186803b1580156200256257600080fd5b505afa15801562002577573d6000803e3d6000fd5b505050506040513d60208110156200258e57600080fd5b81019080805190602001909291905050509550600260008981526020019081526020016000205491506001600089815260200190815260200160002060009054906101000a900473ffffffffffffffffffffffffffffffffffffffff1673ffffffffffffffffffffffffffffffffffffffff16631865c57d6040518163ffffffff167c010000000000000000000000000000000000000000000000000000000002815260040160206040518083038186803b1580156200264d57600080fd5b505afa15801562002662573d6000803e3d6000fd5b505050506040513d60208110156200267957600080fd5b810190808051906020019092919050505090507f4e6f7420656e6f7567682066756e64732e000000000000000000000000000000945062002a9c565b6001600089815260200190815260200160002060009054906101000a900473ffffffffffffffffffffffffffffffffffffffff1673ffffffffffffffffffffffffffffffffffffffff1663edc922a96040518163ffffffff167c010000000000000000000000000000000000000000000000000000000002815260040160006040518083038186803b1580156200274b57600080fd5b505afa15801562002760573d6000803e3d6000fd5b505050506040513d6000823e3d601f19601f8201168201806040525060208110156200278b57600080fd5b810190808051640100000000811115620027a457600080fd5b82810190506020810184811115620027bb57600080fd5b8151856020820283011164010000000082111715620027d957600080fd5b505092919050505096506001600089815260200190815260200160002060009054906101000a900473ffffffffffffffffffffffffffffffffffffffff1673ffffffffffffffffffffffffffffffffffffffff1663c828371e6040518163ffffffff167c010000000000000000000000000000000000000000000000000000000002815260040160206040518083038186803b1580156200287957600080fd5b505afa1580156200288e573d6000803e3d6000fd5b505050506040513d6020811015620028a557600080fd5b810190808051906020019092919050505092506001600089815260200190815260200160002060009054906101000a900473ffffffffffffffffffffffffffffffffffffffff1673ffffffffffffffffffffffffffffffffffffffff166398d5fdca6040518163ffffffff167c010000000000000000000000000000000000000000000000000000000002815260040160206040518083038186803b1580156200294e57600080fd5b505afa15801562002963573d6000803e3d6000fd5b505050506040513d60208110156200297a57600080fd5b81019080805190602001909291905050509550600260008981526020019081526020016000205491506001600089815260200190815260200160002060009054906101000a900473ffffffffffffffffffffffffffffffffffffffff1673ffffffffffffffffffffffffffffffffffffffff16631865c57d6040518163ffffffff167c010000000000000000000000000000000000000000000000000000000002815260040160206040518083038186803b15801562002a3957600080fd5b505afa15801562002a4e573d6000803e3d6000fd5b505050506040513d602081101562002a6557600080fd5b810190808051906020019092919050505090507f4e6f20436f6e747261637420696e697469616c697a65642e000000000000000094505b5b919395979092949650565b6000846214103762002aba8262003ebe565b111562002b7b576040517f08c379a00000000000000000000000000000000000000000000000000000000081526004018080602001828103825260568152602001807f436f6e74726163742063616e206265206d757475616c6c79207465726d696e6181526020017f746564206265666f72652068616c642061206d6f6e746820686173207061737381526020017f65642073696e6365206c617374207061796d656e742e0000000000000000000081525060600191505060405180910390fd5b6001600087815260200190815260200160002060009054906101000a900473ffffffffffffffffffffffffffffffffffffffff1673ffffffffffffffffffffffffffffffffffffffff166356de96db60046040518263ffffffff167c0100000000000000000000000000000000000000000000000000000000028152600401808260ff1660ff168152602001915050600060405180830381600087803b15801562002c2557600080fd5b505af115801562002c3a573d6000803e3d6000fd5b5050505060606001600088815260200190815260200160002060009054906101000a900473ffffffffffffffffffffffffffffffffffffffff1673ffffffffffffffffffffffffffffffffffffffff1663edc922a96040518163ffffffff167c010000000000000000000000000000000000000000000000000000000002815260040160006040518083038186803b15801562002cd657600080fd5b505afa15801562002ceb573d6000803e3d6000fd5b505050506040513d6000823e3d601f19601f82011682018060405250602081101562002d1657600080fd5b81019080805164010000000081111562002d2f57600080fd5b8281019050602081018481111562002d4657600080fd5b815185602082028301116401000000008211171562002d6457600080fd5b5050929190505050905060006001600089815260200190815260200160002060009054906101000a900473ffffffffffffffffffffffffffffffffffffffff1673ffffffffffffffffffffffffffffffffffffffff1663315deeaa6040518163ffffffff167c010000000000000000000000000000000000000000000000000000000002815260040160206040518083038186803b15801562002e0657600080fd5b505afa15801562002e1b573d6000803e3d6000fd5b505050506040513d602081101562002e3257600080fd5b8101908080519060200190929190505050905060006001835101905060008090505b83518110156200316f5773__StorageProof__________________________631e716f6d600160008d815260200190815260200160002060009054906101000a900473ffffffffffffffffffffffffffffffffffffffff1673ffffffffffffffffffffffffffffffffffffffff166380759f1f6040518163ffffffff167c010000000000000000000000000000000000000000000000000000000002815260040160206040518083038186803b15801562002f0e57600080fd5b505afa15801562002f23573d6000803e3d6000fd5b505050506040513d602081101562002f3a57600080fd5b81019080805190602001909291905050508b8b8b6040518563ffffffff167c010000000000000000000000000000000000000000000000000000000002815260040180858152602001806020018060200180602001848103845287818151815260200191508051906020019080838360005b8381101562002fc957808201518184015260208101905062002fac565b50505050905090810190601f16801562002ff75780820380516001836020036101000a031916815260200191505b50848103835286818151815260200191508051906020019060200280838360005b838110156200303557808201518184015260208101905062003018565b50505050905001848103825285818151815260200191508051906020019060200280838360005b83811015620030795780820151818401526020810190506200305c565b5050505090500197505050505050505060206040518083038186803b158015620030a257600080fd5b505af4158015620030b7573d6000803e3d6000fd5b505050506040513d6020811015620030ce57600080fd5b81019080805190602001909291905050501562003157578381815181101515620030f457fe5b9060200190602002015173ffffffffffffffffffffffffffffffffffffffff166108fc83858115156200312357fe5b049081150290604051600060405180830381858888f1935050505015801562003150573d6000803e3d6000fd5b5062003161565b8180600190039250505b808060010191505062002e54565b50600160008a815260200190815260200160002060009054906101000a900473ffffffffffffffffffffffffffffffffffffffff1673ffffffffffffffffffffffffffffffffffffffff166359dc735c6040518163ffffffff167c010000000000000000000000000000000000000000000000000000000002815260040160206040518083038186803b1580156200320657600080fd5b505afa1580156200321b573d6000803e3d6000fd5b505050506040513d60208110156200323257600080fd5b810190808051906020019092919050505073ffffffffffffffffffffffffffffffffffffffff166108fc82848115156200326857fe5b049081150290604051600060405180830381858888f1935050505015801562003295573d6000803e3d6000fd5b507f4f4b0000000000000000000000000000000000000000000000000000000000009450620032c489620010b4565b50505050949350505050565b600073__StorageProof__________________________631e716f6d6001600089815260200190815260200160002060009054906101000a900473ffffffffffffffffffffffffffffffffffffffff1673ffffffffffffffffffffffffffffffffffffffff166380759f1f6040518163ffffffff167c010000000000000000000000000000000000000000000000000000000002815260040160206040518083038186803b1580156200338257600080fd5b505afa15801562003397573d6000803e3d6000fd5b505050506040513d6020811015620033ae57600080fd5b81019080805190602001909291905050508686866040518563ffffffff167c010000000000000000000000000000000000000000000000000000000002815260040180858152602001806020018060200180602001848103845287818151815260200191508051906020019080838360005b838110156200343d57808201518184015260208101905062003420565b50505050905090810190601f1680156200346b5780820380516001836020036101000a031916815260200191505b50848103835286818151815260200191508051906020019060200280838360005b83811015620034a95780820151818401526020810190506200348c565b50505050905001848103825285818151815260200191508051906020019060200280838360005b83811015620034ed578082015181840152602081019050620034d0565b5050505090500197505050505050505060206040518083038186803b1580156200351657600080fd5b505af41580156200352b573d6000803e3d6000fd5b505050506040513d60208110156200354257600080fd5b810190808051906020019092919050505015620035d757426003600088815260200190815260200160002060008773ffffffffffffffffffffffffffffffffffffffff1673ffffffffffffffffffffffffffffffffffffffff168152602001908152602001600020819055507f4f4b00000000000000000000000000000000000000000000000000000000000090506200360b565b620035e68686868686620010ed565b507f4e4f4b000000000000000000000000000000000000000000000000000000000090505b95945050505050565b600081600160ff166001600083815260200190815260200160002060009054906101000a900473ffffffffffffffffffffffffffffffffffffffff1673ffffffffffffffffffffffffffffffffffffffff16631865c57d6040518163ffffffff167c010000000000000000000000000000000000000000000000000000000002815260040160206040518083038186803b158015620036b257600080fd5b505afa158015620036c7573d6000803e3d6000fd5b505050506040513d6020811015620036de57600080fd5b810190808051906020019092919050505060ff1614158015620037da5750600260ff166001600083815260200190815260200160002060009054906101000a900473ffffffffffffffffffffffffffffffffffffffff1673ffffffffffffffffffffffffffffffffffffffff16631865c57d6040518163ffffffff167c010000000000000000000000000000000000000000000000000000000002815260040160206040518083038186803b1580156200379757600080fd5b505afa158015620037ac573d6000803e3d6000fd5b505050506040513d6020811015620037c357600080fd5b810190808051906020019092919050505060ff1614155b156200384e576040517f08c379a00000000000000000000000000000000000000000000000000000000081526004018080602001828103825260178152602001807f436f6e7472616374206973207465726d696e617465642e00000000000000000081525060200191505060405180910390fd5b82600180600083815260200190815260200160002060009054906101000a900473ffffffffffffffffffffffffffffffffffffffff1673ffffffffffffffffffffffffffffffffffffffff166398d5fdca6040518163ffffffff167c010000000000000000000000000000000000000000000000000000000002815260040160206040518083038186803b158015620038e657600080fd5b505afa158015620038fb573d6000803e3d6000fd5b505050506040513d60208110156200391257600080fd5b8101908080519060200190929190505050023414151562003a5e576001600082815260200190815260200160002060009054906101000a900473ffffffffffffffffffffffffffffffffffffffff1673ffffffffffffffffffffffffffffffffffffffff166356de96db60026040518263ffffffff167c0100000000000000000000000000000000000000000000000000000000028152600401808260ff1660ff168152602001915050600060405180830381600087803b158015620039d757600080fd5b505af1158015620039ec573d6000803e3d6000fd5b505050506040517f08c379a00000000000000000000000000000000000000000000000000000000081526004018080602001828103825260208152602001807f496e73756666696369656e74206f722065786365737369766520616d6f756e7481525060200191505060405180910390fd5b60606001600086815260200190815260200160002060009054906101000a900473ffffffffffffffffffffffffffffffffffffffff1673ffffffffffffffffffffffffffffffffffffffff1663edc922a96040518163ffffffff167c010000000000000000000000000000000000000000000000000000000002815260040160006040518083038186803b15801562003af657600080fd5b505afa15801562003b0b573d6000803e3d6000fd5b505050506040513d6000823e3d601f19601f82011682018060405250602081101562003b3657600080fd5b81019080805164010000000081111562003b4f57600080fd5b8281019050602081018481111562003b6657600080fd5b815185602082028301116401000000008211171562003b8457600080fd5b5050929190505050905060008090505b815181101562003eb0576000828281518110151562003baf57fe5b90602001906020020151905060008173ffffffffffffffffffffffffffffffffffffffff163190508173ffffffffffffffffffffffffffffffffffffffff166108fc85513481151562003bfe57fe5b049081150290604051600060405180830381858888f1935050505015801562003c2b573d6000803e3d6000fd5b508351600160008a815260200190815260200160002060009054906101000a900473ffffffffffffffffffffffffffffffffffffffff1673ffffffffffffffffffffffffffffffffffffffff166398d5fdca6040518163ffffffff167c010000000000000000000000000000000000000000000000000000000002815260040160206040518083038186803b15801562003cc457600080fd5b505afa15801562003cd9573d6000803e3d6000fd5b505050506040513d602081101562003cf057600080fd5b810190808051906020019092919050505081151562003d0b57fe5b0481018273ffffffffffffffffffffffffffffffffffffffff163110151562003d6f5742600260008a8152602001908152602001600020819055507f5061796d656e74207375636365737366756c6c2e000000000000000000000000965062003ea0565b6001600089815260200190815260200160002060009054906101000a900473ffffffffffffffffffffffffffffffffffffffff1673ffffffffffffffffffffffffffffffffffffffff166356de96db60026040518263ffffffff167c0100000000000000000000000000000000000000000000000000000000028152600401808260ff1660ff168152602001915050600060405180830381600087803b15801562003e1957600080fd5b505af115801562003e2e573d6000803e3d6000fd5b505050506040517f08c379a00000000000000000000000000000000000000000000000000000000081526004018080602001828103825260128152602001807f5472616e73616374696f6e206661696c6564000000000000000000000000000081525060200191505060405180910390fd5b5050808060010191505062003b94565b50505050919050565b600181565b60008060026000848152602001908152602001600020544203905080915050919050565b60026020528060005260406000206000915090505481565b600381565b604051610a748062003f118339019056fe608060405234801561001057600080fd5b50604051610a74380380610a74833981018060405260a081101561003357600080fd5b81019080805164010000000081111561004b57600080fd5b8281019050602081018481111561006157600080fd5b815185602082028301116401000000008211171561007e57600080fd5b50509291906020018051906020019092919080519060200190929190805190602001909291908051906020019092919050505084600090805190602001906100c792919061014b565b5083600160006101000a81548173ffffffffffffffffffffffffffffffffffffffff021916908373ffffffffffffffffffffffffffffffffffffffff160217905550826002819055508160038190555080600481905550426005819055506001600660006101000a81548160ff021916908360ff1602179055505050505050610218565b8280548282559060005260206000209081019282156101c4579160200282015b828111156101c35782518260006101000a81548173ffffffffffffffffffffffffffffffffffffffff021916908373ffffffffffffffffffffffffffffffffffffffff1602179055509160200191906001019061016b565b5b5090506101d191906101d5565b5090565b61021591905b8082111561021157600081816101000a81549073ffffffffffffffffffffffffffffffffffffffff0219169055506001016101db565b5090565b90565b61084d806102276000396000f3fe6080604052600436106100fc576000357c0100000000000000000000000000000000000000000000000000000000900463ffffffff1680631865c57d146101015780632d7eae6614610132578063315deeaa1461016d5780633d4f04ad146101985780633e0a322d146101d35780634ce6c24a1461020e57806356de96db1461023f57806359dc735c1461027d5780637fcce2a9146102d457806380759f1f146103055780638526690a1461033057806391b7f5ed1461038157806398d5fdca146103bc578063b316df77146103e7578063c828371e146104ac578063c90bd047146104d7578063edc922a914610508578063f2f4c1da14610574575b600080fd5b34801561010d57600080fd5b506101166105a5565b604051808260ff1660ff16815260200191505060405180910390f35b34801561013e57600080fd5b5061016b6004803603602081101561015557600080fd5b81019080803590602001909291905050506105bc565b005b34801561017957600080fd5b506101826105c6565b6040518082815260200191505060405180910390f35b3480156101a457600080fd5b506101d1600480360360208110156101bb57600080fd5b81019080803590602001909291905050506105d0565b005b3480156101df57600080fd5b5061020c600480360360208110156101f657600080fd5b81019080803590602001909291905050506105da565b005b34801561021a57600080fd5b506102236105e4565b604051808260ff1660ff16815260200191505060405180910390f35b34801561024b57600080fd5b5061027b6004803603602081101561026257600080fd5b81019080803560ff1690602001909291905050506105e9565b005b34801561028957600080fd5b50610292610607565b604051808273ffffffffffffffffffffffffffffffffffffffff1673ffffffffffffffffffffffffffffffffffffffff16815260200191505060405180910390f35b3480156102e057600080fd5b506102e9610631565b604051808260ff1660ff16815260200191505060405180910390f35b34801561031157600080fd5b5061031a610636565b6040518082815260200191505060405180910390f35b34801561033c57600080fd5b5061037f6004803603602081101561035357600080fd5b81019080803573ffffffffffffffffffffffffffffffffffffffff169060200190929190505050610640565b005b34801561038d57600080fd5b506103ba600480360360208110156103a457600080fd5b8101908080359060200190929190505050610684565b005b3480156103c857600080fd5b506103d161068e565b6040518082815260200191505060405180910390f35b3480156103f357600080fd5b506104aa6004803603602081101561040a57600080fd5b810190808035906020019064010000000081111561042757600080fd5b82018360208201111561043957600080fd5b8035906020019184602083028401116401000000008311171561045b57600080fd5b919080806020026020016040519081016040528093929190818152602001838360200280828437600081840152601f19601f820116905080830192505050505050509192919290505050610698565b005b3480156104b857600080fd5b506104c16106b2565b6040518082815260200191505060405180910390f35b3480156104e357600080fd5b506104ec6106bc565b604051808260ff1660ff16815260200191505060405180910390f35b34801561051457600080fd5b5061051d6106c1565b6040518080602001828103825283818151815260200191508051906020019060200280838360005b83811015610560578082015181840152602081019050610545565b505050509050019250505060405180910390f35b34801561058057600080fd5b5061058961074f565b604051808260ff1660ff16815260200191505060405180910390f35b6000600660009054906101000a900460ff16905090565b8060028190555050565b6000600354905090565b8060038190555050565b8060058190555050565b600481565b80600660006101000a81548160ff021916908360ff16021790555050565b6000600160009054906101000a900473ffffffffffffffffffffffffffffffffffffffff16905090565b600281565b6000600254905090565b80600160006101000a81548173ffffffffffffffffffffffffffffffffffffffff021916908373ffffffffffffffffffffffffffffffffffffffff16021790555050565b8060048190555050565b6000600454905090565b80600090805190602001906106ae929190610754565b5050565b6000600554905090565b600181565b6060600080548060200260200160405190810160405280929190818152602001828054801561074557602002820191906000526020600020905b8160009054906101000a900473ffffffffffffffffffffffffffffffffffffffff1673ffffffffffffffffffffffffffffffffffffffff16815260200190600101908083116106fb575b5050505050905090565b600381565b8280548282559060005260206000209081019282156107cd579160200282015b828111156107cc5782518260006101000a81548173ffffffffffffffffffffffffffffffffffffffff021916908373ffffffffffffffffffffffffffffffffffffffff16021790555091602001919060010190610774565b5b5090506107da91906107de565b5090565b61081e91905b8082111561081a57600081816101000a81549073ffffffffffffffffffffffffffffffffffffffff0219169055506001016107e4565b5090565b9056fea165627a7a72305820abc4ecda371e11e40adedad6c7355c69ce0fa9cef1538c92fcf64af822549d710029a165627a7a7230582031224018cf3cd2107b9bfd30392de07ae82942a68a4b00ab1764740fae6734e70029",
  "source": "pragma solidity ^0.5.0;\nimport \"./Contract.sol\";\nimport \"./storage-proof.sol\";\n\ncontract contractExecutor{\n\n\t//Data Structures and id counter\n\tuint private id = 0;\n\tmapping(uint => Contract) public contracts;\n\tmapping(uint => uint) public paymentTime;\n\tmapping(uint => mapping(address => uint)) verifications;\n\n\t//State Constants\n\tuint8 constant public ACTIVE = 1;\n\tuint8 constant public INVALID = 2;\n\tuint8 constant public CANCELED = 3;\n\tuint8 constant public COMPLETED = 4;\n\n\tfunction init(address payable[] memory provider, address payable client, bytes32 rootHash, uint collateralAmount, uint price)\n\tpublic\n\tpayable\n\tonlyIfCollateral(collateralAmount)\n\treturns (bytes32 initMessage)\n\t{\n\t\tif (msg.value == collateralAmount * 1 wei){\n\t\t\tcontracts[id] = new Contract(provider, client, rootHash, collateralAmount, price);\n\t\t\tfor (uint i = 0; i < provider.length; i++){\n\t\t\t\tverifications[id][provider[i]] = now;\n\t\t\t}\n\t\t\tpaymentTime[id] = now;\n\t\t\tid++;\n\t\t\tinitMessage = \"Initialization successfull.\";\n\t\t}\n\t\telse {\n\t\t\trevert(\"Insufficient or excessive amount\");\n\t\t}\n\t}\n\n\tfunction getContractInfo(uint _id)\n\tpublic\n\tview\n\treturns(address payable[] memory tempProvider,uint tempPrice, bytes32 infoMessage, uint tempCollateral, uint tempTime, uint temppTime, uint8 tempState)\n\t{\n\t\tif (contracts[_id].getClient() != 0x0000000000000000000000000000000000000000){\n\t\t\ttempProvider = contracts[_id].getProviders();\n\t\t\ttempTime = contracts[_id].getStartTime();\n\t\t\ttempPrice = contracts[_id].getPrice();\n\t\t\ttemppTime = paymentTime[_id];\n\t\t\ttempCollateral = contracts[_id].getCollateralAmount();\n\t\t\ttempState = contracts[_id].getState();\n\t\t\tinfoMessage = \"OK\";\n\t\t}\n\t\telse\n\t\t{\n\t\t\tif (contracts[_id].getState() == INVALID)\n\t\t\t{\n\t\t\t\ttempProvider = contracts[_id].getProviders();\n\t\t\t\ttempTime = contracts[_id].getStartTime();\n\t\t\t\ttempPrice = contracts[_id].getPrice();\n\t\t\t\ttemppTime = paymentTime[_id];\n\t\t\t\ttempState = contracts[_id].getState();\n\t\t\t\tinfoMessage = \"Not enough funds.\";\n\t\t\t}\n\t\t\telse{\n\t\t\t\ttempProvider = contracts[_id].getProviders();\n\t\t\t\ttempTime = contracts[_id].getStartTime();\n\t\t\t\ttempPrice = contracts[_id].getPrice();\n\t\t\t\ttemppTime = paymentTime[_id];\n\t\t\t\ttempState = contracts[_id].getState();\n\t\t\t\tinfoMessage = \"No Contract initialized.\";\n\t\t\t}\n\t\t}\n\t}\n\n\tfunction pay(uint _id)\n\tpublic\n\tpayable\n\tonlyActiveOrInvalid(_id)\n\t//onlyAfterOneMonth(_id)\n\tonlyRightPrice(_id)\n\treturns(bytes32 paymentMessage)\n\t{\n\t\taddress payable[] memory provs = contracts[_id].getProviders();\n\t\tfor (uint i = 0; i < provs.length; i++)\n\t\t{\n\t\t\taddress payable currProv = provs[i];\n\t\t\tuint providerBalance = currProv.balance;\n\t\t\tcurrProv.transfer(msg.value / provs.length);\n\t\t\tif (currProv.balance >= providerBalance + (contracts[_id].getPrice() / provs.length)){\n\t\t\t\t\tpaymentTime[_id] = now; //If the payment is successfull, set the payment time to now.\n\t\t\t\t\tpaymentMessage = \"Payment successfull.\";\n\t\t\t}\n\t\t\telse {\n\t\t\t\tcontracts[_id].setState(INVALID);\n\t\t\t\trevert(\"Transaction failed\");\n\t\t\t}\n\t\t}\n\t}\n\n\tfunction getVerification(uint _id, address payable _provider, bytes memory _leaf, bytes32[] memory _nodeHashes, bool[] memory _nodeOrientations)\n\tpublic\n\treturns(bytes32 verificationMessage)\n\t{\n\t\tif (StorageProof.verify(contracts[_id].getRootHash(), _leaf, _nodeHashes, _nodeOrientations)){\n\t\t\tverifications[_id][_provider] = now;\n\t\t\tverificationMessage = \"OK\";\n\t\t}\n\t\telse{\n\t\t\tterminateCulpProvider(_id, _provider,  _leaf, _nodeHashes, _nodeOrientations);\n\t\t\tverificationMessage = \"NOK\";\n\t\t}\n\t}\n\n\tfunction terminateCulpClient(uint _id)\n\tpublic\n\tpayable\n\tonlyMoreThanOneMonth(_id)\n\treturns(bytes32 terminationMessage)\n\t{\n\t\tcontracts[_id].setState(CANCELED);\n\t\taddress payable[] memory provs = contracts[_id].getProviders();\n\t\tuint coll = contracts[_id].getCollateralAmount();\n\t\tfor (uint i = 0; i < provs.length; i++){\n\t\t\tprovs[i].transfer(coll / provs.length);\n\t\t}\n\t\tinvalidateContract(_id);\n\t\treturn \"OK\";\n\t}\n\n\tfunction terminateCulpProvider(uint _id, address payable _provider, bytes memory _leaf,\n\t\t\t\t\t\t\t\t   bytes32[] memory _nodeHashes, bool[] memory _nodeOrientations)\n\tpublic\n\tpayable\n\tonlyNotVerified(_id, _leaf, _nodeHashes, _nodeOrientations)\n\treturns(bytes32 terminationMessage)\n\t{\n\t\tcontracts[_id].setState(CANCELED);\n\t\taddress payable[] memory provs = contracts[_id].getProviders();\n\t\tuint coll = contracts[_id].getCollateralAmount();\n\t\tfor (uint i = 0; i < provs.length; i++){\n\t\t\tif (provs[i] != _provider){\n\t\t\t\tprovs[i].transfer(coll / (provs.length));\n\t\t\t}\n\t\t\taddress(contracts[_id].getClient()).transfer(coll / (provs.length));\n\t\t}\n\t\tinvalidateContract(_id);\n\t\treturn \"OK\";\n\t}\n\n\tfunction terminateMutual(uint _id, bytes memory _leaf, bytes32[] memory _nodeHashes, bool[] memory _nodeOrientations)\n\tpublic\n\tpayable\n\tonlyLessThanHalfMonth(_id)\n\treturns(bytes32 terminationMessage)\n\t{\n\t\tcontracts[_id].setState(COMPLETED);\n\t\taddress payable[] memory provs = contracts[_id].getProviders();\n\t\tuint coll = contracts[_id].getCollateralAmount();\n\t\tuint splitCount = provs.length + 1;\n\t\tfor (uint i = 0; i < provs.length; i++){\n\t\t\tif (StorageProof.verify(contracts[_id].getRootHash(), _leaf, _nodeHashes, _nodeOrientations)){\n\t\t\t\tprovs[i].transfer(coll / splitCount);\n\t\t\t}\n\t\t\telse{\n\t\t\t\tsplitCount--;\n\t\t\t}\n\t\t}\n\t\taddress(contracts[_id].getClient()).transfer(coll / splitCount);\n\t\tterminationMessage = \"OK\";\n\t\tinvalidateContract(_id);\n\t}\n\n\tfunction timeDif(uint _id)\n\tpublic\n\tview\n\treturns(uint256)\n\t{\n\t\tuint256 duration = now - paymentTime[_id];\n\t\treturn duration;\n\t}\n\n\tfunction invalidateContract(uint _id)\n\tpublic\n\t{\n\t\tdelete contracts[_id];\n\t}\n\n\t// Function that makes the contract able to accept payments\n\tfunction () external payable {\n\n\t}\n\n\t//Modifiers\n\tmodifier onlyActiveOrInvalid(uint _id){\n\t\tif (contracts[_id].getState() != ACTIVE && contracts[_id].getState() != INVALID) revert(\"Contract is terminated.\");\n        _;\n\t}\n\tmodifier onlyAfterOneMonth(uint _id){\n\t\tif (timeDif(_id) < 2629743) revert(\"Payments are made every 1 month.\");\n        _;\n\t}\n\tmodifier onlyRightPrice(uint _id){\n\t\tif(msg.value != contracts[_id].getPrice() * 1 wei) {\n\t\t\tcontracts[_id].setState(INVALID);\n\t\t\trevert(\"Insufficient or excessive amount\");\n\t\t}\n\t\t_;\n\t}\n\tmodifier onlyIfCollateral(uint coll){\n\t\tif (msg.value != coll * 1 wei) revert(\"Insufficient or excessive collateral amount\");\n\t\t_;\n\t}\n\tmodifier onlyLessThanHalfMonth(uint _id){\n\t\tif (timeDif(_id) > 1314871) revert(\"Contract can be mutually terminated before hald a month has passed since last payment.\");\n\t\t_;\n\t}\n\tmodifier onlyMoreThanOneMonth(uint _id){\n\t\tif (timeDif(_id) <= 2629743) revert(\"Contract can be terminated with the client culpable only if more than one month has passed since last payment.\");\n\t\t_;\n\t}\n\tmodifier onlyNotVerified(uint _id, bytes memory _leaf, bytes32[] memory _nodeHashes, bool[] memory _nodeOrientations){\n\t\tif (StorageProof.verify(contracts[_id].getRootHash(), _leaf, _nodeHashes, _nodeOrientations)) revert(\"Merkle Proof was verified.\");\n\t\t_;\n\t}\n\n}\n",
  "sourcePath": "/home/canagno/ethChain/truffle/contracts/ContractExecutor.sol",
  "compiler": {
    "name": "solc",
    "version": "0.5.0+commit.1d4f565a.Emscripten.clang"
  },
  "schemaVersion": "3.0.1",
  "updatedAt": "2019-05-19T15:27:27.045Z",
  "devdoc": {
    "methods": {}
  },
  "userdoc": {
    "methods": {}
  }
}