{
  "contractName": "contractExecutor",
  "abi": [
    {
      "constant": true,
      "inputs": [
        {
          "name": "",
          "type": "uint256"
        }
      ],
      "name": "contracts",
      "outputs": [
        {
          "name": "",
          "type": "address"
        }
      ],
      "payable": false,
      "stateMutability": "view",
      "type": "function",
      "signature": "0x474da79a"
    },
    {
      "constant": true,
      "inputs": [],
      "name": "COMPLETED",
      "outputs": [
        {
          "name": "",
          "type": "uint8"
        }
      ],
      "payable": false,
      "stateMutability": "view",
      "type": "function",
      "signature": "0x4ce6c24a"
    },
    {
      "constant": true,
      "inputs": [],
      "name": "INVALID",
      "outputs": [
        {
          "name": "",
          "type": "uint8"
        }
      ],
      "payable": false,
      "stateMutability": "view",
      "type": "function",
      "signature": "0x7fcce2a9"
    },
    {
      "constant": true,
      "inputs": [],
      "name": "ACTIVE",
      "outputs": [
        {
          "name": "",
          "type": "uint8"
        }
      ],
      "payable": false,
      "stateMutability": "view",
      "type": "function",
      "signature": "0xc90bd047"
    },
    {
      "constant": true,
      "inputs": [
        {
          "name": "",
          "type": "uint256"
        }
      ],
      "name": "leafToVerify",
      "outputs": [
        {
          "name": "",
          "type": "string"
        }
      ],
      "payable": false,
      "stateMutability": "view",
      "type": "function",
      "signature": "0xd6312017"
    },
    {
      "constant": true,
      "inputs": [
        {
          "name": "",
          "type": "uint256"
        }
      ],
      "name": "paymentTime",
      "outputs": [
        {
          "name": "",
          "type": "uint256"
        }
      ],
      "payable": false,
      "stateMutability": "view",
      "type": "function",
      "signature": "0xe6886ed8"
    },
    {
      "constant": true,
      "inputs": [],
      "name": "CANCELED",
      "outputs": [
        {
          "name": "",
          "type": "uint8"
        }
      ],
      "payable": false,
      "stateMutability": "view",
      "type": "function",
      "signature": "0xf2f4c1da"
    },
    {
      "inputs": [
        {
          "name": "_rating",
          "type": "address"
        }
      ],
      "payable": false,
      "stateMutability": "nonpayable",
      "type": "constructor",
      "signature": "constructor"
    },
    {
      "payable": true,
      "stateMutability": "payable",
      "type": "fallback"
    },
    {
      "anonymous": false,
      "inputs": [
        {
          "indexed": false,
          "name": "_id",
          "type": "uint256"
        },
        {
          "indexed": false,
          "name": "_leaf",
          "type": "string"
        }
      ],
      "name": "setLeafEvent",
      "type": "event",
      "signature": "0xa433c8bc17c4797b834f67299ee66792a80f45d75bb2b3f8811bdf4c6df5e2b4"
    },
    {
      "constant": false,
      "inputs": [
        {
          "name": "provider",
          "type": "address[]"
        },
        {
          "name": "client",
          "type": "address"
        },
        {
          "name": "rootHash",
          "type": "bytes32"
        },
        {
          "name": "collateralAmount",
          "type": "uint256"
        },
        {
          "name": "price",
          "type": "uint256"
        }
      ],
      "name": "initContract",
      "outputs": [
        {
          "name": "initMessage",
          "type": "bytes32"
        }
      ],
      "payable": true,
      "stateMutability": "payable",
      "type": "function",
      "signature": "0x8ee3bc53"
    },
    {
      "constant": true,
      "inputs": [
        {
          "name": "_id",
          "type": "uint256"
        }
      ],
      "name": "getContractInfo",
      "outputs": [
        {
          "name": "tempProvider",
          "type": "address[]"
        },
        {
          "name": "tempClient",
          "type": "address"
        },
        {
          "name": "tempPrice",
          "type": "uint256"
        },
        {
          "name": "infoMessage",
          "type": "bytes32"
        },
        {
          "name": "tempCollateral",
          "type": "uint256"
        },
        {
          "name": "tempTime",
          "type": "uint256"
        },
        {
          "name": "temppTime",
          "type": "uint256"
        },
        {
          "name": "tempState",
          "type": "bytes32"
        },
        {
          "name": "tempRoot",
          "type": "bytes32"
        }
      ],
      "payable": false,
      "stateMutability": "view",
      "type": "function",
      "signature": "0x8aa3e011"
    },
    {
      "constant": false,
      "inputs": [
        {
          "name": "_id",
          "type": "uint256"
        }
      ],
      "name": "pay",
      "outputs": [
        {
          "name": "paymentMessage",
          "type": "bytes32"
        }
      ],
      "payable": true,
      "stateMutability": "payable",
      "type": "function",
      "signature": "0xc290d691"
    },
    {
      "constant": false,
      "inputs": [
        {
          "name": "_id",
          "type": "uint256"
        },
        {
          "name": "_proof",
          "type": "bytes32[]"
        }
      ],
      "name": "getVerification",
      "outputs": [
        {
          "name": "verificationMessage",
          "type": "bytes32"
        }
      ],
      "payable": false,
      "stateMutability": "nonpayable",
      "type": "function",
      "signature": "0x561f0dfc"
    },
    {
      "constant": false,
      "inputs": [
        {
          "name": "_id",
          "type": "uint256"
        }
      ],
      "name": "terminateCulpClient",
      "outputs": [
        {
          "name": "terminationMessage",
          "type": "bytes32"
        }
      ],
      "payable": true,
      "stateMutability": "payable",
      "type": "function",
      "signature": "0x29cbcedb"
    },
    {
      "constant": false,
      "inputs": [
        {
          "name": "_id",
          "type": "uint256"
        }
      ],
      "name": "terminateCulpProvider",
      "outputs": [
        {
          "name": "terminationMessage",
          "type": "bytes32"
        }
      ],
      "payable": true,
      "stateMutability": "payable",
      "type": "function",
      "signature": "0x534edb43"
    },
    {
      "constant": false,
      "inputs": [
        {
          "name": "_id",
          "type": "uint256"
        }
      ],
      "name": "terminateMutual",
      "outputs": [
        {
          "name": "terminationMessage",
          "type": "bytes32"
        }
      ],
      "payable": true,
      "stateMutability": "payable",
      "type": "function",
      "signature": "0x39d46fd6"
    },
    {
      "constant": true,
      "inputs": [
        {
          "name": "_id",
          "type": "uint256"
        }
      ],
      "name": "timeDif",
      "outputs": [
        {
          "name": "",
          "type": "uint256"
        }
      ],
      "payable": false,
      "stateMutability": "view",
      "type": "function",
      "signature": "0xdeec16e9"
    },
    {
      "constant": false,
      "inputs": [
        {
          "name": "_id",
          "type": "uint256"
        }
      ],
      "name": "invalidateContract",
      "outputs": [],
      "payable": false,
      "stateMutability": "nonpayable",
      "type": "function",
      "signature": "0x59a48e46"
    },
    {
      "constant": true,
      "inputs": [
        {
          "name": "_id",
          "type": "uint256"
        }
      ],
      "name": "getLeaf",
      "outputs": [
        {
          "name": "",
          "type": "string"
        }
      ],
      "payable": false,
      "stateMutability": "view",
      "type": "function",
      "signature": "0x22e91248"
    },
    {
      "constant": false,
      "inputs": [
        {
          "name": "_id",
          "type": "uint256"
        },
        {
          "name": "_leaf",
          "type": "string"
        }
      ],
      "name": "setLeaf",
      "outputs": [],
      "payable": false,
      "stateMutability": "nonpayable",
      "type": "function",
      "signature": "0x12d3265e"
    },
    {
      "constant": true,
      "inputs": [
        {
          "name": "_id",
          "type": "uint8"
        }
      ],
      "name": "returnStringStatus",
      "outputs": [
        {
          "name": "",
          "type": "bytes32"
        }
      ],
      "payable": false,
      "stateMutability": "pure",
      "type": "function",
      "signature": "0xd2d52389"
    },
    {
      "constant": true,
      "inputs": [],
      "name": "getContractStatuses",
      "outputs": [
        {
          "name": "",
          "type": "uint8[20]"
        }
      ],
      "payable": false,
      "stateMutability": "view",
      "type": "function",
      "signature": "0x44d12b0d"
    }
  ],
  "bytecode": "0x60806040526000805534801561001457600080fd5b506040516020806200558c8339810180604052602081101561003557600080fd5b810190808051906020019092919050505080600560006101000a81548173ffffffffffffffffffffffffffffffffffffffff021916908373ffffffffffffffffffffffffffffffffffffffff160217905550506154f480620000986000396000f3fe60806040526004361062000127576000357c0100000000000000000000000000000000000000000000000000000000900463ffffffff16806312d3265e146200012957806322e91248146200020257806329cbcedb14620002bd57806339d46fd6146200030257806344d12b0d1462000347578063474da79a146200039f5780634ce6c24a146200041e578063534edb431462000452578063561f0dfc146200049757806359a48e4614620005815780637fcce2a914620005c05780638aa3e01114620005f45780638ee3bc5314620006ee578063c290d69114620007fe578063c90bd0471462000843578063d2d523891462000877578063d631201714620008cd578063deec16e91462000988578063e6886ed814620009db578063f2f4c1da1462000a2e575b005b3480156200013657600080fd5b5062000200600480360360408110156200014f57600080fd5b8101908080359060200190929190803590602001906401000000008111156200017757600080fd5b8201836020820111156200018a57600080fd5b80359060200191846001830284011164010000000083111715620001ad57600080fd5b91908080601f016020809104026020016040519081016040528093929190818152602001838380828437600081840152601f19601f82011690508083019250505050505050919291929050505062000a62565b005b3480156200020f57600080fd5b506200023f600480360360208110156200022857600080fd5b810190808035906020019092919050505062000cd5565b6040518080602001828103825283818151815260200191508051906020019080838360005b838110156200028157808201518184015260208101905062000264565b50505050905090810190601f168015620002af5780820380516001836020036101000a031916815260200191505b509250505060405180910390f35b620002ec60048036036020811015620002d557600080fd5b810190808035906020019092919050505062000d8e565b6040518082815260200191505060405180910390f35b62000331600480360360208110156200031a57600080fd5b810190808035906020019092919050505062001303565b6040518082815260200191505060405180910390f35b3480156200035457600080fd5b506200035f62001a85565b6040518082601460200280838360005b838110156200038c5780820151818401526020810190506200036f565b5050505090500191505060405180910390f35b348015620003ac57600080fd5b50620003dc60048036036020811015620003c557600080fd5b810190808035906020019092919050505062001bc6565b604051808273ffffffffffffffffffffffffffffffffffffffff1673ffffffffffffffffffffffffffffffffffffffff16815260200191505060405180910390f35b3480156200042b57600080fd5b506200043662001bf9565b604051808260ff1660ff16815260200191505060405180910390f35b62000481600480360360208110156200046a57600080fd5b810190808035906020019092919050505062001bfe565b6040518082815260200191505060405180910390f35b348015620004a457600080fd5b506200056b60048036036040811015620004bd57600080fd5b810190808035906020019092919080359060200190640100000000811115620004e557600080fd5b820183602082011115620004f857600080fd5b803590602001918460208302840111640100000000831117156200051b57600080fd5b919080806020026020016040519081016040528093929190818152602001838360200280828437600081840152601f19601f82011690508083019250505050505050919291929050505062002134565b6040518082815260200191505060405180910390f35b3480156200058e57600080fd5b50620005be60048036036020811015620005a757600080fd5b810190808035906020019092919050505062002581565b005b348015620005cd57600080fd5b50620005d86200266d565b604051808260ff1660ff16815260200191505060405180910390f35b3480156200060157600080fd5b5062000631600480360360208110156200061a57600080fd5b810190808035906020019092919050505062002672565b60405180806020018a73ffffffffffffffffffffffffffffffffffffffff1673ffffffffffffffffffffffffffffffffffffffff16815260200189815260200188815260200187815260200186815260200185815260200184815260200183815260200182810382528b818151815260200191508051906020019060200280838360005b83811015620006d2578082015181840152602081019050620006b5565b505050509050019a505050505050505050505060405180910390f35b620007e8600480360360a08110156200070657600080fd5b81019080803590602001906401000000008111156200072457600080fd5b8201836020820111156200073757600080fd5b803590602001918460208302840111640100000000831117156200075a57600080fd5b919080806020026020016040519081016040528093929190818152602001838360200280828437600081840152601f19601f820116905080830192505050505050509192919290803573ffffffffffffffffffffffffffffffffffffffff1690602001909291908035906020019092919080359060200190929190803590602001909291905050506200387f565b6040518082815260200191505060405180910390f35b6200082d600480360360208110156200081657600080fd5b810190808035906020019092919050505062003cac565b6040518082815260200191505060405180910390f35b3480156200085057600080fd5b506200085b62004773565b604051808260ff1660ff16815260200191505060405180910390f35b3480156200088457600080fd5b50620008b7600480360360208110156200089d57600080fd5b81019080803560ff16906020019092919050505062004778565b6040518082815260200191505060405180910390f35b348015620008da57600080fd5b506200090a60048036036020811015620008f357600080fd5b81019080803590602001909291905050506200487b565b6040518080602001828103825283818151815260200191508051906020019080838360005b838110156200094c5780820151818401526020810190506200092f565b50505050905090810190601f1680156200097a5780820380516001836020036101000a031916815260200191505b509250505060405180910390f35b3480156200099557600080fd5b50620009c560048036036020811015620009ae57600080fd5b81019080803590602001909291905050506200492f565b6040518082815260200191505060405180910390f35b348015620009e857600080fd5b5062000a186004803603602081101562000a0157600080fd5b810190808035906020019092919050505062004953565b6040518082815260200191505060405180910390f35b34801562000a3b57600080fd5b5062000a466200496b565b604051808260ff1660ff16815260200191505060405180910390f35b816001600082815260200190815260200160002060009054906101000a900473ffffffffffffffffffffffffffffffffffffffff1673ffffffffffffffffffffffffffffffffffffffff166359dc735c6040518163ffffffff167c010000000000000000000000000000000000000000000000000000000002815260040160206040518083038186803b15801562000af957600080fd5b505afa15801562000b0e573d6000803e3d6000fd5b505050506040513d602081101562000b2557600080fd5b810190808051906020019092919050505073ffffffffffffffffffffffffffffffffffffffff163373ffffffffffffffffffffffffffffffffffffffff1614151562000bff576040517f08c379a00000000000000000000000000000000000000000000000000000000081526004018080602001828103825260278152602001807f4f6e6c792074686520636c69656e742063616e2061636365737320746869732081526020017f6d6574686f642e0000000000000000000000000000000000000000000000000081525060400191505060405180910390fd5b8160036000858152602001908152602001600020908051906020019062000c2892919062004970565b507fa433c8bc17c4797b834f67299ee66792a80f45d75bb2b3f8811bdf4c6df5e2b483836040518083815260200180602001828103825283818151815260200191508051906020019080838360005b8381101562000c9457808201518184015260208101905062000c77565b50505050905090810190601f16801562000cc25780820380516001836020036101000a031916815260200191505b50935050505060405180910390a1505050565b6060600360008381526020019081526020016000208054600181600116156101000203166002900480601f01602080910402602001604051908101604052809291908181526020018280546001816001161561010002031660029004801562000d825780601f1062000d565761010080835404028352916020019162000d82565b820191906000526020600020905b81548152906001019060200180831162000d6457829003601f168201915b50505050509050919050565b6000816228206f62000da0826200492f565b11151562000e88576040517f08c379a000000000000000000000000000000000000000000000000000000000815260040180806020018281038252606e8152602001807f436f6e74726163742063616e206265207465726d696e6174656420776974682081526020017f74686520636c69656e742063756c7061626c65206f6e6c79206966206d6f726581526020017f207468616e206f6e65206d6f6e746820686173207061737365642073696e636581526020017f206c617374207061796d656e742e00000000000000000000000000000000000081525060800191505060405180910390fd5b6001600084815260200190815260200160002060009054906101000a900473ffffffffffffffffffffffffffffffffffffffff1673ffffffffffffffffffffffffffffffffffffffff166356de96db60036040518263ffffffff167c0100000000000000000000000000000000000000000000000000000000028152600401808260ff1660ff168152602001915050600060405180830381600087803b15801562000f3257600080fd5b505af115801562000f47573d6000803e3d6000fd5b5050505060606001600085815260200190815260200160002060009054906101000a900473ffffffffffffffffffffffffffffffffffffffff1673ffffffffffffffffffffffffffffffffffffffff1663edc922a96040518163ffffffff167c010000000000000000000000000000000000000000000000000000000002815260040160006040518083038186803b15801562000fe357600080fd5b505afa15801562000ff8573d6000803e3d6000fd5b505050506040513d6000823e3d601f19601f8201168201806040525060208110156200102357600080fd5b8101908080516401000000008111156200103c57600080fd5b828101905060208101848111156200105357600080fd5b81518560208202830111640100000000821117156200107157600080fd5b5050929190505050905060006001600086815260200190815260200160002060009054906101000a900473ffffffffffffffffffffffffffffffffffffffff1673ffffffffffffffffffffffffffffffffffffffff1663315deeaa6040518163ffffffff167c010000000000000000000000000000000000000000000000000000000002815260040160206040518083038186803b1580156200111357600080fd5b505afa15801562001128573d6000803e3d6000fd5b505050506040513d60208110156200113f57600080fd5b8101908080519060200190929190505050905060008090505b8251811015620012cc57600560009054906101000a900473ffffffffffffffffffffffffffffffffffffffff1673ffffffffffffffffffffffffffffffffffffffff1663b57e2ec08483815181101515620011af57fe5b906020019060200201516040518263ffffffff167c0100000000000000000000000000000000000000000000000000000000028152600401808273ffffffffffffffffffffffffffffffffffffffff1673ffffffffffffffffffffffffffffffffffffffff168152602001915050600060405180830381600087803b1580156200123857600080fd5b505af11580156200124d573d6000803e3d6000fd5b5050505082818151811015156200126057fe5b9060200190602002015173ffffffffffffffffffffffffffffffffffffffff166108fc8451848115156200129057fe5b049081150290604051600060405180830381858888f19350505050158015620012bd573d6000803e3d6000fd5b50808060010191505062001158565b50620012d88562002581565b7f4f4b0000000000000000000000000000000000000000000000000000000000009350505050919050565b600081600f62001313826200492f565b1115620013d4576040517f08c379a00000000000000000000000000000000000000000000000000000000081526004018080602001828103825260568152602001807f436f6e74726163742063616e206265206d757475616c6c79207465726d696e6181526020017f746564206265666f72652068616c642061206d6f6e746820686173207061737381526020017f65642073696e6365206c617374207061796d656e742e0000000000000000000081525060600191505060405180910390fd5b6001600084815260200190815260200160002060009054906101000a900473ffffffffffffffffffffffffffffffffffffffff1673ffffffffffffffffffffffffffffffffffffffff166356de96db60046040518263ffffffff167c0100000000000000000000000000000000000000000000000000000000028152600401808260ff1660ff168152602001915050600060405180830381600087803b1580156200147e57600080fd5b505af115801562001493573d6000803e3d6000fd5b5050505060606001600085815260200190815260200160002060009054906101000a900473ffffffffffffffffffffffffffffffffffffffff1673ffffffffffffffffffffffffffffffffffffffff1663edc922a96040518163ffffffff167c010000000000000000000000000000000000000000000000000000000002815260040160006040518083038186803b1580156200152f57600080fd5b505afa15801562001544573d6000803e3d6000fd5b505050506040513d6000823e3d601f19601f8201168201806040525060208110156200156f57600080fd5b8101908080516401000000008111156200158857600080fd5b828101905060208101848111156200159f57600080fd5b8151856020820283011164010000000082111715620015bd57600080fd5b5050929190505050905060006001600086815260200190815260200160002060009054906101000a900473ffffffffffffffffffffffffffffffffffffffff1673ffffffffffffffffffffffffffffffffffffffff1663315deeaa6040518163ffffffff167c010000000000000000000000000000000000000000000000000000000002815260040160206040518083038186803b1580156200165f57600080fd5b505afa15801562001674573d6000803e3d6000fd5b505050506040513d60208110156200168b57600080fd5b8101908080519060200190929190505050905060006001835101905060008090505b8351811015620019275760011562001820578381815181101515620016ce57fe5b9060200190602002015173ffffffffffffffffffffffffffffffffffffffff166108fc8385811515620016fd57fe5b049081150290604051600060405180830381858888f193505050501580156200172a573d6000803e3d6000fd5b50600560009054906101000a900473ffffffffffffffffffffffffffffffffffffffff1673ffffffffffffffffffffffffffffffffffffffff1663b57e2ec085838151811015156200177857fe5b906020019060200201516040518263ffffffff167c0100000000000000000000000000000000000000000000000000000000028152600401808273ffffffffffffffffffffffffffffffffffffffff1673ffffffffffffffffffffffffffffffffffffffff168152602001915050600060405180830381600087803b1580156200180157600080fd5b505af115801562001816573d6000803e3d6000fd5b5050505062001919565b600560009054906101000a900473ffffffffffffffffffffffffffffffffffffffff1673ffffffffffffffffffffffffffffffffffffffff16636dbb0c8185838151811015156200186d57fe5b906020019060200201516040518263ffffffff167c0100000000000000000000000000000000000000000000000000000000028152600401808273ffffffffffffffffffffffffffffffffffffffff1673ffffffffffffffffffffffffffffffffffffffff168152602001915050600060405180830381600087803b158015620018f657600080fd5b505af11580156200190b573d6000803e3d6000fd5b505050508180600190039250505b8080600101915050620016ad565b506001600087815260200190815260200160002060009054906101000a900473ffffffffffffffffffffffffffffffffffffffff1673ffffffffffffffffffffffffffffffffffffffff166359dc735c6040518163ffffffff167c010000000000000000000000000000000000000000000000000000000002815260040160206040518083038186803b158015620019be57600080fd5b505afa158015620019d3573d6000803e3d6000fd5b505050506040513d6020811015620019ea57600080fd5b810190808051906020019092919050505073ffffffffffffffffffffffffffffffffffffffff166108fc828481151562001a2057fe5b049081150290604051600060405180830381858888f1935050505015801562001a4d573d6000803e3d6000fd5b507f4f4b000000000000000000000000000000000000000000000000000000000000945062001a7c8662002581565b50505050919050565b62001a8f620049f7565b62001a99620049f7565b60008090505b601481101562001bbe5760016000540381111562001abd5762001bbe565b6001600082815260200190815260200160002060009054906101000a900473ffffffffffffffffffffffffffffffffffffffff1673ffffffffffffffffffffffffffffffffffffffff16631865c57d6040518163ffffffff167c010000000000000000000000000000000000000000000000000000000002815260040160206040518083038186803b15801562001b5357600080fd5b505afa15801562001b68573d6000803e3d6000fd5b505050506040513d602081101562001b7f57600080fd5b8101908080519060200190929190505050828260148110151562001b9f57fe5b602002019060ff16908160ff1681525050808060010191505062001a9f565b508091505090565b60016020528060005260406000206000915054906101000a900473ffffffffffffffffffffffffffffffffffffffff1681565b600481565b60006001600083815260200190815260200160002060009054906101000a900473ffffffffffffffffffffffffffffffffffffffff1673ffffffffffffffffffffffffffffffffffffffff166356de96db60036040518263ffffffff167c0100000000000000000000000000000000000000000000000000000000028152600401808260ff1660ff168152602001915050600060405180830381600087803b15801562001caa57600080fd5b505af115801562001cbf573d6000803e3d6000fd5b5050505060606001600084815260200190815260200160002060009054906101000a900473ffffffffffffffffffffffffffffffffffffffff1673ffffffffffffffffffffffffffffffffffffffff1663edc922a96040518163ffffffff167c010000000000000000000000000000000000000000000000000000000002815260040160006040518083038186803b15801562001d5b57600080fd5b505afa15801562001d70573d6000803e3d6000fd5b505050506040513d6000823e3d601f19601f82011682018060405250602081101562001d9b57600080fd5b81019080805164010000000081111562001db457600080fd5b8281019050602081018481111562001dcb57600080fd5b815185602082028301116401000000008211171562001de957600080fd5b5050929190505050905060006001600085815260200190815260200160002060009054906101000a900473ffffffffffffffffffffffffffffffffffffffff1673ffffffffffffffffffffffffffffffffffffffff1663315deeaa6040518163ffffffff167c010000000000000000000000000000000000000000000000000000000002815260040160206040518083038186803b15801562001e8b57600080fd5b505afa15801562001ea0573d6000803e3d6000fd5b505050506040513d602081101562001eb757600080fd5b8101908080519060200190929190505050905060008090505b825181101562001fd757600560009054906101000a900473ffffffffffffffffffffffffffffffffffffffff1673ffffffffffffffffffffffffffffffffffffffff16636dbb0c81848381518110151562001f2757fe5b906020019060200201516040518263ffffffff167c0100000000000000000000000000000000000000000000000000000000028152600401808273ffffffffffffffffffffffffffffffffffffffff1673ffffffffffffffffffffffffffffffffffffffff168152602001915050600060405180830381600087803b15801562001fb057600080fd5b505af115801562001fc5573d6000803e3d6000fd5b50505050808060010191505062001ed0565b506001600085815260200190815260200160002060009054906101000a900473ffffffffffffffffffffffffffffffffffffffff1673ffffffffffffffffffffffffffffffffffffffff166359dc735c6040518163ffffffff167c010000000000000000000000000000000000000000000000000000000002815260040160206040518083038186803b1580156200206e57600080fd5b505afa15801562002083573d6000803e3d6000fd5b505050506040513d60208110156200209a57600080fd5b810190808051906020019092919050505073ffffffffffffffffffffffffffffffffffffffff166108fc835183811515620020d157fe5b049081150290604051600060405180830381858888f19350505050158015620020fe573d6000803e3d6000fd5b506200210a8462002581565b7f4f4b00000000000000000000000000000000000000000000000000000000000092505050919050565b600060405160200180600001905060405160208183030381529060405280519060200120600360008581526020019081526020016000206040516020018082805460018160011615610100020316600290048015620021cd5780601f10620021aa576101008083540402835291820191620021cd565b820191906000526020600020905b815481529060010190602001808311620021b8575b5050915050604051602081830303815290604052805190602001201415156200250d5773__StorageProof__________________________636c607f426001600086815260200190815260200160002060009054906101000a900473ffffffffffffffffffffffffffffffffffffffff1673ffffffffffffffffffffffffffffffffffffffff166380759f1f6040518163ffffffff167c010000000000000000000000000000000000000000000000000000000002815260040160206040518083038186803b158015620022a057600080fd5b505afa158015620022b5573d6000803e3d6000fd5b505050506040513d6020811015620022cc57600080fd5b810190808051906020019092919050505060036000878152602001908152602001600020856040518463ffffffff167c0100000000000000000000000000000000000000000000000000000000028152600401808481526020018060200180602001838103835285818154600181600116156101000203166002900481526020019150805460018160011615610100020316600290048015620023b35780601f106200238757610100808354040283529160200191620023b3565b820191906000526020600020905b8154815290600101906020018083116200239557829003601f168201915b5050838103825284818151815260200191508051906020019060200280838360005b83811015620023f2578082015181840152602081019050620023d5565b505050509050019550505050505060206040518083038186803b1580156200241957600080fd5b505af41580156200242e573d6000803e3d6000fd5b505050506040513d60208110156200244557600080fd5b810190808051906020019092919050505015620024d75760206040519081016040528060008152506003600085815260200190815260200160002090805190602001906200249592919062004970565b504260046000858152602001908152602001600020819055507f4f4b000000000000000000000000000000000000000000000000000000000000905062002507565b620024e28362001bfe565b507f4e4f4b000000000000000000000000000000000000000000000000000000000090505b6200257b565b6040517f08c379a00000000000000000000000000000000000000000000000000000000081526004018080602001828103825260128152602001807f4e6f206c656166207370656369666965642e000000000000000000000000000081525060200191505060405180910390fd5b92915050565b6001600082815260200190815260200160002060009054906101000a900473ffffffffffffffffffffffffffffffffffffffff1673ffffffffffffffffffffffffffffffffffffffff16638526690a60006040518263ffffffff167c0100000000000000000000000000000000000000000000000000000000028152600401808273ffffffffffffffffffffffffffffffffffffffff1673ffffffffffffffffffffffffffffffffffffffff168152602001915050600060405180830381600087803b1580156200265157600080fd5b505af115801562002666573d6000803e3d6000fd5b5050505050565b600281565b6060600080600080600080600080600073ffffffffffffffffffffffffffffffffffffffff16600160008c815260200190815260200160002060009054906101000a900473ffffffffffffffffffffffffffffffffffffffff1673ffffffffffffffffffffffffffffffffffffffff166359dc735c6040518163ffffffff167c010000000000000000000000000000000000000000000000000000000002815260040160206040518083038186803b1580156200272e57600080fd5b505afa15801562002743573d6000803e3d6000fd5b505050506040513d60208110156200275a57600080fd5b810190808051906020019092919050505073ffffffffffffffffffffffffffffffffffffffff1614151562002dfe57600160008b815260200190815260200160002060009054906101000a900473ffffffffffffffffffffffffffffffffffffffff1673ffffffffffffffffffffffffffffffffffffffff1663edc922a96040518163ffffffff167c010000000000000000000000000000000000000000000000000000000002815260040160006040518083038186803b1580156200281f57600080fd5b505afa15801562002834573d6000803e3d6000fd5b505050506040513d6000823e3d601f19601f8201168201806040525060208110156200285f57600080fd5b8101908080516401000000008111156200287857600080fd5b828101905060208101848111156200288f57600080fd5b8151856020820283011164010000000082111715620028ad57600080fd5b50509291905050509850600160008b815260200190815260200160002060009054906101000a900473ffffffffffffffffffffffffffffffffffffffff1673ffffffffffffffffffffffffffffffffffffffff166359dc735c6040518163ffffffff167c010000000000000000000000000000000000000000000000000000000002815260040160206040518083038186803b1580156200294d57600080fd5b505afa15801562002962573d6000803e3d6000fd5b505050506040513d60208110156200297957600080fd5b81019080805190602001909291905050509750600160008b815260200190815260200160002060009054906101000a900473ffffffffffffffffffffffffffffffffffffffff1673ffffffffffffffffffffffffffffffffffffffff1663c828371e6040518163ffffffff167c010000000000000000000000000000000000000000000000000000000002815260040160206040518083038186803b15801562002a2257600080fd5b505afa15801562002a37573d6000803e3d6000fd5b505050506040513d602081101562002a4e57600080fd5b81019080805190602001909291905050509350600160008b815260200190815260200160002060009054906101000a900473ffffffffffffffffffffffffffffffffffffffff1673ffffffffffffffffffffffffffffffffffffffff166398d5fdca6040518163ffffffff167c010000000000000000000000000000000000000000000000000000000002815260040160206040518083038186803b15801562002af757600080fd5b505afa15801562002b0c573d6000803e3d6000fd5b505050506040513d602081101562002b2357600080fd5b81019080805190602001909291905050509650600260008b8152602001908152602001600020549250600160008b815260200190815260200160002060009054906101000a900473ffffffffffffffffffffffffffffffffffffffff1673ffffffffffffffffffffffffffffffffffffffff1663315deeaa6040518163ffffffff167c010000000000000000000000000000000000000000000000000000000002815260040160206040518083038186803b15801562002be257600080fd5b505afa15801562002bf7573d6000803e3d6000fd5b505050506040513d602081101562002c0e57600080fd5b8101908080519060200190929190505050945062002cfe600160008c815260200190815260200160002060009054906101000a900473ffffffffffffffffffffffffffffffffffffffff1673ffffffffffffffffffffffffffffffffffffffff16631865c57d6040518163ffffffff167c010000000000000000000000000000000000000000000000000000000002815260040160206040518083038186803b15801562002cbb57600080fd5b505afa15801562002cd0573d6000803e3d6000fd5b505050506040513d602081101562002ce757600080fd5b810190808051906020019092919050505062004778565b9150600160008b815260200190815260200160002060009054906101000a900473ffffffffffffffffffffffffffffffffffffffff1673ffffffffffffffffffffffffffffffffffffffff166380759f1f6040518163ffffffff167c010000000000000000000000000000000000000000000000000000000002815260040160206040518083038186803b15801562002d9657600080fd5b505afa15801562002dab573d6000803e3d6000fd5b505050506040513d602081101562002dc257600080fd5b810190808051906020019092919050505090507f4f4b000000000000000000000000000000000000000000000000000000000000955062003872565b600260ff16600160008c815260200190815260200160002060009054906101000a900473ffffffffffffffffffffffffffffffffffffffff1673ffffffffffffffffffffffffffffffffffffffff16631865c57d6040518163ffffffff167c010000000000000000000000000000000000000000000000000000000002815260040160206040518083038186803b15801562002e9957600080fd5b505afa15801562002eae573d6000803e3d6000fd5b505050506040513d602081101562002ec557600080fd5b810190808051906020019092919050505060ff161415620033ab57600160008b815260200190815260200160002060009054906101000a900473ffffffffffffffffffffffffffffffffffffffff1673ffffffffffffffffffffffffffffffffffffffff1663edc922a96040518163ffffffff167c010000000000000000000000000000000000000000000000000000000002815260040160006040518083038186803b15801562002f7657600080fd5b505afa15801562002f8b573d6000803e3d6000fd5b505050506040513d6000823e3d601f19601f82011682018060405250602081101562002fb657600080fd5b81019080805164010000000081111562002fcf57600080fd5b8281019050602081018481111562002fe657600080fd5b81518560208202830111640100000000821117156200300457600080fd5b50509291905050509850600160008b815260200190815260200160002060009054906101000a900473ffffffffffffffffffffffffffffffffffffffff1673ffffffffffffffffffffffffffffffffffffffff166359dc735c6040518163ffffffff167c010000000000000000000000000000000000000000000000000000000002815260040160206040518083038186803b158015620030a457600080fd5b505afa158015620030b9573d6000803e3d6000fd5b505050506040513d6020811015620030d057600080fd5b81019080805190602001909291905050509750600160008b815260200190815260200160002060009054906101000a900473ffffffffffffffffffffffffffffffffffffffff1673ffffffffffffffffffffffffffffffffffffffff1663c828371e6040518163ffffffff167c010000000000000000000000000000000000000000000000000000000002815260040160206040518083038186803b1580156200317957600080fd5b505afa1580156200318e573d6000803e3d6000fd5b505050506040513d6020811015620031a557600080fd5b81019080805190602001909291905050509350600160008b815260200190815260200160002060009054906101000a900473ffffffffffffffffffffffffffffffffffffffff1673ffffffffffffffffffffffffffffffffffffffff166398d5fdca6040518163ffffffff167c010000000000000000000000000000000000000000000000000000000002815260040160206040518083038186803b1580156200324e57600080fd5b505afa15801562003263573d6000803e3d6000fd5b505050506040513d60208110156200327a57600080fd5b81019080805190602001909291905050509650600260008b815260200190815260200160002054925062003380600160008c815260200190815260200160002060009054906101000a900473ffffffffffffffffffffffffffffffffffffffff1673ffffffffffffffffffffffffffffffffffffffff16631865c57d6040518163ffffffff167c010000000000000000000000000000000000000000000000000000000002815260040160206040518083038186803b1580156200333d57600080fd5b505afa15801562003352573d6000803e3d6000fd5b505050506040513d60208110156200336957600080fd5b810190808051906020019092919050505062004778565b91507f4e6f7420656e6f7567682066756e64732e000000000000000000000000000000955062003871565b600160008b815260200190815260200160002060009054906101000a900473ffffffffffffffffffffffffffffffffffffffff1673ffffffffffffffffffffffffffffffffffffffff1663edc922a96040518163ffffffff167c010000000000000000000000000000000000000000000000000000000002815260040160006040518083038186803b1580156200344157600080fd5b505afa15801562003456573d6000803e3d6000fd5b505050506040513d6000823e3d601f19601f8201168201806040525060208110156200348157600080fd5b8101908080516401000000008111156200349a57600080fd5b82810190506020810184811115620034b157600080fd5b8151856020820283011164010000000082111715620034cf57600080fd5b50509291905050509850600160008b815260200190815260200160002060009054906101000a900473ffffffffffffffffffffffffffffffffffffffff1673ffffffffffffffffffffffffffffffffffffffff166359dc735c6040518163ffffffff167c010000000000000000000000000000000000000000000000000000000002815260040160206040518083038186803b1580156200356f57600080fd5b505afa15801562003584573d6000803e3d6000fd5b505050506040513d60208110156200359b57600080fd5b81019080805190602001909291905050509750600160008b815260200190815260200160002060009054906101000a900473ffffffffffffffffffffffffffffffffffffffff1673ffffffffffffffffffffffffffffffffffffffff1663c828371e6040518163ffffffff167c010000000000000000000000000000000000000000000000000000000002815260040160206040518083038186803b1580156200364457600080fd5b505afa15801562003659573d6000803e3d6000fd5b505050506040513d60208110156200367057600080fd5b81019080805190602001909291905050509350600160008b815260200190815260200160002060009054906101000a900473ffffffffffffffffffffffffffffffffffffffff1673ffffffffffffffffffffffffffffffffffffffff166398d5fdca6040518163ffffffff167c010000000000000000000000000000000000000000000000000000000002815260040160206040518083038186803b1580156200371957600080fd5b505afa1580156200372e573d6000803e3d6000fd5b505050506040513d60208110156200374557600080fd5b81019080805190602001909291905050509650600260008b81526020019081526020016000205492506200384b600160008c815260200190815260200160002060009054906101000a900473ffffffffffffffffffffffffffffffffffffffff1673ffffffffffffffffffffffffffffffffffffffff16631865c57d6040518163ffffffff167c010000000000000000000000000000000000000000000000000000000002815260040160206040518083038186803b1580156200380857600080fd5b505afa1580156200381d573d6000803e3d6000fd5b505050506040513d60208110156200383457600080fd5b810190808051906020019092919050505062004778565b91507f4e6f20436f6e747261637420696e697469616c697a65642e000000000000000095505b5b9193959799909294969850565b600082600181023414151562003923576040517f08c379a000000000000000000000000000000000000000000000000000000000815260040180806020018281038252602b8152602001807f496e73756666696369656e74206f722065786365737369766520636f6c6c617481526020017f6572616c20616d6f756e7400000000000000000000000000000000000000000081525060400191505060405180910390fd5b86868686866200393262004a1b565b80806020018673ffffffffffffffffffffffffffffffffffffffff1673ffffffffffffffffffffffffffffffffffffffff168152602001858152602001848152602001838152602001828103825287818151815260200191508051906020019060200280838360005b83811015620039b85780820151818401526020810190506200399b565b505050509050019650505050505050604051809103906000f080158015620039e4573d6000803e3d6000fd5b50600160008054815260200190815260200160002060006101000a81548173ffffffffffffffffffffffffffffffffffffffff021916908373ffffffffffffffffffffffffffffffffffffffff16021790555060008090505b875181101562003c1957600560009054906101000a900473ffffffffffffffffffffffffffffffffffffffff1673ffffffffffffffffffffffffffffffffffffffff16635a120d2f898381518110151562003a9457fe5b906020019060200201516040518263ffffffff167c0100000000000000000000000000000000000000000000000000000000028152600401808273ffffffffffffffffffffffffffffffffffffffff1673ffffffffffffffffffffffffffffffffffffffff16815260200191505060206040518083038186803b15801562003b1b57600080fd5b505afa15801562003b30573d6000803e3d6000fd5b505050506040513d602081101562003b4757600080fd5b81019080805190602001909291905050501562003bf2576040517f08c379a00000000000000000000000000000000000000000000000000000000081526004018080602001828103825260248152602001807f4f6e65206f66207468652070726f76696465727320697320626c61636b6c697381526020017f7465642e0000000000000000000000000000000000000000000000000000000081525060400191505060405180910390fd5b42600460008054815260200190815260200160002081905550808060010191505062003a3d565b504260026000805481526020019081526020016000208190555060206040519081016040528060008152506003600080548152602001908152602001600020908051906020019062003c6d92919062004970565b5060008081548092919060010191905055507f496e697469616c697a6174696f6e207375636365737366756c6c2e000000000091505095945050505050565b6000816001600082815260200190815260200160002060009054906101000a900473ffffffffffffffffffffffffffffffffffffffff1673ffffffffffffffffffffffffffffffffffffffff166359dc735c6040518163ffffffff167c010000000000000000000000000000000000000000000000000000000002815260040160206040518083038186803b15801562003d4557600080fd5b505afa15801562003d5a573d6000803e3d6000fd5b505050506040513d602081101562003d7157600080fd5b810190808051906020019092919050505073ffffffffffffffffffffffffffffffffffffffff163373ffffffffffffffffffffffffffffffffffffffff1614151562003e4b576040517f08c379a00000000000000000000000000000000000000000000000000000000081526004018080602001828103825260278152602001807f4f6e6c792074686520636c69656e742063616e2061636365737320746869732081526020017f6d6574686f642e0000000000000000000000000000000000000000000000000081525060400191505060405180910390fd5b82600160ff166001600083815260200190815260200160002060009054906101000a900473ffffffffffffffffffffffffffffffffffffffff1673ffffffffffffffffffffffffffffffffffffffff16631865c57d6040518163ffffffff167c010000000000000000000000000000000000000000000000000000000002815260040160206040518083038186803b15801562003ee757600080fd5b505afa15801562003efc573d6000803e3d6000fd5b505050506040513d602081101562003f1357600080fd5b810190808051906020019092919050505060ff16141580156200400f5750600260ff166001600083815260200190815260200160002060009054906101000a900473ffffffffffffffffffffffffffffffffffffffff1673ffffffffffffffffffffffffffffffffffffffff16631865c57d6040518163ffffffff167c010000000000000000000000000000000000000000000000000000000002815260040160206040518083038186803b15801562003fcc57600080fd5b505afa15801562003fe1573d6000803e3d6000fd5b505050506040513d602081101562003ff857600080fd5b810190808051906020019092919050505060ff1614155b1562004083576040517f08c379a00000000000000000000000000000000000000000000000000000000081526004018080602001828103825260178152602001807f436f6e7472616374206973207465726d696e617465642e00000000000000000081525060200191505060405180910390fd5b83601e62004091826200492f565b101562004106576040517f08c379a00000000000000000000000000000000000000000000000000000000081526004018080602001828103825260208152602001807f5061796d656e747320617265206d6164652065766572792031206d6f6e74682e81525060200191505060405180910390fd5b84600180600083815260200190815260200160002060009054906101000a900473ffffffffffffffffffffffffffffffffffffffff1673ffffffffffffffffffffffffffffffffffffffff166398d5fdca6040518163ffffffff167c010000000000000000000000000000000000000000000000000000000002815260040160206040518083038186803b1580156200419e57600080fd5b505afa158015620041b3573d6000803e3d6000fd5b505050506040513d6020811015620041ca57600080fd5b8101908080519060200190929190505050023414151562004316576001600082815260200190815260200160002060009054906101000a900473ffffffffffffffffffffffffffffffffffffffff1673ffffffffffffffffffffffffffffffffffffffff166356de96db60026040518263ffffffff167c0100000000000000000000000000000000000000000000000000000000028152600401808260ff1660ff168152602001915050600060405180830381600087803b1580156200428f57600080fd5b505af1158015620042a4573d6000803e3d6000fd5b505050506040517f08c379a00000000000000000000000000000000000000000000000000000000081526004018080602001828103825260208152602001807f496e73756666696369656e74206f722065786365737369766520616d6f756e7481525060200191505060405180910390fd5b60606001600088815260200190815260200160002060009054906101000a900473ffffffffffffffffffffffffffffffffffffffff1673ffffffffffffffffffffffffffffffffffffffff1663edc922a96040518163ffffffff167c010000000000000000000000000000000000000000000000000000000002815260040160006040518083038186803b158015620043ae57600080fd5b505afa158015620043c3573d6000803e3d6000fd5b505050506040513d6000823e3d601f19601f820116820180604052506020811015620043ee57600080fd5b8101908080516401000000008111156200440757600080fd5b828101905060208101848111156200441e57600080fd5b81518560208202830111640100000000821117156200443c57600080fd5b5050929190505050905060008090505b81518110156200476857600082828151811015156200446757fe5b90602001906020020151905060008173ffffffffffffffffffffffffffffffffffffffff163190508173ffffffffffffffffffffffffffffffffffffffff166108fc855134811515620044b657fe5b049081150290604051600060405180830381858888f19350505050158015620044e3573d6000803e3d6000fd5b508351600160008c815260200190815260200160002060009054906101000a900473ffffffffffffffffffffffffffffffffffffffff1673ffffffffffffffffffffffffffffffffffffffff166398d5fdca6040518163ffffffff167c010000000000000000000000000000000000000000000000000000000002815260040160206040518083038186803b1580156200457c57600080fd5b505afa15801562004591573d6000803e3d6000fd5b505050506040513d6020811015620045a857600080fd5b8101908080519060200190929190505050811515620045c357fe5b0481018273ffffffffffffffffffffffffffffffffffffffff1631101515620046275742600260008c8152602001908152602001600020819055507f5061796d656e74207375636365737366756c6c2e000000000000000000000000985062004758565b600160008b815260200190815260200160002060009054906101000a900473ffffffffffffffffffffffffffffffffffffffff1673ffffffffffffffffffffffffffffffffffffffff166356de96db60026040518263ffffffff167c0100000000000000000000000000000000000000000000000000000000028152600401808260ff1660ff168152602001915050600060405180830381600087803b158015620046d157600080fd5b505af1158015620046e6573d6000803e3d6000fd5b505050506040517f08c379a00000000000000000000000000000000000000000000000000000000081526004018080602001828103825260128152602001807f5472616e73616374696f6e206661696c6564000000000000000000000000000081525060200191505060405180910390fd5b505080806001019150506200444c565b505050505050919050565b600181565b600060018260ff161415620047b0577f4163746976650000000000000000000000000000000000000000000000000000905062004876565b60028260ff161415620047e6577f496e76616c696400000000000000000000000000000000000000000000000000905062004876565b60038260ff1614156200481c577f43616e63656c6c65640000000000000000000000000000000000000000000000905062004876565b60048260ff16141562004852577f436f6d706c657465640000000000000000000000000000000000000000000000905062004876565b7f537461747573206964206973206e6f742076616c69640000000000000000000090505b919050565b60036020528060005260406000206000915090508054600181600116156101000203166002900480601f016020809104026020016040519081016040528092919081815260200182805460018160011615610100020316600290048015620049275780601f10620048fb5761010080835404028352916020019162004927565b820191906000526020600020905b8154815290600101906020018083116200490957829003601f168201915b505050505081565b60008060026000848152602001908152602001600020544203905080915050919050565b60026020528060005260406000206000915090505481565b600381565b828054600181600116156101000203166002900490600052602060002090601f016020900481019282601f10620049b357805160ff1916838001178555620049e4565b82800160010185558215620049e4579182015b82811115620049e3578251825591602001919060010190620049c6565b5b509050620049f3919062004a2c565b5090565b61028060405190810160405280601490602082028038833980820191505090505090565b604051610a748062004a5583390190565b62004a5191905b8082111562004a4d57600081600090555060010162004a33565b5090565b9056fe608060405234801561001057600080fd5b50604051610a74380380610a74833981018060405260a081101561003357600080fd5b81019080805164010000000081111561004b57600080fd5b8281019050602081018481111561006157600080fd5b815185602082028301116401000000008211171561007e57600080fd5b50509291906020018051906020019092919080519060200190929190805190602001909291908051906020019092919050505084600090805190602001906100c792919061014b565b5083600160006101000a81548173ffffffffffffffffffffffffffffffffffffffff021916908373ffffffffffffffffffffffffffffffffffffffff160217905550826002819055508160038190555080600481905550426005819055506001600660006101000a81548160ff021916908360ff1602179055505050505050610218565b8280548282559060005260206000209081019282156101c4579160200282015b828111156101c35782518260006101000a81548173ffffffffffffffffffffffffffffffffffffffff021916908373ffffffffffffffffffffffffffffffffffffffff1602179055509160200191906001019061016b565b5b5090506101d191906101d5565b5090565b61021591905b8082111561021157600081816101000a81549073ffffffffffffffffffffffffffffffffffffffff0219169055506001016101db565b5090565b90565b61084d806102276000396000f3fe6080604052600436106100fc576000357c0100000000000000000000000000000000000000000000000000000000900463ffffffff1680631865c57d146101015780632d7eae6614610132578063315deeaa1461016d5780633d4f04ad146101985780633e0a322d146101d35780634ce6c24a1461020e57806356de96db1461023f57806359dc735c1461027d5780637fcce2a9146102d457806380759f1f146103055780638526690a1461033057806391b7f5ed1461038157806398d5fdca146103bc578063b316df77146103e7578063c828371e146104ac578063c90bd047146104d7578063edc922a914610508578063f2f4c1da14610574575b600080fd5b34801561010d57600080fd5b506101166105a5565b604051808260ff1660ff16815260200191505060405180910390f35b34801561013e57600080fd5b5061016b6004803603602081101561015557600080fd5b81019080803590602001909291905050506105bc565b005b34801561017957600080fd5b506101826105c6565b6040518082815260200191505060405180910390f35b3480156101a457600080fd5b506101d1600480360360208110156101bb57600080fd5b81019080803590602001909291905050506105d0565b005b3480156101df57600080fd5b5061020c600480360360208110156101f657600080fd5b81019080803590602001909291905050506105da565b005b34801561021a57600080fd5b506102236105e4565b604051808260ff1660ff16815260200191505060405180910390f35b34801561024b57600080fd5b5061027b6004803603602081101561026257600080fd5b81019080803560ff1690602001909291905050506105e9565b005b34801561028957600080fd5b50610292610607565b604051808273ffffffffffffffffffffffffffffffffffffffff1673ffffffffffffffffffffffffffffffffffffffff16815260200191505060405180910390f35b3480156102e057600080fd5b506102e9610631565b604051808260ff1660ff16815260200191505060405180910390f35b34801561031157600080fd5b5061031a610636565b6040518082815260200191505060405180910390f35b34801561033c57600080fd5b5061037f6004803603602081101561035357600080fd5b81019080803573ffffffffffffffffffffffffffffffffffffffff169060200190929190505050610640565b005b34801561038d57600080fd5b506103ba600480360360208110156103a457600080fd5b8101908080359060200190929190505050610684565b005b3480156103c857600080fd5b506103d161068e565b6040518082815260200191505060405180910390f35b3480156103f357600080fd5b506104aa6004803603602081101561040a57600080fd5b810190808035906020019064010000000081111561042757600080fd5b82018360208201111561043957600080fd5b8035906020019184602083028401116401000000008311171561045b57600080fd5b919080806020026020016040519081016040528093929190818152602001838360200280828437600081840152601f19601f820116905080830192505050505050509192919290505050610698565b005b3480156104b857600080fd5b506104c16106b2565b6040518082815260200191505060405180910390f35b3480156104e357600080fd5b506104ec6106bc565b604051808260ff1660ff16815260200191505060405180910390f35b34801561051457600080fd5b5061051d6106c1565b6040518080602001828103825283818151815260200191508051906020019060200280838360005b83811015610560578082015181840152602081019050610545565b505050509050019250505060405180910390f35b34801561058057600080fd5b5061058961074f565b604051808260ff1660ff16815260200191505060405180910390f35b6000600660009054906101000a900460ff16905090565b8060028190555050565b6000600354905090565b8060038190555050565b8060058190555050565b600481565b80600660006101000a81548160ff021916908360ff16021790555050565b6000600160009054906101000a900473ffffffffffffffffffffffffffffffffffffffff16905090565b600281565b6000600254905090565b80600160006101000a81548173ffffffffffffffffffffffffffffffffffffffff021916908373ffffffffffffffffffffffffffffffffffffffff16021790555050565b8060048190555050565b6000600454905090565b80600090805190602001906106ae929190610754565b5050565b6000600554905090565b600181565b6060600080548060200260200160405190810160405280929190818152602001828054801561074557602002820191906000526020600020905b8160009054906101000a900473ffffffffffffffffffffffffffffffffffffffff1673ffffffffffffffffffffffffffffffffffffffff16815260200190600101908083116106fb575b5050505050905090565b600381565b8280548282559060005260206000209081019282156107cd579160200282015b828111156107cc5782518260006101000a81548173ffffffffffffffffffffffffffffffffffffffff021916908373ffffffffffffffffffffffffffffffffffffffff16021790555091602001919060010190610774565b5b5090506107da91906107de565b5090565b61081e91905b8082111561081a57600081816101000a81549073ffffffffffffffffffffffffffffffffffffffff0219169055506001016107e4565b5090565b9056fea165627a7a72305820abc4ecda371e11e40adedad6c7355c69ce0fa9cef1538c92fcf64af822549d710029a165627a7a723058208739200e5d7f58fedb5def87a1aef6e62dd6bbb3059e8d32085653caaf315c380029",
  "source": "pragma solidity ^0.5.0;\nimport \"./Contract.sol\";\nimport \"./storage-proof.sol\";\nimport \"./ProviderRating.sol\";\n\n\ncontract contractExecutor{\n\n\t//Data Structures and id counter\n\tuint private id = 0;\n\tmapping(uint => Contract) public contracts;\n\tmapping(uint => uint) public paymentTime;\n\tmapping(uint => string) public leafToVerify;\n\tmapping(uint => uint) verifications;\n    ProviderRating ratings;\n\tevent setLeafEvent(uint _id, string _leaf);\n\n\t//State Constants\n\tuint8 constant public ACTIVE = 1;\n\tuint8 constant public INVALID = 2;\n\tuint8 constant public CANCELED = 3;\n\tuint8 constant public COMPLETED = 4;\n\n\tconstructor (ProviderRating _rating)\n    public\n    {\n        ratings = _rating;\n    }\n\n\tfunction initContract(address payable[] memory provider, address payable client, bytes32 rootHash, uint collateralAmount, uint price)\n\tpublic\n\tpayable\n\tonlyIfCollateral(collateralAmount)\n\treturns (bytes32 initMessage)\n\t{\n\t\t\tcontracts[id] = new Contract(provider, client, rootHash, collateralAmount, price);\n\t\t\tfor (uint i = 0; i < provider.length; i++){\n\t\t\t\tif (ratings.providerBlackListed(provider[i]))\n\t\t\t\t{\n\t\t\t\t\trevert(\"One of the providers is blacklisted.\");\n\t\t\t\t}\n\t\t\t\tverifications[id] = now;\n\t\t\t}\n\t\t\tpaymentTime[id] = now;\n\t\t\tleafToVerify[id] = \"\";\n\t\t\tid++;\n\t\t\tinitMessage = \"Initialization successfull.\";\n\t}\n\n\tfunction getContractInfo(uint _id)\n\tpublic\n\tview\n\treturns(address payable[] memory tempProvider, address payable tempClient, uint tempPrice, bytes32 infoMessage, uint tempCollateral, uint tempTime, uint temppTime, bytes32 tempState, bytes32 tempRoot)\n\t{\n\t\tif (contracts[_id].getClient() != 0x0000000000000000000000000000000000000000){\n\t\t\ttempProvider = contracts[_id].getProviders();\n\t\t\ttempClient = contracts[_id].getClient();\n\t\t\ttempTime = contracts[_id].getStartTime();\n\t\t\ttempPrice = contracts[_id].getPrice();\n\t\t\ttemppTime = paymentTime[_id];\n\t\t\ttempCollateral = contracts[_id].getCollateralAmount();\n\t\t\ttempState = returnStringStatus(contracts[_id].getState());\n\t\t\ttempRoot = contracts[_id].getRootHash();\n\t\t\tinfoMessage = \"OK\";\n\t\t}\n\t\telse\n\t\t{\n\t\t\tif (contracts[_id].getState() == INVALID)\n\t\t\t{\n\t\t\t\ttempProvider = contracts[_id].getProviders();\n\t\t\t\ttempClient = contracts[_id].getClient();\n\t\t\t\ttempTime = contracts[_id].getStartTime();\n\t\t\t\ttempPrice = contracts[_id].getPrice();\n\t\t\t\ttemppTime = paymentTime[_id];\n\t\t\t\ttempState = returnStringStatus(contracts[_id].getState());\n\t\t\t\tinfoMessage = \"Not enough funds.\";\n\t\t\t}\n\t\t\telse\n\t\t\t{\n\t\t\t\ttempProvider = contracts[_id].getProviders();\n\t\t\t\ttempClient = contracts[_id].getClient();\n\t\t\t\ttempTime = contracts[_id].getStartTime();\n\t\t\t\ttempPrice = contracts[_id].getPrice();\n\t\t\t\ttemppTime = paymentTime[_id];\n\t\t\t\ttempState = returnStringStatus(contracts[_id].getState());\n\t\t\t\tinfoMessage = \"No Contract initialized.\";\n\t\t\t}\n\t\t}\n\t}\n\n\tfunction pay(uint _id)\n\tpublic\n\tpayable\n\tonlyClient(_id)\n\tonlyActiveOrInvalid(_id)\n\tonlyAfterOneMonth(_id)\n\tonlyRightPrice(_id)\n\treturns(bytes32 paymentMessage)\n\t{\n\t\taddress payable[] memory provs = contracts[_id].getProviders();\n\t\tfor (uint i = 0; i < provs.length; i++)\n\t\t{\n\t\t\taddress payable currProv = provs[i];\n\t\t\tuint providerBalance = currProv.balance;\n\t\t\tcurrProv.transfer(msg.value / provs.length);\n\t\t\tif (currProv.balance >= providerBalance + (contracts[_id].getPrice() / provs.length)){\n\t\t\t\t\tpaymentTime[_id] = now; //If the payment is successfull, set the payment time to now.\n\t\t\t\t\tpaymentMessage = \"Payment successfull.\";\n\t\t\t}\n\t\t\telse {\n\t\t\t\tcontracts[_id].setState(INVALID);\n\t\t\t\trevert(\"Transaction failed\");\n\t\t\t}\n\t\t}\n\t}\n\n\tfunction getVerification(uint _id, bytes32[] memory _proof)\n\tpublic\n\treturns(bytes32 verificationMessage)\n\t{\n\t\tif (keccak256(abi.encodePacked(leafToVerify[_id])) != keccak256(abi.encodePacked(\"\"))){\n\t\t\tif (StorageProof.verify2(contracts[_id].getRootHash(), leafToVerify[_id], _proof)){\n\t\t\t\tleafToVerify[_id] = \"\";\n\t\t\t\tverifications[_id] = now;\n\t\t\t\tverificationMessage = \"OK\";\n\t\t\t}\n\t\t\telse{\n\t\t\t\tterminateCulpProvider(_id);\n\t\t\t\tverificationMessage = \"NOK\";\n\t\t\t}\n\t\t}\n\t\telse\n\t\t\trevert(\"No leaf specified.\");\n\t}\n\n\tfunction terminateCulpClient(uint _id)\n\tpublic\n\tpayable\n\tonlyMoreThanOneMonth(_id)\n\treturns(bytes32 terminationMessage)\n\t{\n\t\tcontracts[_id].setState(CANCELED);\n\t\taddress payable[] memory provs = contracts[_id].getProviders();\n\t\tuint coll = contracts[_id].getCollateralAmount();\n\t\tfor (uint i = 0; i < provs.length; i++){\n\t\t\t//Level up the providers' rating\n\t\t\tratings.levelUpRating(provs[i]);\n\t\t\tprovs[i].transfer(coll / provs.length);\n\t\t}\n\t\tinvalidateContract(_id);\n\t\treturn \"OK\";\n\t}\n\n\tfunction terminateCulpProvider(uint _id)\n\tpublic\n\tpayable\n\treturns(bytes32 terminationMessage)\n\t{\n\t\tcontracts[_id].setState(CANCELED);\n\t\taddress payable[] memory provs = contracts[_id].getProviders();\n\t\tuint coll = contracts[_id].getCollateralAmount();\n\t\t//Level down culpable provider's rating\n\t\tfor (uint i = 0; i < provs.length; i++){\n\t\t\tratings.levelDownRating(provs[i]);\n\t\t}\n\t\taddress(contracts[_id].getClient()).transfer(coll / (provs.length));\n\t\tinvalidateContract(_id);\n\t\treturn \"OK\";\n\t}\n\n\tfunction terminateMutual(uint _id)\n\tpublic\n\tpayable\n\tonlyLessThanHalfMonth(_id)\n\treturns(bytes32 terminationMessage)\n\t{\n\t\tcontracts[_id].setState(COMPLETED);\n\t\taddress payable[] memory provs = contracts[_id].getProviders();\n\t\tuint coll = contracts[_id].getCollateralAmount();\n\t\tuint splitCount = provs.length + 1;\n\t\tfor (uint i = 0; i < provs.length; i++){\n\t\t\tif (true){\n\t\t\t\tprovs[i].transfer(coll / splitCount);\n\t\t\t\t//Level up provider's rating\n\t\t\t\tratings.levelUpRating(provs[i]);\n\t\t\t}\n\t\t\telse{\n\t\t\t\t//Level down provider's rating\n\t\t\t\tratings.levelDownRating(provs[i]);\n\t\t\t\tsplitCount--;\n\t\t\t}\n\t\t}\n\t\taddress(contracts[_id].getClient()).transfer(coll / splitCount);\n\t\tterminationMessage = \"OK\";\n\t\tinvalidateContract(_id);\n\t}\n\n\tfunction timeDif(uint _id)\n\tpublic\n\tview\n\treturns(uint256)\n\t{\n\t\tuint256 duration = now - paymentTime[_id];\n\t\treturn duration;\n\t}\n\n\tfunction invalidateContract(uint _id)\n\tpublic\n\t{\n\t\tcontracts[_id].setClient(0x0000000000000000000000000000000000000000);\n\t}\n\n\tfunction getLeaf(uint _id)\n\tpublic\n\tview\n\treturns (string memory)\n\t{\n\t\treturn leafToVerify[_id];\n\t}\n\n\tfunction setLeaf(uint _id, string memory _leaf)\n\tpublic\n\tonlyClient(_id)\n\t{\n\t\tleafToVerify[_id] = _leaf;\n\t\temit setLeafEvent(_id, _leaf);\n\t}\n\n\t//Function that makes the contract able to accept payments\n\tfunction () external payable {\n\n\t}\n\n\t//Modifiers\n\tmodifier onlyActiveOrInvalid(uint _id){\n\t\tif (contracts[_id].getState() != ACTIVE && contracts[_id].getState() != INVALID) revert(\"Contract is terminated.\");\n        _;\n\t}\n\tmodifier onlyAfterOneMonth(uint _id){\n\t\tif (timeDif(_id) < 30) revert(\"Payments are made every 1 month.\");\n        _;\n\t}\n\tmodifier onlyRightPrice(uint _id){\n\t\tif(msg.value != contracts[_id].getPrice() * 1 wei) {\n\t\t\tcontracts[_id].setState(INVALID);\n\t\t\trevert(\"Insufficient or excessive amount\");\n\t\t}\n\t\t_;\n\t}\n\tmodifier onlyIfCollateral(uint coll){\n\t\tif (msg.value != coll * 1 wei) revert(\"Insufficient or excessive collateral amount\");\n\t\t_;\n\t}\n\tmodifier onlyLessThanHalfMonth(uint _id){\n\t\tif (timeDif(_id) > 15) revert(\"Contract can be mutually terminated before hald a month has passed since last payment.\");\n\t\t_;\n\t}\n\tmodifier onlyMoreThanOneMonth(uint _id){\n\t\tif (timeDif(_id) <= 2629743)\n\t\t\trevert(\"Contract can be terminated with the client culpable only if more than one month has passed since last payment.\");\n\t\t_;\n\t}\n\tmodifier onlyNotVerified(uint _id, string memory _leaf, bytes32[] memory _proof){\n\t\tif (StorageProof.verify2(contracts[_id].getRootHash(), _leaf, _proof)) revert(\"Merkle Proof was verified.\");\n\t\t_;\n\t}\n\tmodifier onlyClient(uint _id){\n\t\tif (msg.sender != contracts[_id].getClient()) revert(\"Only the client can access this method.\");\n        _;\n\t}\n\n\tfunction returnStringStatus(uint8 _id)\n    public\n    pure\n    returns(bytes32)\n    {\n        if (_id == 1)\n            return \"Active\";\n        else if (_id == 2)\n            return \"Invalid\";\n        else if (_id == 3)\n            return \"Cancelled\";\n\t\telse if (_id == 4)\n            return \"Completed\";\n\t\telse\n            return \"Status id is not valid\";\n    }\n\n\tfunction getContractStatuses()\n\tpublic\n\tview\n\treturns(uint8[20] memory)\n\t{\n\t\tuint8[20] memory returnList;\n\t\tfor (uint i = 0; i < 20; i++){\n\t\t\tif (i > id - 1)\n\t\t\t\tbreak;\n\t\t\treturnList[i] = contracts[i].getState();\n\t\t}\n\t\treturn returnList;\n\t}\n\n}",
  "sourcePath": "/home/canagno/ethChain/truffle/contracts/ContractExecutor.sol",
  "compiler": {
    "name": "solc",
    "version": "0.5.0+commit.1d4f565a.Emscripten.clang"
  },
  "schemaVersion": "3.0.1",
  "updatedAt": "2020-03-06T06:05:29.927Z",
  "devdoc": {
    "methods": {}
  },
  "userdoc": {
    "methods": {}
  }
}