{
  "contractName": "contractExecutor",
  "abi": [
    {
      "constant": true,
      "inputs": [
        {
          "name": "",
          "type": "uint256"
        }
      ],
      "name": "contracts",
      "outputs": [
        {
          "name": "",
          "type": "address"
        }
      ],
      "payable": false,
      "stateMutability": "view",
      "type": "function",
      "signature": "0x474da79a"
    },
    {
      "constant": true,
      "inputs": [],
      "name": "COMPLETED",
      "outputs": [
        {
          "name": "",
          "type": "uint8"
        }
      ],
      "payable": false,
      "stateMutability": "view",
      "type": "function",
      "signature": "0x4ce6c24a"
    },
    {
      "constant": true,
      "inputs": [],
      "name": "INVALID",
      "outputs": [
        {
          "name": "",
          "type": "uint8"
        }
      ],
      "payable": false,
      "stateMutability": "view",
      "type": "function",
      "signature": "0x7fcce2a9"
    },
    {
      "constant": true,
      "inputs": [],
      "name": "ACTIVE",
      "outputs": [
        {
          "name": "",
          "type": "uint8"
        }
      ],
      "payable": false,
      "stateMutability": "view",
      "type": "function",
      "signature": "0xc90bd047"
    },
    {
      "constant": true,
      "inputs": [
        {
          "name": "",
          "type": "uint256"
        }
      ],
      "name": "paymentTime",
      "outputs": [
        {
          "name": "",
          "type": "uint256"
        }
      ],
      "payable": false,
      "stateMutability": "view",
      "type": "function",
      "signature": "0xe6886ed8"
    },
    {
      "constant": true,
      "inputs": [],
      "name": "CANCELED",
      "outputs": [
        {
          "name": "",
          "type": "uint8"
        }
      ],
      "payable": false,
      "stateMutability": "view",
      "type": "function",
      "signature": "0xf2f4c1da"
    },
    {
      "inputs": [
        {
          "name": "_rating",
          "type": "address"
        }
      ],
      "payable": false,
      "stateMutability": "nonpayable",
      "type": "constructor",
      "signature": "constructor"
    },
    {
      "payable": true,
      "stateMutability": "payable",
      "type": "fallback"
    },
    {
      "constant": false,
      "inputs": [
        {
          "name": "provider",
          "type": "address[]"
        },
        {
          "name": "client",
          "type": "address"
        },
        {
          "name": "rootHash",
          "type": "bytes32"
        },
        {
          "name": "collateralAmount",
          "type": "uint256"
        },
        {
          "name": "price",
          "type": "uint256"
        }
      ],
      "name": "initContract",
      "outputs": [
        {
          "name": "initMessage",
          "type": "bytes32"
        }
      ],
      "payable": true,
      "stateMutability": "payable",
      "type": "function",
      "signature": "0x8ee3bc53"
    },
    {
      "constant": true,
      "inputs": [
        {
          "name": "_id",
          "type": "uint256"
        }
      ],
      "name": "getContractInfo",
      "outputs": [
        {
          "name": "tempProvider",
          "type": "address[]"
        },
        {
          "name": "tempClient",
          "type": "address"
        },
        {
          "name": "tempPrice",
          "type": "uint256"
        },
        {
          "name": "infoMessage",
          "type": "bytes32"
        },
        {
          "name": "tempCollateral",
          "type": "uint256"
        },
        {
          "name": "tempTime",
          "type": "uint256"
        },
        {
          "name": "temppTime",
          "type": "uint256"
        },
        {
          "name": "tempState",
          "type": "bytes32"
        }
      ],
      "payable": false,
      "stateMutability": "view",
      "type": "function",
      "signature": "0x8aa3e011"
    },
    {
      "constant": false,
      "inputs": [
        {
          "name": "_id",
          "type": "uint256"
        }
      ],
      "name": "pay",
      "outputs": [
        {
          "name": "paymentMessage",
          "type": "bytes32"
        }
      ],
      "payable": true,
      "stateMutability": "payable",
      "type": "function",
      "signature": "0xc290d691"
    },
    {
      "constant": false,
      "inputs": [
        {
          "name": "_id",
          "type": "uint256"
        },
        {
          "name": "_provider",
          "type": "address"
        },
        {
          "name": "_leaf",
          "type": "bytes32"
        },
        {
          "name": "_proof",
          "type": "bytes32[]"
        }
      ],
      "name": "getVerification",
      "outputs": [
        {
          "name": "verificationMessage",
          "type": "bytes32"
        }
      ],
      "payable": false,
      "stateMutability": "nonpayable",
      "type": "function",
      "signature": "0xdf75725f"
    },
    {
      "constant": false,
      "inputs": [
        {
          "name": "_id",
          "type": "uint256"
        }
      ],
      "name": "terminateCulpClient",
      "outputs": [
        {
          "name": "terminationMessage",
          "type": "bytes32"
        }
      ],
      "payable": true,
      "stateMutability": "payable",
      "type": "function",
      "signature": "0x29cbcedb"
    },
    {
      "constant": false,
      "inputs": [
        {
          "name": "_id",
          "type": "uint256"
        },
        {
          "name": "_provider",
          "type": "address"
        },
        {
          "name": "_leaf",
          "type": "bytes32"
        },
        {
          "name": "_proof",
          "type": "bytes32[]"
        }
      ],
      "name": "terminateCulpProvider",
      "outputs": [
        {
          "name": "terminationMessage",
          "type": "bytes32"
        }
      ],
      "payable": true,
      "stateMutability": "payable",
      "type": "function",
      "signature": "0xbb0a1b43"
    },
    {
      "constant": false,
      "inputs": [
        {
          "name": "_id",
          "type": "uint256"
        }
      ],
      "name": "terminateMutual",
      "outputs": [
        {
          "name": "terminationMessage",
          "type": "bytes32"
        }
      ],
      "payable": true,
      "stateMutability": "payable",
      "type": "function",
      "signature": "0x39d46fd6"
    },
    {
      "constant": true,
      "inputs": [
        {
          "name": "_id",
          "type": "uint256"
        }
      ],
      "name": "timeDif",
      "outputs": [
        {
          "name": "",
          "type": "uint256"
        }
      ],
      "payable": false,
      "stateMutability": "view",
      "type": "function",
      "signature": "0xdeec16e9"
    },
    {
      "constant": false,
      "inputs": [
        {
          "name": "_id",
          "type": "uint256"
        }
      ],
      "name": "invalidateContract",
      "outputs": [],
      "payable": false,
      "stateMutability": "nonpayable",
      "type": "function",
      "signature": "0x59a48e46"
    },
    {
      "constant": true,
      "inputs": [
        {
          "name": "_id",
          "type": "uint8"
        }
      ],
      "name": "returnStringStatus",
      "outputs": [
        {
          "name": "",
          "type": "bytes32"
        }
      ],
      "payable": false,
      "stateMutability": "pure",
      "type": "function",
      "signature": "0xd2d52389"
    },
    {
      "constant": true,
      "inputs": [],
      "name": "getContractStatuses",
      "outputs": [
        {
          "name": "",
          "type": "uint8[20]"
        }
      ],
      "payable": false,
      "stateMutability": "view",
      "type": "function",
      "signature": "0x44d12b0d"
    }
  ],
  "bytecode": "0x60806040526000805534801561001457600080fd5b50604051602080620050cf8339810180604052602081101561003557600080fd5b810190808051906020019092919050505080600460006101000a81548173ffffffffffffffffffffffffffffffffffffffff021916908373ffffffffffffffffffffffffffffffffffffffff1602179055505061503780620000986000396000f3fe60806040526004361062000103576000357c0100000000000000000000000000000000000000000000000000000000900463ffffffff16806329cbcedb146200010557806339d46fd6146200014a57806344d12b0d146200018f578063474da79a14620001e75780634ce6c24a146200026657806359a48e46146200029a5780637fcce2a914620002d95780638aa3e011146200030d5780638ee3bc531462000400578063bb0a1b431462000510578063c290d6911462000616578063c90bd047146200065b578063d2d52389146200068f578063deec16e914620006e5578063df75725f1462000738578063e6886ed8146200084c578063f2f4c1da146200089f575b005b62000134600480360360208110156200011d57600080fd5b8101908080359060200190929190505050620008d3565b6040518082815260200191505060405180910390f35b62000179600480360360208110156200016257600080fd5b810190808035906020019092919050505062000e48565b6040518082815260200191505060405180910390f35b3480156200019c57600080fd5b50620001a7620015ca565b6040518082601460200280838360005b83811015620001d4578082015181840152602081019050620001b7565b5050505090500191505060405180910390f35b348015620001f457600080fd5b5062000224600480360360208110156200020d57600080fd5b81019080803590602001909291905050506200170b565b604051808273ffffffffffffffffffffffffffffffffffffffff1673ffffffffffffffffffffffffffffffffffffffff16815260200191505060405180910390f35b3480156200027357600080fd5b506200027e6200173e565b604051808260ff1660ff16815260200191505060405180910390f35b348015620002a757600080fd5b50620002d760048036036020811015620002c057600080fd5b810190808035906020019092919050505062001743565b005b348015620002e657600080fd5b50620002f16200182f565b604051808260ff1660ff16815260200191505060405180910390f35b3480156200031a57600080fd5b506200034a600480360360208110156200033357600080fd5b810190808035906020019092919050505062001834565b60405180806020018973ffffffffffffffffffffffffffffffffffffffff1673ffffffffffffffffffffffffffffffffffffffff16815260200188815260200187815260200186815260200185815260200184815260200183815260200182810382528a818151815260200191508051906020019060200280838360005b83811015620003e5578082015181840152602081019050620003c8565b50505050905001995050505050505050505060405180910390f35b620004fa600480360360a08110156200041857600080fd5b81019080803590602001906401000000008111156200043657600080fd5b8201836020820111156200044957600080fd5b803590602001918460208302840111640100000000831117156200046c57600080fd5b919080806020026020016040519081016040528093929190818152602001838360200280828437600081840152601f19601f820116905080830192505050505050509192919290803573ffffffffffffffffffffffffffffffffffffffff16906020019092919080359060200190929190803590602001909291908035906020019092919050505062002968565b6040518082815260200191505060405180910390f35b62000600600480360360808110156200052857600080fd5b8101908080359060200190929190803573ffffffffffffffffffffffffffffffffffffffff16906020019092919080359060200190929190803590602001906401000000008111156200057a57600080fd5b8201836020820111156200058d57600080fd5b80359060200191846020830284011164010000000083111715620005b057600080fd5b919080806020026020016040519081016040528093929190818152602001838360200280828437600081840152601f19601f82011690508083019250505050505050919291929050505062002daf565b6040518082815260200191505060405180910390f35b62000645600480360360208110156200062e57600080fd5b8101908080359060200190929190505050620036c3565b6040518082815260200191505060405180910390f35b3480156200066857600080fd5b50620006736200418a565b604051808260ff1660ff16815260200191505060405180910390f35b3480156200069c57600080fd5b50620006cf60048036036020811015620006b557600080fd5b81019080803560ff1690602001909291905050506200418f565b6040518082815260200191505060405180910390f35b348015620006f257600080fd5b5062000722600480360360208110156200070b57600080fd5b810190808035906020019092919050505062004292565b6040518082815260200191505060405180910390f35b3480156200074557600080fd5b5062000836600480360360808110156200075e57600080fd5b8101908080359060200190929190803573ffffffffffffffffffffffffffffffffffffffff1690602001909291908035906020019092919080359060200190640100000000811115620007b057600080fd5b820183602082011115620007c357600080fd5b80359060200191846020830284011164010000000083111715620007e657600080fd5b919080806020026020016040519081016040528093929190818152602001838360200280828437600081840152601f19601f820116905080830192505050505050509192919290505050620042b6565b6040518082815260200191505060405180910390f35b3480156200085957600080fd5b5062000889600480360360208110156200087257600080fd5b810190808035906020019092919050505062004545565b6040518082815260200191505060405180910390f35b348015620008ac57600080fd5b50620008b76200455d565b604051808260ff1660ff16815260200191505060405180910390f35b6000816228206f620008e58262004292565b111515620009cd576040517f08c379a000000000000000000000000000000000000000000000000000000000815260040180806020018281038252606e8152602001807f436f6e74726163742063616e206265207465726d696e6174656420776974682081526020017f74686520636c69656e742063756c7061626c65206f6e6c79206966206d6f726581526020017f207468616e206f6e65206d6f6e746820686173207061737365642073696e636581526020017f206c617374207061796d656e742e00000000000000000000000000000000000081525060800191505060405180910390fd5b6001600084815260200190815260200160002060009054906101000a900473ffffffffffffffffffffffffffffffffffffffff1673ffffffffffffffffffffffffffffffffffffffff166356de96db60036040518263ffffffff167c0100000000000000000000000000000000000000000000000000000000028152600401808260ff1660ff168152602001915050600060405180830381600087803b15801562000a7757600080fd5b505af115801562000a8c573d6000803e3d6000fd5b5050505060606001600085815260200190815260200160002060009054906101000a900473ffffffffffffffffffffffffffffffffffffffff1673ffffffffffffffffffffffffffffffffffffffff1663edc922a96040518163ffffffff167c010000000000000000000000000000000000000000000000000000000002815260040160006040518083038186803b15801562000b2857600080fd5b505afa15801562000b3d573d6000803e3d6000fd5b505050506040513d6000823e3d601f19601f82011682018060405250602081101562000b6857600080fd5b81019080805164010000000081111562000b8157600080fd5b8281019050602081018481111562000b9857600080fd5b815185602082028301116401000000008211171562000bb657600080fd5b5050929190505050905060006001600086815260200190815260200160002060009054906101000a900473ffffffffffffffffffffffffffffffffffffffff1673ffffffffffffffffffffffffffffffffffffffff1663315deeaa6040518163ffffffff167c010000000000000000000000000000000000000000000000000000000002815260040160206040518083038186803b15801562000c5857600080fd5b505afa15801562000c6d573d6000803e3d6000fd5b505050506040513d602081101562000c8457600080fd5b8101908080519060200190929190505050905060008090505b825181101562000e1157600460009054906101000a900473ffffffffffffffffffffffffffffffffffffffff1673ffffffffffffffffffffffffffffffffffffffff1663b57e2ec0848381518110151562000cf457fe5b906020019060200201516040518263ffffffff167c0100000000000000000000000000000000000000000000000000000000028152600401808273ffffffffffffffffffffffffffffffffffffffff1673ffffffffffffffffffffffffffffffffffffffff168152602001915050600060405180830381600087803b15801562000d7d57600080fd5b505af115801562000d92573d6000803e3d6000fd5b50505050828181518110151562000da557fe5b9060200190602002015173ffffffffffffffffffffffffffffffffffffffff166108fc84518481151562000dd557fe5b049081150290604051600060405180830381858888f1935050505015801562000e02573d6000803e3d6000fd5b50808060010191505062000c9d565b5062000e1d8562001743565b7f4f4b0000000000000000000000000000000000000000000000000000000000009350505050919050565b600081600f62000e588262004292565b111562000f19576040517f08c379a00000000000000000000000000000000000000000000000000000000081526004018080602001828103825260568152602001807f436f6e74726163742063616e206265206d757475616c6c79207465726d696e6181526020017f746564206265666f72652068616c642061206d6f6e746820686173207061737381526020017f65642073696e6365206c617374207061796d656e742e0000000000000000000081525060600191505060405180910390fd5b6001600084815260200190815260200160002060009054906101000a900473ffffffffffffffffffffffffffffffffffffffff1673ffffffffffffffffffffffffffffffffffffffff166356de96db60046040518263ffffffff167c0100000000000000000000000000000000000000000000000000000000028152600401808260ff1660ff168152602001915050600060405180830381600087803b15801562000fc357600080fd5b505af115801562000fd8573d6000803e3d6000fd5b5050505060606001600085815260200190815260200160002060009054906101000a900473ffffffffffffffffffffffffffffffffffffffff1673ffffffffffffffffffffffffffffffffffffffff1663edc922a96040518163ffffffff167c010000000000000000000000000000000000000000000000000000000002815260040160006040518083038186803b1580156200107457600080fd5b505afa15801562001089573d6000803e3d6000fd5b505050506040513d6000823e3d601f19601f820116820180604052506020811015620010b457600080fd5b810190808051640100000000811115620010cd57600080fd5b82810190506020810184811115620010e457600080fd5b81518560208202830111640100000000821117156200110257600080fd5b5050929190505050905060006001600086815260200190815260200160002060009054906101000a900473ffffffffffffffffffffffffffffffffffffffff1673ffffffffffffffffffffffffffffffffffffffff1663315deeaa6040518163ffffffff167c010000000000000000000000000000000000000000000000000000000002815260040160206040518083038186803b158015620011a457600080fd5b505afa158015620011b9573d6000803e3d6000fd5b505050506040513d6020811015620011d057600080fd5b8101908080519060200190929190505050905060006001835101905060008090505b83518110156200146c57600115620013655783818151811015156200121357fe5b9060200190602002015173ffffffffffffffffffffffffffffffffffffffff166108fc83858115156200124257fe5b049081150290604051600060405180830381858888f193505050501580156200126f573d6000803e3d6000fd5b50600460009054906101000a900473ffffffffffffffffffffffffffffffffffffffff1673ffffffffffffffffffffffffffffffffffffffff1663b57e2ec08583815181101515620012bd57fe5b906020019060200201516040518263ffffffff167c0100000000000000000000000000000000000000000000000000000000028152600401808273ffffffffffffffffffffffffffffffffffffffff1673ffffffffffffffffffffffffffffffffffffffff168152602001915050600060405180830381600087803b1580156200134657600080fd5b505af11580156200135b573d6000803e3d6000fd5b505050506200145e565b600460009054906101000a900473ffffffffffffffffffffffffffffffffffffffff1673ffffffffffffffffffffffffffffffffffffffff16636dbb0c818583815181101515620013b257fe5b906020019060200201516040518263ffffffff167c0100000000000000000000000000000000000000000000000000000000028152600401808273ffffffffffffffffffffffffffffffffffffffff1673ffffffffffffffffffffffffffffffffffffffff168152602001915050600060405180830381600087803b1580156200143b57600080fd5b505af115801562001450573d6000803e3d6000fd5b505050508180600190039250505b8080600101915050620011f2565b506001600087815260200190815260200160002060009054906101000a900473ffffffffffffffffffffffffffffffffffffffff1673ffffffffffffffffffffffffffffffffffffffff166359dc735c6040518163ffffffff167c010000000000000000000000000000000000000000000000000000000002815260040160206040518083038186803b1580156200150357600080fd5b505afa15801562001518573d6000803e3d6000fd5b505050506040513d60208110156200152f57600080fd5b810190808051906020019092919050505073ffffffffffffffffffffffffffffffffffffffff166108fc82848115156200156557fe5b049081150290604051600060405180830381858888f1935050505015801562001592573d6000803e3d6000fd5b507f4f4b0000000000000000000000000000000000000000000000000000000000009450620015c18662001743565b50505050919050565b620015d462004562565b620015de62004562565b60008090505b60148110156200170357600160005403811115620016025762001703565b6001600082815260200190815260200160002060009054906101000a900473ffffffffffffffffffffffffffffffffffffffff1673ffffffffffffffffffffffffffffffffffffffff16631865c57d6040518163ffffffff167c010000000000000000000000000000000000000000000000000000000002815260040160206040518083038186803b1580156200169857600080fd5b505afa158015620016ad573d6000803e3d6000fd5b505050506040513d6020811015620016c457600080fd5b81019080805190602001909291905050508282601481101515620016e457fe5b602002019060ff16908160ff16815250508080600101915050620015e4565b508091505090565b60016020528060005260406000206000915054906101000a900473ffffffffffffffffffffffffffffffffffffffff1681565b600481565b6001600082815260200190815260200160002060009054906101000a900473ffffffffffffffffffffffffffffffffffffffff1673ffffffffffffffffffffffffffffffffffffffff16638526690a60006040518263ffffffff167c0100000000000000000000000000000000000000000000000000000000028152600401808273ffffffffffffffffffffffffffffffffffffffff1673ffffffffffffffffffffffffffffffffffffffff168152602001915050600060405180830381600087803b1580156200181357600080fd5b505af115801562001828573d6000803e3d6000fd5b5050505050565b600281565b606060008060008060008060008073ffffffffffffffffffffffffffffffffffffffff16600160008b815260200190815260200160002060009054906101000a900473ffffffffffffffffffffffffffffffffffffffff1673ffffffffffffffffffffffffffffffffffffffff166359dc735c6040518163ffffffff167c010000000000000000000000000000000000000000000000000000000002815260040160206040518083038186803b158015620018ee57600080fd5b505afa15801562001903573d6000803e3d6000fd5b505050506040513d60208110156200191a57600080fd5b810190808051906020019092919050505073ffffffffffffffffffffffffffffffffffffffff1614151562001ee957600160008a815260200190815260200160002060009054906101000a900473ffffffffffffffffffffffffffffffffffffffff1673ffffffffffffffffffffffffffffffffffffffff1663edc922a96040518163ffffffff167c010000000000000000000000000000000000000000000000000000000002815260040160006040518083038186803b158015620019df57600080fd5b505afa158015620019f4573d6000803e3d6000fd5b505050506040513d6000823e3d601f19601f82011682018060405250602081101562001a1f57600080fd5b81019080805164010000000081111562001a3857600080fd5b8281019050602081018481111562001a4f57600080fd5b815185602082028301116401000000008211171562001a6d57600080fd5b50509291905050509750600160008a815260200190815260200160002060009054906101000a900473ffffffffffffffffffffffffffffffffffffffff1673ffffffffffffffffffffffffffffffffffffffff166359dc735c6040518163ffffffff167c010000000000000000000000000000000000000000000000000000000002815260040160206040518083038186803b15801562001b0d57600080fd5b505afa15801562001b22573d6000803e3d6000fd5b505050506040513d602081101562001b3957600080fd5b81019080805190602001909291905050509650600160008a815260200190815260200160002060009054906101000a900473ffffffffffffffffffffffffffffffffffffffff1673ffffffffffffffffffffffffffffffffffffffff1663c828371e6040518163ffffffff167c010000000000000000000000000000000000000000000000000000000002815260040160206040518083038186803b15801562001be257600080fd5b505afa15801562001bf7573d6000803e3d6000fd5b505050506040513d602081101562001c0e57600080fd5b81019080805190602001909291905050509250600160008a815260200190815260200160002060009054906101000a900473ffffffffffffffffffffffffffffffffffffffff1673ffffffffffffffffffffffffffffffffffffffff166398d5fdca6040518163ffffffff167c010000000000000000000000000000000000000000000000000000000002815260040160206040518083038186803b15801562001cb757600080fd5b505afa15801562001ccc573d6000803e3d6000fd5b505050506040513d602081101562001ce357600080fd5b81019080805190602001909291905050509550600260008a8152602001908152602001600020549150600160008a815260200190815260200160002060009054906101000a900473ffffffffffffffffffffffffffffffffffffffff1673ffffffffffffffffffffffffffffffffffffffff1663315deeaa6040518163ffffffff167c010000000000000000000000000000000000000000000000000000000002815260040160206040518083038186803b15801562001da257600080fd5b505afa15801562001db7573d6000803e3d6000fd5b505050506040513d602081101562001dce57600080fd5b8101908080519060200190929190505050935062001ebe600160008b815260200190815260200160002060009054906101000a900473ffffffffffffffffffffffffffffffffffffffff1673ffffffffffffffffffffffffffffffffffffffff16631865c57d6040518163ffffffff167c010000000000000000000000000000000000000000000000000000000002815260040160206040518083038186803b15801562001e7b57600080fd5b505afa15801562001e90573d6000803e3d6000fd5b505050506040513d602081101562001ea757600080fd5b81019080805190602001909291905050506200418f565b90507f4f4b00000000000000000000000000000000000000000000000000000000000094506200295d565b600260ff16600160008b815260200190815260200160002060009054906101000a900473ffffffffffffffffffffffffffffffffffffffff1673ffffffffffffffffffffffffffffffffffffffff16631865c57d6040518163ffffffff167c010000000000000000000000000000000000000000000000000000000002815260040160206040518083038186803b15801562001f8457600080fd5b505afa15801562001f99573d6000803e3d6000fd5b505050506040513d602081101562001fb057600080fd5b810190808051906020019092919050505060ff1614156200249657600160008a815260200190815260200160002060009054906101000a900473ffffffffffffffffffffffffffffffffffffffff1673ffffffffffffffffffffffffffffffffffffffff1663edc922a96040518163ffffffff167c010000000000000000000000000000000000000000000000000000000002815260040160006040518083038186803b1580156200206157600080fd5b505afa15801562002076573d6000803e3d6000fd5b505050506040513d6000823e3d601f19601f820116820180604052506020811015620020a157600080fd5b810190808051640100000000811115620020ba57600080fd5b82810190506020810184811115620020d157600080fd5b8151856020820283011164010000000082111715620020ef57600080fd5b50509291905050509750600160008a815260200190815260200160002060009054906101000a900473ffffffffffffffffffffffffffffffffffffffff1673ffffffffffffffffffffffffffffffffffffffff166359dc735c6040518163ffffffff167c010000000000000000000000000000000000000000000000000000000002815260040160206040518083038186803b1580156200218f57600080fd5b505afa158015620021a4573d6000803e3d6000fd5b505050506040513d6020811015620021bb57600080fd5b81019080805190602001909291905050509650600160008a815260200190815260200160002060009054906101000a900473ffffffffffffffffffffffffffffffffffffffff1673ffffffffffffffffffffffffffffffffffffffff1663c828371e6040518163ffffffff167c010000000000000000000000000000000000000000000000000000000002815260040160206040518083038186803b1580156200226457600080fd5b505afa15801562002279573d6000803e3d6000fd5b505050506040513d60208110156200229057600080fd5b81019080805190602001909291905050509250600160008a815260200190815260200160002060009054906101000a900473ffffffffffffffffffffffffffffffffffffffff1673ffffffffffffffffffffffffffffffffffffffff166398d5fdca6040518163ffffffff167c010000000000000000000000000000000000000000000000000000000002815260040160206040518083038186803b1580156200233957600080fd5b505afa1580156200234e573d6000803e3d6000fd5b505050506040513d60208110156200236557600080fd5b81019080805190602001909291905050509550600260008a81526020019081526020016000205491506200246b600160008b815260200190815260200160002060009054906101000a900473ffffffffffffffffffffffffffffffffffffffff1673ffffffffffffffffffffffffffffffffffffffff16631865c57d6040518163ffffffff167c010000000000000000000000000000000000000000000000000000000002815260040160206040518083038186803b1580156200242857600080fd5b505afa1580156200243d573d6000803e3d6000fd5b505050506040513d60208110156200245457600080fd5b81019080805190602001909291905050506200418f565b90507f4e6f7420656e6f7567682066756e64732e00000000000000000000000000000094506200295c565b600160008a815260200190815260200160002060009054906101000a900473ffffffffffffffffffffffffffffffffffffffff1673ffffffffffffffffffffffffffffffffffffffff1663edc922a96040518163ffffffff167c010000000000000000000000000000000000000000000000000000000002815260040160006040518083038186803b1580156200252c57600080fd5b505afa15801562002541573d6000803e3d6000fd5b505050506040513d6000823e3d601f19601f8201168201806040525060208110156200256c57600080fd5b8101908080516401000000008111156200258557600080fd5b828101905060208101848111156200259c57600080fd5b8151856020820283011164010000000082111715620025ba57600080fd5b50509291905050509750600160008a815260200190815260200160002060009054906101000a900473ffffffffffffffffffffffffffffffffffffffff1673ffffffffffffffffffffffffffffffffffffffff166359dc735c6040518163ffffffff167c010000000000000000000000000000000000000000000000000000000002815260040160206040518083038186803b1580156200265a57600080fd5b505afa1580156200266f573d6000803e3d6000fd5b505050506040513d60208110156200268657600080fd5b81019080805190602001909291905050509650600160008a815260200190815260200160002060009054906101000a900473ffffffffffffffffffffffffffffffffffffffff1673ffffffffffffffffffffffffffffffffffffffff1663c828371e6040518163ffffffff167c010000000000000000000000000000000000000000000000000000000002815260040160206040518083038186803b1580156200272f57600080fd5b505afa15801562002744573d6000803e3d6000fd5b505050506040513d60208110156200275b57600080fd5b81019080805190602001909291905050509250600160008a815260200190815260200160002060009054906101000a900473ffffffffffffffffffffffffffffffffffffffff1673ffffffffffffffffffffffffffffffffffffffff166398d5fdca6040518163ffffffff167c010000000000000000000000000000000000000000000000000000000002815260040160206040518083038186803b1580156200280457600080fd5b505afa15801562002819573d6000803e3d6000fd5b505050506040513d60208110156200283057600080fd5b81019080805190602001909291905050509550600260008a815260200190815260200160002054915062002936600160008b815260200190815260200160002060009054906101000a900473ffffffffffffffffffffffffffffffffffffffff1673ffffffffffffffffffffffffffffffffffffffff16631865c57d6040518163ffffffff167c010000000000000000000000000000000000000000000000000000000002815260040160206040518083038186803b158015620028f357600080fd5b505afa15801562002908573d6000803e3d6000fd5b505050506040513d60208110156200291f57600080fd5b81019080805190602001909291905050506200418f565b90507f4e6f20436f6e747261637420696e697469616c697a65642e000000000000000094505b5b919395975091939597565b600082600181023414151562002a0c576040517f08c379a000000000000000000000000000000000000000000000000000000000815260040180806020018281038252602b8152602001807f496e73756666696369656e74206f722065786365737369766520636f6c6c617481526020017f6572616c20616d6f756e7400000000000000000000000000000000000000000081525060400191505060405180910390fd5b868686868662002a1b62004586565b80806020018673ffffffffffffffffffffffffffffffffffffffff1673ffffffffffffffffffffffffffffffffffffffff168152602001858152602001848152602001838152602001828103825287818151815260200191508051906020019060200280838360005b8381101562002aa157808201518184015260208101905062002a84565b505050509050019650505050505050604051809103906000f08015801562002acd573d6000803e3d6000fd5b50600160008054815260200190815260200160002060006101000a81548173ffffffffffffffffffffffffffffffffffffffff021916908373ffffffffffffffffffffffffffffffffffffffff16021790555060008090505b875181101562002d5757600460009054906101000a900473ffffffffffffffffffffffffffffffffffffffff1673ffffffffffffffffffffffffffffffffffffffff16635a120d2f898381518110151562002b7d57fe5b906020019060200201516040518263ffffffff167c0100000000000000000000000000000000000000000000000000000000028152600401808273ffffffffffffffffffffffffffffffffffffffff1673ffffffffffffffffffffffffffffffffffffffff16815260200191505060206040518083038186803b15801562002c0457600080fd5b505afa15801562002c19573d6000803e3d6000fd5b505050506040513d602081101562002c3057600080fd5b81019080805190602001909291905050501562002cdb576040517f08c379a00000000000000000000000000000000000000000000000000000000081526004018080602001828103825260248152602001807f4f6e65206f66207468652070726f76696465727320697320626c61636b6c697381526020017f7465642e0000000000000000000000000000000000000000000000000000000081525060400191505060405180910390fd5b42600360008054815260200190815260200160002060008a8481518110151562002d0157fe5b9060200190602002015173ffffffffffffffffffffffffffffffffffffffff1673ffffffffffffffffffffffffffffffffffffffff16815260200190815260200160002081905550808060010191505062002b26565b504260026000805481526020019081526020016000208190555060008081548092919060010191905055507f496e697469616c697a6174696f6e207375636365737366756c6c2e000000000091505095945050505050565b600084838373__StorageProof__________________________63bb8fb36b6001600086815260200190815260200160002060009054906101000a900473ffffffffffffffffffffffffffffffffffffffff1673ffffffffffffffffffffffffffffffffffffffff166380759f1f6040518163ffffffff167c010000000000000000000000000000000000000000000000000000000002815260040160206040518083038186803b15801562002e6457600080fd5b505afa15801562002e79573d6000803e3d6000fd5b505050506040513d602081101562002e9057600080fd5b810190808051906020019092919050505084846040518463ffffffff167c01000000000000000000000000000000000000000000000000000000000281526004018084815260200183815260200180602001828103825283818151815260200191508051906020019060200280838360005b8381101562002f1f57808201518184015260208101905062002f02565b5050505090500194505050505060206040518083038186803b15801562002f4557600080fd5b505af415801562002f5a573d6000803e3d6000fd5b505050506040513d602081101562002f7157600080fd5b81019080805190602001909291905050501562002ff6576040517f08c379a000000000000000000000000000000000000000000000000000000000815260040180806020018281038252601a8152602001807f4d65726b6c652050726f6f66207761732076657269666965642e00000000000081525060200191505060405180910390fd5b6001600089815260200190815260200160002060009054906101000a900473ffffffffffffffffffffffffffffffffffffffff1673ffffffffffffffffffffffffffffffffffffffff166356de96db60036040518263ffffffff167c0100000000000000000000000000000000000000000000000000000000028152600401808260ff1660ff168152602001915050600060405180830381600087803b158015620030a057600080fd5b505af1158015620030b5573d6000803e3d6000fd5b505050506060600160008a815260200190815260200160002060009054906101000a900473ffffffffffffffffffffffffffffffffffffffff1673ffffffffffffffffffffffffffffffffffffffff1663edc922a96040518163ffffffff167c010000000000000000000000000000000000000000000000000000000002815260040160006040518083038186803b1580156200315157600080fd5b505afa15801562003166573d6000803e3d6000fd5b505050506040513d6000823e3d601f19601f8201168201806040525060208110156200319157600080fd5b810190808051640100000000811115620031aa57600080fd5b82810190506020810184811115620031c157600080fd5b8151856020820283011164010000000082111715620031df57600080fd5b505092919050505090506000600160008b815260200190815260200160002060009054906101000a900473ffffffffffffffffffffffffffffffffffffffff1673ffffffffffffffffffffffffffffffffffffffff1663315deeaa6040518163ffffffff167c010000000000000000000000000000000000000000000000000000000002815260040160206040518083038186803b1580156200328157600080fd5b505afa15801562003296573d6000803e3d6000fd5b505050506040513d6020811015620032ad57600080fd5b81019080805190602001909291905050509050600460009054906101000a900473ffffffffffffffffffffffffffffffffffffffff1673ffffffffffffffffffffffffffffffffffffffff16636dbb0c818a6040518263ffffffff167c0100000000000000000000000000000000000000000000000000000000028152600401808273ffffffffffffffffffffffffffffffffffffffff1673ffffffffffffffffffffffffffffffffffffffff168152602001915050600060405180830381600087803b1580156200337e57600080fd5b505af115801562003393573d6000803e3d6000fd5b5050505060008090505b825181101562003687578973ffffffffffffffffffffffffffffffffffffffff168382815181101515620033cd57fe5b9060200190602002015173ffffffffffffffffffffffffffffffffffffffff161415156200355257600460009054906101000a900473ffffffffffffffffffffffffffffffffffffffff1673ffffffffffffffffffffffffffffffffffffffff1663b57e2ec084838151811015156200344257fe5b906020019060200201516040518263ffffffff167c0100000000000000000000000000000000000000000000000000000000028152600401808273ffffffffffffffffffffffffffffffffffffffff1673ffffffffffffffffffffffffffffffffffffffff168152602001915050600060405180830381600087803b158015620034cb57600080fd5b505af1158015620034e0573d6000803e3d6000fd5b505050508281815181101515620034f357fe5b9060200190602002015173ffffffffffffffffffffffffffffffffffffffff166108fc8451848115156200352357fe5b049081150290604051600060405180830381858888f1935050505015801562003550573d6000803e3d6000fd5b505b600160008c815260200190815260200160002060009054906101000a900473ffffffffffffffffffffffffffffffffffffffff1673ffffffffffffffffffffffffffffffffffffffff166359dc735c6040518163ffffffff167c010000000000000000000000000000000000000000000000000000000002815260040160206040518083038186803b158015620035e857600080fd5b505afa158015620035fd573d6000803e3d6000fd5b505050506040513d60208110156200361457600080fd5b810190808051906020019092919050505073ffffffffffffffffffffffffffffffffffffffff166108fc8451848115156200364b57fe5b049081150290604051600060405180830381858888f1935050505015801562003678573d6000803e3d6000fd5b5080806001019150506200339d565b50620036938a62001743565b7f4f4b00000000000000000000000000000000000000000000000000000000000095505050505050949350505050565b6000816001600082815260200190815260200160002060009054906101000a900473ffffffffffffffffffffffffffffffffffffffff1673ffffffffffffffffffffffffffffffffffffffff166359dc735c6040518163ffffffff167c010000000000000000000000000000000000000000000000000000000002815260040160206040518083038186803b1580156200375c57600080fd5b505afa15801562003771573d6000803e3d6000fd5b505050506040513d60208110156200378857600080fd5b810190808051906020019092919050505073ffffffffffffffffffffffffffffffffffffffff163373ffffffffffffffffffffffffffffffffffffffff1614151562003862576040517f08c379a00000000000000000000000000000000000000000000000000000000081526004018080602001828103825260258152602001807f4f6e6c792074686520636c69656e742063616e207061792074686520636f6e7481526020017f726163742e00000000000000000000000000000000000000000000000000000081525060400191505060405180910390fd5b82600160ff166001600083815260200190815260200160002060009054906101000a900473ffffffffffffffffffffffffffffffffffffffff1673ffffffffffffffffffffffffffffffffffffffff16631865c57d6040518163ffffffff167c010000000000000000000000000000000000000000000000000000000002815260040160206040518083038186803b158015620038fe57600080fd5b505afa15801562003913573d6000803e3d6000fd5b505050506040513d60208110156200392a57600080fd5b810190808051906020019092919050505060ff161415801562003a265750600260ff166001600083815260200190815260200160002060009054906101000a900473ffffffffffffffffffffffffffffffffffffffff1673ffffffffffffffffffffffffffffffffffffffff16631865c57d6040518163ffffffff167c010000000000000000000000000000000000000000000000000000000002815260040160206040518083038186803b158015620039e357600080fd5b505afa158015620039f8573d6000803e3d6000fd5b505050506040513d602081101562003a0f57600080fd5b810190808051906020019092919050505060ff1614155b1562003a9a576040517f08c379a00000000000000000000000000000000000000000000000000000000081526004018080602001828103825260178152602001807f436f6e7472616374206973207465726d696e617465642e00000000000000000081525060200191505060405180910390fd5b83601e62003aa88262004292565b101562003b1d576040517f08c379a00000000000000000000000000000000000000000000000000000000081526004018080602001828103825260208152602001807f5061796d656e747320617265206d6164652065766572792031206d6f6e74682e81525060200191505060405180910390fd5b84600180600083815260200190815260200160002060009054906101000a900473ffffffffffffffffffffffffffffffffffffffff1673ffffffffffffffffffffffffffffffffffffffff166398d5fdca6040518163ffffffff167c010000000000000000000000000000000000000000000000000000000002815260040160206040518083038186803b15801562003bb557600080fd5b505afa15801562003bca573d6000803e3d6000fd5b505050506040513d602081101562003be157600080fd5b8101908080519060200190929190505050023414151562003d2d576001600082815260200190815260200160002060009054906101000a900473ffffffffffffffffffffffffffffffffffffffff1673ffffffffffffffffffffffffffffffffffffffff166356de96db60026040518263ffffffff167c0100000000000000000000000000000000000000000000000000000000028152600401808260ff1660ff168152602001915050600060405180830381600087803b15801562003ca657600080fd5b505af115801562003cbb573d6000803e3d6000fd5b505050506040517f08c379a00000000000000000000000000000000000000000000000000000000081526004018080602001828103825260208152602001807f496e73756666696369656e74206f722065786365737369766520616d6f756e7481525060200191505060405180910390fd5b60606001600088815260200190815260200160002060009054906101000a900473ffffffffffffffffffffffffffffffffffffffff1673ffffffffffffffffffffffffffffffffffffffff1663edc922a96040518163ffffffff167c010000000000000000000000000000000000000000000000000000000002815260040160006040518083038186803b15801562003dc557600080fd5b505afa15801562003dda573d6000803e3d6000fd5b505050506040513d6000823e3d601f19601f82011682018060405250602081101562003e0557600080fd5b81019080805164010000000081111562003e1e57600080fd5b8281019050602081018481111562003e3557600080fd5b815185602082028301116401000000008211171562003e5357600080fd5b5050929190505050905060008090505b81518110156200417f576000828281518110151562003e7e57fe5b90602001906020020151905060008173ffffffffffffffffffffffffffffffffffffffff163190508173ffffffffffffffffffffffffffffffffffffffff166108fc85513481151562003ecd57fe5b049081150290604051600060405180830381858888f1935050505015801562003efa573d6000803e3d6000fd5b508351600160008c815260200190815260200160002060009054906101000a900473ffffffffffffffffffffffffffffffffffffffff1673ffffffffffffffffffffffffffffffffffffffff166398d5fdca6040518163ffffffff167c010000000000000000000000000000000000000000000000000000000002815260040160206040518083038186803b15801562003f9357600080fd5b505afa15801562003fa8573d6000803e3d6000fd5b505050506040513d602081101562003fbf57600080fd5b810190808051906020019092919050505081151562003fda57fe5b0481018273ffffffffffffffffffffffffffffffffffffffff16311015156200403e5742600260008c8152602001908152602001600020819055507f5061796d656e74207375636365737366756c6c2e00000000000000000000000098506200416f565b600160008b815260200190815260200160002060009054906101000a900473ffffffffffffffffffffffffffffffffffffffff1673ffffffffffffffffffffffffffffffffffffffff166356de96db60026040518263ffffffff167c0100000000000000000000000000000000000000000000000000000000028152600401808260ff1660ff168152602001915050600060405180830381600087803b158015620040e857600080fd5b505af1158015620040fd573d6000803e3d6000fd5b505050506040517f08c379a00000000000000000000000000000000000000000000000000000000081526004018080602001828103825260128152602001807f5472616e73616374696f6e206661696c6564000000000000000000000000000081525060200191505060405180910390fd5b5050808060010191505062003e63565b505050505050919050565b600181565b600060018260ff161415620041c7577f416374697665000000000000000000000000000000000000000000000000000090506200428d565b60028260ff161415620041fd577f496e76616c69640000000000000000000000000000000000000000000000000090506200428d565b60038260ff16141562004233577f43616e63656c6c6564000000000000000000000000000000000000000000000090506200428d565b60048260ff16141562004269577f436f6d706c65746564000000000000000000000000000000000000000000000090506200428d565b7f537461747573206964206973206e6f742076616c69640000000000000000000090505b919050565b60008060026000848152602001908152602001600020544203905080915050919050565b600073__StorageProof__________________________63bb8fb36b6001600088815260200190815260200160002060009054906101000a900473ffffffffffffffffffffffffffffffffffffffff1673ffffffffffffffffffffffffffffffffffffffff166380759f1f6040518163ffffffff167c010000000000000000000000000000000000000000000000000000000002815260040160206040518083038186803b1580156200436857600080fd5b505afa1580156200437d573d6000803e3d6000fd5b505050506040513d60208110156200439457600080fd5b810190808051906020019092919050505085856040518463ffffffff167c01000000000000000000000000000000000000000000000000000000000281526004018084815260200183815260200180602001828103825283818151815260200191508051906020019060200280838360005b838110156200442357808201518184015260208101905062004406565b5050505090500194505050505060206040518083038186803b1580156200444957600080fd5b505af41580156200445e573d6000803e3d6000fd5b505050506040513d60208110156200447557600080fd5b8101908080519060200190929190505050156200450a57426003600087815260200190815260200160002060008673ffffffffffffffffffffffffffffffffffffffff1673ffffffffffffffffffffffffffffffffffffffff168152602001908152602001600020819055507f4f4b00000000000000000000000000000000000000000000000000000000000090506200453d565b620045188585858562002daf565b507f4e4f4b000000000000000000000000000000000000000000000000000000000090505b949350505050565b60026020528060005260406000206000915090505481565b600381565b61028060405190810160405280601490602082028038833980820191505090505090565b604051610a7480620045988339019056fe608060405234801561001057600080fd5b50604051610a74380380610a74833981018060405260a081101561003357600080fd5b81019080805164010000000081111561004b57600080fd5b8281019050602081018481111561006157600080fd5b815185602082028301116401000000008211171561007e57600080fd5b50509291906020018051906020019092919080519060200190929190805190602001909291908051906020019092919050505084600090805190602001906100c792919061014b565b5083600160006101000a81548173ffffffffffffffffffffffffffffffffffffffff021916908373ffffffffffffffffffffffffffffffffffffffff160217905550826002819055508160038190555080600481905550426005819055506001600660006101000a81548160ff021916908360ff1602179055505050505050610218565b8280548282559060005260206000209081019282156101c4579160200282015b828111156101c35782518260006101000a81548173ffffffffffffffffffffffffffffffffffffffff021916908373ffffffffffffffffffffffffffffffffffffffff1602179055509160200191906001019061016b565b5b5090506101d191906101d5565b5090565b61021591905b8082111561021157600081816101000a81549073ffffffffffffffffffffffffffffffffffffffff0219169055506001016101db565b5090565b90565b61084d806102276000396000f3fe6080604052600436106100fc576000357c0100000000000000000000000000000000000000000000000000000000900463ffffffff1680631865c57d146101015780632d7eae6614610132578063315deeaa1461016d5780633d4f04ad146101985780633e0a322d146101d35780634ce6c24a1461020e57806356de96db1461023f57806359dc735c1461027d5780637fcce2a9146102d457806380759f1f146103055780638526690a1461033057806391b7f5ed1461038157806398d5fdca146103bc578063b316df77146103e7578063c828371e146104ac578063c90bd047146104d7578063edc922a914610508578063f2f4c1da14610574575b600080fd5b34801561010d57600080fd5b506101166105a5565b604051808260ff1660ff16815260200191505060405180910390f35b34801561013e57600080fd5b5061016b6004803603602081101561015557600080fd5b81019080803590602001909291905050506105bc565b005b34801561017957600080fd5b506101826105c6565b6040518082815260200191505060405180910390f35b3480156101a457600080fd5b506101d1600480360360208110156101bb57600080fd5b81019080803590602001909291905050506105d0565b005b3480156101df57600080fd5b5061020c600480360360208110156101f657600080fd5b81019080803590602001909291905050506105da565b005b34801561021a57600080fd5b506102236105e4565b604051808260ff1660ff16815260200191505060405180910390f35b34801561024b57600080fd5b5061027b6004803603602081101561026257600080fd5b81019080803560ff1690602001909291905050506105e9565b005b34801561028957600080fd5b50610292610607565b604051808273ffffffffffffffffffffffffffffffffffffffff1673ffffffffffffffffffffffffffffffffffffffff16815260200191505060405180910390f35b3480156102e057600080fd5b506102e9610631565b604051808260ff1660ff16815260200191505060405180910390f35b34801561031157600080fd5b5061031a610636565b6040518082815260200191505060405180910390f35b34801561033c57600080fd5b5061037f6004803603602081101561035357600080fd5b81019080803573ffffffffffffffffffffffffffffffffffffffff169060200190929190505050610640565b005b34801561038d57600080fd5b506103ba600480360360208110156103a457600080fd5b8101908080359060200190929190505050610684565b005b3480156103c857600080fd5b506103d161068e565b6040518082815260200191505060405180910390f35b3480156103f357600080fd5b506104aa6004803603602081101561040a57600080fd5b810190808035906020019064010000000081111561042757600080fd5b82018360208201111561043957600080fd5b8035906020019184602083028401116401000000008311171561045b57600080fd5b919080806020026020016040519081016040528093929190818152602001838360200280828437600081840152601f19601f820116905080830192505050505050509192919290505050610698565b005b3480156104b857600080fd5b506104c16106b2565b6040518082815260200191505060405180910390f35b3480156104e357600080fd5b506104ec6106bc565b604051808260ff1660ff16815260200191505060405180910390f35b34801561051457600080fd5b5061051d6106c1565b6040518080602001828103825283818151815260200191508051906020019060200280838360005b83811015610560578082015181840152602081019050610545565b505050509050019250505060405180910390f35b34801561058057600080fd5b5061058961074f565b604051808260ff1660ff16815260200191505060405180910390f35b6000600660009054906101000a900460ff16905090565b8060028190555050565b6000600354905090565b8060038190555050565b8060058190555050565b600481565b80600660006101000a81548160ff021916908360ff16021790555050565b6000600160009054906101000a900473ffffffffffffffffffffffffffffffffffffffff16905090565b600281565b6000600254905090565b80600160006101000a81548173ffffffffffffffffffffffffffffffffffffffff021916908373ffffffffffffffffffffffffffffffffffffffff16021790555050565b8060048190555050565b6000600454905090565b80600090805190602001906106ae929190610754565b5050565b6000600554905090565b600181565b6060600080548060200260200160405190810160405280929190818152602001828054801561074557602002820191906000526020600020905b8160009054906101000a900473ffffffffffffffffffffffffffffffffffffffff1673ffffffffffffffffffffffffffffffffffffffff16815260200190600101908083116106fb575b5050505050905090565b600381565b8280548282559060005260206000209081019282156107cd579160200282015b828111156107cc5782518260006101000a81548173ffffffffffffffffffffffffffffffffffffffff021916908373ffffffffffffffffffffffffffffffffffffffff16021790555091602001919060010190610774565b5b5090506107da91906107de565b5090565b61081e91905b8082111561081a57600081816101000a81549073ffffffffffffffffffffffffffffffffffffffff0219169055506001016107e4565b5090565b9056fea165627a7a72305820abc4ecda371e11e40adedad6c7355c69ce0fa9cef1538c92fcf64af822549d710029a165627a7a723058203ddd0ce32364f0135a942c35e84debb718f8fe920267fe7e1399ccefde8a71cb0029",
  "source": "pragma solidity ^0.5.0;\nimport \"./Contract.sol\";\nimport \"./storage-proof.sol\";\nimport \"./ProviderRating.sol\";\n\n\ncontract contractExecutor{\n\n\t//Data Structures and id counter\n\tuint private id = 0;\n\tmapping(uint => Contract) public contracts;\n\tmapping(uint => uint) public paymentTime;\n\tmapping(uint => mapping(address => uint)) verifications;\n    ProviderRating ratings;\n\n\t//State Constants\n\tuint8 constant public ACTIVE = 1;\n\tuint8 constant public INVALID = 2;\n\tuint8 constant public CANCELED = 3;\n\tuint8 constant public COMPLETED = 4;\n\n\tconstructor (ProviderRating _rating)\n    public\n    {\n        ratings = _rating;\n    }\n\n\tfunction initContract(address payable[] memory provider, address payable client, bytes32 rootHash, uint collateralAmount, uint price)\n\tpublic\n\tpayable\n\tonlyIfCollateral(collateralAmount)\n\treturns (bytes32 initMessage)\n\t{\n\t\t\tcontracts[id] = new Contract(provider, client, rootHash, collateralAmount, price);\n\t\t\tfor (uint i = 0; i < provider.length; i++){\n\t\t\t\tif (ratings.providerBlackListed(provider[i]))\n\t\t\t\t{\n\t\t\t\t\trevert(\"One of the providers is blacklisted.\");\n\t\t\t\t}\n\t\t\t\tverifications[id][provider[i]] = now;\n\t\t\t}\n\t\t\tpaymentTime[id] = now;\n\t\t\tid++;\n\t\t\tinitMessage = \"Initialization successfull.\";\n\t}\n\n\tfunction getContractInfo(uint _id)\n\tpublic\n\tview\n\treturns(address payable[] memory tempProvider, address payable tempClient, uint tempPrice, bytes32 infoMessage, uint tempCollateral, uint tempTime, uint temppTime, bytes32 tempState)\n\t{\n\t\tif (contracts[_id].getClient() != 0x0000000000000000000000000000000000000000){\n\t\t\ttempProvider = contracts[_id].getProviders();\n\t\t\ttempClient = contracts[_id].getClient();\n\t\t\ttempTime = contracts[_id].getStartTime();\n\t\t\ttempPrice = contracts[_id].getPrice();\n\t\t\ttemppTime = paymentTime[_id];\n\t\t\ttempCollateral = contracts[_id].getCollateralAmount();\n\t\t\ttempState = returnStringStatus(contracts[_id].getState());\n\t\t\tinfoMessage = \"OK\";\n\t\t}\n\t\telse\n\t\t{\n\t\t\tif (contracts[_id].getState() == INVALID)\n\t\t\t{\n\t\t\t\ttempProvider = contracts[_id].getProviders();\n\t\t\t\ttempClient = contracts[_id].getClient();\n\t\t\t\ttempTime = contracts[_id].getStartTime();\n\t\t\t\ttempPrice = contracts[_id].getPrice();\n\t\t\t\ttemppTime = paymentTime[_id];\n\t\t\t\ttempState = returnStringStatus(contracts[_id].getState());\n\t\t\t\tinfoMessage = \"Not enough funds.\";\n\t\t\t}\n\t\t\telse\n\t\t\t{\n\t\t\t\ttempProvider = contracts[_id].getProviders();\n\t\t\t\ttempClient = contracts[_id].getClient();\n\t\t\t\ttempTime = contracts[_id].getStartTime();\n\t\t\t\ttempPrice = contracts[_id].getPrice();\n\t\t\t\ttemppTime = paymentTime[_id];\n\t\t\t\ttempState = returnStringStatus(contracts[_id].getState());\n\t\t\t\tinfoMessage = \"No Contract initialized.\";\n\t\t\t}\n\t\t}\n\t}\n\n\tfunction pay(uint _id)\n\tpublic\n\tpayable\n\tonlyClient(_id)\n\tonlyActiveOrInvalid(_id)\n\tonlyAfterOneMonth(_id)\n\tonlyRightPrice(_id)\n\treturns(bytes32 paymentMessage)\n\t{\n\t\taddress payable[] memory provs = contracts[_id].getProviders();\n\t\tfor (uint i = 0; i < provs.length; i++)\n\t\t{\n\t\t\taddress payable currProv = provs[i];\n\t\t\tuint providerBalance = currProv.balance;\n\t\t\tcurrProv.transfer(msg.value / provs.length);\n\t\t\tif (currProv.balance >= providerBalance + (contracts[_id].getPrice() / provs.length)){\n\t\t\t\t\tpaymentTime[_id] = now;//If the payment is successfull, set the payment time to now.\n\t\t\t\t\tpaymentMessage = \"Payment successfull.\";\n\t\t\t}\n\t\t\telse {\n\t\t\t\tcontracts[_id].setState(INVALID);\n\t\t\t\trevert(\"Transaction failed\");\n\t\t\t}\n\t\t}\n\t}\n\n\tfunction getVerification(uint _id, address payable _provider, bytes32 _leaf, bytes32[] memory _proof)\n\tpublic\n\treturns(bytes32 verificationMessage)\n\t{\n\t\tif (StorageProof.verify2(contracts[_id].getRootHash(), _leaf, _proof)){\n\t\t\tverifications[_id][_provider] = now;\n\t\t\tverificationMessage = \"OK\";\n\t\t}\n\t\telse{\n\t\t\tterminateCulpProvider(_id, _provider,  _leaf, _proof);\n\t\t\tverificationMessage = \"NOK\";\n\t\t}\n\t}\n\n\tfunction terminateCulpClient(uint _id)\n\tpublic\n\tpayable\n\tonlyMoreThanOneMonth(_id)\n\treturns(bytes32 terminationMessage)\n\t{\n\t\tcontracts[_id].setState(CANCELED);\n\t\taddress payable[] memory provs = contracts[_id].getProviders();\n\t\tuint coll = contracts[_id].getCollateralAmount();\n\t\tfor (uint i = 0; i < provs.length; i++){\n\t\t\t//Level up the providers' rating\n\t\t\tratings.levelUpRating(provs[i]);\n\t\t\tprovs[i].transfer(coll / provs.length);\n\t\t}\n\t\tinvalidateContract(_id);\n\t\treturn \"OK\";\n\t}\n\n\tfunction terminateCulpProvider(uint _id, address payable _provider, bytes32 _leaf, bytes32[] memory _proof)\n\tpublic\n\tpayable\n\tonlyNotVerified(_id, _leaf, _proof)\n\treturns(bytes32 terminationMessage)\n\t{\n\t\tcontracts[_id].setState(CANCELED);\n\t\taddress payable[] memory provs = contracts[_id].getProviders();\n\t\tuint coll = contracts[_id].getCollateralAmount();\n\t\t//Level down culpable provider's rating\n\t\tratings.levelDownRating(_provider);\n\t\tfor (uint i = 0; i < provs.length; i++){\n\t\t\tif (provs[i] != _provider){\n\t\t\t\t//Level up the rest of the providers' rating\n\t\t\t\tratings.levelUpRating(provs[i]);\n\t\t\t\tprovs[i].transfer(coll / (provs.length));\n\t\t\t}\n\t\t\taddress(contracts[_id].getClient()).transfer(coll / (provs.length));\n\t\t}\n\t\tinvalidateContract(_id);\n\t\treturn \"OK\";\n\t}\n\n\tfunction terminateMutual(uint _id)\n\tpublic\n\tpayable\n\tonlyLessThanHalfMonth(_id)\n\treturns(bytes32 terminationMessage)\n\t{\n\t\tcontracts[_id].setState(COMPLETED);\n\t\taddress payable[] memory provs = contracts[_id].getProviders();\n\t\tuint coll = contracts[_id].getCollateralAmount();\n\t\tuint splitCount = provs.length + 1;\n\t\tfor (uint i = 0; i < provs.length; i++){\n\t\t\tif (true){\n\t\t\t\tprovs[i].transfer(coll / splitCount);\n\t\t\t\t//Level up provider's rating\n\t\t\t\tratings.levelUpRating(provs[i]);\n\t\t\t}\n\t\t\telse{\n\t\t\t\t//Level down provider's rating\n\t\t\t\tratings.levelDownRating(provs[i]);\n\t\t\t\tsplitCount--;\n\t\t\t}\n\t\t}\n\t\taddress(contracts[_id].getClient()).transfer(coll / splitCount);\n\t\tterminationMessage = \"OK\";\n\t\tinvalidateContract(_id);\n\t}\n\n\tfunction timeDif(uint _id)\n\tpublic\n\tview\n\treturns(uint256)\n\t{\n\t\tuint256 duration = now - paymentTime[_id];\n\t\treturn duration;\n\t}\n\n\tfunction invalidateContract(uint _id)\n\tpublic\n\t{\n\t\tcontracts[_id].setClient(0x0000000000000000000000000000000000000000);\n\t}\n\n\t//Function that makes the contract able to accept payments\n\tfunction () external payable {\n\n\t}\n\n\t//Modifiers\n\tmodifier onlyActiveOrInvalid(uint _id){\n\t\tif (contracts[_id].getState() != ACTIVE && contracts[_id].getState() != INVALID) revert(\"Contract is terminated.\");\n        _;\n\t}\n\tmodifier onlyAfterOneMonth(uint _id){\n\t\tif (timeDif(_id) < 30) revert(\"Payments are made every 1 month.\");\n        _;\n\t}\n\tmodifier onlyRightPrice(uint _id){\n\t\tif(msg.value != contracts[_id].getPrice() * 1 wei) {\n\t\t\tcontracts[_id].setState(INVALID);\n\t\t\trevert(\"Insufficient or excessive amount\");\n\t\t}\n\t\t_;\n\t}\n\tmodifier onlyIfCollateral(uint coll){\n\t\tif (msg.value != coll * 1 wei) revert(\"Insufficient or excessive collateral amount\");\n\t\t_;\n\t}\n\tmodifier onlyLessThanHalfMonth(uint _id){\n\t\tif (timeDif(_id) > 15) revert(\"Contract can be mutually terminated before hald a month has passed since last payment.\");\n\t\t_;\n\t}\n\tmodifier onlyMoreThanOneMonth(uint _id){\n\t\tif (timeDif(_id) <= 2629743)\n\t\t\trevert(\"Contract can be terminated with the client culpable only if more than one month has passed since last payment.\");\n\t\t_;\n\t}\n\tmodifier onlyNotVerified(uint _id, bytes32 _leaf, bytes32[] memory _proof){\n\t\tif (StorageProof.verify2(contracts[_id].getRootHash(), _leaf, _proof)) revert(\"Merkle Proof was verified.\");\n\t\t_;\n\t}\n\tmodifier onlyClient(uint _id){\n\t\tif (msg.sender != contracts[_id].getClient()) revert(\"Only the client can pay the contract.\");\n        _;\n\t}\n\n\tfunction returnStringStatus(uint8 _id)\n    public\n    pure\n    returns(bytes32)\n    {\n        if (_id == 1)\n            return \"Active\";\n        else if (_id == 2)\n            return \"Invalid\";\n        else if (_id == 3)\n            return \"Cancelled\";\n\t\telse if (_id == 4)\n            return \"Completed\";\n\t\telse\n            return \"Status id is not valid\";\n    }\n\n\tfunction getContractStatuses()\n\tpublic\n\tview\n\treturns(uint8[20] memory)\n\t{\n\t\tuint8[20] memory returnList;\n\t\tfor (uint i = 0; i < 20; i++){\n\t\t\tif (i > id - 1)\n\t\t\t\tbreak;\n\t\t\treturnList[i] = contracts[i].getState();\n\t\t}\n\t\treturn returnList;\n\t}\n\n}",
  "sourcePath": "/home/canagno/ethChain/truffle/contracts/ContractExecutor.sol",
  "compiler": {
    "name": "solc",
    "version": "0.5.0+commit.1d4f565a.Emscripten.clang"
  },
  "schemaVersion": "3.0.1",
  "updatedAt": "2019-09-15T16:34:07.364Z",
  "devdoc": {
    "methods": {}
  },
  "userdoc": {
    "methods": {}
  }
}