{
  "contractName": "demoContract",
  "abi": [
    {
      "constant": true,
      "inputs": [],
      "name": "covenant",
      "outputs": [
        {
          "name": "provider",
          "type": "address"
        },
        {
          "name": "client",
          "type": "address"
        },
        {
          "name": "rootHash",
          "type": "uint256"
        },
        {
          "name": "collateralAmount",
          "type": "uint256"
        },
        {
          "name": "price",
          "type": "uint256"
        },
        {
          "name": "startTime",
          "type": "uint256"
        }
      ],
      "payable": false,
      "stateMutability": "view",
      "type": "function",
      "signature": "0x60b51a83"
    },
    {
      "payable": true,
      "stateMutability": "payable",
      "type": "fallback"
    },
    {
      "constant": false,
      "inputs": [
        {
          "name": "provider",
          "type": "address"
        },
        {
          "name": "client",
          "type": "address"
        },
        {
          "name": "rootHash",
          "type": "uint256"
        },
        {
          "name": "collateralAmount",
          "type": "uint256"
        },
        {
          "name": "price",
          "type": "uint256"
        }
      ],
      "name": "init",
      "outputs": [
        {
          "name": "initMessage",
          "type": "bytes32"
        }
      ],
      "payable": false,
      "stateMutability": "nonpayable",
      "type": "function",
      "signature": "0xf934436e"
    },
    {
      "constant": true,
      "inputs": [],
      "name": "getContractInfo",
      "outputs": [
        {
          "components": [
            {
              "name": "provider",
              "type": "address"
            },
            {
              "name": "client",
              "type": "address"
            },
            {
              "name": "rootHash",
              "type": "uint256"
            },
            {
              "name": "collateralAmount",
              "type": "uint256"
            },
            {
              "name": "price",
              "type": "uint256"
            },
            {
              "name": "startTime",
              "type": "uint256"
            }
          ],
          "name": "tempCovenant",
          "type": "tuple"
        },
        {
          "name": "infoMessage",
          "type": "bytes32"
        },
        {
          "name": "contractBalance",
          "type": "uint256"
        }
      ],
      "payable": false,
      "stateMutability": "view",
      "type": "function",
      "signature": "0x7cc1f867"
    },
    {
      "constant": false,
      "inputs": [],
      "name": "pay",
      "outputs": [
        {
          "name": "paymentMessage",
          "type": "bytes32"
        }
      ],
      "payable": true,
      "stateMutability": "payable",
      "type": "function",
      "signature": "0x1b9265b8"
    },
    {
      "constant": false,
      "inputs": [
        {
          "name": "culpable",
          "type": "bytes32"
        }
      ],
      "name": "terminate",
      "outputs": [],
      "payable": true,
      "stateMutability": "payable",
      "type": "function",
      "signature": "0x87b1002a"
    },
    {
      "constant": true,
      "inputs": [],
      "name": "timeDif",
      "outputs": [
        {
          "name": "",
          "type": "uint256"
        }
      ],
      "payable": false,
      "stateMutability": "view",
      "type": "function",
      "signature": "0x6ff32b22"
    },
    {
      "constant": true,
      "inputs": [],
      "name": "clientPaid",
      "outputs": [
        {
          "name": "",
          "type": "bool"
        }
      ],
      "payable": false,
      "stateMutability": "view",
      "type": "function",
      "signature": "0x2db7900e"
    }
  ],
  "bytecode": "0x6080604052306000806101000a81548173ffffffffffffffffffffffffffffffffffffffff021916908373ffffffffffffffffffffffffffffffffffffffff16021790555034801561005057600080fd5b50610e76806100606000396000f3fe608060405260043610610083576000357c0100000000000000000000000000000000000000000000000000000000900463ffffffff1680631b9265b8146100855780632db7900e146100a357806360b51a83146100ce5780636ff32b22146100fe5780637cc1f8671461012957806387b1002a14610156578063f934436e14610172575b005b61008d6101af565b60405161009a9190610d56565b60405180910390f35b3480156100af57600080fd5b506100b8610337565b6040516100c59190610d3b565b60405180910390f35b3480156100da57600080fd5b506100e3610397565b6040516100f596959493929190610cda565b60405180910390f35b34801561010a57600080fd5b50610113610401565b6040516101209190610da9565b60405180910390f35b34801561013557600080fd5b5061013e610415565b60405161014d93929190610d71565b60405180910390f35b610170600480360361016b9190810190610bfa565b6106cf565b005b34801561017e57600080fd5b5061019960048036036101949190810190610b83565b610937565b6040516101a69190610d56565b60405180910390f35b600060646101bb610401565b1015156102ec576101ca610337565b1561029a576000600160000160009054906101000a900473ffffffffffffffffffffffffffffffffffffffff1673ffffffffffffffffffffffffffffffffffffffff163190506001600401548101600160000160009054906101000a900473ffffffffffffffffffffffffffffffffffffffff1673ffffffffffffffffffffffffffffffffffffffff163110151561026b5742600160050181905550610294565b7f5472616e73616374696f6e206661696c65640000000000000000000000000000915050610334565b506102e7565b7f436c69656e7420686173206e6f7420706169642e00000000000000000000000090506102e67f434c49454e5400000000000000000000000000000000000000000000000000006106cf565b5b610310565b7f5061796d656e747320617265206d6164652065766572792031206d6f6e74682e90505b7f5061796d656e7420636f6d706c657465642e000000000000000000000000000090505b90565b6000600160030154600160040154016000809054906101000a900473ffffffffffffffffffffffffffffffffffffffff1673ffffffffffffffffffffffffffffffffffffffff163110151561038f5760019050610394565b600090505b90565b60018060000160009054906101000a900473ffffffffffffffffffffffffffffffffffffffff16908060010160009054906101000a900473ffffffffffffffffffffffffffffffffffffffff16908060020154908060030154908060040154908060050154905086565b600080600160050154420390508091505090565b61041d610ae4565b6000806000809054906101000a900473ffffffffffffffffffffffffffffffffffffffff1673ffffffffffffffffffffffffffffffffffffffff16319050600073ffffffffffffffffffffffffffffffffffffffff16600160000160009054906101000a900473ffffffffffffffffffffffffffffffffffffffff1673ffffffffffffffffffffffffffffffffffffffff161415156105c257600160c060405190810160405290816000820160009054906101000a900473ffffffffffffffffffffffffffffffffffffffff1673ffffffffffffffffffffffffffffffffffffffff1673ffffffffffffffffffffffffffffffffffffffff1681526020016001820160009054906101000a900473ffffffffffffffffffffffffffffffffffffffff1673ffffffffffffffffffffffffffffffffffffffff1673ffffffffffffffffffffffffffffffffffffffff16815260200160028201548152602001600382015481526020016004820154815260200160058201548152505092507f4f4b00000000000000000000000000000000000000000000000000000000000091506106ca565b600160c060405190810160405290816000820160009054906101000a900473ffffffffffffffffffffffffffffffffffffffff1673ffffffffffffffffffffffffffffffffffffffff1673ffffffffffffffffffffffffffffffffffffffff1681526020016001820160009054906101000a900473ffffffffffffffffffffffffffffffffffffffff1673ffffffffffffffffffffffffffffffffffffffff1673ffffffffffffffffffffffffffffffffffffffff16815260200160028201548152602001600382015481526020016004820154815260200160058201548152505092507f4e6f20436f6e747261637420696e697469616c697a65642e000000000000000091505b909192565b7f434c49454e54000000000000000000000000000000000000000000000000000081141561077957600160000160009054906101000a900473ffffffffffffffffffffffffffffffffffffffff1673ffffffffffffffffffffffffffffffffffffffff166108fc600260016003015481151561074757fe5b049081150290604051600060405180830381858888f19350505050158015610773573d6000803e3d6000fd5b5061091d565b7f50524f5649444552000000000000000000000000000000000000000000000000811415610822576001800160009054906101000a900473ffffffffffffffffffffffffffffffffffffffff1673ffffffffffffffffffffffffffffffffffffffff166108fc60026001600301548115156107f057fe5b049081150290604051600060405180830381858888f1935050505015801561081c573d6000803e3d6000fd5b5061091c565b600160000160009054906101000a900473ffffffffffffffffffffffffffffffffffffffff1673ffffffffffffffffffffffffffffffffffffffff166108fc600260016003015481151561087257fe5b049081150290604051600060405180830381858888f1935050505015801561089e573d6000803e3d6000fd5b506001800160009054906101000a900473ffffffffffffffffffffffffffffffffffffffff1673ffffffffffffffffffffffffffffffffffffffff166108fc60026001600301548115156108ee57fe5b049081150290604051600060405180830381858888f1935050505015801561091a573d6000803e3d6000fd5b505b5b600073ffffffffffffffffffffffffffffffffffffffff16ff5b6000826000809054906101000a900473ffffffffffffffffffffffffffffffffffffffff1673ffffffffffffffffffffffffffffffffffffffff1631101515610ab75760c0604051908101604052808773ffffffffffffffffffffffffffffffffffffffff1681526020018673ffffffffffffffffffffffffffffffffffffffff16815260200185815260200184815260200183815260200142815250600160008201518160000160006101000a81548173ffffffffffffffffffffffffffffffffffffffff021916908373ffffffffffffffffffffffffffffffffffffffff16021790555060208201518160010160006101000a81548173ffffffffffffffffffffffffffffffffffffffff021916908373ffffffffffffffffffffffffffffffffffffffff16021790555060408201518160020155606082015181600301556080820151816004015560a082015181600501559050507f496e697469616c697a6174696f6e207375636365737366756c6c2e00000000009050610adb565b7f496e697469616c697a6174696f6e206661696c65642e0000000000000000000090505b95945050505050565b60c060405190810160405280600073ffffffffffffffffffffffffffffffffffffffff168152602001600073ffffffffffffffffffffffffffffffffffffffff168152602001600081526020016000815260200160008152602001600081525090565b6000610b538235610e16565b905092915050565b6000610b678235610e28565b905092915050565b6000610b7b8235610e32565b905092915050565b600080600080600060a08688031215610b9b57600080fd5b6000610ba988828901610b47565b9550506020610bba88828901610b47565b9450506040610bcb88828901610b6f565b9350506060610bdc88828901610b6f565b9250506080610bed88828901610b6f565b9150509295509295909350565b600060208284031215610c0c57600080fd5b6000610c1a84828501610b5b565b91505092915050565b610c2c81610dc4565b82525050565b610c3b81610dd6565b82525050565b610c4a81610de2565b82525050565b60c082016000820151610c666000850182610c23565b506020820151610c796020850182610c23565b506040820151610c8c6040850182610ccb565b506060820151610c9f6060850182610ccb565b506080820151610cb26080850182610ccb565b5060a0820151610cc560a0850182610ccb565b50505050565b610cd481610e0c565b82525050565b600060c082019050610cef6000830189610c23565b610cfc6020830188610c23565b610d096040830187610ccb565b610d166060830186610ccb565b610d236080830185610ccb565b610d3060a0830184610ccb565b979650505050505050565b6000602082019050610d506000830184610c32565b92915050565b6000602082019050610d6b6000830184610c41565b92915050565b600061010082019050610d876000830186610c50565b610d9460c0830185610c41565b610da160e0830184610ccb565b949350505050565b6000602082019050610dbe6000830184610ccb565b92915050565b6000610dcf82610dec565b9050919050565b60008115159050919050565b6000819050919050565b600073ffffffffffffffffffffffffffffffffffffffff82169050919050565b6000819050919050565b6000610e2182610dec565b9050919050565b6000819050919050565b600081905091905056fea265627a7a72305820fab9e8bad629ac495aecd83b86fcd587c3f9100b5595b9ecb59d8f9ee9a666366c6578706572696d656e74616cf50037",
  "source": "pragma solidity ^0.5.0;\npragma experimental ABIEncoderV2; //Need to be specified so that functions can return structs. Not necessary, will be removed after testing phase.\n\n\ncontract demoContract{\n\n\t//Struct representing the contract\n\tstruct Contract{\n\t\t//uint id;\n\t\taddress payable provider;\n\t\taddress payable client;\n\t\tuint rootHash;\n\t\tuint collateralAmount;\n\t\tuint price;\n\t\tuint startTime;\n\t}\n\n\taddress contractAddress = address(this);\n\tContract public covenant;\n\n\t/* Function that initiates a contract between a client and a provider, with all the information\n\t** specified. For the contract to be successfully initiated, the collateral amount specified in\n\t** in the arguments of the call must be first transferred to the contract's address.\n\t*/\n\tfunction init(address payable provider, address payable client, uint rootHash, uint collateralAmount, uint price)\n\tpublic\n\treturns (bytes32 initMessage)\n\t{\n\t\tif (contractAddress.balance >= collateralAmount) //Will be uncommented for finalised edition\n\t\t//if (address(msg.sender).balance >= collateralAmount) //For testing purposes.\n\t\t{\n\t\t\tcovenant = Contract(provider, client, rootHash, collateralAmount, price, now);\n\t\t\tinitMessage = \"Initialization successfull.\";\n\t\t}\n\t\telse\n\t\t{\n\t\t\tinitMessage = \"Initialization failed.\";\n\t\t}\n\t\t\n\t}\n\n\t/* Function that returns all the information about the contract,\n\t** if one is initialized.\n\t*/\n\tfunction getContractInfo()\n\tpublic\n\tview\n\treturns(Contract memory tempCovenant, bytes32 infoMessage, uint contractBalance)\n\t{\n\t\tcontractBalance = contractAddress.balance;\n\t\tif (covenant.provider != 0x0000000000000000000000000000000000000000){\n\t\t\ttempCovenant = covenant;\n\t\t\tinfoMessage = \"OK\";\n\t\t}\n\t\telse \n\t\t{\n\t\t\ttempCovenant = covenant;\n\t\t\tinfoMessage = \"No Contract initialized.\";\n\t\t}\n\t}\n\n\t/* Function called by the provider to complete his payment. IN order for the payment to be successfuly\n\t** completed, there should be at least one month passed from the last payment or the creation of the contract.\n\t** Additionally, the successfull completion of the payment, requires that the client has transferred the aggreed\n\t** price to the contract's address. \n\t*/\n\tfunction pay()\n\tpublic\n\tpayable\n\treturns(bytes32 paymentMessage)\n\t{\n\t\t if (timeDif() >= 100) //Check if 1 month has passed since last payment or the creation of the contract\n\t\t {\n\t\t \tif (clientPaid()) //Check if client has paid the aggreed price\n\t\t \t{\n\t\t \t\tuint providerBalance = address(covenant.provider).balance;\n\t\t \t\t// address(covenant.provider).transfer(covenant.price); //Will remain in comment for the function to be compiled with the view keyword\n\t\t \t\t//providerBalance += covenant.price; //For testing purposes.\n\t\t \t\tif (address(covenant.provider).balance >= providerBalance + covenant.price) covenant.startTime = now; //If the payment is successfull, change the startTime of the contract to now.\n\t\t \t\telse return \"Transaction failed\";\n\t\t \t}\n\t\t \telse\n\t\t \t{\n\t\t \t\tpaymentMessage = \"Client has not paid.\";\n\t\t \t\tterminate(\"CLIENT\");\n\t\t\t}\n\t\t }\n\t\t else\n\t\t {\n\t\t \tpaymentMessage = \"Payments are made every 1 month.\";\n\t\t }\n\t\t paymentMessage = \"Payment completed.\";\n\t}\n\n\n\t/* Function that terminates the contract. Half of the collateral amount specified in the\n\t** contract is return to the not culpable party if there is one. If the termination is mutual,\n\t** both parties take their Ether back. Finally, the contract is self destroyed and any remaining \n\t** Ether is burned.\n\t*/\n\tfunction terminate(bytes32 culpable) \n\tpublic\n\tpayable\n\t{\n\t\tif (culpable == \"CLIENT\") address(covenant.provider).transfer(covenant.collateralAmount/2);\n\t\telse if (culpable == \"PROVIDER\") address(covenant.client).transfer(covenant.collateralAmount/2);\n\t\telse \n\t\t{\n\t\t\taddress(covenant.provider).transfer(covenant.collateralAmount/2);\n\t\t\taddress(covenant.client).transfer(covenant.collateralAmount/2);\n\t\t}\n\t\tselfdestruct(0x0000000000000000000000000000000000000000); //Selfdestruct contract and burn any remaining Ether.\n\t}\n\n\t/* Function that calculates the time (in seconds) passed\n\t** since the startTime value of the contract.\n\t*/\n\tfunction timeDif()\n\tpublic\n\tview \n\treturns(uint256)\n\t{\n\t\tuint256 duration = now - covenant.startTime;\n\t\treturn duration;\n\t}\n\n\t/* Function checking that the client paid by checking if the balance of the contract's address\n\t** is equal to the price plus the collateral amount specified in the contract\n\t*/ \n\tfunction clientPaid()\n\tpublic\n\tview\n\treturns(bool)\n\t{\n\t\tif (contractAddress.balance >= covenant.price + covenant.collateralAmount)\n\t\t\treturn true;\n\t\telse\n\t\t\treturn false;\n\t}\n\n\t// @notice Will receive any eth sent to the contract\n\tfunction () external payable {\n\t}\n\n}\n",
  "sourcePath": "/home/canagno/ethChain/truffle/contracts/demo.sol",
  "compiler": {
    "name": "solc",
    "version": "0.5.0+commit.1d4f565a.Emscripten.clang"
  },
  "schemaVersion": "3.0.1",
  "updatedAt": "2019-01-26T13:45:12.987Z",
  "devdoc": {
    "methods": {}
  },
  "userdoc": {
    "methods": {}
  }
}