{
  "contractName": "demoContract",
  "abi": [
    {
      "constant": true,
      "inputs": [],
      "name": "covenant",
      "outputs": [
        {
          "name": "provider",
          "type": "address"
        },
        {
          "name": "client",
          "type": "address"
        },
        {
          "name": "rootHash",
          "type": "uint256"
        },
        {
          "name": "collateralAmount",
          "type": "uint256"
        },
        {
          "name": "price",
          "type": "uint256"
        },
        {
          "name": "startTime",
          "type": "uint256"
        },
        {
          "name": "state",
          "type": "uint8"
        }
      ],
      "payable": false,
      "stateMutability": "view",
      "type": "function",
      "signature": "0x60b51a83"
    },
    {
      "payable": true,
      "stateMutability": "payable",
      "type": "fallback"
    },
    {
      "constant": false,
      "inputs": [
        {
          "name": "provider",
          "type": "address"
        },
        {
          "name": "client",
          "type": "address"
        },
        {
          "name": "rootHash",
          "type": "uint256"
        },
        {
          "name": "collateralAmount",
          "type": "uint256"
        },
        {
          "name": "price",
          "type": "uint256"
        }
      ],
      "name": "init",
      "outputs": [
        {
          "name": "initMessage",
          "type": "bytes32"
        }
      ],
      "payable": false,
      "stateMutability": "nonpayable",
      "type": "function",
      "signature": "0xf934436e"
    },
    {
      "constant": true,
      "inputs": [],
      "name": "getContractInfo",
      "outputs": [
        {
          "components": [
            {
              "name": "provider",
              "type": "address"
            },
            {
              "name": "client",
              "type": "address"
            },
            {
              "name": "rootHash",
              "type": "uint256"
            },
            {
              "name": "collateralAmount",
              "type": "uint256"
            },
            {
              "name": "price",
              "type": "uint256"
            },
            {
              "name": "startTime",
              "type": "uint256"
            },
            {
              "name": "state",
              "type": "uint8"
            }
          ],
          "name": "tempCovenant",
          "type": "tuple"
        },
        {
          "name": "infoMessage",
          "type": "bytes32"
        },
        {
          "name": "contractBalance",
          "type": "uint256"
        }
      ],
      "payable": false,
      "stateMutability": "view",
      "type": "function",
      "signature": "0x7cc1f867"
    },
    {
      "constant": false,
      "inputs": [],
      "name": "pay",
      "outputs": [
        {
          "name": "paymentMessage",
          "type": "bytes32"
        }
      ],
      "payable": true,
      "stateMutability": "payable",
      "type": "function",
      "signature": "0x1b9265b8"
    },
    {
      "constant": false,
      "inputs": [
        {
          "name": "culpable",
          "type": "bytes32"
        }
      ],
      "name": "terminate",
      "outputs": [],
      "payable": true,
      "stateMutability": "payable",
      "type": "function",
      "signature": "0x87b1002a"
    },
    {
      "constant": true,
      "inputs": [],
      "name": "timeDif",
      "outputs": [
        {
          "name": "",
          "type": "uint256"
        }
      ],
      "payable": false,
      "stateMutability": "view",
      "type": "function",
      "signature": "0x6ff32b22"
    },
    {
      "constant": true,
      "inputs": [],
      "name": "clientPaid",
      "outputs": [
        {
          "name": "",
          "type": "bool"
        }
      ],
      "payable": false,
      "stateMutability": "view",
      "type": "function",
      "signature": "0x2db7900e"
    },
    {
      "constant": false,
      "inputs": [],
      "name": "invalidateContract",
      "outputs": [],
      "payable": false,
      "stateMutability": "nonpayable",
      "type": "function",
      "signature": "0x3544f97e"
    }
  ],
  "bytecode": "0x6080604052306000806101000a81548173ffffffffffffffffffffffffffffffffffffffff021916908373ffffffffffffffffffffffffffffffffffffffff16021790555034801561005057600080fd5b5061152c806100606000396000f3fe60806040526004361061008e576000357c0100000000000000000000000000000000000000000000000000000000900463ffffffff1680631b9265b8146100905780632db7900e146100ae5780633544f97e146100d957806360b51a83146100f05780636ff32b22146101215780637cc1f8671461014c57806387b1002a14610179578063f934436e14610195575b005b6100986101d2565b6040516100a591906113e3565b60405180910390f35b3480156100ba57600080fd5b506100c3610480565b6040516100d091906113c8565b60405180910390f35b3480156100e557600080fd5b506100ee6104e0565b005b3480156100fc57600080fd5b50610105610597565b6040516101189796959493929190611359565b60405180910390f35b34801561012d57600080fd5b50610136610614565b6040516101439190611437565b60405180910390f35b34801561015857600080fd5b50610161610628565b604051610170939291906113fe565b60405180910390f35b610193600480360361018e9190810190611257565b610aa6565b005b3480156101a157600080fd5b506101bc60048036036101b791908101906111e0565b610df2565b6040516101c991906113e3565b60405180910390f35b6000600260048111156101e157fe5b600160060160009054906101000a900460ff1660048111156101ff57fe5b1480610232575060048081111561021257fe5b600160060160009054906101000a900460ff16600481111561023057fe5b145b156104585762278d00610243610614565b10151561040c57610252610480565b156103ba576000600160000160009054906101000a900473ffffffffffffffffffffffffffffffffffffffff1673ffffffffffffffffffffffffffffffffffffffff16319050600160000160009054906101000a900473ffffffffffffffffffffffffffffffffffffffff1673ffffffffffffffffffffffffffffffffffffffff166108fc6001600401549081150290604051600060405180830381858888f19350505050158015610308573d6000803e3d6000fd5b506001600401548101600160000160009054906101000a900473ffffffffffffffffffffffffffffffffffffffff1673ffffffffffffffffffffffffffffffffffffffff163110151561036457426001600501819055506103b4565b6004600160060160006101000a81548160ff0219169083600481111561038657fe5b02179055507f5472616e73616374696f6e206661696c6564000000000000000000000000000091505061047d565b50610407565b7f436c69656e7420686173206e6f7420706169642e00000000000000000000000090506104067f434c49454e540000000000000000000000000000000000000000000000000000610aa6565b5b610430565b7f5061796d656e747320617265206d6164652065766572792031206d6f6e74682e90505b7f5061796d656e7420636f6d706c657465642e0000000000000000000000000000905061047c565b7f436f6e7472616374206973207465726d696e617465642e00000000000000000090505b5b90565b6000600160030154600160040154016000809054906101000a900473ffffffffffffffffffffffffffffffffffffffff1673ffffffffffffffffffffffffffffffffffffffff16311015156104d857600190506104dd565b600090505b90565b6000600160000160006101000a81548173ffffffffffffffffffffffffffffffffffffffff021916908373ffffffffffffffffffffffffffffffffffffffff16021790555060006001800160006101000a81548173ffffffffffffffffffffffffffffffffffffffff021916908373ffffffffffffffffffffffffffffffffffffffff1602179055506000600160020181905550600060016004018190555060006001600301819055506000600160050181905550565b60018060000160009054906101000a900473ffffffffffffffffffffffffffffffffffffffff16908060010160009054906101000a900473ffffffffffffffffffffffffffffffffffffffff16908060020154908060030154908060040154908060050154908060060160009054906101000a900460ff16905087565b600080600160050154420390508091505090565b61063061112f565b6000806000809054906101000a900473ffffffffffffffffffffffffffffffffffffffff1673ffffffffffffffffffffffffffffffffffffffff16319050600073ffffffffffffffffffffffffffffffffffffffff16600160000160009054906101000a900473ffffffffffffffffffffffffffffffffffffffff1673ffffffffffffffffffffffffffffffffffffffff1614151561080257600160e060405190810160405290816000820160009054906101000a900473ffffffffffffffffffffffffffffffffffffffff1673ffffffffffffffffffffffffffffffffffffffff1673ffffffffffffffffffffffffffffffffffffffff1681526020016001820160009054906101000a900473ffffffffffffffffffffffffffffffffffffffff1673ffffffffffffffffffffffffffffffffffffffff1673ffffffffffffffffffffffffffffffffffffffff168152602001600282015481526020016003820154815260200160048201548152602001600582015481526020016006820160009054906101000a900460ff1660048111156107c957fe5b60048111156107d457fe5b8152505092507f4f4b0000000000000000000000000000000000000000000000000000000000009150610aa1565b60048081111561080e57fe5b600160060160009054906101000a900460ff16600481111561082c57fe5b141561096b57600160e060405190810160405290816000820160009054906101000a900473ffffffffffffffffffffffffffffffffffffffff1673ffffffffffffffffffffffffffffffffffffffff1673ffffffffffffffffffffffffffffffffffffffff1681526020016001820160009054906101000a900473ffffffffffffffffffffffffffffffffffffffff1673ffffffffffffffffffffffffffffffffffffffff1673ffffffffffffffffffffffffffffffffffffffff168152602001600282015481526020016003820154815260200160048201548152602001600582015481526020016006820160009054906101000a900460ff16600481111561093257fe5b600481111561093d57fe5b8152505092507f4e6f7420656e6f7567682066756e64732e0000000000000000000000000000009150610aa0565b600160e060405190810160405290816000820160009054906101000a900473ffffffffffffffffffffffffffffffffffffffff1673ffffffffffffffffffffffffffffffffffffffff1673ffffffffffffffffffffffffffffffffffffffff1681526020016001820160009054906101000a900473ffffffffffffffffffffffffffffffffffffffff1673ffffffffffffffffffffffffffffffffffffffff1673ffffffffffffffffffffffffffffffffffffffff168152602001600282015481526020016003820154815260200160048201548152602001600582015481526020016006820160009054906101000a900460ff166004811115610a6b57fe5b6004811115610a7657fe5b8152505092507f4e6f20436f6e747261637420696e697469616c697a65642e000000000000000091505b5b909192565b7f434c49454e540000000000000000000000000000000000000000000000000000811415610b765760018060060160006101000a81548160ff02191690836004811115610aef57fe5b0217905550600160000160009054906101000a900473ffffffffffffffffffffffffffffffffffffffff1673ffffffffffffffffffffffffffffffffffffffff166108fc6002600160030154811515610b4457fe5b049081150290604051600060405180830381858888f19350505050158015610b70573d6000803e3d6000fd5b50610d67565b7f50524f5649444552000000000000000000000000000000000000000000000000811415610c455760018060060160006101000a81548160ff02191690836004811115610bbf57fe5b02179055506001800160009054906101000a900473ffffffffffffffffffffffffffffffffffffffff1673ffffffffffffffffffffffffffffffffffffffff166108fc6002600160030154811515610c1357fe5b049081150290604051600060405180830381858888f19350505050158015610c3f573d6000803e3d6000fd5b50610d66565b6003600160060160006101000a81548160ff02191690836004811115610c6757fe5b0217905550600160000160009054906101000a900473ffffffffffffffffffffffffffffffffffffffff1673ffffffffffffffffffffffffffffffffffffffff166108fc6002600160030154811515610cbc57fe5b049081150290604051600060405180830381858888f19350505050158015610ce8573d6000803e3d6000fd5b506001800160009054906101000a900473ffffffffffffffffffffffffffffffffffffffff1673ffffffffffffffffffffffffffffffffffffffff166108fc6002600160030154811515610d3857fe5b049081150290604051600060405180830381858888f19350505050158015610d64573d6000803e3d6000fd5b505b5b610d6f6104e0565b600073ffffffffffffffffffffffffffffffffffffffff166108fc6000809054906101000a900473ffffffffffffffffffffffffffffffffffffffff1673ffffffffffffffffffffffffffffffffffffffff16319081150290604051600060405180830381858888f19350505050158015610dee573d6000803e3d6000fd5b5050565b6000826000809054906101000a900473ffffffffffffffffffffffffffffffffffffffff1673ffffffffffffffffffffffffffffffffffffffff1631101515610fad5760e0604051908101604052808773ffffffffffffffffffffffffffffffffffffffff1681526020018673ffffffffffffffffffffffffffffffffffffffff16815260200185815260200184815260200183815260200142815260200160026004811115610e9e57fe5b815250600160008201518160000160006101000a81548173ffffffffffffffffffffffffffffffffffffffff021916908373ffffffffffffffffffffffffffffffffffffffff16021790555060208201518160010160006101000a81548173ffffffffffffffffffffffffffffffffffffffff021916908373ffffffffffffffffffffffffffffffffffffffff16021790555060408201518160020155606082015181600301556080820151816004015560a0820151816005015560c08201518160060160006101000a81548160ff02191690836004811115610f7d57fe5b02179055509050507f496e697469616c697a6174696f6e207375636365737366756c6c2e00000000009050611126565b60e060405190810160405280600073ffffffffffffffffffffffffffffffffffffffff168152602001600073ffffffffffffffffffffffffffffffffffffffff1681526020016000815260200160008152602001600081526020016000815260200160048081111561101b57fe5b815250600160008201518160000160006101000a81548173ffffffffffffffffffffffffffffffffffffffff021916908373ffffffffffffffffffffffffffffffffffffffff16021790555060208201518160010160006101000a81548173ffffffffffffffffffffffffffffffffffffffff021916908373ffffffffffffffffffffffffffffffffffffffff16021790555060408201518160020155606082015181600301556080820151816004015560a0820151816005015560c08201518160060160006101000a81548160ff021916908360048111156110fa57fe5b02179055509050507f496e697469616c697a6174696f6e206661696c65642e0000000000000000000090505b95945050505050565b60e060405190810160405280600073ffffffffffffffffffffffffffffffffffffffff168152602001600073ffffffffffffffffffffffffffffffffffffffff168152602001600081526020016000815260200160008152602001600081526020016000600481111561119e57fe5b81525090565b60006111b082356114ba565b905092915050565b60006111c482356114cc565b905092915050565b60006111d882356114d6565b905092915050565b600080600080600060a086880312156111f857600080fd5b6000611206888289016111a4565b9550506020611217888289016111a4565b9450506040611228888289016111cc565b9350506060611239888289016111cc565b925050608061124a888289016111cc565b9150509295509295909350565b60006020828403121561126957600080fd5b6000611277848285016111b8565b91505092915050565b61128981611452565b82525050565b61129881611464565b82525050565b6112a781611470565b82525050565b6112b6816114e0565b82525050565b60e0820160008201516112d26000850182611280565b5060208201516112e56020850182611280565b5060408201516112f8604085018261134a565b50606082015161130b606085018261134a565b50608082015161131e608085018261134a565b5060a082015161133160a085018261134a565b5060c082015161134460c08501826112ad565b50505050565b611353816114b0565b82525050565b600060e08201905061136e600083018a611280565b61137b6020830189611280565b611388604083018861134a565b611395606083018761134a565b6113a2608083018661134a565b6113af60a083018561134a565b6113bc60c08301846112ad565b98975050505050505050565b60006020820190506113dd600083018461128f565b92915050565b60006020820190506113f8600083018461129e565b92915050565b60006101208201905061141460008301866112bc565b61142160e083018561129e565b61142f61010083018461134a565b949350505050565b600060208201905061144c600083018461134a565b92915050565b600061145d82611490565b9050919050565b60008115159050919050565b6000819050919050565b600060058210151561148857fe5b819050919050565b600073ffffffffffffffffffffffffffffffffffffffff82169050919050565b6000819050919050565b60006114c582611490565b9050919050565b6000819050919050565b6000819050919050565b60006114eb8261147a565b905091905056fea265627a7a723058202d59c0dc2f606765e51d7747728d5938d8d53012363183879df39c282d39c4ca6c6578706572696d656e74616cf50037",
  "source": "pragma solidity ^0.5.0;\npragma experimental ABIEncoderV2; //Need to be specified so that functions can return structs. Not necessary, will be removed after testing phase.\n\n\ncontract demoContract{\n\n\t//Enum to describe the state of the contract\n    enum State { \n        Inactive, \n        Cancelled, //Contract terminated from one of two sides\n        Active, //Contract ongoing\n        Completed, //Contract mutually terminated\n        Invalid //Payment failed\n    }\n\n\t//Struct representing the contract\n\tstruct Contract{\n\t\t//uint id; //May need id for multiple contracts between multiple parties\n\t\taddress payable provider;\n\t\taddress payable client;\n\t\tuint rootHash;\n\t\tuint collateralAmount; //collateralAmount is stored in wei (10^-19 eth)\n\t\tuint price; //price is stored in wei (10^-19 eth)\n\t\tuint startTime; //startTime is initiated to now in the init function and is refreshed every time a payment is made. It is caclulated in seconds since the last Epoch.\n\t\tState state; //state of the contract, taking values from the State enum\n\t}\n\n\n\taddress contractAddress = address(this);\n\tContract public covenant;\n\n\t/* Function that initiates a contract between a client and a provider, with all the information\n\t** specified. For the contract to be successfully initiated, the collateral amount specified in\n\t** in the arguments of the call must be first transferred to the contract's address.\n\t*/\n\tfunction init(address payable provider, address payable client, uint rootHash, uint collateralAmount, uint price)\n\tpublic\n\treturns (bytes32 initMessage)\n\t{\n\t\tif (contractAddress.balance >= collateralAmount)\n\t\t{\n\t\t\tcovenant = Contract(provider, client, rootHash, collateralAmount, price, now, State.Active);\n\t\t\tinitMessage = \"Initialization successfull.\";\n\t\t}\n\t\telse\n\t\t{\n\t\t\tcovenant = Contract(0x0000000000000000000000000000000000000000, 0x0000000000000000000000000000000000000000, 0, 0, 0, 0, State.Invalid);\n\t\t\tinitMessage = \"Initialization failed.\";\n\t\t}\n\t\t\n\t}\n\n\t/* Function that returns all the information about the contract,\n\t** if one is initialized.\n\t*/\n\tfunction getContractInfo()\n\tpublic\n\tview\n\treturns(Contract memory tempCovenant, bytes32 infoMessage, uint contractBalance)\n\t{\n\t\tcontractBalance = contractAddress.balance;\n\t\tif (covenant.provider != 0x0000000000000000000000000000000000000000){\n\t\t\ttempCovenant = covenant;\n\t\t\tinfoMessage = \"OK\";\n\t\t}\n\t\telse \n\t\t{\n\t\t\tif (covenant.state == State.Invalid)\n\t\t\t{\n\t\t\t\ttempCovenant = covenant;\n\t\t\t\tinfoMessage = \"Not enough funds.\";\n\t\t\t}\n\t\t\telse{\n\t\t\t\ttempCovenant = covenant;\n\t\t\t\tinfoMessage = \"No Contract initialized.\";\n\t\t\t}\n\t\t}\n\t}\n\n\t/* Function called by the provider to complete his payment. IN order for the payment to be successfuly\n\t** completed, there should be at least one month passed from the last payment or the creation of the contract.\n\t** Additionally, the successfull completion of the payment, requires that the client has transferred the aggreed\n\t** price to the contract's address. \n\t*/\n\tfunction pay()\n\tpublic\n\tpayable\n\treturns(bytes32 paymentMessage)\n\t{\n\t\tif (covenant.state == State.Active || covenant.state == State.Invalid)\n\t\t{\n\t\t\tif (timeDif() >= 2592000) //Check if 1 month has passed since last payment or the creation of the contract\n\t\t\t{\n\t\t\t\tif (clientPaid()) //Check if client has paid the aggreed price\n\t\t\t\t{\n\t\t \t\t\tuint providerBalance = address(covenant.provider).balance;\n\t\t \t\t\taddress(covenant.provider).transfer(covenant.price);\n\t\t \t\t\tif (address(covenant.provider).balance >= providerBalance + covenant.price) covenant.startTime = now; //If the payment is successfull, change the startTime of the contract to now.\n\t\t \t\t\telse {\n\t\t\t\t\t\tcovenant.state = State.Invalid;\n\t\t\t\t\t\treturn \"Transaction failed\";\n\t\t\t\t\t}\t \n\t\t \t\t}\n\t\t \t\telse\n\t\t \t\t{\n\t\t \t\t\tpaymentMessage = \"Client has not paid.\";\n\t\t \t\t\tterminate(\"CLIENT\");\n\t\t\t\t}\n\t\t\t}\n\t\t\telse\n\t\t\t{\n\t\t\t\tpaymentMessage = \"Payments are made every 1 month.\";\n\t\t\t}\n\t\t\tpaymentMessage = \"Payment completed.\";\n\t\t}\n\t\telse\n\t\t{\n\t\t\tpaymentMessage = \"Contract is terminated.\";\n\t\t}\n\t}\n\n\n\t/* Function that terminates the contract. Half of the collateral amount specified in the\n\t** contract is return to the not culpable party if there is one. If the termination is mutual,\n\t** both parties take their Ether back. Finally, the contract is self destroyed and any remaining \n\t** Ether is burned.\n\t*/\n\tfunction terminate(bytes32 culpable) \n\tpublic\n\tpayable\n\t{\n\t\tif (culpable == \"CLIENT\") \n\t\t{\n\t\t\tcovenant.state = State.Cancelled;\n\t\t\taddress(covenant.provider).transfer(covenant.collateralAmount/2);\n\t\t}\n\t\telse if (culpable == \"PROVIDER\")\n\t\t{\n\t\t\tcovenant.state = State.Cancelled;\n\t\t\taddress(covenant.client).transfer(covenant.collateralAmount/2);\n\t\t}\n\t\telse \n\t\t{\n\t\t\tcovenant.state = State.Completed;\n\t\t\taddress(covenant.provider).transfer(covenant.collateralAmount/2);\n\t\t\taddress(covenant.client).transfer(covenant.collateralAmount/2);\n\t\t}\n\t\tinvalidateContract();\n\t\taddress(0x0000000000000000000000000000000000000000).transfer(contractAddress.balance); //Burn contract's ether and delete struck entry representing the covenant.\n\t}\n\n\t/* Function that calculates the time (in seconds) passed\n\t** since the startTime value of the contract.\n\t*/\n\tfunction timeDif()\n\tpublic\n\tview \n\treturns(uint256)\n\t{\n\t\tuint256 duration = now - covenant.startTime;\n\t\treturn duration;\n\t}\n\n\t/* Function checking that the client paid by checking if the balance of the contract's address\n\t** is equal to the price plus the collateral amount specified in the contract\n\t*/ \n\tfunction clientPaid()\n\tpublic\n\tview\n\treturns(bool)\n\t{\n\t\tif (contractAddress.balance >= covenant.price + covenant.collateralAmount)\n\t\t\treturn true;\n\t\telse\n\t\t\treturn false;\n\t}\n\n\tfunction invalidateContract()\n\tpublic\n\t{\n\t\tcovenant.provider = 0x0000000000000000000000000000000000000000;\n\t\tcovenant.client = 0x0000000000000000000000000000000000000000;\n\t\tcovenant.rootHash = 0;\n\t\tcovenant.price = 0;\n\t\tcovenant.collateralAmount = 0;\n\t\tcovenant.startTime = 0;\n\t}\n\n\t// Function that makes the contract able to accept payments\n\tfunction () external payable {\n\t}\n\n}\n",
  "sourcePath": "/home/canagno/ethChain/truffle/contracts/demo.sol",
  "compiler": {
    "name": "solc",
    "version": "0.5.0+commit.1d4f565a.Emscripten.clang"
  },
  "schemaVersion": "3.0.1",
  "updatedAt": "2019-03-16T17:13:31.814Z",
  "devdoc": {
    "methods": {}
  },
  "userdoc": {
    "methods": {}
  }
}