{
  "contractName": "demoContract",
  "abi": [
    {
      "constant": true,
      "inputs": [],
      "name": "covenant",
      "outputs": [
        {
          "name": "provider",
          "type": "address"
        },
        {
          "name": "client",
          "type": "address"
        },
        {
          "name": "rootHash",
          "type": "uint256"
        },
        {
          "name": "collateralAmount",
          "type": "uint256"
        },
        {
          "name": "price",
          "type": "uint256"
        },
        {
          "name": "startTime",
          "type": "uint256"
        }
      ],
      "payable": false,
      "stateMutability": "view",
      "type": "function",
      "signature": "0x60b51a83"
    },
    {
      "payable": true,
      "stateMutability": "payable",
      "type": "fallback"
    },
    {
      "constant": false,
      "inputs": [
        {
          "name": "provider",
          "type": "address"
        },
        {
          "name": "client",
          "type": "address"
        },
        {
          "name": "rootHash",
          "type": "uint256"
        },
        {
          "name": "collateralAmount",
          "type": "uint256"
        },
        {
          "name": "price",
          "type": "uint256"
        }
      ],
      "name": "init",
      "outputs": [
        {
          "name": "initMessage",
          "type": "bytes32"
        }
      ],
      "payable": false,
      "stateMutability": "nonpayable",
      "type": "function",
      "signature": "0xf934436e"
    },
    {
      "constant": true,
      "inputs": [],
      "name": "getContractInfo",
      "outputs": [
        {
          "components": [
            {
              "name": "provider",
              "type": "address"
            },
            {
              "name": "client",
              "type": "address"
            },
            {
              "name": "rootHash",
              "type": "uint256"
            },
            {
              "name": "collateralAmount",
              "type": "uint256"
            },
            {
              "name": "price",
              "type": "uint256"
            },
            {
              "name": "startTime",
              "type": "uint256"
            }
          ],
          "name": "tempCovenant",
          "type": "tuple"
        },
        {
          "name": "infoMessage",
          "type": "bytes32"
        },
        {
          "name": "contractBalance",
          "type": "uint256"
        }
      ],
      "payable": false,
      "stateMutability": "view",
      "type": "function",
      "signature": "0x7cc1f867"
    },
    {
      "constant": false,
      "inputs": [],
      "name": "pay",
      "outputs": [
        {
          "name": "paymentMessage",
          "type": "bytes32"
        }
      ],
      "payable": true,
      "stateMutability": "payable",
      "type": "function",
      "signature": "0x1b9265b8"
    },
    {
      "constant": false,
      "inputs": [
        {
          "name": "culpable",
          "type": "bytes32"
        }
      ],
      "name": "terminate",
      "outputs": [],
      "payable": true,
      "stateMutability": "payable",
      "type": "function",
      "signature": "0x87b1002a"
    },
    {
      "constant": true,
      "inputs": [],
      "name": "timeDif",
      "outputs": [
        {
          "name": "",
          "type": "uint256"
        }
      ],
      "payable": false,
      "stateMutability": "view",
      "type": "function",
      "signature": "0x6ff32b22"
    },
    {
      "constant": true,
      "inputs": [],
      "name": "clientPaid",
      "outputs": [
        {
          "name": "",
          "type": "bool"
        }
      ],
      "payable": false,
      "stateMutability": "view",
      "type": "function",
      "signature": "0x2db7900e"
    },
    {
      "constant": false,
      "inputs": [],
      "name": "invalidateContract",
      "outputs": [],
      "payable": false,
      "stateMutability": "nonpayable",
      "type": "function",
      "signature": "0x3544f97e"
    }
  ],
  "bytecode": "0x6080604052306000806101000a81548173ffffffffffffffffffffffffffffffffffffffff021916908373ffffffffffffffffffffffffffffffffffffffff16021790555034801561005057600080fd5b50610fe4806100606000396000f3fe60806040526004361061008e576000357c0100000000000000000000000000000000000000000000000000000000900463ffffffff1680631b9265b8146100905780632db7900e146100ae5780633544f97e146100d957806360b51a83146100f05780636ff32b22146101205780637cc1f8671461014b57806387b1002a14610178578063f934436e14610194575b005b6100986101d1565b6040516100a59190610ec4565b60405180910390f35b3480156100ba57600080fd5b506100c36103ca565b6040516100d09190610ea9565b60405180910390f35b3480156100e557600080fd5b506100ee61042a565b005b3480156100fc57600080fd5b506101056104b5565b60405161011796959493929190610e48565b60405180910390f35b34801561012c57600080fd5b5061013561051f565b6040516101429190610f17565b60405180910390f35b34801561015757600080fd5b50610160610533565b60405161016f93929190610edf565b60405180910390f35b610192600480360361018d9190810190610d68565b6107ed565b005b3480156101a057600080fd5b506101bb60048036036101b69190810190610cf1565b610ac6565b6040516101c89190610ec4565b60405180910390f35b600060646101dd61051f565b10151561037f576101ec6103ca565b1561032d576000600160000160009054906101000a900473ffffffffffffffffffffffffffffffffffffffff1673ffffffffffffffffffffffffffffffffffffffff16319050600160000160009054906101000a900473ffffffffffffffffffffffffffffffffffffffff1673ffffffffffffffffffffffffffffffffffffffff166108fc6001600401549081150290604051600060405180830381858888f193505050501580156102a2573d6000803e3d6000fd5b506001600401548101600160000160009054906101000a900473ffffffffffffffffffffffffffffffffffffffff1673ffffffffffffffffffffffffffffffffffffffff16311015156102fe5742600160050181905550610327565b7f5472616e73616374696f6e206661696c656400000000000000000000000000009150506103c7565b5061037a565b7f436c69656e7420686173206e6f7420706169642e00000000000000000000000090506103797f434c49454e5400000000000000000000000000000000000000000000000000006107ed565b5b6103a3565b7f5061796d656e747320617265206d6164652065766572792031206d6f6e74682e90505b7f5061796d656e7420636f6d706c657465642e000000000000000000000000000090505b90565b6000600160030154600160040154016000809054906101000a900473ffffffffffffffffffffffffffffffffffffffff1673ffffffffffffffffffffffffffffffffffffffff16311015156104225760019050610427565b600090505b90565b6000600160000160006101000a81548173ffffffffffffffffffffffffffffffffffffffff021916908373ffffffffffffffffffffffffffffffffffffffff16021790555060006001800160006101000a81548173ffffffffffffffffffffffffffffffffffffffff021916908373ffffffffffffffffffffffffffffffffffffffff160217905550565b60018060000160009054906101000a900473ffffffffffffffffffffffffffffffffffffffff16908060010160009054906101000a900473ffffffffffffffffffffffffffffffffffffffff16908060020154908060030154908060040154908060050154905086565b600080600160050154420390508091505090565b61053b610c52565b6000806000809054906101000a900473ffffffffffffffffffffffffffffffffffffffff1673ffffffffffffffffffffffffffffffffffffffff16319050600073ffffffffffffffffffffffffffffffffffffffff16600160000160009054906101000a900473ffffffffffffffffffffffffffffffffffffffff1673ffffffffffffffffffffffffffffffffffffffff161415156106e057600160c060405190810160405290816000820160009054906101000a900473ffffffffffffffffffffffffffffffffffffffff1673ffffffffffffffffffffffffffffffffffffffff1673ffffffffffffffffffffffffffffffffffffffff1681526020016001820160009054906101000a900473ffffffffffffffffffffffffffffffffffffffff1673ffffffffffffffffffffffffffffffffffffffff1673ffffffffffffffffffffffffffffffffffffffff16815260200160028201548152602001600382015481526020016004820154815260200160058201548152505092507f4f4b00000000000000000000000000000000000000000000000000000000000091506107e8565b600160c060405190810160405290816000820160009054906101000a900473ffffffffffffffffffffffffffffffffffffffff1673ffffffffffffffffffffffffffffffffffffffff1673ffffffffffffffffffffffffffffffffffffffff1681526020016001820160009054906101000a900473ffffffffffffffffffffffffffffffffffffffff1673ffffffffffffffffffffffffffffffffffffffff1673ffffffffffffffffffffffffffffffffffffffff16815260200160028201548152602001600382015481526020016004820154815260200160058201548152505092507f4e6f20436f6e747261637420696e697469616c697a65642e000000000000000091505b909192565b7f434c49454e54000000000000000000000000000000000000000000000000000081141561089757600160000160009054906101000a900473ffffffffffffffffffffffffffffffffffffffff1673ffffffffffffffffffffffffffffffffffffffff166108fc600260016003015481151561086557fe5b049081150290604051600060405180830381858888f19350505050158015610891573d6000803e3d6000fd5b50610a3b565b7f50524f5649444552000000000000000000000000000000000000000000000000811415610940576001800160009054906101000a900473ffffffffffffffffffffffffffffffffffffffff1673ffffffffffffffffffffffffffffffffffffffff166108fc600260016003015481151561090e57fe5b049081150290604051600060405180830381858888f1935050505015801561093a573d6000803e3d6000fd5b50610a3a565b600160000160009054906101000a900473ffffffffffffffffffffffffffffffffffffffff1673ffffffffffffffffffffffffffffffffffffffff166108fc600260016003015481151561099057fe5b049081150290604051600060405180830381858888f193505050501580156109bc573d6000803e3d6000fd5b506001800160009054906101000a900473ffffffffffffffffffffffffffffffffffffffff1673ffffffffffffffffffffffffffffffffffffffff166108fc6002600160030154811515610a0c57fe5b049081150290604051600060405180830381858888f19350505050158015610a38573d6000803e3d6000fd5b505b5b610a4361042a565b600073ffffffffffffffffffffffffffffffffffffffff166108fc6000809054906101000a900473ffffffffffffffffffffffffffffffffffffffff1673ffffffffffffffffffffffffffffffffffffffff16319081150290604051600060405180830381858888f19350505050158015610ac2573d6000803e3d6000fd5b5050565b6000823373ffffffffffffffffffffffffffffffffffffffff1631101515610c255760c0604051908101604052808773ffffffffffffffffffffffffffffffffffffffff1681526020018673ffffffffffffffffffffffffffffffffffffffff16815260200185815260200184815260200183815260200142815250600160008201518160000160006101000a81548173ffffffffffffffffffffffffffffffffffffffff021916908373ffffffffffffffffffffffffffffffffffffffff16021790555060208201518160010160006101000a81548173ffffffffffffffffffffffffffffffffffffffff021916908373ffffffffffffffffffffffffffffffffffffffff16021790555060408201518160020155606082015181600301556080820151816004015560a082015181600501559050507f496e697469616c697a6174696f6e207375636365737366756c6c2e00000000009050610c49565b7f496e697469616c697a6174696f6e206661696c65642e0000000000000000000090505b95945050505050565b60c060405190810160405280600073ffffffffffffffffffffffffffffffffffffffff168152602001600073ffffffffffffffffffffffffffffffffffffffff168152602001600081526020016000815260200160008152602001600081525090565b6000610cc18235610f84565b905092915050565b6000610cd58235610f96565b905092915050565b6000610ce98235610fa0565b905092915050565b600080600080600060a08688031215610d0957600080fd5b6000610d1788828901610cb5565b9550506020610d2888828901610cb5565b9450506040610d3988828901610cdd565b9350506060610d4a88828901610cdd565b9250506080610d5b88828901610cdd565b9150509295509295909350565b600060208284031215610d7a57600080fd5b6000610d8884828501610cc9565b91505092915050565b610d9a81610f32565b82525050565b610da981610f44565b82525050565b610db881610f50565b82525050565b60c082016000820151610dd46000850182610d91565b506020820151610de76020850182610d91565b506040820151610dfa6040850182610e39565b506060820151610e0d6060850182610e39565b506080820151610e206080850182610e39565b5060a0820151610e3360a0850182610e39565b50505050565b610e4281610f7a565b82525050565b600060c082019050610e5d6000830189610d91565b610e6a6020830188610d91565b610e776040830187610e39565b610e846060830186610e39565b610e916080830185610e39565b610e9e60a0830184610e39565b979650505050505050565b6000602082019050610ebe6000830184610da0565b92915050565b6000602082019050610ed96000830184610daf565b92915050565b600061010082019050610ef56000830186610dbe565b610f0260c0830185610daf565b610f0f60e0830184610e39565b949350505050565b6000602082019050610f2c6000830184610e39565b92915050565b6000610f3d82610f5a565b9050919050565b60008115159050919050565b6000819050919050565b600073ffffffffffffffffffffffffffffffffffffffff82169050919050565b6000819050919050565b6000610f8f82610f5a565b9050919050565b6000819050919050565b600081905091905056fea265627a7a72305820a3c41c4a5a85fb9872d76a37f88b4021e86e0f8b3a7a80de42026d58149bbe596c6578706572696d656e74616cf50037",
  "source": "pragma solidity ^0.5.0;\npragma experimental ABIEncoderV2; //Need to be specified so that functions can return structs. Not necessary, will be removed after testing phase.\n\n\ncontract demoContract{\n\n\t//Struct representing the contract\n\tstruct Contract{\n\t\t//uint id; //May need id for multiple contracts between multiple parties\n\t\taddress payable provider;\n\t\taddress payable client;\n\t\tuint rootHash;\n\t\tuint collateralAmount;\n\t\tuint price;\n\t\tuint startTime;\n\t}\n\n\taddress contractAddress = address(this);\n\tContract public covenant;\n\n\t/* Function that initiates a contract between a client and a provider, with all the information\n\t** specified. For the contract to be successfully initiated, the collateral amount specified in\n\t** in the arguments of the call must be first transferred to the contract's address.\n\t*/\n\tfunction init(address payable provider, address payable client, uint rootHash, uint collateralAmount, uint price)\n\tpublic\n\treturns (bytes32 initMessage)\n\t{\n\t\tif (address(msg.sender).balance >= collateralAmount)\n\t\t{\n\t\t\tcovenant = Contract(provider, client, rootHash, collateralAmount, price, now);\n\t\t\tinitMessage = \"Initialization successfull.\";\n\t\t}\n\t\telse\n\t\t{\n\t\t\tinitMessage = \"Initialization failed.\";\n\t\t}\n\t\t\n\t}\n\n\t/* Function that returns all the information about the contract,\n\t** if one is initialized.\n\t*/\n\tfunction getContractInfo()\n\tpublic\n\tview\n\treturns(Contract memory tempCovenant, bytes32 infoMessage, uint contractBalance)\n\t{\n\t\tcontractBalance = contractAddress.balance;\n\t\tif (covenant.provider != 0x0000000000000000000000000000000000000000){\n\t\t\ttempCovenant = covenant;\n\t\t\tinfoMessage = \"OK\";\n\t\t}\n\t\telse \n\t\t{\n\t\t\ttempCovenant = covenant;\n\t\t\tinfoMessage = \"No Contract initialized.\";\n\t\t}\n\t}\n\n\t/* Function called by the provider to complete his payment. IN order for the payment to be successfuly\n\t** completed, there should be at least one month passed from the last payment or the creation of the contract.\n\t** Additionally, the successfull completion of the payment, requires that the client has transferred the aggreed\n\t** price to the contract's address. \n\t*/\n\tfunction pay()\n\tpublic\n\tpayable\n\treturns(bytes32 paymentMessage)\n\t{\n\t\t if (timeDif() >= 100) //Check if 1 month has passed since last payment or the creation of the contract\n\t\t {\n\t\t \tif (clientPaid()) //Check if client has paid the aggreed price\n\t\t \t{\n\t\t \t\tuint providerBalance = address(covenant.provider).balance;\n\t\t \t\taddress(covenant.provider).transfer(covenant.price);\n\t\t \t\tif (address(covenant.provider).balance >= providerBalance + covenant.price) covenant.startTime = now; //If the payment is successfull, change the startTime of the contract to now.\n\t\t \t\telse return \"Transaction failed\";\n\t\t \t}\n\t\t \telse\n\t\t \t{\n\t\t \t\tpaymentMessage = \"Client has not paid.\";\n\t\t \t\tterminate(\"CLIENT\");\n\t\t\t}\n\t\t }\n\t\t else\n\t\t {\n\t\t \tpaymentMessage = \"Payments are made every 1 month.\";\n\t\t }\n\t\t paymentMessage = \"Payment completed.\";\n\t}\n\n\n\t/* Function that terminates the contract. Half of the collateral amount specified in the\n\t** contract is return to the not culpable party if there is one. If the termination is mutual,\n\t** both parties take their Ether back. Finally, the contract is self destroyed and any remaining \n\t** Ether is burned.\n\t*/\n\tfunction terminate(bytes32 culpable) \n\tpublic\n\tpayable\n\t{\n\t\tif (culpable == \"CLIENT\") address(covenant.provider).transfer(covenant.collateralAmount/2);\n\t\telse if (culpable == \"PROVIDER\") address(covenant.client).transfer(covenant.collateralAmount/2);\n\t\telse \n\t\t{\n\t\t\taddress(covenant.provider).transfer(covenant.collateralAmount/2);\n\t\t\taddress(covenant.client).transfer(covenant.collateralAmount/2);\n\t\t}\n\t\tinvalidateContract();\n\t\taddress(0x0000000000000000000000000000000000000000).transfer(contractAddress.balance); //Burn contract's ether and delete struck entry representing the covenant.\n\t}\n\n\t/* Function that calculates the time (in seconds) passed\n\t** since the startTime value of the contract.\n\t*/\n\tfunction timeDif()\n\tpublic\n\tview \n\treturns(uint256)\n\t{\n\t\tuint256 duration = now - covenant.startTime;\n\t\treturn duration;\n\t}\n\n\t/* Function checking that the client paid by checking if the balance of the contract's address\n\t** is equal to the price plus the collateral amount specified in the contract\n\t*/ \n\tfunction clientPaid()\n\tpublic\n\tview\n\treturns(bool)\n\t{\n\t\tif (contractAddress.balance >= covenant.price + covenant.collateralAmount)\n\t\t\treturn true;\n\t\telse\n\t\t\treturn false;\n\t}\n\n\tfunction invalidateContract()\n\tpublic\n\t{\n\t\tcovenant.provider = 0x0000000000000000000000000000000000000000;\n\t\tcovenant.client = 0x0000000000000000000000000000000000000000;\n\t}\n\n\t// Function that makes the contract able to accept payments\n\tfunction () external payable {\n\t}\n\n}\n",
  "sourcePath": "/home/canagno/ethChain/truffle/contracts/demo.sol",
  "compiler": {
    "name": "solc",
    "version": "0.5.0+commit.1d4f565a.Emscripten.clang"
  },
  "schemaVersion": "3.0.1",
  "updatedAt": "2019-02-23T13:50:36.116Z",
  "devdoc": {
    "methods": {}
  },
  "userdoc": {
    "methods": {}
  }
}