{
  "contractName": "executorContract",
  "abi": [
    {
      "constant": true,
      "inputs": [
        {
          "name": "",
          "type": "uint256"
        }
      ],
      "name": "contracts",
      "outputs": [
        {
          "name": "",
          "type": "address"
        }
      ],
      "payable": false,
      "stateMutability": "view",
      "type": "function",
      "signature": "0x474da79a"
    },
    {
      "constant": true,
      "inputs": [
        {
          "name": "",
          "type": "uint256"
        }
      ],
      "name": "paymentTime",
      "outputs": [
        {
          "name": "",
          "type": "uint256"
        }
      ],
      "payable": false,
      "stateMutability": "view",
      "type": "function",
      "signature": "0xe6886ed8"
    },
    {
      "payable": true,
      "stateMutability": "payable",
      "type": "fallback"
    },
    {
      "constant": false,
      "inputs": [
        {
          "name": "provider",
          "type": "address"
        },
        {
          "name": "client",
          "type": "address"
        },
        {
          "name": "rootHash",
          "type": "uint256"
        },
        {
          "name": "collateralAmount",
          "type": "uint256"
        },
        {
          "name": "price",
          "type": "uint256"
        }
      ],
      "name": "init",
      "outputs": [
        {
          "name": "initMessage",
          "type": "bytes32"
        }
      ],
      "payable": false,
      "stateMutability": "nonpayable",
      "type": "function",
      "signature": "0xf934436e"
    },
    {
      "constant": true,
      "inputs": [
        {
          "name": "_id",
          "type": "uint256"
        }
      ],
      "name": "getContractInfo",
      "outputs": [
        {
          "name": "tempProvider",
          "type": "address"
        },
        {
          "name": "tempPrice",
          "type": "uint256"
        },
        {
          "name": "infoMessage",
          "type": "bytes32"
        },
        {
          "name": "tempTime",
          "type": "uint256"
        },
        {
          "name": "temppTime",
          "type": "uint256"
        },
        {
          "name": "tempState",
          "type": "bytes32"
        }
      ],
      "payable": false,
      "stateMutability": "view",
      "type": "function",
      "signature": "0x8aa3e011"
    },
    {
      "constant": false,
      "inputs": [
        {
          "name": "_id",
          "type": "uint256"
        }
      ],
      "name": "pay",
      "outputs": [
        {
          "name": "paymentMessage",
          "type": "bytes32"
        }
      ],
      "payable": true,
      "stateMutability": "payable",
      "type": "function",
      "signature": "0xc290d691"
    },
    {
      "constant": false,
      "inputs": [
        {
          "name": "_id",
          "type": "uint256"
        },
        {
          "name": "culpable",
          "type": "bytes32"
        }
      ],
      "name": "terminate",
      "outputs": [],
      "payable": true,
      "stateMutability": "payable",
      "type": "function",
      "signature": "0xfb0fab3e"
    },
    {
      "constant": true,
      "inputs": [
        {
          "name": "_id",
          "type": "uint256"
        }
      ],
      "name": "timeDif",
      "outputs": [
        {
          "name": "",
          "type": "uint256"
        }
      ],
      "payable": false,
      "stateMutability": "view",
      "type": "function",
      "signature": "0xdeec16e9"
    },
    {
      "constant": false,
      "inputs": [
        {
          "name": "_id",
          "type": "uint256"
        }
      ],
      "name": "invalidateContract",
      "outputs": [],
      "payable": false,
      "stateMutability": "nonpayable",
      "type": "function",
      "signature": "0x59a48e46"
    }
  ],
  "bytecode": "0x60806040526000805530600360006101000a81548173ffffffffffffffffffffffffffffffffffffffff021916908373ffffffffffffffffffffffffffffffffffffffff16021790555034801561005557600080fd5b5061311d806100656000396000f3fe60806040526004361061008e576000357c0100000000000000000000000000000000000000000000000000000000900463ffffffff168063474da79a1461009057806359a48e461461010b5780638aa3e01114610146578063c290d691146101e4578063deec16e914610226578063e6886ed814610275578063f934436e146102c4578063fb0fab3e14610367575b005b34801561009c57600080fd5b506100c9600480360360208110156100b357600080fd5b810190808035906020019092919050505061039f565b604051808273ffffffffffffffffffffffffffffffffffffffff1673ffffffffffffffffffffffffffffffffffffffff16815260200191505060405180910390f35b34801561011757600080fd5b506101446004803603602081101561012e57600080fd5b81019080803590602001909291905050506103d2565b005b34801561015257600080fd5b5061017f6004803603602081101561016957600080fd5b810190808035906020019092919050505061088f565b604051808773ffffffffffffffffffffffffffffffffffffffff1673ffffffffffffffffffffffffffffffffffffffff168152602001868152602001858152602001848152602001838152602001828152602001965050505050505060405180910390f35b610210600480360360208110156101fa57600080fd5b810190808035906020019092919050505061152c565b6040518082815260200191505060405180910390f35b34801561023257600080fd5b5061025f6004803603602081101561024957600080fd5b8101908080359060200190929190505050611d69565b6040518082815260200191505060405180910390f35b34801561028157600080fd5b506102ae6004803603602081101561029857600080fd5b8101908080359060200190929190505050611d8d565b6040518082815260200191505060405180910390f35b3480156102d057600080fd5b50610351600480360360a08110156102e757600080fd5b81019080803573ffffffffffffffffffffffffffffffffffffffff169060200190929190803573ffffffffffffffffffffffffffffffffffffffff169060200190929190803590602001909291908035906020019092919080359060200190929190505050611da5565b6040518082815260200191505060405180910390f35b61039d6004803603604081101561037d57600080fd5b810190808035906020019092919080359060200190929190505050611ef7565b005b60016020528060005260406000206000915054906101000a900473ffffffffffffffffffffffffffffffffffffffff1681565b6001600082815260200190815260200160002060009054906101000a900473ffffffffffffffffffffffffffffffffffffffff1673ffffffffffffffffffffffffffffffffffffffff1663cfd8d6c060006040518263ffffffff167c0100000000000000000000000000000000000000000000000000000000028152600401808273ffffffffffffffffffffffffffffffffffffffff1673ffffffffffffffffffffffffffffffffffffffff168152602001915050600060405180830381600087803b1580156104a157600080fd5b505af11580156104b5573d6000803e3d6000fd5b505050506001600082815260200190815260200160002060009054906101000a900473ffffffffffffffffffffffffffffffffffffffff1673ffffffffffffffffffffffffffffffffffffffff16638526690a60006040518263ffffffff167c0100000000000000000000000000000000000000000000000000000000028152600401808273ffffffffffffffffffffffffffffffffffffffff1673ffffffffffffffffffffffffffffffffffffffff168152602001915050600060405180830381600087803b15801561058857600080fd5b505af115801561059c573d6000803e3d6000fd5b505050506001600082815260200190815260200160002060009054906101000a900473ffffffffffffffffffffffffffffffffffffffff1673ffffffffffffffffffffffffffffffffffffffff16630ec3a87460006040518263ffffffff167c010000000000000000000000000000000000000000000000000000000002815260040180828152602001915050600060405180830381600087803b15801561064357600080fd5b505af1158015610657573d6000803e3d6000fd5b505050506001600082815260200190815260200160002060009054906101000a900473ffffffffffffffffffffffffffffffffffffffff1673ffffffffffffffffffffffffffffffffffffffff166391b7f5ed60006040518263ffffffff167c010000000000000000000000000000000000000000000000000000000002815260040180828152602001915050600060405180830381600087803b1580156106fe57600080fd5b505af1158015610712573d6000803e3d6000fd5b505050506001600082815260200190815260200160002060009054906101000a900473ffffffffffffffffffffffffffffffffffffffff1673ffffffffffffffffffffffffffffffffffffffff16633d4f04ad60006040518263ffffffff167c010000000000000000000000000000000000000000000000000000000002815260040180828152602001915050600060405180830381600087803b1580156107b957600080fd5b505af11580156107cd573d6000803e3d6000fd5b505050506001600082815260200190815260200160002060009054906101000a900473ffffffffffffffffffffffffffffffffffffffff1673ffffffffffffffffffffffffffffffffffffffff16633e0a322d60006040518263ffffffff167c010000000000000000000000000000000000000000000000000000000002815260040180828152602001915050600060405180830381600087803b15801561087457600080fd5b505af1158015610888573d6000803e3d6000fd5b5050505050565b600080600080600080600073ffffffffffffffffffffffffffffffffffffffff166001600089815260200190815260200160002060009054906101000a900473ffffffffffffffffffffffffffffffffffffffff1673ffffffffffffffffffffffffffffffffffffffff1663085d48836040518163ffffffff167c010000000000000000000000000000000000000000000000000000000002815260040160206040518083038186803b15801561094557600080fd5b505afa158015610959573d6000803e3d6000fd5b505050506040513d602081101561096f57600080fd5b810190808051906020019092919050505073ffffffffffffffffffffffffffffffffffffffff16141515610d23576001600088815260200190815260200160002060009054906101000a900473ffffffffffffffffffffffffffffffffffffffff1673ffffffffffffffffffffffffffffffffffffffff1663085d48836040518163ffffffff167c010000000000000000000000000000000000000000000000000000000002815260040160206040518083038186803b158015610a3257600080fd5b505afa158015610a46573d6000803e3d6000fd5b505050506040513d6020811015610a5c57600080fd5b810190808051906020019092919050505095506001600088815260200190815260200160002060009054906101000a900473ffffffffffffffffffffffffffffffffffffffff1673ffffffffffffffffffffffffffffffffffffffff166378e979256040518163ffffffff167c010000000000000000000000000000000000000000000000000000000002815260040160206040518083038186803b158015610b0457600080fd5b505afa158015610b18573d6000803e3d6000fd5b505050506040513d6020811015610b2e57600080fd5b810190808051906020019092919050505092506001600088815260200190815260200160002060009054906101000a900473ffffffffffffffffffffffffffffffffffffffff1673ffffffffffffffffffffffffffffffffffffffff1663a035b1fe6040518163ffffffff167c010000000000000000000000000000000000000000000000000000000002815260040160206040518083038186803b158015610bd657600080fd5b505afa158015610bea573d6000803e3d6000fd5b505050506040513d6020811015610c0057600080fd5b81019080805190602001909291905050509450600260008881526020019081526020016000205491506001600088815260200190815260200160002060009054906101000a900473ffffffffffffffffffffffffffffffffffffffff1673ffffffffffffffffffffffffffffffffffffffff1663c19d93fb6040518163ffffffff167c010000000000000000000000000000000000000000000000000000000002815260040160206040518083038186803b158015610cbe57600080fd5b505afa158015610cd2573d6000803e3d6000fd5b505050506040513d6020811015610ce857600080fd5b810190808051906020019092919050505090507f4f4b0000000000000000000000000000000000000000000000000000000000009350611523565b7f496e76616c6964000000000000000000000000000000000000000000000000006001600089815260200190815260200160002060009054906101000a900473ffffffffffffffffffffffffffffffffffffffff1673ffffffffffffffffffffffffffffffffffffffff1663c19d93fb6040518163ffffffff167c010000000000000000000000000000000000000000000000000000000002815260040160206040518083038186803b158015610dd957600080fd5b505afa158015610ded573d6000803e3d6000fd5b505050506040513d6020811015610e0357600080fd5b810190808051906020019092919050505014156111a0576001600088815260200190815260200160002060009054906101000a900473ffffffffffffffffffffffffffffffffffffffff1673ffffffffffffffffffffffffffffffffffffffff1663085d48836040518163ffffffff167c010000000000000000000000000000000000000000000000000000000002815260040160206040518083038186803b158015610eaf57600080fd5b505afa158015610ec3573d6000803e3d6000fd5b505050506040513d6020811015610ed957600080fd5b810190808051906020019092919050505095506001600088815260200190815260200160002060009054906101000a900473ffffffffffffffffffffffffffffffffffffffff1673ffffffffffffffffffffffffffffffffffffffff166378e979256040518163ffffffff167c010000000000000000000000000000000000000000000000000000000002815260040160206040518083038186803b158015610f8157600080fd5b505afa158015610f95573d6000803e3d6000fd5b505050506040513d6020811015610fab57600080fd5b810190808051906020019092919050505092506001600088815260200190815260200160002060009054906101000a900473ffffffffffffffffffffffffffffffffffffffff1673ffffffffffffffffffffffffffffffffffffffff1663a035b1fe6040518163ffffffff167c010000000000000000000000000000000000000000000000000000000002815260040160206040518083038186803b15801561105357600080fd5b505afa158015611067573d6000803e3d6000fd5b505050506040513d602081101561107d57600080fd5b81019080805190602001909291905050509450600260008881526020019081526020016000205491506001600088815260200190815260200160002060009054906101000a900473ffffffffffffffffffffffffffffffffffffffff1673ffffffffffffffffffffffffffffffffffffffff1663c19d93fb6040518163ffffffff167c010000000000000000000000000000000000000000000000000000000002815260040160206040518083038186803b15801561113b57600080fd5b505afa15801561114f573d6000803e3d6000fd5b505050506040513d602081101561116557600080fd5b810190808051906020019092919050505090507f4e6f7420656e6f7567682066756e64732e0000000000000000000000000000009350611522565b6001600088815260200190815260200160002060009054906101000a900473ffffffffffffffffffffffffffffffffffffffff1673ffffffffffffffffffffffffffffffffffffffff1663085d48836040518163ffffffff167c010000000000000000000000000000000000000000000000000000000002815260040160206040518083038186803b15801561123557600080fd5b505afa158015611249573d6000803e3d6000fd5b505050506040513d602081101561125f57600080fd5b810190808051906020019092919050505095506001600088815260200190815260200160002060009054906101000a900473ffffffffffffffffffffffffffffffffffffffff1673ffffffffffffffffffffffffffffffffffffffff166378e979256040518163ffffffff167c010000000000000000000000000000000000000000000000000000000002815260040160206040518083038186803b15801561130757600080fd5b505afa15801561131b573d6000803e3d6000fd5b505050506040513d602081101561133157600080fd5b810190808051906020019092919050505092506001600088815260200190815260200160002060009054906101000a900473ffffffffffffffffffffffffffffffffffffffff1673ffffffffffffffffffffffffffffffffffffffff1663a035b1fe6040518163ffffffff167c010000000000000000000000000000000000000000000000000000000002815260040160206040518083038186803b1580156113d957600080fd5b505afa1580156113ed573d6000803e3d6000fd5b505050506040513d602081101561140357600080fd5b81019080805190602001909291905050509450600260008881526020019081526020016000205491506001600088815260200190815260200160002060009054906101000a900473ffffffffffffffffffffffffffffffffffffffff1673ffffffffffffffffffffffffffffffffffffffff1663c19d93fb6040518163ffffffff167c010000000000000000000000000000000000000000000000000000000002815260040160206040518083038186803b1580156114c157600080fd5b505afa1580156114d5573d6000803e3d6000fd5b505050506040513d60208110156114eb57600080fd5b810190808051906020019092919050505090507f4e6f20436f6e747261637420696e697469616c697a65642e000000000000000093505b5b91939550919395565b60007f41637469766500000000000000000000000000000000000000000000000000006001600084815260200190815260200160002060009054906101000a900473ffffffffffffffffffffffffffffffffffffffff1673ffffffffffffffffffffffffffffffffffffffff1663c19d93fb6040518163ffffffff167c010000000000000000000000000000000000000000000000000000000002815260040160206040518083038186803b1580156115e457600080fd5b505afa1580156115f8573d6000803e3d6000fd5b505050506040513d602081101561160e57600080fd5b8101908080519060200190929190505050148061171957507f496e76616c6964000000000000000000000000000000000000000000000000006001600084815260200190815260200160002060009054906101000a900473ffffffffffffffffffffffffffffffffffffffff1673ffffffffffffffffffffffffffffffffffffffff1663c19d93fb6040518163ffffffff167c010000000000000000000000000000000000000000000000000000000002815260040160206040518083038186803b1580156116dc57600080fd5b505afa1580156116f0573d6000803e3d6000fd5b505050506040513d602081101561170657600080fd5b8101908080519060200190929190505050145b15611d3f57600161172983611d69565b101515611cf3576001600083815260200190815260200160002060009054906101000a900473ffffffffffffffffffffffffffffffffffffffff1673ffffffffffffffffffffffffffffffffffffffff1663a035b1fe6040518163ffffffff167c010000000000000000000000000000000000000000000000000000000002815260040160206040518083038186803b1580156117c557600080fd5b505afa1580156117d9573d6000803e3d6000fd5b505050506040513d60208110156117ef57600080fd5b81019080805190602001909291905050503414151561180d57600080fd5b60006001600084815260200190815260200160002060009054906101000a900473ffffffffffffffffffffffffffffffffffffffff1673ffffffffffffffffffffffffffffffffffffffff1663085d48836040518163ffffffff167c010000000000000000000000000000000000000000000000000000000002815260040160206040518083038186803b1580156118a457600080fd5b505afa1580156118b8573d6000803e3d6000fd5b505050506040513d60208110156118ce57600080fd5b810190808051906020019092919050505073ffffffffffffffffffffffffffffffffffffffff163190506001600084815260200190815260200160002060009054906101000a900473ffffffffffffffffffffffffffffffffffffffff1673ffffffffffffffffffffffffffffffffffffffff1663085d48836040518163ffffffff167c010000000000000000000000000000000000000000000000000000000002815260040160206040518083038186803b15801561198d57600080fd5b505afa1580156119a1573d6000803e3d6000fd5b505050506040513d60208110156119b757600080fd5b810190808051906020019092919050505073ffffffffffffffffffffffffffffffffffffffff166108fc349081150290604051600060405180830381858888f19350505050158015611a0d573d6000803e3d6000fd5b506001600084815260200190815260200160002060009054906101000a900473ffffffffffffffffffffffffffffffffffffffff1673ffffffffffffffffffffffffffffffffffffffff1663a035b1fe6040518163ffffffff167c010000000000000000000000000000000000000000000000000000000002815260040160206040518083038186803b158015611aa357600080fd5b505afa158015611ab7573d6000803e3d6000fd5b505050506040513d6020811015611acd57600080fd5b810190808051906020019092919050505081016001600085815260200190815260200160002060009054906101000a900473ffffffffffffffffffffffffffffffffffffffff1673ffffffffffffffffffffffffffffffffffffffff1663085d48836040518163ffffffff167c010000000000000000000000000000000000000000000000000000000002815260040160206040518083038186803b158015611b7557600080fd5b505afa158015611b89573d6000803e3d6000fd5b505050506040513d6020811015611b9f57600080fd5b810190808051906020019092919050505073ffffffffffffffffffffffffffffffffffffffff1631101515611beb57426002600085815260200190815260200160002081905550611ced565b6001600084815260200190815260200160002060009054906101000a900473ffffffffffffffffffffffffffffffffffffffff1673ffffffffffffffffffffffffffffffffffffffff16628df7976040518163ffffffff167c010000000000000000000000000000000000000000000000000000000002815260040180807f496e76616c6964000000000000000000000000000000000000000000000000008152506020019050600060405180830381600087803b158015611cac57600080fd5b505af1158015611cc0573d6000803e3d6000fd5b505050507f5472616e73616374696f6e206661696c65640000000000000000000000000000915050611d64565b50611d17565b7f5061796d656e747320617265206d6164652065766572792031206d6f6e74682e90505b7f5061796d656e7420636f6d706c657465642e00000000000000000000000000009050611d63565b7f436f6e7472616374206973207465726d696e617465642e00000000000000000090505b5b919050565b60008060026000848152602001908152602001600020544203905080915050919050565b60026020528060005260406000206000915090505481565b60008585858585611db4612a30565b808673ffffffffffffffffffffffffffffffffffffffff1673ffffffffffffffffffffffffffffffffffffffff1681526020018573ffffffffffffffffffffffffffffffffffffffff1673ffffffffffffffffffffffffffffffffffffffff16815260200184815260200183815260200182815260200195505050505050604051809103906000f080158015611e4e573d6000803e3d6000fd5b50600160008054815260200190815260200160002060006101000a81548173ffffffffffffffffffffffffffffffffffffffff021916908373ffffffffffffffffffffffffffffffffffffffff1602179055504260026000805481526020019081526020016000208190555060008081548092919060010191905055507f496e697469616c697a6174696f6e207375636365737366756c6c2e0000000000905095945050505050565b7f434c49454e5400000000000000000000000000000000000000000000000000008114156121ee576001600083815260200190815260200160002060009054906101000a900473ffffffffffffffffffffffffffffffffffffffff1673ffffffffffffffffffffffffffffffffffffffff16628df7976040518163ffffffff167c010000000000000000000000000000000000000000000000000000000002815260040180807f43616e63656c6c656400000000000000000000000000000000000000000000008152506020019050600060405180830381600087803b158015611fe057600080fd5b505af1158015611ff4573d6000803e3d6000fd5b505050506001600083815260200190815260200160002060009054906101000a900473ffffffffffffffffffffffffffffffffffffffff1673ffffffffffffffffffffffffffffffffffffffff1663085d48836040518163ffffffff167c010000000000000000000000000000000000000000000000000000000002815260040160206040518083038186803b15801561208d57600080fd5b505afa1580156120a1573d6000803e3d6000fd5b505050506040513d60208110156120b757600080fd5b810190808051906020019092919050505073ffffffffffffffffffffffffffffffffffffffff166108fc60026001600086815260200190815260200160002060009054906101000a900473ffffffffffffffffffffffffffffffffffffffff1673ffffffffffffffffffffffffffffffffffffffff166392d09ceb6040518163ffffffff167c010000000000000000000000000000000000000000000000000000000002815260040160206040518083038186803b15801561217857600080fd5b505afa15801561218c573d6000803e3d6000fd5b505050506040513d60208110156121a257600080fd5b81019080805190602001909291905050508115156121bc57fe5b049081150290604051600060405180830381858888f193505050501580156121e8573d6000803e3d6000fd5b506129a2565b7f50524f56494445520000000000000000000000000000000000000000000000008114156124e5576001600083815260200190815260200160002060009054906101000a900473ffffffffffffffffffffffffffffffffffffffff1673ffffffffffffffffffffffffffffffffffffffff16628df7976040518163ffffffff167c010000000000000000000000000000000000000000000000000000000002815260040180807f43616e63656c6c656400000000000000000000000000000000000000000000008152506020019050600060405180830381600087803b1580156122d757600080fd5b505af11580156122eb573d6000803e3d6000fd5b505050506001600083815260200190815260200160002060009054906101000a900473ffffffffffffffffffffffffffffffffffffffff1673ffffffffffffffffffffffffffffffffffffffff1663109e94cf6040518163ffffffff167c010000000000000000000000000000000000000000000000000000000002815260040160206040518083038186803b15801561238457600080fd5b505afa158015612398573d6000803e3d6000fd5b505050506040513d60208110156123ae57600080fd5b810190808051906020019092919050505073ffffffffffffffffffffffffffffffffffffffff166108fc60026001600086815260200190815260200160002060009054906101000a900473ffffffffffffffffffffffffffffffffffffffff1673ffffffffffffffffffffffffffffffffffffffff166392d09ceb6040518163ffffffff167c010000000000000000000000000000000000000000000000000000000002815260040160206040518083038186803b15801561246f57600080fd5b505afa158015612483573d6000803e3d6000fd5b505050506040513d602081101561249957600080fd5b81019080805190602001909291905050508115156124b357fe5b049081150290604051600060405180830381858888f193505050501580156124df573d6000803e3d6000fd5b506129a1565b6001600083815260200190815260200160002060009054906101000a900473ffffffffffffffffffffffffffffffffffffffff1673ffffffffffffffffffffffffffffffffffffffff16628df7976040518163ffffffff167c010000000000000000000000000000000000000000000000000000000002815260040180807f436f6d706c6574656400000000000000000000000000000000000000000000008152506020019050600060405180830381600087803b1580156125a657600080fd5b505af11580156125ba573d6000803e3d6000fd5b505050506001600083815260200190815260200160002060009054906101000a900473ffffffffffffffffffffffffffffffffffffffff1673ffffffffffffffffffffffffffffffffffffffff1663085d48836040518163ffffffff167c010000000000000000000000000000000000000000000000000000000002815260040160206040518083038186803b15801561265357600080fd5b505afa158015612667573d6000803e3d6000fd5b505050506040513d602081101561267d57600080fd5b810190808051906020019092919050505073ffffffffffffffffffffffffffffffffffffffff166108fc60026001600086815260200190815260200160002060009054906101000a900473ffffffffffffffffffffffffffffffffffffffff1673ffffffffffffffffffffffffffffffffffffffff166392d09ceb6040518163ffffffff167c010000000000000000000000000000000000000000000000000000000002815260040160206040518083038186803b15801561273e57600080fd5b505afa158015612752573d6000803e3d6000fd5b505050506040513d602081101561276857600080fd5b810190808051906020019092919050505081151561278257fe5b049081150290604051600060405180830381858888f193505050501580156127ae573d6000803e3d6000fd5b506001600083815260200190815260200160002060009054906101000a900473ffffffffffffffffffffffffffffffffffffffff1673ffffffffffffffffffffffffffffffffffffffff1663109e94cf6040518163ffffffff167c010000000000000000000000000000000000000000000000000000000002815260040160206040518083038186803b15801561284457600080fd5b505afa158015612858573d6000803e3d6000fd5b505050506040513d602081101561286e57600080fd5b810190808051906020019092919050505073ffffffffffffffffffffffffffffffffffffffff166108fc60026001600086815260200190815260200160002060009054906101000a900473ffffffffffffffffffffffffffffffffffffffff1673ffffffffffffffffffffffffffffffffffffffff166392d09ceb6040518163ffffffff167c010000000000000000000000000000000000000000000000000000000002815260040160206040518083038186803b15801561292f57600080fd5b505afa158015612943573d6000803e3d6000fd5b505050506040513d602081101561295957600080fd5b810190808051906020019092919050505081151561297357fe5b049081150290604051600060405180830381858888f1935050505015801561299f573d6000803e3d6000fd5b505b5b6129ab826103d2565b600073ffffffffffffffffffffffffffffffffffffffff166108fc600360009054906101000a900473ffffffffffffffffffffffffffffffffffffffff1673ffffffffffffffffffffffffffffffffffffffff16319081150290604051600060405180830381858888f19350505050158015612a2b573d6000803e3d6000fd5b505050565b6040516106b180612a418339019056fe608060405234801561001057600080fd5b5060405160a0806106b1833981018060405260a081101561003057600080fd5b810190808051906020019092919080519060200190929190805190602001909291908051906020019092919080519060200190929190505050846000806101000a81548173ffffffffffffffffffffffffffffffffffffffff021916908373ffffffffffffffffffffffffffffffffffffffff16021790555083600160006101000a81548173ffffffffffffffffffffffffffffffffffffffff021916908373ffffffffffffffffffffffffffffffffffffffff160217905550826002819055508160038190555080600481905550426005819055507f41637469766500000000000000000000000000000000000000000000000000006006819055505050505050610570806101416000396000f3fe6080604052600436106100cf576000357c0100000000000000000000000000000000000000000000000000000000900463ffffffff1680628df797146100d4578063085d48831461010f5780630ec3a87414610166578063109e94cf146101a15780631d80009a146101f85780633d4f04ad146102235780633e0a322d1461025e57806378e97925146102995780638526690a146102c457806391b7f5ed1461031557806392d09ceb14610350578063a035b1fe1461037b578063c19d93fb146103a6578063cfd8d6c0146103d1575b600080fd5b3480156100e057600080fd5b5061010d600480360360208110156100f757600080fd5b8101908080359060200190929190505050610422565b005b34801561011b57600080fd5b5061012461042c565b604051808273ffffffffffffffffffffffffffffffffffffffff1673ffffffffffffffffffffffffffffffffffffffff16815260200191505060405180910390f35b34801561017257600080fd5b5061019f6004803603602081101561018957600080fd5b8101908080359060200190929190505050610451565b005b3480156101ad57600080fd5b506101b661045b565b604051808273ffffffffffffffffffffffffffffffffffffffff1673ffffffffffffffffffffffffffffffffffffffff16815260200191505060405180910390f35b34801561020457600080fd5b5061020d610481565b6040518082815260200191505060405180910390f35b34801561022f57600080fd5b5061025c6004803603602081101561024657600080fd5b8101908080359060200190929190505050610487565b005b34801561026a57600080fd5b506102976004803603602081101561028157600080fd5b8101908080359060200190929190505050610491565b005b3480156102a557600080fd5b506102ae61049b565b6040518082815260200191505060405180910390f35b3480156102d057600080fd5b50610313600480360360208110156102e757600080fd5b81019080803573ffffffffffffffffffffffffffffffffffffffff1690602001909291905050506104a1565b005b34801561032157600080fd5b5061034e6004803603602081101561033857600080fd5b81019080803590602001909291905050506104e5565b005b34801561035c57600080fd5b506103656104ef565b6040518082815260200191505060405180910390f35b34801561038757600080fd5b506103906104f5565b6040518082815260200191505060405180910390f35b3480156103b257600080fd5b506103bb6104fb565b6040518082815260200191505060405180910390f35b3480156103dd57600080fd5b50610420600480360360208110156103f457600080fd5b81019080803573ffffffffffffffffffffffffffffffffffffffff169060200190929190505050610501565b005b8060068190555050565b6000809054906101000a900473ffffffffffffffffffffffffffffffffffffffff1681565b8060028190555050565b600160009054906101000a900473ffffffffffffffffffffffffffffffffffffffff1681565b60025481565b8060038190555050565b8060058190555050565b60055481565b80600160006101000a81548173ffffffffffffffffffffffffffffffffffffffff021916908373ffffffffffffffffffffffffffffffffffffffff16021790555050565b8060048190555050565b60035481565b60045481565b60065481565b806000806101000a81548173ffffffffffffffffffffffffffffffffffffffff021916908373ffffffffffffffffffffffffffffffffffffffff1602179055505056fea165627a7a7230582067139f6c00a128f778dcb0c089c703b33cd707455dd59813a3ab6d4b476dae640029a165627a7a72305820d895037f45479c37686a224a4982b3f508497854ce4534e1bc47747570d9e8dd0029",
  "source": "pragma solidity ^0.5.0;\n//pragma experimental ABIEncoderV2; //Need to be specified so that functions can return structs. Not necessary, will be removed after testing phase.\nimport \"./Contract.sol\";\n\ncontract executorContract{\n\n\tuint private id = 0; //May need id for multiple contracts between multiple parties\n\tmapping(uint => Contract) public contracts;\n\tmapping(uint => uint) public paymentTime;\n\taddress contractAddress = address(this);\n\n\t/* Function that initiates a contract between a client and a provider, with all the information\n\t** specified. For the contract to be successfully initiated, the collateral amount specified in\n\t** in the arguments of the call must be first transferred to the contract's address.\n\t*/\n\tfunction init(address payable provider, address payable client, uint rootHash, uint collateralAmount, uint price)\n\tpublic\n\treturns (bytes32 initMessage)\n\t{\n\t\tcontracts[id] = new Contract(provider, client, rootHash, collateralAmount, price);\n\t\tpaymentTime[id] = now;\n\t\tid++;\n\t\tinitMessage = \"Initialization successfull.\";\n\t}\n\n\t/* Function that returns all the information about the contract,\n\t** if one is initialized.\n\t*/\n\tfunction getContractInfo(uint _id)\n\tpublic\n\tview\n\treturns(address payable tempProvider,uint tempPrice, bytes32 infoMessage, uint tempTime, uint temppTime, bytes32 tempState)\n\t{\n\t\tif (contracts[_id].provider() != 0x0000000000000000000000000000000000000000){\n\t\t\ttempProvider = contracts[_id].provider();\n\t\t\ttempTime = contracts[_id].startTime();\n\t\t\ttempPrice = contracts[_id].price();\n\t\t\ttemppTime = paymentTime[_id];\n\t\t\ttempState = contracts[_id].state();\n\t\t\tinfoMessage = \"OK\";\n\t\t}\n\t\telse \n\t\t{\n\t\t\tif (contracts[_id].state() == \"Invalid\")\n\t\t\t{\n\t\t\t\ttempProvider = contracts[_id].provider();\n\t\t\t\ttempTime = contracts[_id].startTime();\n\t\t\t\ttempPrice = contracts[_id].price();\n\t\t\t\ttemppTime = paymentTime[_id];\n\t\t\t\ttempState = contracts[_id].state();\n\t\t\t\tinfoMessage = \"Not enough funds.\";\n\t\t\t}\n\t\t\telse{\n\t\t\t\ttempProvider = contracts[_id].provider();\n\t\t\t\ttempTime = contracts[_id].startTime();\n\t\t\t\ttempPrice = contracts[_id].price();\n\t\t\t\ttemppTime = paymentTime[_id];\n\t\t\t\ttempState = contracts[_id].state();\n\t\t\t\tinfoMessage = \"No Contract initialized.\";\n\t\t\t}\n\t\t}\n\t}\n\n\t/* Function called by the provider to complete his payment. In order for the payment to be successfuly\n\t** completed, there should be at least one month passed from the last payment or the creation of the contract.\n\t** Additionally, the successfull completion of the payment, requires that the client has transferred the aggreed\n\t** price to the contract's address. \n\t*/\n\tfunction pay(uint _id)\n\tpublic\n\tpayable\n\treturns(bytes32 paymentMessage)\n\t{\n\n\t\tif (contracts[_id].state() == \"Active\" || contracts[_id].state() == \"Invalid\")\n\t\t{\n\t\t\tif (timeDif(_id) >= 1) //Check if 1 month has passed since last payment or the creation of the contract\n\t\t\t{\n\t\t\t\trequire(msg.value == contracts[_id].price());\n\t\t\t\tuint providerBalance = address(contracts[_id].provider()).balance;\n\t\t\t\t(contracts[_id].provider()).transfer(msg.value);\n\t\t \t\tif (address(contracts[_id].provider()).balance >= providerBalance + contracts[_id].price()) paymentTime[_id] = now; //If the payment is successfull, set the payment time to now.\n\t\t \t\telse {\n\t\t\t\t\tcontracts[_id].setState(\"Invalid\");\n\t\t\t\t\treturn \"Transaction failed\";\n\t\t\t\t}\t \n\t\t \t}\n\t\t\telse\n\t\t\t{\n\t\t\t\tpaymentMessage = \"Payments are made every 1 month.\";\n\t\t\t}\n\t\t\tpaymentMessage = \"Payment completed.\";\n\t\t}\n\t\telse\n\t\t{\n\t\t\tpaymentMessage = \"Contract is terminated.\";\n\t\t}\n\t}\n\n\n\t/* Function that terminates the contract. Half of the collateral amount specified in the\n\t** contract is return to the not culpable party if there is one. If the termination is mutual,\n\t** both parties take their Ether back. Finally, the contract is invalidated.\n\t*/\n\tfunction terminate(uint _id, bytes32 culpable) \n\tpublic\n\tpayable\n\t{\n\t\tif (culpable == \"CLIENT\") \n\t\t{\n\t\t\tcontracts[_id].setState(\"Cancelled\");\n\t\t\taddress(contracts[_id].provider()).transfer(contracts[_id].collateralAmount()/2);\n\t\t}\n\t\telse if (culpable == \"PROVIDER\")\n\t\t{\n\t\t\tcontracts[_id].setState(\"Cancelled\");\n\t\t\taddress(contracts[_id].client()).transfer(contracts[_id].collateralAmount()/2);\n\t\t}\n\t\telse \n\t\t{\n\t\t\tcontracts[_id].setState(\"Completed\");\n\t\t\taddress(contracts[_id].provider()).transfer(contracts[_id].collateralAmount()/2);\n\t\t\taddress(contracts[_id].client()).transfer(contracts[_id].collateralAmount()/2);\n\t\t}\n\t\tinvalidateContract(_id);\n\t\taddress(0x0000000000000000000000000000000000000000).transfer(contractAddress.balance); //Burn contract's ether and delete struct entry representing the covenant.\n\t}\n\n\t/* Function that calculates the time (in seconds) passed\n\t** since the startTime value of the contract.\n\t*/\n\tfunction timeDif(uint _id)\n\tpublic\n\tview \n\treturns(uint256)\n\t{\n\t\tuint256 duration = now - paymentTime[_id];\n\t\treturn duration;\n\t}\n\n\tfunction invalidateContract(uint _id)\n\tpublic\n\t{\n\t\tcontracts[_id].setProvider(0x0000000000000000000000000000000000000000);\n\t\tcontracts[_id].setClient(0x0000000000000000000000000000000000000000);\n\t\tcontracts[_id].setRootHash(0);\n\t\tcontracts[_id].setPrice(0);\n\t\tcontracts[_id].setCollateralAmount(0);\n\t\tcontracts[_id].setStartTime(0);\n\t}\n\n\t// Function that makes the contract able to accept payments\n\tfunction () external payable {\n\n\t}\n\n}\n",
  "sourcePath": "/home/canagno/ethChain/truffle/contracts/Executor.sol",
  "compiler": {
    "name": "solc",
    "version": "0.5.0+commit.1d4f565a.Emscripten.clang"
  },
  "schemaVersion": "3.0.1",
  "updatedAt": "2019-03-31T12:45:27.802Z",
  "devdoc": {
    "methods": {}
  },
  "userdoc": {
    "methods": {}
  }
}