{
  "contractName": "executorContract",
  "abi": [
    {
      "constant": true,
      "inputs": [
        {
          "name": "",
          "type": "uint256"
        }
      ],
      "name": "contracts",
      "outputs": [
        {
          "name": "",
          "type": "address"
        }
      ],
      "payable": false,
      "stateMutability": "view",
      "type": "function",
      "signature": "0x474da79a"
    },
    {
      "constant": true,
      "inputs": [],
      "name": "COMPLETED",
      "outputs": [
        {
          "name": "",
          "type": "uint8"
        }
      ],
      "payable": false,
      "stateMutability": "view",
      "type": "function",
      "signature": "0x4ce6c24a"
    },
    {
      "constant": true,
      "inputs": [],
      "name": "INVALID",
      "outputs": [
        {
          "name": "",
          "type": "uint8"
        }
      ],
      "payable": false,
      "stateMutability": "view",
      "type": "function",
      "signature": "0x7fcce2a9"
    },
    {
      "constant": true,
      "inputs": [],
      "name": "ACTIVE",
      "outputs": [
        {
          "name": "",
          "type": "uint8"
        }
      ],
      "payable": false,
      "stateMutability": "view",
      "type": "function",
      "signature": "0xc90bd047"
    },
    {
      "constant": true,
      "inputs": [
        {
          "name": "",
          "type": "uint256"
        }
      ],
      "name": "paymentTime",
      "outputs": [
        {
          "name": "",
          "type": "uint256"
        }
      ],
      "payable": false,
      "stateMutability": "view",
      "type": "function",
      "signature": "0xe6886ed8"
    },
    {
      "constant": true,
      "inputs": [],
      "name": "CANCELED",
      "outputs": [
        {
          "name": "",
          "type": "uint8"
        }
      ],
      "payable": false,
      "stateMutability": "view",
      "type": "function",
      "signature": "0xf2f4c1da"
    },
    {
      "payable": true,
      "stateMutability": "payable",
      "type": "fallback"
    },
    {
      "constant": false,
      "inputs": [
        {
          "name": "provider",
          "type": "address[]"
        },
        {
          "name": "client",
          "type": "address"
        },
        {
          "name": "rootHash",
          "type": "uint256"
        },
        {
          "name": "collateralAmount",
          "type": "uint256"
        },
        {
          "name": "price",
          "type": "uint256"
        }
      ],
      "name": "init",
      "outputs": [
        {
          "name": "initMessage",
          "type": "bytes32"
        }
      ],
      "payable": true,
      "stateMutability": "payable",
      "type": "function",
      "signature": "0xe8b9e6be"
    },
    {
      "constant": true,
      "inputs": [
        {
          "name": "_id",
          "type": "uint256"
        }
      ],
      "name": "getContractInfo",
      "outputs": [
        {
          "name": "tempProvider",
          "type": "address[]"
        },
        {
          "name": "tempPrice",
          "type": "uint256"
        },
        {
          "name": "infoMessage",
          "type": "bytes32"
        },
        {
          "name": "tempCollateral",
          "type": "uint256"
        },
        {
          "name": "tempTime",
          "type": "uint256"
        },
        {
          "name": "temppTime",
          "type": "uint256"
        },
        {
          "name": "tempState",
          "type": "uint8"
        }
      ],
      "payable": false,
      "stateMutability": "view",
      "type": "function",
      "signature": "0x8aa3e011"
    },
    {
      "constant": false,
      "inputs": [
        {
          "name": "_id",
          "type": "uint256"
        }
      ],
      "name": "pay",
      "outputs": [
        {
          "name": "paymentMessage",
          "type": "bytes32"
        }
      ],
      "payable": true,
      "stateMutability": "payable",
      "type": "function",
      "signature": "0xc290d691"
    },
    {
      "constant": false,
      "inputs": [
        {
          "name": "_id",
          "type": "uint256"
        },
        {
          "name": "_provider",
          "type": "address"
        }
      ],
      "name": "getVerification",
      "outputs": [
        {
          "name": "verificationMessage",
          "type": "bytes32"
        }
      ],
      "payable": false,
      "stateMutability": "nonpayable",
      "type": "function",
      "signature": "0x4ce7e545"
    },
    {
      "constant": false,
      "inputs": [
        {
          "name": "_id",
          "type": "uint256"
        }
      ],
      "name": "terminateCulpClient",
      "outputs": [
        {
          "name": "terminationMessage",
          "type": "bytes32"
        }
      ],
      "payable": true,
      "stateMutability": "payable",
      "type": "function",
      "signature": "0x29cbcedb"
    },
    {
      "constant": false,
      "inputs": [
        {
          "name": "_id",
          "type": "uint256"
        },
        {
          "name": "_provider",
          "type": "address"
        }
      ],
      "name": "terminateCulpProvider",
      "outputs": [
        {
          "name": "terminationMessage",
          "type": "bytes32"
        }
      ],
      "payable": true,
      "stateMutability": "payable",
      "type": "function",
      "signature": "0x6e2b8c89"
    },
    {
      "constant": false,
      "inputs": [
        {
          "name": "_id",
          "type": "uint256"
        }
      ],
      "name": "terminateMutual",
      "outputs": [
        {
          "name": "terminationMessage",
          "type": "bytes32"
        }
      ],
      "payable": true,
      "stateMutability": "payable",
      "type": "function",
      "signature": "0x39d46fd6"
    },
    {
      "constant": true,
      "inputs": [
        {
          "name": "_id",
          "type": "uint256"
        }
      ],
      "name": "timeDif",
      "outputs": [
        {
          "name": "",
          "type": "uint256"
        }
      ],
      "payable": false,
      "stateMutability": "view",
      "type": "function",
      "signature": "0xdeec16e9"
    },
    {
      "constant": false,
      "inputs": [
        {
          "name": "_id",
          "type": "uint256"
        }
      ],
      "name": "invalidateContract",
      "outputs": [],
      "payable": false,
      "stateMutability": "nonpayable",
      "type": "function",
      "signature": "0x59a48e46"
    }
  ],
  "bytecode": "0x60806040526000805534801561001457600080fd5b50613c61806100246000396000f3fe608060405260043610620000eb576000357c0100000000000000000000000000000000000000000000000000000000900463ffffffff16806329cbcedb14620000ed57806339d46fd61462000132578063474da79a14620001775780634ce6c24a14620001f65780634ce7e545146200022a57806359a48e46146200029d5780636e2b8c8914620002dc5780637fcce2a914620003415780638aa3e0111462000375578063c290d691146200043b578063c90bd0471462000480578063deec16e914620004b4578063e6886ed81462000507578063e8b9e6be146200055a578063f2f4c1da146200066a575b005b6200011c600480360360208110156200010557600080fd5b81019080803590602001909291905050506200069e565b6040518082815260200191505060405180910390f35b62000161600480360360208110156200014a57600080fd5b810190808035906020019092919050505062000a65565b6040518082815260200191505060405180910390f35b3480156200018457600080fd5b50620001b4600480360360208110156200019d57600080fd5b8101908080359060200190929190505050620010bb565b604051808273ffffffffffffffffffffffffffffffffffffffff1673ffffffffffffffffffffffffffffffffffffffff16815260200191505060405180910390f35b3480156200020357600080fd5b506200020e620010ee565b604051808260ff1660ff16815260200191505060405180910390f35b3480156200023757600080fd5b5062000287600480360360408110156200025057600080fd5b8101908080359060200190929190803573ffffffffffffffffffffffffffffffffffffffff169060200190929190505050620010f3565b6040518082815260200191505060405180910390f35b348015620002aa57600080fd5b50620002da60048036036020811015620002c357600080fd5b8101908080359060200190929190505050620011b2565b005b6200032b60048036036040811015620002f457600080fd5b8101908080359060200190929190803573ffffffffffffffffffffffffffffffffffffffff169060200190929190505050620011eb565b6040518082815260200191505060405180910390f35b3480156200034e57600080fd5b506200035962001880565b604051808260ff1660ff16815260200191505060405180910390f35b3480156200038257600080fd5b50620003b2600480360360208110156200039b57600080fd5b810190808035906020019092919050505062001885565b60405180806020018881526020018781526020018681526020018581526020018481526020018360ff1660ff168152602001828103825289818151815260200191508051906020019060200280838360005b838110156200042157808201518184015260208101905062000404565b505050509050019850505050505050505060405180910390f35b6200046a600480360360208110156200045357600080fd5b81019080803590602001909291905050506200271b565b6040518082815260200191505060405180910390f35b3480156200048d57600080fd5b506200049862002f37565b604051808260ff1660ff16815260200191505060405180910390f35b348015620004c157600080fd5b50620004f160048036036020811015620004da57600080fd5b810190808035906020019092919050505062002f3c565b6040518082815260200191505060405180910390f35b3480156200051457600080fd5b5062000544600480360360208110156200052d57600080fd5b810190808035906020019092919050505062002f60565b6040518082815260200191505060405180910390f35b62000654600480360360a08110156200057257600080fd5b81019080803590602001906401000000008111156200059057600080fd5b820183602082011115620005a357600080fd5b80359060200191846020830284011164010000000083111715620005c657600080fd5b919080806020026020016040519081016040528093929190818152602001838360200280828437600081840152601f19601f820116905080830192505050505050509192919290803573ffffffffffffffffffffffffffffffffffffffff16906020019092919080359060200190929190803590602001909291908035906020019092919050505062002f78565b6040518082815260200191505060405180910390f35b3480156200067757600080fd5b5062000682620031ab565b604051808260ff1660ff16815260200191505060405180910390f35b60006228206f620006af8362002f3c565b111562000a0e576001600083815260200190815260200160002060009054906101000a900473ffffffffffffffffffffffffffffffffffffffff1673ffffffffffffffffffffffffffffffffffffffff166356de96db60036040518263ffffffff167c0100000000000000000000000000000000000000000000000000000000028152600401808260ff1660ff168152602001915050600060405180830381600087803b1580156200076057600080fd5b505af115801562000775573d6000803e3d6000fd5b5050505060606001600084815260200190815260200160002060009054906101000a900473ffffffffffffffffffffffffffffffffffffffff1673ffffffffffffffffffffffffffffffffffffffff1663edc922a96040518163ffffffff167c010000000000000000000000000000000000000000000000000000000002815260040160006040518083038186803b1580156200081157600080fd5b505afa15801562000826573d6000803e3d6000fd5b505050506040513d6000823e3d601f19601f8201168201806040525060208110156200085157600080fd5b8101908080516401000000008111156200086a57600080fd5b828101905060208101848111156200088157600080fd5b81518560208202830111640100000000821117156200089f57600080fd5b5050929190505050905060008090505b815181101562000a06578181815181101515620008c857fe5b9060200190602002015173ffffffffffffffffffffffffffffffffffffffff166108fc83516001600088815260200190815260200160002060009054906101000a900473ffffffffffffffffffffffffffffffffffffffff1673ffffffffffffffffffffffffffffffffffffffff1663315deeaa6040518163ffffffff167c010000000000000000000000000000000000000000000000000000000002815260040160206040518083038186803b1580156200098357600080fd5b505afa15801562000998573d6000803e3d6000fd5b505050506040513d6020811015620009af57600080fd5b8101908080519060200190929190505050811515620009ca57fe5b049081150290604051600060405180830381858888f19350505050158015620009f7573d6000803e3d6000fd5b508080600101915050620008af565b505062000a32565b7f4e4f4b000000000000000000000000000000000000000000000000000000000090505b62000a3d82620011b2565b7f4f4b0000000000000000000000000000000000000000000000000000000000009050919050565b60006214103762000a768362002f3c565b1115156200108c576001600083815260200190815260200160002060009054906101000a900473ffffffffffffffffffffffffffffffffffffffff1673ffffffffffffffffffffffffffffffffffffffff166356de96db60046040518263ffffffff167c0100000000000000000000000000000000000000000000000000000000028152600401808260ff1660ff168152602001915050600060405180830381600087803b15801562000b2857600080fd5b505af115801562000b3d573d6000803e3d6000fd5b5050505060606001600084815260200190815260200160002060009054906101000a900473ffffffffffffffffffffffffffffffffffffffff1673ffffffffffffffffffffffffffffffffffffffff1663edc922a96040518163ffffffff167c010000000000000000000000000000000000000000000000000000000002815260040160006040518083038186803b15801562000bd957600080fd5b505afa15801562000bee573d6000803e3d6000fd5b505050506040513d6000823e3d601f19601f82011682018060405250602081101562000c1957600080fd5b81019080805164010000000081111562000c3257600080fd5b8281019050602081018481111562000c4957600080fd5b815185602082028301116401000000008211171562000c6757600080fd5b5050929190505050905060006001825101905060008090505b825181101562000e5d576228206f600360008781526020019081526020016000206000858481518110151562000cb257fe5b9060200190602002015173ffffffffffffffffffffffffffffffffffffffff1673ffffffffffffffffffffffffffffffffffffffff16815260200190815260200160002054420311151562000e4557828181518110151562000d1057fe5b9060200190602002015173ffffffffffffffffffffffffffffffffffffffff166108fc836001600089815260200190815260200160002060009054906101000a900473ffffffffffffffffffffffffffffffffffffffff1673ffffffffffffffffffffffffffffffffffffffff1663315deeaa6040518163ffffffff167c010000000000000000000000000000000000000000000000000000000002815260040160206040518083038186803b15801562000dca57600080fd5b505afa15801562000ddf573d6000803e3d6000fd5b505050506040513d602081101562000df657600080fd5b810190808051906020019092919050505081151562000e1157fe5b049081150290604051600060405180830381858888f1935050505015801562000e3e573d6000803e3d6000fd5b5062000e4f565b8180600190039250505b808060010191505062000c80565b506001600085815260200190815260200160002060009054906101000a900473ffffffffffffffffffffffffffffffffffffffff1673ffffffffffffffffffffffffffffffffffffffff166359dc735c6040518163ffffffff167c010000000000000000000000000000000000000000000000000000000002815260040160206040518083038186803b15801562000ef457600080fd5b505afa15801562000f09573d6000803e3d6000fd5b505050506040513d602081101562000f2057600080fd5b810190808051906020019092919050505073ffffffffffffffffffffffffffffffffffffffff166108fc826001600088815260200190815260200160002060009054906101000a900473ffffffffffffffffffffffffffffffffffffffff1673ffffffffffffffffffffffffffffffffffffffff1663315deeaa6040518163ffffffff167c010000000000000000000000000000000000000000000000000000000002815260040160206040518083038186803b15801562000fe157600080fd5b505afa15801562000ff6573d6000803e3d6000fd5b505050506040513d60208110156200100d57600080fd5b81019080805190602001909291905050508115156200102857fe5b049081150290604051600060405180830381858888f1935050505015801562001055573d6000803e3d6000fd5b507f4f4b00000000000000000000000000000000000000000000000000000000000092506200108484620011b2565b5050620010b5565b7f4e4f4b00000000000000000000000000000000000000000000000000000000009050620010b6565b5b919050565b60016020528060005260406000206000915054906101000a900473ffffffffffffffffffffffffffffffffffffffff1681565b600481565b60006001156200117b57426003600085815260200190815260200160002060008473ffffffffffffffffffffffffffffffffffffffff1673ffffffffffffffffffffffffffffffffffffffff168152602001908152602001600020819055507f4f4b0000000000000000000000000000000000000000000000000000000000009050620011ac565b620011878383620011eb565b507f4e4f4b000000000000000000000000000000000000000000000000000000000090505b92915050565b6001600082815260200190815260200160002060006101000a81549073ffffffffffffffffffffffffffffffffffffffff021916905550565b60006228206f6003600085815260200190815260200160002060008473ffffffffffffffffffffffffffffffffffffffff1673ffffffffffffffffffffffffffffffffffffffff168152602001908152602001600020544203111562001850576001156200127c577f4e4f4b000000000000000000000000000000000000000000000000000000000090506200184a565b6001600084815260200190815260200160002060009054906101000a900473ffffffffffffffffffffffffffffffffffffffff1673ffffffffffffffffffffffffffffffffffffffff166356de96db60036040518263ffffffff167c0100000000000000000000000000000000000000000000000000000000028152600401808260ff1660ff168152602001915050600060405180830381600087803b1580156200132657600080fd5b505af11580156200133b573d6000803e3d6000fd5b5050505060606001600085815260200190815260200160002060009054906101000a900473ffffffffffffffffffffffffffffffffffffffff1673ffffffffffffffffffffffffffffffffffffffff1663edc922a96040518163ffffffff167c010000000000000000000000000000000000000000000000000000000002815260040160006040518083038186803b158015620013d757600080fd5b505afa158015620013ec573d6000803e3d6000fd5b505050506040513d6000823e3d601f19601f8201168201806040525060208110156200141757600080fd5b8101908080516401000000008111156200143057600080fd5b828101905060208101848111156200144757600080fd5b81518560208202830111640100000000821117156200146557600080fd5b5050929190505050905060008090505b815181101562001814578373ffffffffffffffffffffffffffffffffffffffff168282815181101515620014a557fe5b9060200190602002015173ffffffffffffffffffffffffffffffffffffffff161415156200160d578181815181101515620014dc57fe5b9060200190602002015173ffffffffffffffffffffffffffffffffffffffff166108fc83516001600089815260200190815260200160002060009054906101000a900473ffffffffffffffffffffffffffffffffffffffff1673ffffffffffffffffffffffffffffffffffffffff1663315deeaa6040518163ffffffff167c010000000000000000000000000000000000000000000000000000000002815260040160206040518083038186803b1580156200159757600080fd5b505afa158015620015ac573d6000803e3d6000fd5b505050506040513d6020811015620015c357600080fd5b8101908080519060200190929190505050811515620015de57fe5b049081150290604051600060405180830381858888f193505050501580156200160b573d6000803e3d6000fd5b505b6001600086815260200190815260200160002060009054906101000a900473ffffffffffffffffffffffffffffffffffffffff1673ffffffffffffffffffffffffffffffffffffffff166359dc735c6040518163ffffffff167c010000000000000000000000000000000000000000000000000000000002815260040160206040518083038186803b158015620016a357600080fd5b505afa158015620016b8573d6000803e3d6000fd5b505050506040513d6020811015620016cf57600080fd5b810190808051906020019092919050505073ffffffffffffffffffffffffffffffffffffffff166108fc83516001600089815260200190815260200160002060009054906101000a900473ffffffffffffffffffffffffffffffffffffffff1673ffffffffffffffffffffffffffffffffffffffff1663315deeaa6040518163ffffffff167c010000000000000000000000000000000000000000000000000000000002815260040160206040518083038186803b1580156200179157600080fd5b505afa158015620017a6573d6000803e3d6000fd5b505050506040513d6020811015620017bd57600080fd5b8101908080519060200190929190505050811515620017d857fe5b049081150290604051600060405180830381858888f1935050505015801562001805573d6000803e3d6000fd5b50808060010191505062001475565b506200182084620011b2565b7f4f4b0000000000000000000000000000000000000000000000000000000000009150506200187a565b62001879565b7f4e4f4b000000000000000000000000000000000000000000000000000000000090506200187a565b5b92915050565b600281565b6060600080600080600080600073ffffffffffffffffffffffffffffffffffffffff16600160008a815260200190815260200160002060009054906101000a900473ffffffffffffffffffffffffffffffffffffffff1673ffffffffffffffffffffffffffffffffffffffff166359dc735c6040518163ffffffff167c010000000000000000000000000000000000000000000000000000000002815260040160206040518083038186803b1580156200193e57600080fd5b505afa15801562001953573d6000803e3d6000fd5b505050506040513d60208110156200196a57600080fd5b810190808051906020019092919050505073ffffffffffffffffffffffffffffffffffffffff1614151562001e5a576001600089815260200190815260200160002060009054906101000a900473ffffffffffffffffffffffffffffffffffffffff1673ffffffffffffffffffffffffffffffffffffffff1663edc922a96040518163ffffffff167c010000000000000000000000000000000000000000000000000000000002815260040160006040518083038186803b15801562001a2f57600080fd5b505afa15801562001a44573d6000803e3d6000fd5b505050506040513d6000823e3d601f19601f82011682018060405250602081101562001a6f57600080fd5b81019080805164010000000081111562001a8857600080fd5b8281019050602081018481111562001a9f57600080fd5b815185602082028301116401000000008211171562001abd57600080fd5b505092919050505096506001600089815260200190815260200160002060009054906101000a900473ffffffffffffffffffffffffffffffffffffffff1673ffffffffffffffffffffffffffffffffffffffff1663c828371e6040518163ffffffff167c010000000000000000000000000000000000000000000000000000000002815260040160206040518083038186803b15801562001b5d57600080fd5b505afa15801562001b72573d6000803e3d6000fd5b505050506040513d602081101562001b8957600080fd5b810190808051906020019092919050505092506001600089815260200190815260200160002060009054906101000a900473ffffffffffffffffffffffffffffffffffffffff1673ffffffffffffffffffffffffffffffffffffffff166398d5fdca6040518163ffffffff167c010000000000000000000000000000000000000000000000000000000002815260040160206040518083038186803b15801562001c3257600080fd5b505afa15801562001c47573d6000803e3d6000fd5b505050506040513d602081101562001c5e57600080fd5b81019080805190602001909291905050509550600260008981526020019081526020016000205491506001600089815260200190815260200160002060009054906101000a900473ffffffffffffffffffffffffffffffffffffffff1673ffffffffffffffffffffffffffffffffffffffff1663315deeaa6040518163ffffffff167c010000000000000000000000000000000000000000000000000000000002815260040160206040518083038186803b15801562001d1d57600080fd5b505afa15801562001d32573d6000803e3d6000fd5b505050506040513d602081101562001d4957600080fd5b810190808051906020019092919050505093506001600089815260200190815260200160002060009054906101000a900473ffffffffffffffffffffffffffffffffffffffff1673ffffffffffffffffffffffffffffffffffffffff16631865c57d6040518163ffffffff167c010000000000000000000000000000000000000000000000000000000002815260040160206040518083038186803b15801562001df257600080fd5b505afa15801562001e07573d6000803e3d6000fd5b505050506040513d602081101562001e1e57600080fd5b810190808051906020019092919050505090507f4f4b000000000000000000000000000000000000000000000000000000000000945062002710565b600260ff16600160008a815260200190815260200160002060009054906101000a900473ffffffffffffffffffffffffffffffffffffffff1673ffffffffffffffffffffffffffffffffffffffff16631865c57d6040518163ffffffff167c010000000000000000000000000000000000000000000000000000000002815260040160206040518083038186803b15801562001ef557600080fd5b505afa15801562001f0a573d6000803e3d6000fd5b505050506040513d602081101562001f2157600080fd5b810190808051906020019092919050505060ff16141562002328576001600089815260200190815260200160002060009054906101000a900473ffffffffffffffffffffffffffffffffffffffff1673ffffffffffffffffffffffffffffffffffffffff1663edc922a96040518163ffffffff167c010000000000000000000000000000000000000000000000000000000002815260040160006040518083038186803b15801562001fd257600080fd5b505afa15801562001fe7573d6000803e3d6000fd5b505050506040513d6000823e3d601f19601f8201168201806040525060208110156200201257600080fd5b8101908080516401000000008111156200202b57600080fd5b828101905060208101848111156200204257600080fd5b81518560208202830111640100000000821117156200206057600080fd5b505092919050505096506001600089815260200190815260200160002060009054906101000a900473ffffffffffffffffffffffffffffffffffffffff1673ffffffffffffffffffffffffffffffffffffffff1663c828371e6040518163ffffffff167c010000000000000000000000000000000000000000000000000000000002815260040160206040518083038186803b1580156200210057600080fd5b505afa15801562002115573d6000803e3d6000fd5b505050506040513d60208110156200212c57600080fd5b810190808051906020019092919050505092506001600089815260200190815260200160002060009054906101000a900473ffffffffffffffffffffffffffffffffffffffff1673ffffffffffffffffffffffffffffffffffffffff166398d5fdca6040518163ffffffff167c010000000000000000000000000000000000000000000000000000000002815260040160206040518083038186803b158015620021d557600080fd5b505afa158015620021ea573d6000803e3d6000fd5b505050506040513d60208110156200220157600080fd5b81019080805190602001909291905050509550600260008981526020019081526020016000205491506001600089815260200190815260200160002060009054906101000a900473ffffffffffffffffffffffffffffffffffffffff1673ffffffffffffffffffffffffffffffffffffffff16631865c57d6040518163ffffffff167c010000000000000000000000000000000000000000000000000000000002815260040160206040518083038186803b158015620022c057600080fd5b505afa158015620022d5573d6000803e3d6000fd5b505050506040513d6020811015620022ec57600080fd5b810190808051906020019092919050505090507f4e6f7420656e6f7567682066756e64732e00000000000000000000000000000094506200270f565b6001600089815260200190815260200160002060009054906101000a900473ffffffffffffffffffffffffffffffffffffffff1673ffffffffffffffffffffffffffffffffffffffff1663edc922a96040518163ffffffff167c010000000000000000000000000000000000000000000000000000000002815260040160006040518083038186803b158015620023be57600080fd5b505afa158015620023d3573d6000803e3d6000fd5b505050506040513d6000823e3d601f19601f820116820180604052506020811015620023fe57600080fd5b8101908080516401000000008111156200241757600080fd5b828101905060208101848111156200242e57600080fd5b81518560208202830111640100000000821117156200244c57600080fd5b505092919050505096506001600089815260200190815260200160002060009054906101000a900473ffffffffffffffffffffffffffffffffffffffff1673ffffffffffffffffffffffffffffffffffffffff1663c828371e6040518163ffffffff167c010000000000000000000000000000000000000000000000000000000002815260040160206040518083038186803b158015620024ec57600080fd5b505afa15801562002501573d6000803e3d6000fd5b505050506040513d60208110156200251857600080fd5b810190808051906020019092919050505092506001600089815260200190815260200160002060009054906101000a900473ffffffffffffffffffffffffffffffffffffffff1673ffffffffffffffffffffffffffffffffffffffff166398d5fdca6040518163ffffffff167c010000000000000000000000000000000000000000000000000000000002815260040160206040518083038186803b158015620025c157600080fd5b505afa158015620025d6573d6000803e3d6000fd5b505050506040513d6020811015620025ed57600080fd5b81019080805190602001909291905050509550600260008981526020019081526020016000205491506001600089815260200190815260200160002060009054906101000a900473ffffffffffffffffffffffffffffffffffffffff1673ffffffffffffffffffffffffffffffffffffffff16631865c57d6040518163ffffffff167c010000000000000000000000000000000000000000000000000000000002815260040160206040518083038186803b158015620026ac57600080fd5b505afa158015620026c1573d6000803e3d6000fd5b505050506040513d6020811015620026d857600080fd5b810190808051906020019092919050505090507f4e6f20436f6e747261637420696e697469616c697a65642e000000000000000094505b5b919395979092949650565b6000600160ff166001600084815260200190815260200160002060009054906101000a900473ffffffffffffffffffffffffffffffffffffffff1673ffffffffffffffffffffffffffffffffffffffff16631865c57d6040518163ffffffff167c010000000000000000000000000000000000000000000000000000000002815260040160206040518083038186803b158015620027b857600080fd5b505afa158015620027cd573d6000803e3d6000fd5b505050506040513d6020811015620027e457600080fd5b810190808051906020019092919050505060ff161480620028dd5750600260ff166001600084815260200190815260200160002060009054906101000a900473ffffffffffffffffffffffffffffffffffffffff1673ffffffffffffffffffffffffffffffffffffffff16631865c57d6040518163ffffffff167c010000000000000000000000000000000000000000000000000000000002815260040160206040518083038186803b1580156200289b57600080fd5b505afa158015620028b0573d6000803e3d6000fd5b505050506040513d6020811015620028c757600080fd5b810190808051906020019092919050505060ff16145b1562002f0a576228206f620028f28362002f3c565b10151562002edc57600180600084815260200190815260200160002060009054906101000a900473ffffffffffffffffffffffffffffffffffffffff1673ffffffffffffffffffffffffffffffffffffffff166398d5fdca6040518163ffffffff167c010000000000000000000000000000000000000000000000000000000002815260040160206040518083038186803b1580156200299157600080fd5b505afa158015620029a6573d6000803e3d6000fd5b505050506040513d6020811015620029bd57600080fd5b81019080805190602001909291905050500234141562002deb5760606001600084815260200190815260200160002060009054906101000a900473ffffffffffffffffffffffffffffffffffffffff1673ffffffffffffffffffffffffffffffffffffffff1663edc922a96040518163ffffffff167c010000000000000000000000000000000000000000000000000000000002815260040160006040518083038186803b15801562002a6f57600080fd5b505afa15801562002a84573d6000803e3d6000fd5b505050506040513d6000823e3d601f19601f82011682018060405250602081101562002aaf57600080fd5b81019080805164010000000081111562002ac857600080fd5b8281019050602081018481111562002adf57600080fd5b815185602082028301116401000000008211171562002afd57600080fd5b5050929190505050905060008090505b815181101562002de3576000828281518110151562002b2857fe5b90602001906020020151905060008173ffffffffffffffffffffffffffffffffffffffff163190508173ffffffffffffffffffffffffffffffffffffffff166108fc85513481151562002b7757fe5b049081150290604051600060405180830381858888f1935050505015801562002ba4573d6000803e3d6000fd5b5083516001600088815260200190815260200160002060009054906101000a900473ffffffffffffffffffffffffffffffffffffffff1673ffffffffffffffffffffffffffffffffffffffff166398d5fdca6040518163ffffffff167c010000000000000000000000000000000000000000000000000000000002815260040160206040518083038186803b15801562002c3d57600080fd5b505afa15801562002c52573d6000803e3d6000fd5b505050506040513d602081101562002c6957600080fd5b810190808051906020019092919050505081151562002c8457fe5b0481018273ffffffffffffffffffffffffffffffffffffffff163110151562002ce8574260026000888152602001908152602001600020819055507f5061796d656e74207375636365737366756c6c2e000000000000000000000000945062002dd3565b6001600087815260200190815260200160002060009054906101000a900473ffffffffffffffffffffffffffffffffffffffff1673ffffffffffffffffffffffffffffffffffffffff166356de96db60026040518263ffffffff167c0100000000000000000000000000000000000000000000000000000000028152600401808260ff1660ff168152602001915050600060405180830381600087803b15801562002d9257600080fd5b505af115801562002da7573d6000803e3d6000fd5b505050507f5472616e73616374696f6e206661696c656400000000000000000000000000009450600080fd5b5050808060010191505062002b0d565b505062002ed6565b6001600083815260200190815260200160002060009054906101000a900473ffffffffffffffffffffffffffffffffffffffff1673ffffffffffffffffffffffffffffffffffffffff166356de96db60026040518263ffffffff167c0100000000000000000000000000000000000000000000000000000000028152600401808260ff1660ff168152602001915050600060405180830381600087803b15801562002e9557600080fd5b505af115801562002eaa573d6000803e3d6000fd5b505050507f496e73756666696369656e74206f722065786365737369766520616d6f756e749050600080fd5b62002f04565b7f5061796d656e747320617265206d6164652065766572792031206d6f6e74682e9050600080fd5b62002f32565b7f436f6e7472616374206973207465726d696e617465642e0000000000000000009050600080fd5b919050565b600181565b60008060026000848152602001908152602001600020544203905080915050919050565b60026020528060005260406000206000915090505481565b6000600183023414156200317a57858585858562002f95620031b0565b80806020018673ffffffffffffffffffffffffffffffffffffffff1673ffffffffffffffffffffffffffffffffffffffff168152602001858152602001848152602001838152602001828103825287818151815260200191508051906020019060200280838360005b838110156200301b57808201518184015260208101905062002ffe565b505050509050019650505050505050604051809103906000f08015801562003047573d6000803e3d6000fd5b50600160008054815260200190815260200160002060006101000a81548173ffffffffffffffffffffffffffffffffffffffff021916908373ffffffffffffffffffffffffffffffffffffffff16021790555060008090505b8651811015620031265742600360008054815260200190815260200160002060008984815181101515620030d057fe5b9060200190602002015173ffffffffffffffffffffffffffffffffffffffff1673ffffffffffffffffffffffffffffffffffffffff168152602001908152602001600020819055508080600101915050620030a0565b504260026000805481526020019081526020016000208190555060008081548092919060010191905055507f496e697469616c697a6174696f6e207375636365737366756c6c2e00000000009050620031a2565b7f496e73756666696369656e74206f722065786365737369766520616d6f756e749050600080fd5b95945050505050565b600381565b604051610a7480620031c28339019056fe608060405234801561001057600080fd5b50604051610a74380380610a74833981018060405260a081101561003357600080fd5b81019080805164010000000081111561004b57600080fd5b8281019050602081018481111561006157600080fd5b815185602082028301116401000000008211171561007e57600080fd5b50509291906020018051906020019092919080519060200190929190805190602001909291908051906020019092919050505084600090805190602001906100c792919061014b565b5083600160006101000a81548173ffffffffffffffffffffffffffffffffffffffff021916908373ffffffffffffffffffffffffffffffffffffffff160217905550826002819055508160038190555080600481905550426005819055506001600660006101000a81548160ff021916908360ff1602179055505050505050610218565b8280548282559060005260206000209081019282156101c4579160200282015b828111156101c35782518260006101000a81548173ffffffffffffffffffffffffffffffffffffffff021916908373ffffffffffffffffffffffffffffffffffffffff1602179055509160200191906001019061016b565b5b5090506101d191906101d5565b5090565b61021591905b8082111561021157600081816101000a81549073ffffffffffffffffffffffffffffffffffffffff0219169055506001016101db565b5090565b90565b61084d806102276000396000f3fe6080604052600436106100fc576000357c0100000000000000000000000000000000000000000000000000000000900463ffffffff1680630ec3a874146101015780631865c57d1461013c578063315deeaa1461016d5780633d4f04ad146101985780633e0a322d146101d35780634ce6c24a1461020e57806356de96db1461023f57806359dc735c1461027d5780637fcce2a9146102d457806380759f1f146103055780638526690a1461033057806391b7f5ed1461038157806398d5fdca146103bc578063b316df77146103e7578063c828371e146104ac578063c90bd047146104d7578063edc922a914610508578063f2f4c1da14610574575b600080fd5b34801561010d57600080fd5b5061013a6004803603602081101561012457600080fd5b81019080803590602001909291905050506105a5565b005b34801561014857600080fd5b506101516105af565b604051808260ff1660ff16815260200191505060405180910390f35b34801561017957600080fd5b506101826105c6565b6040518082815260200191505060405180910390f35b3480156101a457600080fd5b506101d1600480360360208110156101bb57600080fd5b81019080803590602001909291905050506105d0565b005b3480156101df57600080fd5b5061020c600480360360208110156101f657600080fd5b81019080803590602001909291905050506105da565b005b34801561021a57600080fd5b506102236105e4565b604051808260ff1660ff16815260200191505060405180910390f35b34801561024b57600080fd5b5061027b6004803603602081101561026257600080fd5b81019080803560ff1690602001909291905050506105e9565b005b34801561028957600080fd5b50610292610607565b604051808273ffffffffffffffffffffffffffffffffffffffff1673ffffffffffffffffffffffffffffffffffffffff16815260200191505060405180910390f35b3480156102e057600080fd5b506102e9610631565b604051808260ff1660ff16815260200191505060405180910390f35b34801561031157600080fd5b5061031a610636565b6040518082815260200191505060405180910390f35b34801561033c57600080fd5b5061037f6004803603602081101561035357600080fd5b81019080803573ffffffffffffffffffffffffffffffffffffffff169060200190929190505050610640565b005b34801561038d57600080fd5b506103ba600480360360208110156103a457600080fd5b8101908080359060200190929190505050610684565b005b3480156103c857600080fd5b506103d161068e565b6040518082815260200191505060405180910390f35b3480156103f357600080fd5b506104aa6004803603602081101561040a57600080fd5b810190808035906020019064010000000081111561042757600080fd5b82018360208201111561043957600080fd5b8035906020019184602083028401116401000000008311171561045b57600080fd5b919080806020026020016040519081016040528093929190818152602001838360200280828437600081840152601f19601f820116905080830192505050505050509192919290505050610698565b005b3480156104b857600080fd5b506104c16106b2565b6040518082815260200191505060405180910390f35b3480156104e357600080fd5b506104ec6106bc565b604051808260ff1660ff16815260200191505060405180910390f35b34801561051457600080fd5b5061051d6106c1565b6040518080602001828103825283818151815260200191508051906020019060200280838360005b83811015610560578082015181840152602081019050610545565b505050509050019250505060405180910390f35b34801561058057600080fd5b5061058961074f565b604051808260ff1660ff16815260200191505060405180910390f35b8060028190555050565b6000600660009054906101000a900460ff16905090565b6000600354905090565b8060038190555050565b8060058190555050565b600481565b80600660006101000a81548160ff021916908360ff16021790555050565b6000600160009054906101000a900473ffffffffffffffffffffffffffffffffffffffff16905090565b600281565b6000600254905090565b80600160006101000a81548173ffffffffffffffffffffffffffffffffffffffff021916908373ffffffffffffffffffffffffffffffffffffffff16021790555050565b8060048190555050565b6000600454905090565b80600090805190602001906106ae929190610754565b5050565b6000600554905090565b600181565b6060600080548060200260200160405190810160405280929190818152602001828054801561074557602002820191906000526020600020905b8160009054906101000a900473ffffffffffffffffffffffffffffffffffffffff1673ffffffffffffffffffffffffffffffffffffffff16815260200190600101908083116106fb575b5050505050905090565b600381565b8280548282559060005260206000209081019282156107cd579160200282015b828111156107cc5782518260006101000a81548173ffffffffffffffffffffffffffffffffffffffff021916908373ffffffffffffffffffffffffffffffffffffffff16021790555091602001919060010190610774565b5b5090506107da91906107de565b5090565b61081e91905b8082111561081a57600081816101000a81549073ffffffffffffffffffffffffffffffffffffffff0219169055506001016107e4565b5090565b9056fea165627a7a72305820a38a3badd61a314cdd905b06afddd630f55760d9f6aae9e279103f53b138773d0029a165627a7a723058203af772fc7ba54875d7f38c4ce3ebc967a156dd3560e4824d951b71547eb7372a0029",
  "source": "pragma solidity ^0.5.0;\nimport \"./Contract.sol\";\nimport \"./storage-proof.sol\";\n\ncontract executorContract{\n\n\t//Data Structures and id counter\n\tuint private id = 0;\n\tmapping(uint => Contract) public contracts;\n\tmapping(uint => uint) public paymentTime;\n\tmapping(uint => mapping(address => uint)) verifications;\n\n\t//State Constants\n\tuint8 constant public ACTIVE = 1;\n\tuint8 constant public INVALID = 2;\n\tuint8 constant public CANCELED = 3;\n\tuint8 constant public COMPLETED = 4;\n\t\n\tfunction init(address payable[] memory provider, address payable client, uint rootHash, uint collateralAmount, uint price)\n\tpublic\n\tpayable\n\treturns (bytes32 initMessage)\n\t{\n\t\tif (msg.value == collateralAmount * 1 wei){\n\t\t\tcontracts[id] = new Contract(provider, client, rootHash, collateralAmount, price);\n\t\t\tfor (uint i = 0; i < provider.length; i++){\n\t\t\t\tverifications[id][provider[i]] = now; \t\n\t\t\t}\n\t\t\tpaymentTime[id] = now;\n\t\t\tid++;\n\t\t\tinitMessage = \"Initialization successfull.\";\n\t\t}\n\t\telse {\n\t\t\tinitMessage = \"Insufficient or excessive amount\";\n\t\t\trevert();\n\t\t}\n\t}\n\n\tfunction getContractInfo(uint _id)\n\tpublic\n\tview\n\treturns(address payable[] memory tempProvider,uint tempPrice, bytes32 infoMessage, uint tempCollateral, uint tempTime, uint temppTime, uint8 tempState)\n\t{\n\t\tif (contracts[_id].getClient() != 0x0000000000000000000000000000000000000000){\n\t\t\ttempProvider = contracts[_id].getProviders();\n\t\t\ttempTime = contracts[_id].getStartTime();\n\t\t\ttempPrice = contracts[_id].getPrice();\n\t\t\ttemppTime = paymentTime[_id];\n\t\t\ttempCollateral = contracts[_id].getCollateralAmount();\n\t\t\ttempState = contracts[_id].getState();\n\t\t\tinfoMessage = \"OK\";\n\t\t}\n\t\telse \n\t\t{\n\t\t\tif (contracts[_id].getState() == INVALID)\n\t\t\t{\n\t\t\t\ttempProvider = contracts[_id].getProviders();\n\t\t\t\ttempTime = contracts[_id].getStartTime();\n\t\t\t\ttempPrice = contracts[_id].getPrice();\n\t\t\t\ttemppTime = paymentTime[_id];\n\t\t\t\ttempState = contracts[_id].getState();\n\t\t\t\tinfoMessage = \"Not enough funds.\";\n\t\t\t}\n\t\t\telse{\n\t\t\t\ttempProvider = contracts[_id].getProviders();\n\t\t\t\ttempTime = contracts[_id].getStartTime();\n\t\t\t\ttempPrice = contracts[_id].getPrice();\n\t\t\t\ttemppTime = paymentTime[_id];\n\t\t\t\ttempState = contracts[_id].getState();\n\t\t\t\tinfoMessage = \"No Contract initialized.\";\n\t\t\t}\n\t\t}\n\t}\n\n\tfunction pay(uint _id)\n\tpublic\n\tpayable\n\treturns(bytes32 paymentMessage)\n\t{\n\t\tif (contracts[_id].getState() == ACTIVE || contracts[_id].getState() == INVALID)\n\t\t{\n\t\t\tif (timeDif(_id) >= 2629743) //Check if 1 month has passed since last payment or the creation of the contract\n\t\t\t{\n\t\t\t\tif(msg.value == contracts[_id].getPrice() * 1 wei){\n\t\t\t\t\taddress payable[] memory provs = contracts[_id].getProviders();\n\t\t\t\t\tfor (uint i=0; i < provs.length; i++){\n\t\t\t\t\t\taddress payable currProv = provs[i];\n\t\t\t\t\t\tuint providerBalance = currProv.balance;\n\t\t\t\t\t\tcurrProv.transfer(msg.value / provs.length);\n\t\t\t\t\t\tif (currProv.balance >= providerBalance + (contracts[_id].getPrice() / provs.length)){\n\t\t\t\t\t\t\tpaymentTime[_id] = now; //If the payment is successfull, set the payment time to now.\n\t\t\t\t\t\t\tpaymentMessage = \"Payment successfull.\";\n\t\t\t\t\t\t}\n\t\t\t\t\t\telse {\n\t\t\t\t\t\t\tcontracts[_id].setState(INVALID);\n\t\t\t\t\t\t\tpaymentMessage = \"Transaction failed\";\n\t\t\t\t\t\t\trevert();\n\t\t\t\t\t\t}\n\t\t\t\t\t}\n\t\t\t\t}\n\t\t\t\telse{\n\t\t\t\t\tcontracts[_id].setState(INVALID);\n\t\t\t\t\tpaymentMessage = \"Insufficient or excessive amount\";\n\t\t\t\t\trevert();\n\t\t\t\t}\n\t\t \t}\n\t\t\telse\n\t\t\t{\n\t\t\t\tpaymentMessage = \"Payments are made every 1 month.\";\n\t\t\t\trevert();\n\t\t\t}\n\t\t}\n\t\telse\n\t\t{\n\t\t\tpaymentMessage = \"Contract is terminated.\";\n\t\t\trevert();\n\t\t}\n\t}\n\n\tfunction getVerification(uint _id, address payable _provider/*, bytes memory _leaf, bytes32[] memory _nodeHashes, bool[] memory _nodeOrientations*/)\n\tpublic\n\treturns(bytes32 verificationMessage)\n\t{\n\t\tif (/* && verify(contracts[_id].rootHash(), _leaf, _nodeHashes, _nodeOrientations)*/ true){\n\t\t\tverifications[_id][_provider] = now;\n\t\t\tverificationMessage = \"OK\";\n\t\t}\n\t\telse{\n\t\t\tterminateCulpProvider(_id, _provider/*, bytes memory _leaf, bytes32[] memory _nodeHashes, bool[] memory _nodeOrientations*/);\n\t\tverificationMessage = \"NOK\";\n\t\t}\n\t}\n\n\tfunction terminateCulpClient(uint _id/*, bytes memory _leaf, bytes32[] memory _nodeHashes, bool[] memory _nodeOrientations*/) \n\tpublic\n\tpayable\n\treturns(bytes32 terminationMessage)\n\t{\n\t\tif (timeDif(_id) > 2629743) \n\t\t{\n\t\t\tcontracts[_id].setState(CANCELED);\n\t\t\taddress payable[] memory provs = contracts[_id].getProviders();\n\t\t\tfor (uint i = 0; i < provs.length; i++){\n\t\t\t\tprovs[i].transfer(contracts[_id].getCollateralAmount()/provs.length);\n\t\t\t}\n\t\t}\n\t\telse\n\t\t{\n\t\t\tterminationMessage = \"NOK\";\n\t\t}\n\t\tinvalidateContract(_id);\n\t\treturn \"OK\";\n\t}\n\n\tfunction terminateCulpProvider(uint _id, address payable _provider/*, bytes memory _leaf, bytes32[] memory _nodeHashes, bool[] memory _nodeOrientations*/) \n\tpublic\n\tpayable\n\treturns(bytes32 terminationMessage)\n\t{\n\t\tif ((now - verifications[_id][_provider]) > 2629743) \n\t\t{\n\t\t\tif (/* && verify(contracts[_id].rootHash(), _leaf, _nodeHashes, _nodeOrientations)*/ true){\n\t\t\t\tterminationMessage = \"NOK\";\n\t\t\t}\n\t\t\telse{\n\t\t\t\tcontracts[_id].setState(CANCELED);\n\t\t\t\taddress payable[] memory provs = contracts[_id].getProviders();\n\t\t\t\tfor (uint i = 0; i < provs.length; i++){\n\t\t\t\t\tif (provs[i] != _provider){\t\n\t\t\t\t\t\tprovs[i].transfer(contracts[_id].getCollateralAmount()/(provs.length));\n\t\t\t\t\t}\n\t\t\t\t\taddress(contracts[_id].getClient()).transfer(contracts[_id].getCollateralAmount()/(provs.length));\n\t\t\t\t}\n\t\t\t\tinvalidateContract(_id);\n\t\t\t\treturn \"OK\";\n\t\t\t}\n\t\t}\n\t\telse\n\t\t{\n\t\t\treturn \"NOK\";\n\t\t}\t\n\t}\n\n\tfunction terminateMutual(uint _id/*, bytes memory _leaf, bytes32[] memory _nodeHashes, bool[] memory _nodeOrientations*/) \n\tpublic\n\tpayable\n\treturns(bytes32 terminationMessage)\n\t{\n\t\tif (timeDif(_id) <= 1314871){\n\t\t\tcontracts[_id].setState(COMPLETED);\n\t\t\taddress payable[] memory provs = contracts[_id].getProviders();\n\t\t\tuint splitCount = provs.length + 1;\n\t\t\tfor (uint i = 0; i < provs.length; i++){\n\t\t\t\tif ((now - verifications[_id][provs[i]]) <= 2629743/* || verify(contracts[_id].rootHash(), _leaf, _nodeHashes, _nodeOrientations)*/){\n\t\t\t\t\tprovs[i].transfer(contracts[_id].getCollateralAmount()/splitCount);\n\t\t\t\t}\n\t\t\t\telse{\n\t\t\t\t\tsplitCount--;\n\t\t\t\t}\n\t\t\t}\n\t\t\taddress(contracts[_id].getClient()).transfer(contracts[_id].getCollateralAmount()/splitCount);\n\t\t\tterminationMessage = \"OK\";\n\t\t\tinvalidateContract(_id);\n\t\t}\n\t\telse {\n\t\t\treturn \"NOK\";\n\t\t}\n\t}\n\n\tfunction timeDif(uint _id)\n\tpublic\n\tview \n\treturns(uint256)\n\t{\n\t\tuint256 duration = now - paymentTime[_id];\n\t\treturn duration;\n\t}\n\n\tfunction invalidateContract(uint _id)\n\tpublic\n\t{\n\t\tdelete contracts[_id];\n\t}\n\n\t// Function that makes the contract able to accept payments\n\tfunction () external payable {\n\n\t}\n}\n",
  "sourcePath": "/home/canagno/ethChain/truffle/contracts/Executor.sol",
  "compiler": {
    "name": "solc",
    "version": "0.5.0+commit.1d4f565a.Emscripten.clang"
  },
  "schemaVersion": "3.0.1",
  "updatedAt": "2019-05-14T15:12:28.166Z",
  "devdoc": {
    "methods": {}
  },
  "userdoc": {
    "methods": {}
  }
}