{
  "contractName": "executorContract",
  "abi": [
    {
      "constant": true,
      "inputs": [
        {
          "name": "",
          "type": "uint256"
        }
      ],
      "name": "contracts",
      "outputs": [
        {
          "name": "",
          "type": "address"
        }
      ],
      "payable": false,
      "stateMutability": "view",
      "type": "function",
      "signature": "0x474da79a"
    },
    {
      "constant": true,
      "inputs": [
        {
          "name": "",
          "type": "uint256"
        }
      ],
      "name": "paymentTime",
      "outputs": [
        {
          "name": "",
          "type": "uint256"
        }
      ],
      "payable": false,
      "stateMutability": "view",
      "type": "function",
      "signature": "0xe6886ed8"
    },
    {
      "payable": true,
      "stateMutability": "payable",
      "type": "fallback"
    },
    {
      "constant": false,
      "inputs": [
        {
          "name": "provider",
          "type": "address[]"
        },
        {
          "name": "client",
          "type": "address"
        },
        {
          "name": "rootHash",
          "type": "uint256"
        },
        {
          "name": "collateralAmount",
          "type": "uint256"
        },
        {
          "name": "price",
          "type": "uint256"
        }
      ],
      "name": "init",
      "outputs": [
        {
          "name": "initMessage",
          "type": "bytes32"
        }
      ],
      "payable": true,
      "stateMutability": "payable",
      "type": "function",
      "signature": "0xe8b9e6be"
    },
    {
      "constant": true,
      "inputs": [
        {
          "name": "_id",
          "type": "uint256"
        }
      ],
      "name": "getContractInfo",
      "outputs": [
        {
          "name": "tempProvider",
          "type": "address[]"
        },
        {
          "name": "tempPrice",
          "type": "uint256"
        },
        {
          "name": "infoMessage",
          "type": "bytes32"
        },
        {
          "name": "tempCollateral",
          "type": "uint256"
        },
        {
          "name": "tempTime",
          "type": "uint256"
        },
        {
          "name": "temppTime",
          "type": "uint256"
        },
        {
          "name": "tempState",
          "type": "uint8"
        }
      ],
      "payable": false,
      "stateMutability": "view",
      "type": "function",
      "signature": "0x8aa3e011"
    },
    {
      "constant": false,
      "inputs": [
        {
          "name": "_id",
          "type": "uint256"
        }
      ],
      "name": "pay",
      "outputs": [
        {
          "name": "paymentMessage",
          "type": "bytes32"
        }
      ],
      "payable": true,
      "stateMutability": "payable",
      "type": "function",
      "signature": "0xc290d691"
    },
    {
      "constant": false,
      "inputs": [
        {
          "name": "_id",
          "type": "uint256"
        },
        {
          "name": "culpable",
          "type": "bytes32"
        }
      ],
      "name": "terminate",
      "outputs": [
        {
          "name": "terminationMessage",
          "type": "bytes32"
        }
      ],
      "payable": true,
      "stateMutability": "payable",
      "type": "function",
      "signature": "0xfb0fab3e"
    },
    {
      "constant": true,
      "inputs": [
        {
          "name": "_id",
          "type": "uint256"
        }
      ],
      "name": "timeDif",
      "outputs": [
        {
          "name": "",
          "type": "uint256"
        }
      ],
      "payable": false,
      "stateMutability": "view",
      "type": "function",
      "signature": "0xdeec16e9"
    },
    {
      "constant": false,
      "inputs": [
        {
          "name": "_id",
          "type": "uint256"
        }
      ],
      "name": "invalidateContract",
      "outputs": [],
      "payable": false,
      "stateMutability": "nonpayable",
      "type": "function",
      "signature": "0x59a48e46"
    }
  ],
  "bytecode": "0x60806040526000805534801561001457600080fd5b506138d2806100246000396000f3fe60806040526004361062000097576000357c0100000000000000000000000000000000000000000000000000000000900463ffffffff168063474da79a146200009957806359a48e4614620001185780638aa3e0111462000157578063c290d691146200021d578063deec16e91462000262578063e6886ed814620002b5578063e8b9e6be1462000308578063fb0fab3e1462000418575b005b348015620000a657600080fd5b50620000d660048036036020811015620000bf57600080fd5b810190808035906020019092919050505062000467565b604051808273ffffffffffffffffffffffffffffffffffffffff1673ffffffffffffffffffffffffffffffffffffffff16815260200191505060405180910390f35b3480156200012557600080fd5b5062000155600480360360208110156200013e57600080fd5b81019080803590602001909291905050506200049a565b005b3480156200016457600080fd5b5062000194600480360360208110156200017d57600080fd5b8101908080359060200190929190505050620009b2565b60405180806020018881526020018781526020018681526020018581526020018481526020018360ff1660ff168152602001828103825289818151815260200191508051906020019060200280838360005b8381101562000203578082015181840152602081019050620001e6565b505050509050019850505050505050505060405180910390f35b6200024c600480360360208110156200023557600080fd5b810190808035906020019092919050505062001845565b6040518082815260200191505060405180910390f35b3480156200026f57600080fd5b506200029f600480360360208110156200028857600080fd5b810190808035906020019092919050505062002038565b6040518082815260200191505060405180910390f35b348015620002c257600080fd5b50620002f260048036036020811015620002db57600080fd5b81019080803590602001909291905050506200205c565b6040518082815260200191505060405180910390f35b62000402600480360360a08110156200032057600080fd5b81019080803590602001906401000000008111156200033e57600080fd5b8201836020820111156200035157600080fd5b803590602001918460208302840111640100000000831117156200037457600080fd5b919080806020026020016040519081016040528093929190818152602001838360200280828437600081840152601f19601f820116905080830192505050505050509192919290803573ffffffffffffffffffffffffffffffffffffffff16906020019092919080359060200190929190803590602001909291908035906020019092919050505062002074565b6040518082815260200191505060405180910390f35b62000451600480360360408110156200043057600080fd5b8101908080359060200190929190803590602001909291905050506200222d565b6040518082815260200191505060405180910390f35b60016020528060005260406000206000915054906101000a900473ffffffffffffffffffffffffffffffffffffffff1681565b60606001600083815260200190815260200160002060009054906101000a900473ffffffffffffffffffffffffffffffffffffffff1673ffffffffffffffffffffffffffffffffffffffff1663b316df77826040518263ffffffff167c01000000000000000000000000000000000000000000000000000000000281526004018080602001828103825283818151815260200191508051906020019060200280838360005b838110156200055c5780820151818401526020810190506200053f565b5050505090500192505050600060405180830381600087803b1580156200058257600080fd5b505af115801562000597573d6000803e3d6000fd5b505050506001600083815260200190815260200160002060009054906101000a900473ffffffffffffffffffffffffffffffffffffffff1673ffffffffffffffffffffffffffffffffffffffff16638526690a60006040518263ffffffff167c0100000000000000000000000000000000000000000000000000000000028152600401808273ffffffffffffffffffffffffffffffffffffffff1673ffffffffffffffffffffffffffffffffffffffff168152602001915050600060405180830381600087803b1580156200066b57600080fd5b505af115801562000680573d6000803e3d6000fd5b505050506001600083815260200190815260200160002060009054906101000a900473ffffffffffffffffffffffffffffffffffffffff1673ffffffffffffffffffffffffffffffffffffffff16630ec3a87460006040518263ffffffff167c010000000000000000000000000000000000000000000000000000000002815260040180828152602001915050600060405180830381600087803b1580156200072857600080fd5b505af11580156200073d573d6000803e3d6000fd5b505050506001600083815260200190815260200160002060009054906101000a900473ffffffffffffffffffffffffffffffffffffffff1673ffffffffffffffffffffffffffffffffffffffff166391b7f5ed60006040518263ffffffff167c010000000000000000000000000000000000000000000000000000000002815260040180828152602001915050600060405180830381600087803b158015620007e557600080fd5b505af1158015620007fa573d6000803e3d6000fd5b505050506001600083815260200190815260200160002060009054906101000a900473ffffffffffffffffffffffffffffffffffffffff1673ffffffffffffffffffffffffffffffffffffffff16633d4f04ad60006040518263ffffffff167c010000000000000000000000000000000000000000000000000000000002815260040180828152602001915050600060405180830381600087803b158015620008a257600080fd5b505af1158015620008b7573d6000803e3d6000fd5b505050506001600083815260200190815260200160002060009054906101000a900473ffffffffffffffffffffffffffffffffffffffff1673ffffffffffffffffffffffffffffffffffffffff16633e0a322d60006040518263ffffffff167c010000000000000000000000000000000000000000000000000000000002815260040180828152602001915050600060405180830381600087803b1580156200095f57600080fd5b505af115801562000974573d6000803e3d6000fd5b505050506001600083815260200190815260200160002060006101000a81549073ffffffffffffffffffffffffffffffffffffffff02191690555050565b6060600080600080600080600073ffffffffffffffffffffffffffffffffffffffff16600160008a815260200190815260200160002060009054906101000a900473ffffffffffffffffffffffffffffffffffffffff1673ffffffffffffffffffffffffffffffffffffffff1663109e94cf6040518163ffffffff167c010000000000000000000000000000000000000000000000000000000002815260040160206040518083038186803b15801562000a6b57600080fd5b505afa15801562000a80573d6000803e3d6000fd5b505050506040513d602081101562000a9757600080fd5b810190808051906020019092919050505073ffffffffffffffffffffffffffffffffffffffff1614151562000f87576001600089815260200190815260200160002060009054906101000a900473ffffffffffffffffffffffffffffffffffffffff1673ffffffffffffffffffffffffffffffffffffffff1663edc922a96040518163ffffffff167c010000000000000000000000000000000000000000000000000000000002815260040160006040518083038186803b15801562000b5c57600080fd5b505afa15801562000b71573d6000803e3d6000fd5b505050506040513d6000823e3d601f19601f82011682018060405250602081101562000b9c57600080fd5b81019080805164010000000081111562000bb557600080fd5b8281019050602081018481111562000bcc57600080fd5b815185602082028301116401000000008211171562000bea57600080fd5b505092919050505096506001600089815260200190815260200160002060009054906101000a900473ffffffffffffffffffffffffffffffffffffffff1673ffffffffffffffffffffffffffffffffffffffff166378e979256040518163ffffffff167c010000000000000000000000000000000000000000000000000000000002815260040160206040518083038186803b15801562000c8a57600080fd5b505afa15801562000c9f573d6000803e3d6000fd5b505050506040513d602081101562000cb657600080fd5b810190808051906020019092919050505092506001600089815260200190815260200160002060009054906101000a900473ffffffffffffffffffffffffffffffffffffffff1673ffffffffffffffffffffffffffffffffffffffff1663a035b1fe6040518163ffffffff167c010000000000000000000000000000000000000000000000000000000002815260040160206040518083038186803b15801562000d5f57600080fd5b505afa15801562000d74573d6000803e3d6000fd5b505050506040513d602081101562000d8b57600080fd5b81019080805190602001909291905050509550600260008981526020019081526020016000205491506001600089815260200190815260200160002060009054906101000a900473ffffffffffffffffffffffffffffffffffffffff1673ffffffffffffffffffffffffffffffffffffffff166392d09ceb6040518163ffffffff167c010000000000000000000000000000000000000000000000000000000002815260040160206040518083038186803b15801562000e4a57600080fd5b505afa15801562000e5f573d6000803e3d6000fd5b505050506040513d602081101562000e7657600080fd5b810190808051906020019092919050505093506001600089815260200190815260200160002060009054906101000a900473ffffffffffffffffffffffffffffffffffffffff1673ffffffffffffffffffffffffffffffffffffffff1663c19d93fb6040518163ffffffff167c010000000000000000000000000000000000000000000000000000000002815260040160206040518083038186803b15801562000f1f57600080fd5b505afa15801562000f34573d6000803e3d6000fd5b505050506040513d602081101562000f4b57600080fd5b810190808051906020019092919050505090507f4f4b00000000000000000000000000000000000000000000000000000000000094506200183a565b6002600160008a815260200190815260200160002060009054906101000a900473ffffffffffffffffffffffffffffffffffffffff1673ffffffffffffffffffffffffffffffffffffffff1663c19d93fb6040518163ffffffff167c010000000000000000000000000000000000000000000000000000000002815260040160206040518083038186803b1580156200101f57600080fd5b505afa15801562001034573d6000803e3d6000fd5b505050506040513d60208110156200104b57600080fd5b810190808051906020019092919050505060ff16141562001452576001600089815260200190815260200160002060009054906101000a900473ffffffffffffffffffffffffffffffffffffffff1673ffffffffffffffffffffffffffffffffffffffff1663edc922a96040518163ffffffff167c010000000000000000000000000000000000000000000000000000000002815260040160006040518083038186803b158015620010fc57600080fd5b505afa15801562001111573d6000803e3d6000fd5b505050506040513d6000823e3d601f19601f8201168201806040525060208110156200113c57600080fd5b8101908080516401000000008111156200115557600080fd5b828101905060208101848111156200116c57600080fd5b81518560208202830111640100000000821117156200118a57600080fd5b505092919050505096506001600089815260200190815260200160002060009054906101000a900473ffffffffffffffffffffffffffffffffffffffff1673ffffffffffffffffffffffffffffffffffffffff166378e979256040518163ffffffff167c010000000000000000000000000000000000000000000000000000000002815260040160206040518083038186803b1580156200122a57600080fd5b505afa1580156200123f573d6000803e3d6000fd5b505050506040513d60208110156200125657600080fd5b810190808051906020019092919050505092506001600089815260200190815260200160002060009054906101000a900473ffffffffffffffffffffffffffffffffffffffff1673ffffffffffffffffffffffffffffffffffffffff1663a035b1fe6040518163ffffffff167c010000000000000000000000000000000000000000000000000000000002815260040160206040518083038186803b158015620012ff57600080fd5b505afa15801562001314573d6000803e3d6000fd5b505050506040513d60208110156200132b57600080fd5b81019080805190602001909291905050509550600260008981526020019081526020016000205491506001600089815260200190815260200160002060009054906101000a900473ffffffffffffffffffffffffffffffffffffffff1673ffffffffffffffffffffffffffffffffffffffff1663c19d93fb6040518163ffffffff167c010000000000000000000000000000000000000000000000000000000002815260040160206040518083038186803b158015620013ea57600080fd5b505afa158015620013ff573d6000803e3d6000fd5b505050506040513d60208110156200141657600080fd5b810190808051906020019092919050505090507f4e6f7420656e6f7567682066756e64732e000000000000000000000000000000945062001839565b6001600089815260200190815260200160002060009054906101000a900473ffffffffffffffffffffffffffffffffffffffff1673ffffffffffffffffffffffffffffffffffffffff1663edc922a96040518163ffffffff167c010000000000000000000000000000000000000000000000000000000002815260040160006040518083038186803b158015620014e857600080fd5b505afa158015620014fd573d6000803e3d6000fd5b505050506040513d6000823e3d601f19601f8201168201806040525060208110156200152857600080fd5b8101908080516401000000008111156200154157600080fd5b828101905060208101848111156200155857600080fd5b81518560208202830111640100000000821117156200157657600080fd5b505092919050505096506001600089815260200190815260200160002060009054906101000a900473ffffffffffffffffffffffffffffffffffffffff1673ffffffffffffffffffffffffffffffffffffffff166378e979256040518163ffffffff167c010000000000000000000000000000000000000000000000000000000002815260040160206040518083038186803b1580156200161657600080fd5b505afa1580156200162b573d6000803e3d6000fd5b505050506040513d60208110156200164257600080fd5b810190808051906020019092919050505092506001600089815260200190815260200160002060009054906101000a900473ffffffffffffffffffffffffffffffffffffffff1673ffffffffffffffffffffffffffffffffffffffff1663a035b1fe6040518163ffffffff167c010000000000000000000000000000000000000000000000000000000002815260040160206040518083038186803b158015620016eb57600080fd5b505afa15801562001700573d6000803e3d6000fd5b505050506040513d60208110156200171757600080fd5b81019080805190602001909291905050509550600260008981526020019081526020016000205491506001600089815260200190815260200160002060009054906101000a900473ffffffffffffffffffffffffffffffffffffffff1673ffffffffffffffffffffffffffffffffffffffff1663c19d93fb6040518163ffffffff167c010000000000000000000000000000000000000000000000000000000002815260040160206040518083038186803b158015620017d657600080fd5b505afa158015620017eb573d6000803e3d6000fd5b505050506040513d60208110156200180257600080fd5b810190808051906020019092919050505090507f4e6f20436f6e747261637420696e697469616c697a65642e000000000000000094505b5b919395979092949650565b6000600180600084815260200190815260200160002060009054906101000a900473ffffffffffffffffffffffffffffffffffffffff1673ffffffffffffffffffffffffffffffffffffffff1663c19d93fb6040518163ffffffff167c010000000000000000000000000000000000000000000000000000000002815260040160206040518083038186803b158015620018de57600080fd5b505afa158015620018f3573d6000803e3d6000fd5b505050506040513d60208110156200190a57600080fd5b810190808051906020019092919050505060ff16148062001a00575060026001600084815260200190815260200160002060009054906101000a900473ffffffffffffffffffffffffffffffffffffffff1673ffffffffffffffffffffffffffffffffffffffff1663c19d93fb6040518163ffffffff167c010000000000000000000000000000000000000000000000000000000002815260040160206040518083038186803b158015620019be57600080fd5b505afa158015620019d3573d6000803e3d6000fd5b505050506040513d6020811015620019ea57600080fd5b810190808051906020019092919050505060ff16145b156200200f57600162001a138362002038565b10151562001fe5576001600083815260200190815260200160002060009054906101000a900473ffffffffffffffffffffffffffffffffffffffff1673ffffffffffffffffffffffffffffffffffffffff1663a035b1fe6040518163ffffffff167c010000000000000000000000000000000000000000000000000000000002815260040160206040518083038186803b15801562001ab157600080fd5b505afa15801562001ac6573d6000803e3d6000fd5b505050506040513d602081101562001add57600080fd5b810190808051906020019092919050505034141562001ef75760606001600084815260200190815260200160002060009054906101000a900473ffffffffffffffffffffffffffffffffffffffff1673ffffffffffffffffffffffffffffffffffffffff1663edc922a96040518163ffffffff167c010000000000000000000000000000000000000000000000000000000002815260040160006040518083038186803b15801562001b8e57600080fd5b505afa15801562001ba3573d6000803e3d6000fd5b505050506040513d6000823e3d601f19601f82011682018060405250602081101562001bce57600080fd5b81019080805164010000000081111562001be757600080fd5b8281019050602081018481111562001bfe57600080fd5b815185602082028301116401000000008211171562001c1c57600080fd5b5050929190505050905060008090505b815181101562001eef576000828281518110151562001c4757fe5b90602001906020020151905060008173ffffffffffffffffffffffffffffffffffffffff163190508173ffffffffffffffffffffffffffffffffffffffff166108fc60019081150290604051600060405180830381858888f1935050505015801562001cb7573d6000803e3d6000fd5b5083516001600088815260200190815260200160002060009054906101000a900473ffffffffffffffffffffffffffffffffffffffff1673ffffffffffffffffffffffffffffffffffffffff1663a035b1fe6040518163ffffffff167c010000000000000000000000000000000000000000000000000000000002815260040160206040518083038186803b15801562001d5057600080fd5b505afa15801562001d65573d6000803e3d6000fd5b505050506040513d602081101562001d7c57600080fd5b810190808051906020019092919050505081151562001d9757fe5b0481018273ffffffffffffffffffffffffffffffffffffffff163110151562001dfb574260026000888152602001908152602001600020819055507f5061796d656e74207375636365737366756c6c2e000000000000000000000000945062001edf565b6001600087815260200190815260200160002060009054906101000a900473ffffffffffffffffffffffffffffffffffffffff1673ffffffffffffffffffffffffffffffffffffffff166356de96db60026040518263ffffffff167c0100000000000000000000000000000000000000000000000000000000028152600401808260ff168152602001915050600060405180830381600087803b15801562001ea257600080fd5b505af115801562001eb7573d6000803e3d6000fd5b505050507f5472616e73616374696f6e206661696c6564000000000000000000000000000094505b5050808060010191505062001c2c565b505062001fdf565b6001600083815260200190815260200160002060009054906101000a900473ffffffffffffffffffffffffffffffffffffffff1673ffffffffffffffffffffffffffffffffffffffff166356de96db60026040518263ffffffff167c0100000000000000000000000000000000000000000000000000000000028152600401808260ff168152602001915050600060405180830381600087803b15801562001f9e57600080fd5b505af115801562001fb3573d6000803e3d6000fd5b505050507f496e73756666696369656e74206f722065786365737369766520616d6f756e749050600080fd5b62002009565b7f5061796d656e747320617265206d6164652065766572792031206d6f6e74682e90505b62002033565b7f436f6e7472616374206973207465726d696e617465642e00000000000000000090505b919050565b60008060026000848152602001908152602001600020544203905080915050919050565b60026020528060005260406000206000915090505481565b6000600115620021e55785858585856200208d62002e79565b80806020018673ffffffffffffffffffffffffffffffffffffffff1673ffffffffffffffffffffffffffffffffffffffff168152602001858152602001848152602001838152602001828103825287818151815260200191508051906020019060200280838360005b8381101562002113578082015181840152602081019050620020f6565b505050509050019650505050505050604051809103906000f0801580156200213f573d6000803e3d6000fd5b50600160008054815260200190815260200160002060006101000a81548173ffffffffffffffffffffffffffffffffffffffff021916908373ffffffffffffffffffffffffffffffffffffffff1602179055504260026000805481526020019081526020016000208190555060008081548092919060010191905055507f496e697469616c697a6174696f6e207375636365737366756c6c2e0000000000905062002223565b60018302341015620021fb576000905062002224565b7f496e73756666696369656e74206f722065786365737369766520616d6f756e749050600080fd5b5b95945050505050565b60007f434c49454e540000000000000000000000000000000000000000000000000000821480156200226b57506228206f620022698462002038565b115b15620025c6576001600084815260200190815260200160002060009054906101000a900473ffffffffffffffffffffffffffffffffffffffff1673ffffffffffffffffffffffffffffffffffffffff166356de96db60036040518263ffffffff167c0100000000000000000000000000000000000000000000000000000000028152600401808260ff168152602001915050600060405180830381600087803b1580156200231857600080fd5b505af11580156200232d573d6000803e3d6000fd5b5050505060606001600085815260200190815260200160002060009054906101000a900473ffffffffffffffffffffffffffffffffffffffff1673ffffffffffffffffffffffffffffffffffffffff1663edc922a96040518163ffffffff167c010000000000000000000000000000000000000000000000000000000002815260040160006040518083038186803b158015620023c957600080fd5b505afa158015620023de573d6000803e3d6000fd5b505050506040513d6000823e3d601f19601f8201168201806040525060208110156200240957600080fd5b8101908080516401000000008111156200242257600080fd5b828101905060208101848111156200243957600080fd5b81518560208202830111640100000000821117156200245757600080fd5b5050929190505050905060008090505b8151811015620025be5781818151811015156200248057fe5b9060200190602002015173ffffffffffffffffffffffffffffffffffffffff166108fc83516001600089815260200190815260200160002060009054906101000a900473ffffffffffffffffffffffffffffffffffffffff1673ffffffffffffffffffffffffffffffffffffffff166392d09ceb6040518163ffffffff167c010000000000000000000000000000000000000000000000000000000002815260040160206040518083038186803b1580156200253b57600080fd5b505afa15801562002550573d6000803e3d6000fd5b505050506040513d60208110156200256757600080fd5b81019080805190602001909291905050508115156200258257fe5b049081150290604051600060405180830381858888f19350505050158015620025af573d6000803e3d6000fd5b50808060010191505062002467565b505062002e44565b7f50524f5649444552000000000000000000000000000000000000000000000000821415620028a1576001600084815260200190815260200160002060009054906101000a900473ffffffffffffffffffffffffffffffffffffffff1673ffffffffffffffffffffffffffffffffffffffff166356de96db60036040518263ffffffff167c0100000000000000000000000000000000000000000000000000000000028152600401808260ff168152602001915050600060405180830381600087803b1580156200269657600080fd5b505af1158015620026ab573d6000803e3d6000fd5b505050506001600084815260200190815260200160002060009054906101000a900473ffffffffffffffffffffffffffffffffffffffff1673ffffffffffffffffffffffffffffffffffffffff1663109e94cf6040518163ffffffff167c010000000000000000000000000000000000000000000000000000000002815260040160206040518083038186803b1580156200274557600080fd5b505afa1580156200275a573d6000803e3d6000fd5b505050506040513d60208110156200277157600080fd5b810190808051906020019092919050505073ffffffffffffffffffffffffffffffffffffffff166108fc6001600086815260200190815260200160002060009054906101000a900473ffffffffffffffffffffffffffffffffffffffff1673ffffffffffffffffffffffffffffffffffffffff166392d09ceb6040518163ffffffff167c010000000000000000000000000000000000000000000000000000000002815260040160206040518083038186803b1580156200283157600080fd5b505afa15801562002846573d6000803e3d6000fd5b505050506040513d60208110156200285d57600080fd5b81019080805190602001909291905050509081150290604051600060405180830381858888f193505050501580156200289a573d6000803e3d6000fd5b5062002e43565b600082148015620028bf575062141037620028bc8462002038565b11155b1562002e19576001600084815260200190815260200160002060009054906101000a900473ffffffffffffffffffffffffffffffffffffffff1673ffffffffffffffffffffffffffffffffffffffff166356de96db60046040518263ffffffff167c0100000000000000000000000000000000000000000000000000000000028152600401808260ff168152602001915050600060405180830381600087803b1580156200296c57600080fd5b505af115801562002981573d6000803e3d6000fd5b5050505060606001600085815260200190815260200160002060009054906101000a900473ffffffffffffffffffffffffffffffffffffffff1673ffffffffffffffffffffffffffffffffffffffff1663edc922a96040518163ffffffff167c010000000000000000000000000000000000000000000000000000000002815260040160006040518083038186803b15801562002a1d57600080fd5b505afa15801562002a32573d6000803e3d6000fd5b505050506040513d6000823e3d601f19601f82011682018060405250602081101562002a5d57600080fd5b81019080805164010000000081111562002a7657600080fd5b8281019050602081018481111562002a8d57600080fd5b815185602082028301116401000000008211171562002aab57600080fd5b5050929190505050905060008090505b815181101562002c1557818181518110151562002ad457fe5b9060200190602002015173ffffffffffffffffffffffffffffffffffffffff166108fc60018451016001600089815260200190815260200160002060009054906101000a900473ffffffffffffffffffffffffffffffffffffffff1673ffffffffffffffffffffffffffffffffffffffff166392d09ceb6040518163ffffffff167c010000000000000000000000000000000000000000000000000000000002815260040160206040518083038186803b15801562002b9257600080fd5b505afa15801562002ba7573d6000803e3d6000fd5b505050506040513d602081101562002bbe57600080fd5b810190808051906020019092919050505081151562002bd957fe5b049081150290604051600060405180830381858888f1935050505015801562002c06573d6000803e3d6000fd5b50808060010191505062002abb565b506001600085815260200190815260200160002060009054906101000a900473ffffffffffffffffffffffffffffffffffffffff1673ffffffffffffffffffffffffffffffffffffffff1663109e94cf6040518163ffffffff167c010000000000000000000000000000000000000000000000000000000002815260040160206040518083038186803b15801562002cac57600080fd5b505afa15801562002cc1573d6000803e3d6000fd5b505050506040513d602081101562002cd857600080fd5b810190808051906020019092919050505073ffffffffffffffffffffffffffffffffffffffff166108fc60018351016001600088815260200190815260200160002060009054906101000a900473ffffffffffffffffffffffffffffffffffffffff1673ffffffffffffffffffffffffffffffffffffffff166392d09ceb6040518163ffffffff167c010000000000000000000000000000000000000000000000000000000002815260040160206040518083038186803b15801562002d9d57600080fd5b505afa15801562002db2573d6000803e3d6000fd5b505050506040513d602081101562002dc957600080fd5b810190808051906020019092919050505081151562002de457fe5b049081150290604051600060405180830381858888f1935050505015801562002e11573d6000803e3d6000fd5b505062002e42565b7f4e4f4b0000000000000000000000000000000000000000000000000000000000905062002e73565b5b5b62002e4f836200049a565b7f4f4b00000000000000000000000000000000000000000000000000000000000090505b92915050565b604051610a1c8062002e8b8339019056fe608060405234801561001057600080fd5b50604051610a1c380380610a1c833981018060405260a081101561003357600080fd5b81019080805164010000000081111561004b57600080fd5b8281019050602081018481111561006157600080fd5b815185602082028301116401000000008211171561007e57600080fd5b50509291906020018051906020019092919080519060200190929190805190602001909291908051906020019092919050505084600090805190602001906100c792919061014b565b5083600160006101000a81548173ffffffffffffffffffffffffffffffffffffffff021916908373ffffffffffffffffffffffffffffffffffffffff160217905550826002819055508160038190555080600481905550426005819055506001600660006101000a81548160ff021916908360ff1602179055505050505050610218565b8280548282559060005260206000209081019282156101c4579160200282015b828111156101c35782518260006101000a81548173ffffffffffffffffffffffffffffffffffffffff021916908373ffffffffffffffffffffffffffffffffffffffff1602179055509160200191906001019061016b565b5b5090506101d191906101d5565b5090565b61021591905b8082111561021157600081816101000a81549073ffffffffffffffffffffffffffffffffffffffff0219169055506001016101db565b5090565b90565b6107f5806102276000396000f3fe6080604052600436106100db576000357c0100000000000000000000000000000000000000000000000000000000900463ffffffff1680630ec3a874146100e0578063109e94cf1461011b5780631d80009a146101725780633d4f04ad1461019d5780633e0a322d146101d857806352cc70c61461021357806356de96db1461028e57806378e97925146102cc5780638526690a146102f757806391b7f5ed1461034857806392d09ceb14610383578063a035b1fe146103ae578063b316df77146103d9578063c19d93fb1461049e578063edc922a9146104cf575b600080fd5b3480156100ec57600080fd5b506101196004803603602081101561010357600080fd5b810190808035906020019092919050505061053b565b005b34801561012757600080fd5b50610130610545565b604051808273ffffffffffffffffffffffffffffffffffffffff1673ffffffffffffffffffffffffffffffffffffffff16815260200191505060405180910390f35b34801561017e57600080fd5b5061018761056b565b6040518082815260200191505060405180910390f35b3480156101a957600080fd5b506101d6600480360360208110156101c057600080fd5b8101908080359060200190929190505050610571565b005b3480156101e457600080fd5b50610211600480360360208110156101fb57600080fd5b810190808035906020019092919050505061057b565b005b34801561021f57600080fd5b5061024c6004803603602081101561023657600080fd5b8101908080359060200190929190505050610585565b604051808273ffffffffffffffffffffffffffffffffffffffff1673ffffffffffffffffffffffffffffffffffffffff16815260200191505060405180910390f35b34801561029a57600080fd5b506102ca600480360360208110156102b157600080fd5b81019080803560ff1690602001909291905050506105c3565b005b3480156102d857600080fd5b506102e16105e1565b6040518082815260200191505060405180910390f35b34801561030357600080fd5b506103466004803603602081101561031a57600080fd5b81019080803573ffffffffffffffffffffffffffffffffffffffff1690602001909291905050506105e7565b005b34801561035457600080fd5b506103816004803603602081101561036b57600080fd5b810190808035906020019092919050505061062b565b005b34801561038f57600080fd5b50610398610635565b6040518082815260200191505060405180910390f35b3480156103ba57600080fd5b506103c361063b565b6040518082815260200191505060405180910390f35b3480156103e557600080fd5b5061049c600480360360208110156103fc57600080fd5b810190808035906020019064010000000081111561041957600080fd5b82018360208201111561042b57600080fd5b8035906020019184602083028401116401000000008311171561044d57600080fd5b919080806020026020016040519081016040528093929190818152602001838360200280828437600081840152601f19601f820116905080830192505050505050509192919290505050610641565b005b3480156104aa57600080fd5b506104b361065b565b604051808260ff1660ff16815260200191505060405180910390f35b3480156104db57600080fd5b506104e461066e565b6040518080602001828103825283818151815260200191508051906020019060200280838360005b8381101561052757808201518184015260208101905061050c565b505050509050019250505060405180910390f35b8060028190555050565b600160009054906101000a900473ffffffffffffffffffffffffffffffffffffffff1681565b60025481565b8060038190555050565b8060058190555050565b60008181548110151561059457fe5b906000526020600020016000915054906101000a900473ffffffffffffffffffffffffffffffffffffffff1681565b80600660006101000a81548160ff021916908360ff16021790555050565b60055481565b80600160006101000a81548173ffffffffffffffffffffffffffffffffffffffff021916908373ffffffffffffffffffffffffffffffffffffffff16021790555050565b8060048190555050565b60035481565b60045481565b80600090805190602001906106579291906106fc565b5050565b600660009054906101000a900460ff1681565b606060008054806020026020016040519081016040528092919081815260200182805480156106f257602002820191906000526020600020905b8160009054906101000a900473ffffffffffffffffffffffffffffffffffffffff1673ffffffffffffffffffffffffffffffffffffffff16815260200190600101908083116106a8575b5050505050905090565b828054828255906000526020600020908101928215610775579160200282015b828111156107745782518260006101000a81548173ffffffffffffffffffffffffffffffffffffffff021916908373ffffffffffffffffffffffffffffffffffffffff1602179055509160200191906001019061071c565b5b5090506107829190610786565b5090565b6107c691905b808211156107c257600081816101000a81549073ffffffffffffffffffffffffffffffffffffffff02191690555060010161078c565b5090565b9056fea165627a7a72305820b011fa8158a2b0005d5668819ca660b5539eb22e323774074387ec06933c56c30029a165627a7a723058204e58cccbd5d2485cecd1272ab78aa1b5f902b080e198a2e529277d66cd1ecff70029",
  "source": "pragma solidity ^0.5.0;\n//pragma experimental ABIEncoderV2; //Need to be specified so that functions can return structs. Not necessary, will be removed after testing phase.\nimport \"./Contract.sol\";\nimport \"./storage-proof.sol\";\n\ncontract executorContract{\n\n\tuint private id = 0; //May need id for multiple contracts between multiple parties\n\tmapping(uint => Contract) public contracts;\n\tmapping(uint => uint) public paymentTime;\n\n\n\tfunction init(address payable[] memory provider, address payable client, uint rootHash, uint collateralAmount, uint price)\n\tpublic\n\tpayable\n\treturns (bytes32 initMessage)\n\t{\n\t\t//if (msg.value/(1 wei) == collateralAmount){\n\t\tif (true){\n\t\t\tcontracts[id] = new Contract(provider, client, rootHash, collateralAmount, price);\n\t\t\tpaymentTime[id] = now;\n\t\t\tid++;\n\t\t\tinitMessage = \"Initialization successfull.\";\n\t\t}\n\t\telse if (msg.value < collateralAmount * 1 wei) return \"\";\n\t\telse {\n\t\t\tinitMessage = \"Insufficient or excessive amount\";\n\t\t\trevert();\n\t\t}\n\t}\n\n\t/* Function that returns all the information about the contract,\n\t** if one is initialized.\n\t*/\n\tfunction getContractInfo(uint _id)\n\tpublic\n\tview\n\treturns(address payable[] memory tempProvider,uint tempPrice, bytes32 infoMessage, uint tempCollateral, uint tempTime, uint temppTime, uint8 tempState)\n\t{\n\t\tif (contracts[_id].client() != 0x0000000000000000000000000000000000000000){\n\t\t\ttempProvider = contracts[_id].getProviders();\n\t\t\ttempTime = contracts[_id].startTime();\n\t\t\ttempPrice = contracts[_id].price();\n\t\t\ttemppTime = paymentTime[_id];\n\t\t\ttempCollateral = contracts[_id].collateralAmount();\n\t\t\ttempState = contracts[_id].state();\n\t\t\tinfoMessage = \"OK\";\n\t\t}\n\t\telse \n\t\t{\n\t\t\tif (contracts[_id].state() == 2)\n\t\t\t{\n\t\t\t\ttempProvider = contracts[_id].getProviders();\n\t\t\t\ttempTime = contracts[_id].startTime();\n\t\t\t\ttempPrice = contracts[_id].price();\n\t\t\t\ttemppTime = paymentTime[_id];\n\t\t\t\ttempState = contracts[_id].state();\n\t\t\t\tinfoMessage = \"Not enough funds.\";\n\t\t\t}\n\t\t\telse{\n\t\t\t\ttempProvider = contracts[_id].getProviders();\n\t\t\t\ttempTime = contracts[_id].startTime();\n\t\t\t\ttempPrice = contracts[_id].price();\n\t\t\t\ttemppTime = paymentTime[_id];\n\t\t\t\ttempState = contracts[_id].state();\n\t\t\t\tinfoMessage = \"No Contract initialized.\";\n\t\t\t}\n\t\t}\n\t}\n\n\t/* Function called by the client to pay the specified price in the contract. The payment is being made to the contract, which then transfers the amount to\n\t*  the provider. The contract needs to either be Active or Invalid, and 1 month must have passed since the last payment.\n\t*/\n\tfunction pay(uint _id)\n\tpublic\n\tpayable\n\treturns(bytes32 paymentMessage)\n\t{\n\n\t\tif (contracts[_id].state() == 1 || contracts[_id].state() == 2)\n\t\t{\n\t\t\tif (timeDif(_id) >= 1) //Check if 1 month has passed since last payment or the creation of the contract\n\t\t\t{\n\t\t\t\tif(msg.value == contracts[_id].price()){\n\t\t\t\t\taddress payable[] memory provs = contracts[_id].getProviders();\n\t\t\t\t\tfor (uint i=0; i < provs.length; i++){\n\t\t\t\t\t\taddress payable currProv = provs[i];\n\t\t\t\t\t\tuint providerBalance = currProv.balance;\n\t\t\t\t\t\t//currProv.transfer(msg.value / provs.length);\n\t\t\t\t\t\tcurrProv.transfer(1 wei);\n\t\t\t\t\t\tif (currProv.balance >= providerBalance + (contracts[_id].price() / provs.length)){\n\t\t\t\t\t\t\tpaymentTime[_id] = now; //If the payment is successfull, set the payment time to now.\n\t\t\t\t\t\t\tpaymentMessage = \"Payment successfull.\";\n\t\t\t\t\t\t}\n\t\t\t\t\t\telse {\n\t\t\t\t\t\t\tcontracts[_id].setState(2);\n\t\t\t\t\t\t\tpaymentMessage = \"Transaction failed\";\n\t\t\t\t\t\t}\n\t\t\t\t\t}\n\t\t\t\t}\n\t\t\t\telse{\n\t\t\t\t\tcontracts[_id].setState(2);\n\t\t\t\t\tpaymentMessage = \"Insufficient or excessive amount\";\n\t\t\t\t\trevert();\n\t\t\t\t}\n\t\t \t}\n\t\t\telse\n\t\t\t{\n\t\t\t\tpaymentMessage = \"Payments are made every 1 month.\";\n\t\t\t}\n\t\t}\n\t\telse\n\t\t{\n\t\t\tpaymentMessage = \"Contract is terminated.\";\n\t\t}\n\t}\n\n\tfunction terminate(uint _id, bytes32 culpable) \n\tpublic\n\tpayable\n\treturns(bytes32 terminationMessage)\n\t{\n\t\tif (culpable == \"CLIENT\"  && timeDif(_id) > 2629743) \n\t\t{\n\t\t\tcontracts[_id].setState(3);\n\t\t\taddress payable[] memory provs = contracts[_id].getProviders();\n\t\t\tfor (uint i = 0; i < provs.length; i++){\n\t\t\t\tprovs[i].transfer(contracts[_id].collateralAmount()/provs.length);\n\t\t\t}\n\t\t}\n\t\telse if (culpable == \"PROVIDER\" /*&& verify(rootHash, leaf, nodeHashes, nodeOrientations)*/)\n\t\t{\n\t\t\tcontracts[_id].setState(3);\n\t\t\taddress(contracts[_id].client()).transfer(contracts[_id].collateralAmount());\n\t\t}\n\t\telse if (culpable == \"\" && timeDif(_id) <= 1314871 /*&& verify(rootHash, leaf, nodeHashes, nodeOrientations)*/) \n\t\t{\n\t\t\tcontracts[_id].setState(4);\n\t\t\taddress payable[] memory provs = contracts[_id].getProviders();\n\t\t\tfor (uint i = 0; i < provs.length; i++){\n\t\t\t\tprovs[i].transfer(contracts[_id].collateralAmount()/(provs.length + 1));\n\t\t\t}\n\t\t\taddress(contracts[_id].client()).transfer(contracts[_id].collateralAmount()/(provs.length + 1));\n\t\t}\n\t\telse\n\t\t{\n\t\t\treturn \"NOK\";\n\t\t}\n\t\tinvalidateContract(_id);\n\t\treturn \"OK\";\n\t}\n\n\t/* Function that calculates the time (in seconds) passed\n\t** since the last payment time for the specified contract.\n\t*/\n\tfunction timeDif(uint _id)\n\tpublic\n\tview \n\treturns(uint256)\n\t{\n\t\tuint256 duration = now - paymentTime[_id];\n\t\treturn duration;\n\t}\n\n\tfunction invalidateContract(uint _id)\n\tpublic\n\t{\n\t\taddress payable[] memory emptyArray;\n\t\tcontracts[_id].setProvider(emptyArray);\n\t\tcontracts[_id].setClient(0x0000000000000000000000000000000000000000);\n\t\tcontracts[_id].setRootHash(0);\n\t\tcontracts[_id].setPrice(0);\n\t\tcontracts[_id].setCollateralAmount(0);\n\t\tcontracts[_id].setStartTime(0);\n\t\tdelete contracts[_id];\n\t}\n\n\t// Function that makes the contract able to accept payments\n\tfunction () external payable {\n\n\t}\n\n}\n",
  "sourcePath": "/home/canagno/ethChain/truffle/contracts/Executor.sol",
  "compiler": {
    "name": "solc",
    "version": "0.5.0+commit.1d4f565a.Emscripten.clang"
  },
  "schemaVersion": "3.0.1",
  "updatedAt": "2019-04-13T19:39:30.655Z",
  "devdoc": {
    "methods": {}
  },
  "userdoc": {
    "methods": {}
  }
}