{
  "contractName": "HelloWorld2",
  "abi": [
    {
      "constant": true,
      "inputs": [],
      "name": "sayHello",
      "outputs": [
        {
          "name": "",
          "type": "bytes32"
        }
      ],
      "payable": false,
      "stateMutability": "pure",
      "type": "function"
    }
  ],
  "bytecode": "0x6080604052348015600f57600080fd5b5060c58061001e6000396000f3fe608060405260043610603f576000357c0100000000000000000000000000000000000000000000000000000000900463ffffffff168063ef5fb05b146044575b600080fd5b348015604f57600080fd5b506056606c565b6040518082815260200191505060405180910390f35b6000807f48656c6c6f20576f726c640000000000000000000000000000000000000000009050809150509056fea165627a7a72305820622897ecf294a852b8f8ea4e474c1c3313d455e42d37b954621ca374cf796fab0029",
  "source": "pragma solidity ^0.5.0;\n\ncontract HelloWorld2 {\n    function sayHello() \n\tpublic \n\tpure \n\treturns(bytes32)\n    {\n        bytes32 hello = \"Hello World\";\n\treturn hello;\n    }\n}\n",
  "sourcePath": "/home/canagno/ethChain/truffle/contracts/HelloWorld2.sol",
  "compiler": {
    "name": "solc",
    "version": "0.5.0+commit.1d4f565a.Emscripten.clang"
  },
  "schemaVersion": "3.0.1",
  "updatedAt": "2019-09-08T15:41:10.364Z",
  "devdoc": {
    "methods": {}
  },
  "userdoc": {
    "methods": {}
  }
}