{
  "contractName": "HelloWorld",
  "abi": [
    {
      "constant": true,
      "inputs": [],
      "name": "sayHello",
      "outputs": [
        {
          "name": "",
          "type": "bytes32"
        }
      ],
      "payable": false,
      "stateMutability": "pure",
      "type": "function"
    }
  ],
  "bytecode": "0x608060405234801561001057600080fd5b5060cd8061001f6000396000f300608060405260043610603f576000357c0100000000000000000000000000000000000000000000000000000000900463ffffffff168063ef5fb05b146044575b600080fd5b348015604f57600080fd5b5060566074565b60405180826000191660001916815260200191505060405180910390f35b6000807f48656c6c6f20576f726c64000000000000000000000000000000000000000000905080915050905600a165627a7a72305820b1c40e2e61ff417bcac146f251ce08207b7e967beb291501ec29f931ba7a19140029",
  "source": "pragma solidity ^0.4.23;\n\ncontract HelloWorld {\n    function sayHello() \n\tpublic \n\tpure \n\treturns(bytes32)\n    {\n        bytes32 hello = \"Hello World\";\n\treturn hello;\n    }\n}\n",
  "sourcePath": "/home/canagno/ethChain/truffle/contracts/HelloWorld.sol",
  "compiler": {
    "name": "solc",
    "version": "0.4.24+commit.e67f0147.Emscripten.clang"
  },
  "schemaVersion": "2.0.1",
  "updatedAt": "2018-12-16T12:44:08.127Z"
}