{
  "contractName": "ProviderRating",
  "abi": [
    {
      "inputs": [],
      "payable": false,
      "stateMutability": "nonpayable",
      "type": "constructor",
      "signature": "constructor"
    },
    {
      "constant": false,
      "inputs": [
        {
          "name": "_provider",
          "type": "address"
        }
      ],
      "name": "addProvider",
      "outputs": [
        {
          "name": "",
          "type": "bytes32"
        }
      ],
      "payable": false,
      "stateMutability": "nonpayable",
      "type": "function",
      "signature": "0x46e2577a"
    },
    {
      "constant": true,
      "inputs": [
        {
          "name": "_provider",
          "type": "address"
        }
      ],
      "name": "providerExists",
      "outputs": [
        {
          "name": "",
          "type": "bool"
        }
      ],
      "payable": false,
      "stateMutability": "view",
      "type": "function",
      "signature": "0xdfc03505"
    },
    {
      "constant": true,
      "inputs": [
        {
          "name": "_provider",
          "type": "address"
        }
      ],
      "name": "providerBlackListed",
      "outputs": [
        {
          "name": "",
          "type": "bool"
        }
      ],
      "payable": false,
      "stateMutability": "view",
      "type": "function",
      "signature": "0x5a120d2f"
    },
    {
      "constant": false,
      "inputs": [
        {
          "name": "_provider",
          "type": "address"
        }
      ],
      "name": "levelUpRating",
      "outputs": [],
      "payable": false,
      "stateMutability": "nonpayable",
      "type": "function",
      "signature": "0xb57e2ec0"
    },
    {
      "constant": false,
      "inputs": [
        {
          "name": "_provider",
          "type": "address"
        }
      ],
      "name": "levelDownRating",
      "outputs": [],
      "payable": false,
      "stateMutability": "nonpayable",
      "type": "function",
      "signature": "0x6dbb0c81"
    },
    {
      "constant": true,
      "inputs": [
        {
          "name": "_provider",
          "type": "address"
        }
      ],
      "name": "getRating",
      "outputs": [
        {
          "name": "_rating",
          "type": "uint8"
        }
      ],
      "payable": false,
      "stateMutability": "view",
      "type": "function",
      "signature": "0x80fc9c0e"
    }
  ],
  "bytecode": "0x608060405234801561001057600080fd5b50610752806100206000396000f3fe608060405260043610610078576000357c0100000000000000000000000000000000000000000000000000000000900463ffffffff16806346e2577a1461007d5780635a120d2f146100e25780636dbb0c811461014b57806380fc9c0e1461019c578063b57e2ec014610207578063dfc0350514610258575b600080fd5b34801561008957600080fd5b506100cc600480360360208110156100a057600080fd5b81019080803573ffffffffffffffffffffffffffffffffffffffff1690602001909291905050506102c1565b6040518082815260200191505060405180910390f35b3480156100ee57600080fd5b506101316004803603602081101561010557600080fd5b81019080803573ffffffffffffffffffffffffffffffffffffffff1690602001909291905050506103d6565b604051808215151515815260200191505060405180910390f35b34801561015757600080fd5b5061019a6004803603602081101561016e57600080fd5b81019080803573ffffffffffffffffffffffffffffffffffffffff169060200190929190505050610435565b005b3480156101a857600080fd5b506101eb600480360360208110156101bf57600080fd5b81019080803573ffffffffffffffffffffffffffffffffffffffff1690602001909291905050506105aa565b604051808260ff1660ff16815260200191505060405180910390f35b34801561021357600080fd5b506102566004803603602081101561022a57600080fd5b81019080803573ffffffffffffffffffffffffffffffffffffffff1690602001909291905050506105ff565b005b34801561026457600080fd5b506102a76004803603602081101561027b57600080fd5b81019080803573ffffffffffffffffffffffffffffffffffffffff1690602001909291905050506106c8565b604051808215151515815260200191505060405180910390f35b60006102cc826106c8565b1580156102df57506102dd826103d6565b155b156103645760036000808473ffffffffffffffffffffffffffffffffffffffff1673ffffffffffffffffffffffffffffffffffffffff16815260200190815260200160002060006101000a81548160ff021916908360ff1602179055507f4f4b00000000000000000000000000000000000000000000000000000000000090506103d1565b61036d826106c8565b1561039a577f457869737473000000000000000000000000000000000000000000000000000090506103d1565b6103a3826103d6565b156103d0577f426c61636b4c697374656400000000000000000000000000000000000000000090506103d1565b5b919050565b60008060ff16600160008473ffffffffffffffffffffffffffffffffffffffff1673ffffffffffffffffffffffffffffffffffffffff16815260200190815260200160002060009054906101000a900460ff1660ff1614159050919050565b60008060008373ffffffffffffffffffffffffffffffffffffffff1673ffffffffffffffffffffffffffffffffffffffff16815260200190815260200160002060009054906101000a900460ff1660ff161115610500576000808273ffffffffffffffffffffffffffffffffffffffff1673ffffffffffffffffffffffffffffffffffffffff168152602001908152602001600020600081819054906101000a900460ff16809291906001900391906101000a81548160ff021916908360ff160217905550506105a7565b6000808273ffffffffffffffffffffffffffffffffffffffff1673ffffffffffffffffffffffffffffffffffffffff16815260200190815260200160002060006101000a81549060ff021916905560018060008373ffffffffffffffffffffffffffffffffffffffff1673ffffffffffffffffffffffffffffffffffffffff16815260200190815260200160002060006101000a81548160ff021916908360ff1602179055505b50565b60008060008373ffffffffffffffffffffffffffffffffffffffff1673ffffffffffffffffffffffffffffffffffffffff16815260200190815260200160002060009054906101000a900460ff169050919050565b60056000808373ffffffffffffffffffffffffffffffffffffffff1673ffffffffffffffffffffffffffffffffffffffff16815260200190815260200160002060009054906101000a900460ff1660ff1610156106c5576000808273ffffffffffffffffffffffffffffffffffffffff1673ffffffffffffffffffffffffffffffffffffffff168152602001908152602001600020600081819054906101000a900460ff168092919060010191906101000a81548160ff021916908360ff160217905550505b50565b60008060ff166000808473ffffffffffffffffffffffffffffffffffffffff1673ffffffffffffffffffffffffffffffffffffffff16815260200190815260200160002060009054906101000a900460ff1660ff161415905091905056fea165627a7a7230582012a65f89b0ef155316c2574f258c23a03979500e448762d5fe8916a43ee216630029",
  "source": "pragma solidity ^0.5.0;\n\ncontract ProviderRating{\n\n\tmapping(address => uint8) private ratings;\n    mapping(address => uint8) private blackList;\n\n    constructor ()\n    public\n    {}\n\n    function addProvider(address payable _provider)\n\tpublic\n    returns (bytes32)\n\t{\n        if (!providerExists(_provider) && !providerBlackListed(_provider))\n        {\n\t\t    ratings[_provider] = 3;\n            return \"OK\";\n        }\n        else if (providerExists(_provider))\n            return \"Exists\";\n        else if (providerBlackListed(_provider))\n            return \"BlackListed\";\n    }\n\n    function providerExists(address payable _provider)\n    public\n    view\n    returns (bool)\n    {\n        return ratings[_provider] != uint8(0x0);\n    }\n\n    function providerBlackListed(address payable _provider)\n    public\n    view\n    returns (bool)\n    {\n        return blackList[_provider] != uint8(0x0);\n    }\n\n    function levelUpRating (address payable _provider)\n    public\n    {\n        if (ratings[_provider] < 5)\n            ratings[_provider]++;\n    }\n\n    function levelDownRating (address payable _provider)\n    public\n    {\n        if (ratings[_provider] > 0)\n            ratings[_provider]--;\n        else\n        {\n            delete ratings[_provider];\n            blackList[_provider] = 1;\n        }\n    }\n\n    function getRating (address payable _provider)\n    public\n    view\n    returns (uint8 _rating)\n    {\n        return ratings[_provider];\n    }\n}",
  "sourcePath": "/home/canagno/ethChain/truffle/contracts/ProviderRating.sol",
  "compiler": {
    "name": "solc",
    "version": "0.5.0+commit.1d4f565a.Emscripten.clang"
  },
  "schemaVersion": "3.0.1",
  "updatedAt": "2019-06-08T14:59:14.768Z",
  "devdoc": {
    "methods": {}
  },
  "userdoc": {
    "methods": {}
  }
}