{
  "contractName": "StorageProof",
  "abi": [
    {
      "constant": true,
      "inputs": [
        {
          "name": "rootHash",
          "type": "bytes32"
        },
        {
          "name": "leaf",
          "type": "bytes"
        },
        {
          "name": "nodeHashes",
          "type": "bytes32[]"
        },
        {
          "name": "nodeOrientations",
          "type": "bool[]"
        }
      ],
      "name": "verify",
      "outputs": [
        {
          "name": "",
          "type": "bool"
        }
      ],
      "payable": false,
      "stateMutability": "pure",
      "type": "function",
      "signature": "0x1e716f6d"
    }
  ],
  "bytecode": "0x6103cf610030600b82828239805160001a6073146000811461002057610022565bfe5b5030600052607381538281f3fe7300000000000000000000000000000000000000003014608060405260043610610058576000357c0100000000000000000000000000000000000000000000000000000000900463ffffffff1680631e716f6d1461005d575b600080fd5b6102486004803603608081101561007357600080fd5b81019080803590602001909291908035906020019064010000000081111561009a57600080fd5b8201836020820111156100ac57600080fd5b803590602001918460018302840111640100000000831117156100ce57600080fd5b91908080601f016020809104026020016040519081016040528093929190818152602001838380828437600081840152601f19601f8201169050808301925050505050505091929192908035906020019064010000000081111561013157600080fd5b82018360208201111561014357600080fd5b8035906020019184602083028401116401000000008311171561016557600080fd5b919080806020026020016040519081016040528093929190818152602001838360200280828437600081840152601f19601f820116905080830192505050505050509192919290803590602001906401000000008111156101c557600080fd5b8201836020820111156101d757600080fd5b803590602001918460208302840111640100000000831117156101f957600080fd5b919080806020026020016040519081016040528093929190818152602001838360200280828437600081840152601f19601f820116905080830192505050505050509192919290505050610262565b604051808215151515815260200191505060405180910390f35b6000808351148061027557508151835114155b156102835760009050610387565b600084805190602001209050606060206002026040519080825280601f01601f1916602001820160405280156102c85781602001600182028038833980820191505090505b50905060006102d68261038f565b905060008090505b865181101561037d5785818151811015156102f557fe5b90602001906020020151156103375761032582888381518110151561031657fe5b9060200190602002015161039c565b610332602083018561039c565b610366565b610341828561039c565b61036560208301888381518110151561035657fe5b9060200190602002015161039c565b5b8280519060200120935080806001019150506102de565b5087831493505050505b949350505050565b6000602082019050919050565b808252505056fea165627a7a723058206600d5b8eb5b3899d3f4d1cc02e3722a7ea4c23a40b5f73fc08c31986ae76c9d0029",
  "source": "pragma solidity ^0.5.0;\n\n// Provides a Merkle Tree Proof Verification implementation.\n//\n// The Merkle Tree is assumed to be using the `keccak256` hash algorithm.\nlibrary StorageProof {\n\n    // Size of a hash digest, in bytes.\n    uint internal constant HASH_DIGEST_SIZE = 32;\n\n    // Verifies a Merkle Tree Proof.\n    function verify(\n        bytes32 rootHash,\n        bytes memory leaf,\n        bytes32[] memory nodeHashes,\n        bool[] memory nodeOrientations\n    )\n        public\n        pure\n        returns (bool)\n    {\n        if ((nodeHashes.length == 0) ||\n            (nodeHashes.length != nodeOrientations.length)) {\n            return false;\n        }\n\n        // Calculate the hash digest of the leaf node.\n        bytes32 curHash = keccak256(leaf);\n\n        bytes memory buffer = new bytes(2 * HASH_DIGEST_SIZE);\n\n        uint bufAddr = dataPtr(buffer);\n\n        // Verify that the given Merkle Tree Proof is valid\n        // and leads to the provided `rootHash`.\n        for (uint i = 0; i < nodeHashes.length; i++) {\n            if (nodeOrientations[i]) {\n                // This is a left child node.\n                copyBytes32(bufAddr, nodeHashes[i]);\n                copyBytes32(bufAddr + HASH_DIGEST_SIZE, curHash);\n            } else {\n                // This is a right child node.\n                copyBytes32(bufAddr, curHash);\n                copyBytes32(bufAddr + HASH_DIGEST_SIZE, nodeHashes[i]);\n            }\n\n            curHash = keccak256(buffer);\n        }\n\n        return (curHash == rootHash);\n    }\n\n    // Copies `bts` to the memory location pointer by `dst`.\n    function copyBytes32(uint dst, bytes32 bts) internal pure {\n        assembly {\n            mstore(dst, bts)\n        }\n    }\n\n    // Returns the memory address of the data portion of `bts`.\n    //\n    // Ref:\n    //      https://github.com/ethereum/solidity-examples/blob/master/src/unsafe/Memory.sol\n    function dataPtr(bytes memory bts) internal pure returns (uint addr) {\n        assembly {\n            addr := add(bts, /* BYTES_HEADER_SIZE */ 32)\n        }\n    }\n}\n",
  "sourcePath": "/home/canagno/ethChain/truffle/contracts/storage-proof.sol",
  "compiler": {
    "name": "solc",
    "version": "0.5.0+commit.1d4f565a.Emscripten.clang"
  },
  "schemaVersion": "3.0.1",
  "updatedAt": "2019-03-03T16:01:01.281Z",
  "devdoc": {
    "methods": {}
  },
  "userdoc": {
    "methods": {}
  }
}