{
  "contractName": "StorageProof",
  "abi": [
    {
      "constant": true,
      "inputs": [
        {
          "name": "root",
          "type": "bytes32"
        },
        {
          "name": "leaf",
          "type": "string"
        },
        {
          "name": "proof",
          "type": "bytes32[]"
        }
      ],
      "name": "verify2",
      "outputs": [
        {
          "name": "",
          "type": "bool"
        }
      ],
      "payable": false,
      "stateMutability": "pure",
      "type": "function",
      "signature": "0x6c607f42"
    },
    {
      "constant": true,
      "inputs": [
        {
          "name": "rootHash",
          "type": "bytes32"
        },
        {
          "name": "leaf",
          "type": "bytes"
        },
        {
          "name": "nodeHashes",
          "type": "bytes32[]"
        },
        {
          "name": "nodeOrientations",
          "type": "bool[]"
        }
      ],
      "name": "verify",
      "outputs": [
        {
          "name": "",
          "type": "bool"
        }
      ],
      "payable": false,
      "stateMutability": "pure",
      "type": "function",
      "signature": "0x1e716f6d"
    }
  ],
  "bytecode": "0x61067b610030600b82828239805160001a6073146000811461002057610022565bfe5b5030600052607381538281f3fe7300000000000000000000000000000000000000003014608060405260043610610063576000357c0100000000000000000000000000000000000000000000000000000000900463ffffffff1680631e716f6d146100685780636c607f421461026d575b600080fd5b6102536004803603608081101561007e57600080fd5b8101908080359060200190929190803590602001906401000000008111156100a557600080fd5b8201836020820111156100b757600080fd5b803590602001918460018302840111640100000000831117156100d957600080fd5b91908080601f016020809104026020016040519081016040528093929190818152602001838380828437600081840152601f19601f8201169050808301925050505050505091929192908035906020019064010000000081111561013c57600080fd5b82018360208201111561014e57600080fd5b8035906020019184602083028401116401000000008311171561017057600080fd5b919080806020026020016040519081016040528093929190818152602001838360200280828437600081840152601f19601f820116905080830192505050505050509192919290803590602001906401000000008111156101d057600080fd5b8201836020820111156101e257600080fd5b8035906020019184602083028401116401000000008311171561020457600080fd5b919080806020026020016040519081016040528093929190818152602001838360200280828437600081840152601f19601f8201169050808301925050505050505091929192905050506103de565b604051808215151515815260200191505060405180910390f35b6103c46004803603606081101561028357600080fd5b8101908080359060200190929190803590602001906401000000008111156102aa57600080fd5b8201836020820111156102bc57600080fd5b803590602001918460018302840111640100000000831117156102de57600080fd5b91908080601f016020809104026020016040519081016040528093929190818152602001838380828437600081840152601f19601f8201169050808301925050505050505091929192908035906020019064010000000081111561034157600080fd5b82018360208201111561035357600080fd5b8035906020019184602083028401116401000000008311171561037557600080fd5b919080806020026020016040519081016040528093929190818152602001838360200280828437600081840152601f19601f82011690508083019250505050505050919291929050505061050b565b604051808215151515815260200191505060405180910390f35b600080835114806103f157508151835114155b156103ff5760009050610503565b600084805190602001209050606060206002026040519080825280601f01601f1916602001820160405280156104445781602001600182028038833980820191505090505b50905060006104528261063b565b905060008090505b86518110156104f957858181518110151561047157fe5b90602001906020020151156104b3576104a182888381518110151561049257fe5b90602001906020020151610648565b6104ae6020830185610648565b6104e2565b6104bd8285610648565b6104e16020830188838151811015156104d257fe5b90602001906020020151610648565b5b82805190602001209350808060010191505061045a565b5087831493505050505b949350505050565b600080836040516020018082805190602001908083835b6020831015156105475780518252602082019150602081019050602083039250610522565b6001836020036101000a03801982511681845116808217855250505050505090500191505060405160208183030381529060405280519060200120905060008090505b835181101561062d57600084828151811015156105a357fe5b906020019060200201519050808310156105ed578281604051602001808381526020018281526020019250505060405160208183030381529060405280519060200120925061061f565b808360405160200180838152602001828152602001925050506040516020818303038152906040528051906020012092505b50808060010191505061058a565b508481149150509392505050565b6000602082019050919050565b808252505056fea165627a7a7230582072b3fedd74b7844062e977394ccebba8cbe2a8f51d483be85e8e79c0d64aff7a0029",
  "source": "pragma solidity ^0.5.0;\n\n// Provides a Merkle Tree Proof Verification implementation.\n//\n// The Merkle Tree is assumed to be using the `keccak256` hash algorithm.\nlibrary StorageProof {\n\n    // Size of a hash digest, in bytes.\n    uint internal constant HASH_DIGEST_SIZE = 32;\n\n    function verify2(bytes32 root, string memory leaf, bytes32[] memory proof)\n    public\n    pure\n    returns (bool)\n    {\n        bytes32 computedHash = keccak256(abi.encodePacked(leaf));\n\n        for (uint256 i = 0; i < proof.length; i++) {\n        bytes32 proofElement = proof[i];\n\n        if (computedHash < proofElement) {\n            // Hash(current computed hash + current element of the proof)\n            computedHash = keccak256(abi.encodePacked(computedHash, proofElement));\n        } else {\n            // Hash(current element of the proof + current computed hash)\n            computedHash = keccak256(abi.encodePacked(proofElement, computedHash));\n        }\n        }\n\n        // Check if the computed hash (root) is equal to the provided root\n        return computedHash == root;\n    }\n\n\n\n\n    // Verifies a Merkle Tree Proof.\n    function verify(bytes32 rootHash, bytes memory leaf, bytes32[] memory nodeHashes, bool[] memory nodeOrientations)\n    public\n    pure\n    returns (bool)\n    {\n        if ((nodeHashes.length == 0) ||\n            (nodeHashes.length != nodeOrientations.length)) {\n            return false;\n        }\n\n        // Calculate the hash digest of the leaf node.\n        bytes32 curHash = keccak256(leaf);\n\n        bytes memory buffer = new bytes(2 * HASH_DIGEST_SIZE);\n\n        uint bufAddr = dataPtr(buffer);\n\n        // Verify that the given Merkle Tree Proof is valid\n        // and leads to the provided `rootHash`.\n        for (uint i = 0; i < nodeHashes.length; i++) {\n            if (nodeOrientations[i]) {\n                // This is a left child node.\n                copyBytes32(bufAddr, nodeHashes[i]);\n                copyBytes32(bufAddr + HASH_DIGEST_SIZE, curHash);\n            } else {\n                // This is a right child node.\n                copyBytes32(bufAddr, curHash);\n                copyBytes32(bufAddr + HASH_DIGEST_SIZE, nodeHashes[i]);\n            }\n\n            curHash = keccak256(buffer);\n        }\n\n        return (curHash == rootHash);\n    }\n\n    // Copies `bts` to the memory location pointer by `dst`.\n    function copyBytes32(uint dst, bytes32 bts) internal pure {\n        assembly{\n            mstore(dst, bts)\n        }\n    }\n\n    // Returns the memory address of the data portion of `bts`.\n    //\n    // Ref:\n    //      https://github.com/ethereum/solidity-examples/blob/master/src/unsafe/Memory.sol\n    function dataPtr(bytes memory bts) internal pure returns (uint addr) {\n        assembly{\n            addr := add(bts, /* BYTES_HEADER_SIZE */ 32)\n        }\n    }\n}\n",
  "sourcePath": "/home/canagno/ethChain/truffle/contracts/storage-proof.sol",
  "compiler": {
    "name": "solc",
    "version": "0.5.0+commit.1d4f565a.Emscripten.clang"
  },
  "schemaVersion": "3.0.1",
  "updatedAt": "2019-12-28T12:55:54.922Z",
  "devdoc": {
    "methods": {}
  },
  "userdoc": {
    "methods": {}
  }
}