{
  "contractName": "StorageProof",
  "abi": [
    {
      "constant": true,
      "inputs": [
        {
          "name": "root",
          "type": "bytes32"
        },
        {
          "name": "leaf",
          "type": "bytes32"
        },
        {
          "name": "proof",
          "type": "bytes32[]"
        }
      ],
      "name": "verify2",
      "outputs": [
        {
          "name": "",
          "type": "bool"
        }
      ],
      "payable": false,
      "stateMutability": "pure",
      "type": "function",
      "signature": "0xbb8fb36b"
    },
    {
      "constant": true,
      "inputs": [
        {
          "name": "rootHash",
          "type": "bytes32"
        },
        {
          "name": "leaf",
          "type": "bytes"
        },
        {
          "name": "nodeHashes",
          "type": "bytes32[]"
        },
        {
          "name": "nodeOrientations",
          "type": "bool[]"
        }
      ],
      "name": "verify",
      "outputs": [
        {
          "name": "",
          "type": "bool"
        }
      ],
      "payable": false,
      "stateMutability": "pure",
      "type": "function",
      "signature": "0x1e716f6d"
    }
  ],
  "bytecode": "0x61057b610030600b82828239805160001a6073146000811461002057610022565bfe5b5030600052607381538281f3fe7300000000000000000000000000000000000000003014608060405260043610610063576000357c0100000000000000000000000000000000000000000000000000000000900463ffffffff1680631e716f6d14610068578063bb8fb36b1461026d575b600080fd5b6102536004803603608081101561007e57600080fd5b8101908080359060200190929190803590602001906401000000008111156100a557600080fd5b8201836020820111156100b757600080fd5b803590602001918460018302840111640100000000831117156100d957600080fd5b91908080601f016020809104026020016040519081016040528093929190818152602001838380828437600081840152601f19601f8201169050808301925050505050505091929192908035906020019064010000000081111561013c57600080fd5b82018360208201111561014e57600080fd5b8035906020019184602083028401116401000000008311171561017057600080fd5b919080806020026020016040519081016040528093929190818152602001838360200280828437600081840152601f19601f820116905080830192505050505050509192919290803590602001906401000000008111156101d057600080fd5b8201836020820111156101e257600080fd5b8035906020019184602083028401116401000000008311171561020457600080fd5b919080806020026020016040519081016040528093929190818152602001838360200280828437600081840152601f19601f820116905080830192505050505050509192919290505050610351565b604051808215151515815260200191505060405180910390f35b6103376004803603606081101561028357600080fd5b810190808035906020019092919080359060200190929190803590602001906401000000008111156102b457600080fd5b8201836020820111156102c657600080fd5b803590602001918460208302840111640100000000831117156102e857600080fd5b919080806020026020016040519081016040528093929190818152602001838360200280828437600081840152601f19601f82011690508083019250505050505050919291929050505061047e565b604051808215151515815260200191505060405180910390f35b6000808351148061036457508151835114155b156103725760009050610476565b600084805190602001209050606060206002026040519080825280601f01601f1916602001820160405280156103b75781602001600182028038833980820191505090505b50905060006103c58261053b565b905060008090505b865181101561046c5785818151811015156103e457fe5b90602001906020020151156104265761041482888381518110151561040557fe5b90602001906020020151610548565b6104216020830185610548565b610455565b6104308285610548565b61045460208301888381518110151561044557fe5b90602001906020020151610548565b5b8280519060200120935080806001019150506103cd565b5087831493505050505b949350505050565b60008083905060008090505b835181101561052d57600084828151811015156104a357fe5b906020019060200201519050808310156104ed578281604051602001808381526020018281526020019250505060405160208183030381529060405280519060200120925061051f565b808360405160200180838152602001828152602001925050506040516020818303038152906040528051906020012092505b50808060010191505061048a565b508481149150509392505050565b6000602082019050919050565b808252505056fea165627a7a72305820b25cf648daff08d3362e2cd189dfc981678adc4e23e7f1584e59f73273f860780029",
  "source": "pragma solidity ^0.5.0;\n\n// Provides a Merkle Tree Proof Verification implementation.\n//\n// The Merkle Tree is assumed to be using the `keccak256` hash algorithm.\nlibrary StorageProof {\n\n    // Size of a hash digest, in bytes.\n    uint internal constant HASH_DIGEST_SIZE = 32;\n\n    function verify2(bytes32 root, bytes32 leaf, bytes32[] memory proof)\n    public\n    pure\n    returns (bool)\n    {\n        bytes32 computedHash = leaf;\n\n        for (uint256 i = 0; i < proof.length; i++) {\n        bytes32 proofElement = proof[i];\n\n        if (computedHash < proofElement) {\n            // Hash(current computed hash + current element of the proof)\n            computedHash = keccak256(abi.encodePacked(computedHash, proofElement));\n        } else {\n            // Hash(current element of the proof + current computed hash)\n            computedHash = keccak256(abi.encodePacked(proofElement, computedHash));\n        }\n        }\n\n        // Check if the computed hash (root) is equal to the provided root\n        return computedHash == root;\n    }\n\n\n\n\n    // Verifies a Merkle Tree Proof.\n    function verify(bytes32 rootHash, bytes memory leaf, bytes32[] memory nodeHashes, bool[] memory nodeOrientations)\n    public\n    pure\n    returns (bool)\n    {\n        if ((nodeHashes.length == 0) ||\n            (nodeHashes.length != nodeOrientations.length)) {\n            return false;\n        }\n\n        // Calculate the hash digest of the leaf node.\n        bytes32 curHash = keccak256(leaf);\n\n        bytes memory buffer = new bytes(2 * HASH_DIGEST_SIZE);\n\n        uint bufAddr = dataPtr(buffer);\n\n        // Verify that the given Merkle Tree Proof is valid\n        // and leads to the provided `rootHash`.\n        for (uint i = 0; i < nodeHashes.length; i++) {\n            if (nodeOrientations[i]) {\n                // This is a left child node.\n                copyBytes32(bufAddr, nodeHashes[i]);\n                copyBytes32(bufAddr + HASH_DIGEST_SIZE, curHash);\n            } else {\n                // This is a right child node.\n                copyBytes32(bufAddr, curHash);\n                copyBytes32(bufAddr + HASH_DIGEST_SIZE, nodeHashes[i]);\n            }\n\n            curHash = keccak256(buffer);\n        }\n\n        return (curHash == rootHash);\n    }\n\n    // Copies `bts` to the memory location pointer by `dst`.\n    function copyBytes32(uint dst, bytes32 bts) internal pure {\n        assembly{\n            mstore(dst, bts)\n        }\n    }\n\n    // Returns the memory address of the data portion of `bts`.\n    //\n    // Ref:\n    //      https://github.com/ethereum/solidity-examples/blob/master/src/unsafe/Memory.sol\n    function dataPtr(bytes memory bts) internal pure returns (uint addr) {\n        assembly{\n            addr := add(bts, /* BYTES_HEADER_SIZE */ 32)\n        }\n    }\n}\n",
  "sourcePath": "/home/canagno/ethChain/truffle/contracts/storage-proof.sol",
  "compiler": {
    "name": "solc",
    "version": "0.5.0+commit.1d4f565a.Emscripten.clang"
  },
  "schemaVersion": "3.0.1",
  "updatedAt": "2019-09-15T16:34:07.343Z",
  "devdoc": {
    "methods": {}
  },
  "userdoc": {
    "methods": {}
  }
}